:020000040000FA
:0400000070EF06F0A7
:10080000004269656E76656E69646F730000156EEF
:100810008C968C8415C013F0070E146E13341332AB
:10082000142E0EEF04F0010E1316133213328C50F7
:1008300013187F0B13188C6E15C013F0060E146E70
:1008400013341332142E20EF04F0010E1316133A52
:10085000134613468C501318BF0B13188C6E15C01B
:1008600013F0050E146E13341332142E33EF04F00C
:10087000010E1316133A13468C501318DF0B13187E
:100880008C6E15C013F0040E146E13341332142E34
:1008900045EF04F0010E1316133A8C501318EF0BAA
:1008A00013188C6E030EE82EFED700F08C86050E12
:1008B000E82EFED78C9615C013F0030E146E133479
:1008C0001332142E5FEF04F0010E1316133213329D
:1008D0008C5013187F0B13188C6E15C013F0133443
:1008E000133213341332010E1316133A1346134600
:1008F0008C501318BF0B13188C6E15C013F0010E1B
:10090000146E13341332142E81EF04F0010E1316FB
:10091000133A13468C501318DF0B13188C6E15C046
:1009200013F0010E1316133A8C501318EF0B131813
:100930008C6E030EE82EFED700F08C86050EE82E96
:10094000FED78C96050EE82EFED7160E136E6C0E93
:10095000E82EFED7132EFCD700D01200156E8C9611
:100960008C94136A15AE01D0132A010E131613329C
:1009700013328C5013187F0B13188C6E15C013F0A4
:10098000060E146ED8901332142EC2EF04F0010E2E
:100990001316133A134613468C501318BF0B131833
:1009A0008C6E15C013F0050E146ED8901332142EF1
:1009B000D5EF04F0010E1316133A13468C5013189A
:1009C000DF0B13188C6E15C013F0133A0F0E1316AD
:1009D000010E1316133A8C501318EF0B13188C6E6C
:1009E000030EE82EFED700F08C86050EE82EFED70B
:1009F0008C9615C013F0D8901332D8901332D8903B
:100A00001332010E1316133213328C5013187F0B4E
:100A100013188C6E15C013F0D8901332D89013327F
:100A2000010E1316133A134613468C501318BF0BBE
:100A300013188C6E15C013F0D8901332010E1316D4
:100A4000133A13468C501318DF0B13188C6E15C015
:100A500013F0010E1316133A8C501318EF0B1318E2
:100A60008C6E030EE82EFED700F08C86050EE82E65
:100A7000FED78C96160E136E6C0EE82EFED7132E34
:100A8000FCD700D01200959E959C959A95989596C6
:100A90009594850E166E760EE82EFED7162EFCD790
:100AA00000D0000E176E8C9E8C9C8C8A8C888C9645
:100AB0008C948C9E8C9C8C8A8C888C868C94050E55
:100AC000E82EFED78C9E8C9C8C8A8C888C968C947D
:100AD000160E166E6C0EE82EFED7162EFCD700D022
:100AE000172A030E176477EF05F079EF05F053EF3F
:100AF00005F08C9E8C9C8C8A8C988C968C948C9E09
:100B00008C9C8C8A8C988C868C94050EE82EFED753
:100B10008C9E8C9C8C8A8C988C968C94160E166E5F
:100B20006C0EE82EFED7162EFCD700D0280EAEECA9
:100B300004F0100EAEEC04F0010EAEEC04F00F0E5B
:100B4000AEEC04F012001B6EBAEF05F01650800FE9
:100B50001C6ED7EF05F01650C00F1C6ED7EF05F0D6
:100B60001650940F1C6ED7EF05F01650D40F1C6E64
:100B7000D7EF05F01B50196E1A6A1A50000AD8B444
:100B8000C4EF05F0D7EF05F01950010AD8B4A6EF6D
:100B900005F0030AD8B4ABEF05F0010AD8B4B0EF02
:100BA00005F0070AD8B4B5EF05F0D7EF05F01C50F3
:100BB000AEEC04F0E6EF05F017C0F6FF18C0F7FF43
:100BC0000800F55007EC04F0174A182A17C0F6FF82
:100BD00018C0F7FF0800F5500009D8A4F2EF05F09F
:100BE000F4EF05F0DCEF05F0120043EC05F0010E28
:100BF000AEEC04F00C0EAEEC04F0020E1E6E860E8F
:100C00001D6E990EE82EFED71D2EFCD71E2EFAD78C
:100C100000F0000E166E010E176E080E186E010E13
:100C2000A3EC05F0100E1E6E390E1D6E0E0EE82E92
:100C3000FED71D2EFCD71E2EFAD7010EAEEC04F007
:100C4000020E1E6E860E1D6E990EE82EFED71D2E0C
:100C5000FCD71E2EFAD700F0020E37EC06F07BEC24
:100C600006F05BEC06F031EF06F000EF00F0146EDA
:100C70001450D8A43EEF06F040EF06F046EF06F021
:100C8000C150F00B0E09C16E4EEF06F014500F0864
:100C9000136EC1501318F00B1318C16ECF0EC1168E
:100CA000C050C70B1009C06EC050F80B0309C06ECE
:100CB000C08EC28012009392000ED76E140ED66EB4
:100CC000F294D58E65EF06F08A82F2A46AEF06F000
:100CD0006CEF06F064EF06F08A92F294D59E120053
:100CE00000EE01F0120EEE6AE806FDE1000EF86E6D
:100CF0000001F5EF05F0D58CD59AD596070ED512E3
:0A0D0000000ED76EEB0ED66E120047
:020000040020DA
:08000000FFFFFFFFFFFFFFFF00
:020000040030CA
:0E000000000C191EFF8181FF0FC00FE00F40A2
:00000001FF
