:020000040000FA
:0400000061EF0CF0B0
:10080000004269656E76656E69646F7300414443AA
:10081000313A256400414443323A256400001EC049
:1008200036F01FC037F020C038F021C039F022C0A8
:100830003AF023C03BF024C03CF025C03DF03DBE63
:1008400024EF04F027EF04F0010E28EF04F0000E6F
:10085000346E356A34503510D8B431EF04F033EFCC
:1008600004F043EF04F03D1E3C1E3B1E3A1E391EB1
:10087000381E371E366C000E3722382239223A22B3
:100880003B223C223D22000165BF49EF04F04BEFC3
:1008900004F04CEF04F0669365BF59EF04F0655126
:1008A00006E16405D8B057EF04F059EF04F05FEFAC
:1008B00004F0000E316E010E306E63EF04F064C080
:1008C00030F065C031F062C032F063C033F03450B4
:1008D0003510D8A46EEF04F070EF04F077EF04F059
:1008E00066A575EF04F077EF04F07AEF04F03206B6
:1008F000D8A03306000E3F6E1F0E3E6E000E896FAD
:10090000FEEF04F03E06D8A03F066A0E3E24D96EE4
:10091000000E3F20DA6E36C001F037C002F038C05A
:1009200003F039C004F03AC005F03BC006F03CC00B
:1009300007F03DC008F00A0E096E000E0A6E000EA8
:100940000B6E000E0C6E000E0D6E000E0E6E000E85
:100950000F6E000E106E1EEC07F001C026F002C0F4
:1009600027F003C028F004C029F005C02AF006C013
:100970002BF007C02CF008C02DF026C013F028C0C3
:1009800014F008EC0CF01350300FDF6E3006D8A0D6
:1009900031063206D8A0330636C001F037C002F067
:1009A00038C003F039C004F03AC005F03BC006F08F
:1009B0003CC007F03DC008F00A0E096E000E0A6E3A
:1009C000000E0B6E000E0C6E000E0D6E000E0E6E05
:1009D000000E0F6E000E106E5AEC06F001C036F0DD
:1009E00002C037F003C038F004C039F005C03AF057
:1009F00006C03BF007C03CF008C03DF03FBE09EF29
:100A000005F03F5008E13E04D8A009EF05F00BEFD8
:100A100005F03CEF05F036503710381039103A1019
:100A20003B103C103D10D8A418EF05F01AEF05F06C
:100A300082EF04F031BE27EF05F0315006E13004BB
:100A4000D8B025EF05F027EF05F082EF04F033BEB4
:100A500032EF05F0335008E13204D8A032EF05F050
:100A600034EF05F03CEF05F0000166B33AEF05F016
:100A70003CEF05F082EF04F034503510D8A443EF7A
:100A800005F045EF05F04DEF05F0000166A54BEFD1
:100A900005F04DEF05F06BEF05F03E06D8A03F06E0
:100AA00034503510D8A457EF05F059EF05F05FEF3B
:100AB00005F0000E2F6E2B0E2E6E63EF05F0000E6C
:100AC0002F6E2D0E2E6E6A0E3E24D96E000E3F2024
:100AD000DA6E2EC0DFFF1CC011F01DC012F06A0ECE
:100AE0003E24136E000E3F20146E32C015F033C04A
:100AF00016F004EC0AF011C01CF012C01DF0120038
:100B000042C0D9FF43C0DAFFDECFF6FFDDCFF7FFEB
:100B10000800F550250AD8A490EF05F092EF05F0F3
:100B20003EEF06F042C0D9FF43C0DAFFDE2A000ED6
:100B3000DD22000E0001636F000E626F62C066F07E
:100B400063C067F06469656942C0D9FF43C0DAFFDA
:100B5000DECFF6FFDDCFF7FF0800F550640AD8B40A
:100B6000B4EF05F0B6EF05F0C8EF05F042C0D9FFCD
:100B700043C0DAFFDECFF6FFDDCFF7FF0800F55008
:100B8000690AD8A4C6EF05F0C8EF05F008EF06F033
:100B900042C0D9FF43C0DAFFDE2A000EDD2244C086
:100BA000D9FF45C0DAFFDFCF46F0020EDE26DFCFE9
:100BB00047F0000EDD2246C0D9FF47C0DAFFDECF86
:100BC00048F0DDCF49F0000E49BEFF0E4A6E4B6E75
:100BD0004C6E4D6E4E6E4F6E40C01CF041C01DF00D
:100BE00048C01EF049C01FF04AC020F04BC021F0A1
:100BF0004CC022F04DC023F04EC024F04FC025F071
:100C00000FEC04F01CC040F01DC041F059EF06F09D
:100C100042C0D9FF43C0DAFFDECFF6FFDDCFF7FFDA
:100C20000800F550250AD8A418EF06F01AEF06F0D0
:100C300031EF06F042C0D9FF43C0DAFFDE2A000ED2
:100C4000DD22000E026E250E016E40C003F041C091
:100C500004F09FEC09F0000E416E010E406E59EF5A
:100C600006F042C0D9FF43C0DAFFDE2A000EDD22C3
:100C7000000E416E000E406E59EF06F042C0D9FFE3
:100C800043C0DAFFDECFF6FFDDCFF7FF0800F550F7
:100C9000016E026A40C003F041C004F09FEC09F00D
:100CA00042C0D9FF43C0DAFFDE2A000EDD222BEF5F
:100CB00006F01200000E126E10BE63EF06F061EF38
:100CC00006F075EF06F0101E0F1E0E1E0D1E0C1EF8
:100CD0000B1E0A1E096C000E0A220B220C220D228A
:100CE0000E220F221022010E126E08BE7CEF06F0BB
:100CF0007AEF06F08EEF06F0081E071E061E051E90
:100D0000041E031E021E016C000E02220322042296
:100D10000522062207220822010E121A20EE13F0E5
:100D2000070EDE6AE806FDE209500A100B100C10EF
:100D30000D100E100F101010D8B4A1EF06F0A3EF95
:100D400006F0F5EF06F0010E116EB1EF06F0D89047
:100D500009360A360B360C360D360E360F3610367F
:100D6000112A10AEB6EF06F0B8EF06F0A7EF06F0C6
:100D7000D8901336143615361636173618361936F7
:100D80001A360950015C0A5002580B5003580C5097
:100D900004580D5005580E5006580F500758105063
:100DA0000858D8A0D6EF06F0D8EF06F0E9EF06F025
:100DB0000950015E0A50025A0B50035A0C50045A53
:100DC0000D50055A0E50065A0F50075A1050085A27
:100DD0001380D89010320F320E320D320C320B329B
:100DE0000A320932112EB8EF06F01250D8B4FBEFD8
:100DF00006F0FDEF06F00DEF07F01A1E191E181E83
:100E0000171E161E151E141E136C000E142215221A
:100E100016221722182219221A2213C001F014C018
:100E200002F015C003F016C004F017C005F018C09A
:100E300006F019C007F01AC008F01200000E126E7A
:100E400008BE27EF07F025EF07F039EF07F0081E7F
:100E5000071E061E051E041E031E021E016C000E48
:100E60000222032204220522062207220822010E62
:100E7000126E10BE40EF07F03EEF07F050EF07F0A4
:100E8000101E0F1E0E1E0D1E0C1E0B1E0A1E096CC0
:100E9000000E0A220B220C220D220E220F221022FB
:100EA00009500A100B100C100D100E100F1010101E
:100EB000D8B45DEF07F05FEF07F0A7EF07F0010E82
:100EC000116E6DEF07F0D89009360A360B360C36E6
:100ED0000D360E360F361036112A10AE72EF07F0AF
:100EE00074EF07F063EF07F00950015C0A500258F5
:100EF0000B5003580C5004580D5005580E5006580E
:100F00000F50075810500858D8A089EF07F08BEF02
:100F100007F09BEF07F00950015E0A50025A0B5090
:100F2000035A0C50045A0D50055A0E50065A0F50D1
:100F3000075A1050085AD89010320F320E320D3224
:100F40000C320B320A320932112E74EF07F01250B4
:100F5000D8B4ADEF07F0AFEF07F0BFEF07F0081E12
:100F6000071E061E051E041E031E021E016C000E37
:100F7000022203220422052206220722082201C09F
:100F800001F002C002F003C003F004C004F005C089
:100F900005F006C006F007C007F008C008F0120010
:100FA000036E8C968C8403C001F0070E026E013430
:100FB0000132022ED7EF07F0010E01160132013285
:100FC0008C5001187F0B01188C6E03C001F0060EC7
:100FD000026E01340132022EE9EF07F0010E011614
:100FE000013A014601468C500118BF0B01188C6E66
:100FF00003C001F0050E026E01340132022EFCEF37
:1010000007F0010E0116013A01468C500118DF0B62
:1010100001188C6E03C001F0040E026E013401321F
:10102000022E0EEF08F0010E0116013A8C50011845
:10103000EF0B01188C6E030EE82EFED700F08C86A5
:10104000050EE82EFED78C9603C001F0030E026E4B
:1010500001340132022E28EF08F0010E0116013290
:1010600001328C5001187F0B01188C6E03C001F007
:101070000134013201340132010E0116013A0146F8
:1010800001468C500118BF0B01188C6E03C001F093
:10109000010E026E01340132022E4AEF08F0010EF9
:1010A0000116013A01468C500118DF0B01188C6EB5
:1010B00003C001F0010E0116013A8C500118EF0B2C
:1010C00001188C6E030EE82EFED700F08C86050EFC
:1010D000E82EFED78C96050EE82EFED7160E016E72
:1010E0006C0EE82EFED7012EFCD700D01200036E46
:1010F0008C968C94016A03AE01D0012A010E011670
:10110000013201328C5001187F0B01188C6E03C024
:1011100001F0060E026ED8900132022E8BEF08F01D
:10112000010E0116013A014601468C500118BF0B11
:1011300001188C6E03C001F0050E026ED8900132CA
:10114000022E9EEF08F0010E0116013A01468C5066
:101150000118DF0B01188C6E03C001F0013A0F0E6D
:101160000116010E0116013A8C500118EF0B0118FF
:101170008C6E030EE82EFED700F08C86050EE82E4E
:10118000FED78C9603C001F0D8900132D89001327E
:10119000D8900132010E0116013201328C50011833
:1011A0007F0B01188C6E03C001F0D8900132D890EB
:1011B0000132010E0116013A014601468C50011818
:1011C000BF0B01188C6E03C001F0D8900132010EE4
:1011D0000116013A01468C500118DF0B01188C6E84
:1011E00003C001F0010E0116013A8C500118EF0BFB
:1011F00001188C6E030EE82EFED700F08C86050ECB
:10120000E82EFED78C96160E016E6C0EE82EFED7D9
:10121000012EFCD700D0120000F067EC0AF0010E9E
:1012200077EC08F00C0E77EC08F0020E5F6E860E7D
:101230005E6E990EE82EFED75E2EFCD75F2EFAD793
:1012400000F0000E046E010E056E080E066E010E13
:10125000C7EC0AF0100E5F6E390E5E6E0E0EE82EB1
:10126000FED75E2EFCD75F2EFAD7010E77EC08F082
:10127000020E5F6E860E5E6E990EE82EFED75E2E13
:10128000FCD75F2EFAD700F0020EC2EC0BF0000E76
:1012900028EC0CF001C068F002C069F08A0E586EAC
:1012A000000E596E0D0E5A6E080E5B6E68C05CF033
:1012B00069C05DF099EC0BF0000E046E8A0E056EAD
:1012C000000E066E010E19EC0BF0020E5F6E860E1C
:1012D0005E6E990EE82EFED75E2EFCD75F2EFAD7F3
:1012E00000F0010E28EC0CF001C068F002C069F0BB
:1012F0008A0E586E000E596E150E5A6E080E5B6EF1
:1013000068C05CF069C05DF099EC0BF0000E046EF3
:101310008A0E056E000E066E020E19EC0BF0020E20
:101320005F6E860E5E6E990EE82EFED75E2EFCD79F
:101330005F2EFAD700F047EF09F000EF00F00350FE
:101340000410D8B4A6EF09F0A8EF09F0B1EF09F046
:1013500003500410D8A4AFEF09F0B1EF09F0B6EFD5
:1013600009F001506CEC0CF003EF0AF020EE04F0F1
:101370000350D9260450DA22DE50DE10D8B4C3EF71
:1013800009F0C5EF09F0E0EF09F020EE04F003509A
:10139000D9260450DA2210EE02F00350E126045060
:1013A000E222DE50E65CE650800A096EDE50800ADA
:1013B0000958D8B0DEEF09F0E0EF09F003EF0AF0CA
:1013C00020EE02F00350D9260450DA22DECF05F0D9
:1013D000DDCF06F003C0D9FF04C0DAFFDECF07F08F
:1013E000DDCF08F005500724D96E06500820DA6ECC
:1013F00001C0DFFF20EE02F00350D9260450DA22AC
:10140000DE2A000EDD221200000166A10AEF0AF0BA
:101410000CEF0AF016EF0AF013C00AF014C00BF03C
:1014200011C00CF012C00DF0E6EC0BF016BE1BEF75
:101430000AF01DEF0AF023EF0AF015C01AF016C0EB
:101440001BF027EF0AF0000E1B6E000E1A6E000E46
:10145000196E000E186E39EF0AF0000E026E200EA3
:10146000016E11C003F012C004F09FEC09F0184A9D
:10147000192A1A50185C1950800A176E1B50800ADE
:101480001758D8A046EF0AF048EF0AF02DEF0AF0FF
:10149000000166B14EEF0AF050EF0AF05AEF0AF081
:1014A00013C00AF014C00BF011C00CF012C00DF004
:1014B000E6EC0BF013C001F014C002F046EC0CF0A7
:1014C0001A500124116E1B500220126E1200959EBC
:1014D000959C959A959895969594850E046E760EA2
:1014E000E82EFED7042EFCD700D0000E056E8C9E91
:1014F0008C9C8C8A8C888C968C948C9E8C9C8C8AF0
:101500008C888C868C94050EE82EFED78C9E8C9C45
:101510008C8A8C888C968C94160E046E6C0EE82E39
:10152000FED7042EFCD700D0052A030E05649BEFDE
:101530000AF09DEF0AF077EF0AF08C9E8C9C8C8A63
:101540008C988C968C948C9E8C9C8C8A8C988C8697
:101550008C94050EE82EFED78C9E8C9C8C8A8C98E1
:101560008C968C94160E046E6C0EE82EFED7042E0C
:10157000FCD700D0280E77EC08F0100E77EC08F0BE
:10158000010E77EC08F00F0E77EC08F01200096EF0
:10159000DEEF0AF00450800F0A6EFBEF0AF00450F1
:1015A000C00F0A6EFBEF0AF00450940F0A6EFBEFB7
:1015B0000AF00450D40F0A6EFBEF0AF00950076ED0
:1015C000086A0850000AD8B4E8EF0AF0FBEF0AF006
:1015D0000750010AD8B4CAEF0AF0030AD8B4CFEF13
:1015E0000AF0010AD8B4D4EF0AF0070AD8B4D9EF48
:1015F0000AF0FBEF0AF00A5077EC08F00AEF0BF064
:1016000005C0F6FF06C0F7FF0800F550D0EC07F064
:10161000054A062A05C0F6FF06C0F7FF0800F55088
:101620000009D8A416EF0BF018EF0BF000EF0BF049
:101630001200096E30EF0BF00450800F0A6E4DEF70
:101640000BF00450C00F0A6E4DEF0BF00450940FD6
:101650000A6E4DEF0BF00450D40F0A6E4DEF0BF0F5
:101660000950076E086A0850000AD8B43AEF0BF028
:101670004DEF0BF00750010AD8B41CEF0BF0030A32
:10168000D8B421EF0BF0010AD8B426EF0BF0070A0B
:10169000D8B42BEF0BF04DEF0BF00A5077EC08F0BD
:1016A0005BEF0BF005C0D9FF06C0DAFFDF50D0ECCE
:1016B00007F0054A062A05C0D9FF06C0DAFFDF5049
:1016C000D8A465EF0BF067EF0BF052EF0BF01200B0
:1016D00052C056F053C057F0000E0001616F000E6B
:1016E000606F86EF0BF050C040F051C041F0560ED5
:1016F000426E000E436E54C044F055C045F080EC7D
:1017000005F04050000160274150612356C0F6FFAC
:1017100057C0F7FF0800F5500009D8A492EF0BF06E
:1017200094EF0BF073EF0BF060C050F061C051F01C
:1017300012005C0E00019C6F000E9D6F58C09EF061
:1017400059C09FF0000EA16F000EA06F000EA36F96
:10175000000EA26F9E0E506E000E516E5AC052F0D7
:101760005BC053F09C0E546E000E556E68EC0BF08F
:101770000001A0515824D96EA1515920DA6E000EF3
:10178000DF6E1200026E0250D8A4C9EF0BF0CBEF4F
:101790000BF0D1EF0BF0C150F00B0E09C16ED9EF79
:1017A0000BF002500F08016EC1500118F00B011828
:1017B000C16ECF0EC116C050C70B1009C06EC0500D
:1017C000F80B0309C06EC08EC2801200000E106EAE
:1017D000000E0F6EF7EF0BF00EC001F0026A0CC0A6
:1017E00003F00DC004F09FEC09F00F4A102A0F50CF
:1017F0000A24D96E10500B20DA6EDF500E6E0E5098
:10180000D8A405EF0CF007EF0CF0ECEF0BF0120092
:1018100014BE15EF0CF0145006E11304D8B013EF0A
:101820000CF015EF0CF023EF0CF013C015F014C002
:1018300016F0151E161E154A162A15C013F016C0EE
:1018400014F027EF0CF013C013F014C014F01200C2
:10185000046E04C003F003460346C2500318C30BD2
:101860000318C26E080E036ECA0EE82EFED7032EB2
:10187000FCD7C282C2B23FEF0CF041EF0CF03AEF5E
:101880000CF0C3CF01F0C4CF02F0120001C003F08E
:1018900002C004F04EEF0CF0014A022A01C0D9FF49
:1018A00002C0DAFFDF50D8A458EF0CF05AEF0CF06A
:1018B0004CEF0CF00350015C016E04500258026EB4
:1018C000120000EE60F03A0EEE6AE806FDE1000E4E
:0A18D000F86E00010CEF09F01200A1
:020000040020DA
:08000000FFFFFFFFFFFFFFFF00
:020000040030CA
:0E000000000C191EFF8181FF0FC00FE00F40A2
:00000001FF
