:020000040000FA
:0400000055EF00F0C8
:060008005C824EED18F0D1
:100018005C80D8CF01F0E8CF02F0E0CF03F0A0A2D7
:1000280018EF00F01AEF00F04DEF00F0A1A21FEF5B
:1000380000F021EF00F04DEF00F0A1920001B82B85
:100048000A0EB819D8A42BEF00F02DEF00F03DEF01
:1000580000F0BB51D8A433EF00F035EF00F03DEFCE
:1000680000F0000EB86F880ECF6F2F0ED06F49EFDB
:1000780000F0BB05D8A443EF00F045EF00F049EFCE
:1000880000F0EA0ECF6F1E0ED06F500EB36E380E12
:10009800B26E03C0E0FF02C0E8FF01C0D8FF5C9069
:0600A800100049EF17F003
:10080000004320646520766163756E61733A00541D
:100810003A253032642E2530326420430042696527
:100820006E76656E69646F73004261743A2530328A
:100830006400534943435600233A2564000019508D
:10084000800B226E19501924286E18AE2AEF04F07E
:100850002CEF04F02DEF04F028802850D8B433EFAB
:1008600004F035EF04F048EF04F02828D8A43BEF5B
:1008700004F03DEF04F045EF04F0000E166E000E9C
:10088000176E000E186E000E196E188E50EF04F0E1
:10089000000E166E000E176E000E186E000E196E0A
:1008A0001D50800B221A1D501D24276E1CAE5BEFBD
:1008B00004F05DEF04F05EEF04F027802750D8B419
:1008C00064EF04F066EF04F079EF04F02728D8A471
:1008D0006CEF04F06EEF04F076EF04F0000E1A6E89
:1008E000000E1B6E000E1C6E000E1D6E1C8E81EF26
:1008F00004F0000E1A6E000E1B6E000E1C6E000E31
:100900001D6E2750D8B487EF04F089EF04F091EF03
:1009100004F02850D8A48FEF04F091EF04F09BEF7F
:1009200004F0000E166E000E176E000E186E000E0C
:10093000196E33EF06F01C501602F3CF2DF0F4CFF2
:100940002EF02D50236E246A256A266A2E50296EB9
:100950002A6A2B6A2C6A1B501702F3CF2DF0F4CFB2
:100960002EF02D502326000E2422252226222E5042
:100970002926000E2A222B222C221A501802F3CFED
:100980002DF0F4CF2EF02D502326000E2422252208
:1009900026222E502926000E2A222B222C2225C068
:1009A00026F024C025F023C024F0236A1A50170231
:1009B000F3CF2DF0F4CF2EF02D5023262E502422ED
:1009C000000E2522000E26221B501602F3CF2DF01A
:1009D000F4CF2EF02D5023262E502422000E252257
:1009E000000E262225C026F024C025F023C024F0C6
:1009F000236A1A501602F3CF2DF0F4CF2EF02D50AB
:100A000023262E502422000E2522000E26221C50C2
:100A10001702F3CF2DF0F4CF2EF02D5029262E50B3
:100A20002A22000E2B22000E2C221B501802F3CF7C
:100A30002DF0F4CF2EF02D5029262E502A22000E14
:100A40002B22000E2C221C501802F3CF2DF0F4CFD5
:100A50002EF02D501E6E2E501F6E206A216A20C06F
:100A600021F01FC020F01EC01FF01E6A1E50292654
:100A70001F502A2220502B2221502C2223C01EF04E
:100A800024C01FF025C020F026C021F0190E4EEF23
:100A900005F0D890213220321F321E32E82E49EF65
:100AA00005F01E5029261F502A2220502B222150AB
:100AB0002C2225C026F024C025F023C024F0236A70
:100AC000275028C01EF01F6A1E26000E1F22820E0D
:100AD0001E242D6EFF0E1F202E6E84EF05F0D89081
:100AE00029362A362B362C3626AE79EF05F07BEFE9
:100AF00005F07CEF05F02980D89023362436253682
:100B000026362D06D8A02E062BAE89EF05F08BEFEA
:100B100005F06FEF05F0000E276E26AE92EF05F0A0
:100B200094EF05F0B8EF05F0FF0E23141E6EFF0ED4
:100B300024141F6EFF0E2514206E7F0E2614216EC6
:100B40001E501F1020102110D8B4A9EF05F0ABEFF4
:100B500005F0AFEF05F0010E276EB8EF05F029A004
:100B6000B4EF05F0B6EF05F0B8EF05F0ABEF05F028
:100B70002750D8B4BEEF05F0C0EF05F0E4EF05F064
:100B8000010E2926000E2A222B222C222CA0CBEF8C
:100B900005F0CDEF05F0E4EF05F029C01EF02AC006
:100BA0001FF02BC020F02CC021F021342132203244
:100BB0001F321E321EC029F01FC02AF020C02BF0A9
:100BC00021C02CF02D4A2E2A2EBEEFEF05F02E501C
:100BD00008E12D28D8A0EFEF05F0F1EF05F0FBEFCD
:100BE00005F0000E296E000E2A6E800E2B6E7F0E11
:100BF0002C6E29EF06F02EBE08EF06F02E5006E10F
:100C00002D04D8B006EF06F008EF06F014EF06F05A
:100C1000000E296E000E2A6E000E2B6E000E2C6E3A
:100C2000000E226E29EF06F02DC028F0FF0E2916C7
:100C3000FF0E2A167F0E2B16000E2C1628A023EF6F
:100C400006F025EF06F026EF06F02B8ED890283020
:100C50002C6E22502C1229C016F02AC017F02BC07F
:100C600018F02CC019F012003250800B3F6E325039
:100C70003224466E31AE3FEF06F041EF06F042EF10
:100C800006F046804650D8B448EF06F04AEF06F02A
:100C90005FEF06F04628D8A450EF06F052EF06F0BA
:100CA0005AEF06F0000E2F6E000E306E000E316E01
:100CB000000E326E318E000E326E67EF06F0000EBF
:100CC0002F6E000E306E000E316E000E326E3650FA
:100CD000800B3F1A36503624476E35AE72EF06F061
:100CE00074EF06F075EF06F047804750D8B47BEFFD
:100CF00006F07DEF06F092EF06F04728D8A483EFC8
:100D000006F085EF06F08DEF06F0000E336E000E54
:100D1000346E000E356E000E366E358E000E366E59
:100D20009AEF06F0000E336E000E346E000E356E34
:100D3000000E366E3350341035103610D8A4A3EFA1
:100D400006F0A5EF06F0BDEF06F0000E2F6E000EC8
:100D5000306E000E316E000E326E800E31127F0E3C
:100D600032123F5032122FC02FF030C030F031C05D
:100D700031F032C032F000EF08F04650D8A4C3EF93
:100D800006F0C5EF06F0CFEF06F0000E2F6E000E56
:100D9000306E000E316E000E326E00EF08F04750DC
:100DA00046C037F0386A375E000E385A7F0E372457
:100DB000406E000E3820416E2FC03BF030C03CF03A
:100DC00031C03DF032C03EF0000E2F6E000E306E8E
:100DD000000E316E000E326E000E426E000E436E3B
:100DE000000E446E000E456E000E476E30EF07F0A9
:100DF0004750D8B4FEEF06F000EF07F017EF07F00A
:100E0000D8903B363C363D363E36D8902F3630367D
:100E10003136323645AE0FEF07F011EF07F012EF23
:100E200007F02F80D890423643364436453633504B
:100E30003B5C34503C5835503D5836503E58D8A055
:100E400024EF07F026EF07F02FEF07F0458C335023
:100E50003B5E34503C5A35503D5A36503E5A472A34
:100E6000190E476436EF07F038EF07F0F8EF06F099
:100E70003B503C103D103E10D8B441EF07F043EF1B
:100E800007F05BEF07F042805BEF07F0D8902F365A
:100E900030363136323645AE50EF07F052EF07F0BC
:100EA00053EF07F02F80D89042364336443645360C
:100EB0004006D8A0410631AE60EF07F062EF07F0C0
:100EC00046EF07F0000E476E45AE69EF07F06BEF97
:100ED00007F08FEF07F0FF0E4214376EFF0E43143A
:100EE000386EFF0E4414396E7F0E45143A6E37503B
:100EF000381039103A10D8B480EF07F082EF07F0BD
:100F000086EF07F0010E476E8FEF07F02FA08BEFF3
:100F100007F08DEF07F08FEF07F082EF07F04750F3
:100F2000D8B495EF07F097EF07F0BBEF07F0010E8D
:100F30002F26000E30223122322232A0A2EF07F0FB
:100F4000A4EF07F0BBEF07F02FC037F030C038F048
:100F500031C039F032C03AF03A343A3239323832AC
:100F6000373237C02FF038C030F039C031F03AC0D6
:100F700032F0404A412A41BEC6EF07F0415008E135
:100F80004028D8A0C6EF07F0C8EF07F0D3EF07F06E
:100F9000000E416E4068000E2F6E000E306E000E87
:100FA000316E000E326E41BEE0EF07F0415006E1B7
:100FB0004004D8B0DEEF07F0E0EF07F0EEEF07F007
:100FC000000E416E000E406E000E2F6E000E306E51
:100FD000000E316E000E326E000E3F6E40C046F0C5
:100FE00046A0F5EF07F0F7EF07F0FAEF07F0318EC4
:100FF000FBEF07F0319ED8904630326EB1EF06F02D
:10100000120045C0D9FF46C0DAFFDECFF6FFDDCFC4
:10101000F7FF0800F550250AD8A411EF08F013EFE8
:1010200008F09BEF09F045C0D9FF46C0DAFFDE2A81
:10103000000EDD22000E0001976F000E966F96C025
:101040005AF097C05BF058685968000E696F000E3F
:10105000686F71EF08F05A8045C0D9FF46C0DAFFCB
:10106000DE2A000EDD2271EF08F05A822CEF08F024
:101070005A842CEF08F05A862CEF08F05A882CEF8F
:1010800008F0000E696F010E686F71EF08F045C03F
:10109000D9FF46C0DAFFDECFF6FFDDCFF7FF08004D
:1010A000F550496E4A6A4A50000AD8B45AEF08F01F
:1010B00041EF08F04950200AD8B43BEF08F0030A8A
:1010C000D8B43EEF08F0080AD8B438EF08F0060AA2
:1010D000D8B42BEF08F01D0AD8B435EF08F041EF73
:1010E00008F068516911D8B478EF08F07AEF08F089
:1010F00047EF08F05AA07FEF08F081EF08F082EF89
:1011000008F05A9245C0D9FF46C0DAFFDECFF6FF9D
:10111000DDCFF7FF0800F5502A0AD8A492EF08F0B7
:1011200094EF08F0BDEF08F045C0D9FF46C0DAFFE4
:10113000DE2A000EDD2247C0D9FF48C0DAFFDFCF2C
:1011400049F0020EDE26DFCF4AF0000EDD2249C054
:10115000D9FF4AC0DAFFDECF96F0DDCF97F097BF18
:10116000B6EF08F0B4EF08F001EF09F05A80966D81
:10117000971FD8B0972B01EF09F045C0D9FF46C0A3
:10118000DAFFDECF0BF0DDCF0CF0E9EC0DF00BC099
:1011900096F00CC097F0D4EF08F045C0D9FF46C0D8
:1011A000DAFFDE2A000EDD22D00E496EFF0E4A6EF7
:1011B00045C0D9FF46C0DAFFDECFF6FFDDCFF7FF2F
:1011C0000800F5504B6E4C6A49504B264A504C2251
:1011D0004C500AE10A0E4B5CD8A0F1EF08F0F4EF96
:1011E00008F0010EF5EF08F0000E00016A6F6B6B5E
:1011F0006A516B11D8A4FFEF08F001EF09F0CDEFB1
:1012000008F045C0D9FF46C0DAFFDECFF6FFDDCFDC
:10121000F7FF0800F550640AD8B411EF09F013EF96
:1012200009F025EF09F045C0D9FF46C0DAFFDECF4F
:10123000F6FFDDCFF7FF0800F550690AD8A423EFC9
:1012400009F025EF09F065EF09F045C0D9FF46C068
:10125000DAFFDE2A000EDD2247C0D9FF48C0DAFFE0
:10126000DFCF49F0020EDE26DFCF4AF0000EDD228E
:1012700049C0D9FF4AC0DAFFDECF60F0DDCF61F0B0
:10128000000E61BFFF0E626F636F646F656F666F04
:10129000676F43C01FF044C020F060C021F061C000
:1012A00022F062C023F063C024F064C025F065C062
:1012B00026F066C027F067C028F0B7EC09F01FC021
:1012C00043F020C044F0B6EF09F045C0D9FF46C056
:1012D000DAFFDECFF6FFDDCFF7FF0800F550250A75
:1012E000D8A475EF09F077EF09F08EEF09F045C04B
:1012F000D9FF46C0DAFFDE2A000EDD22000E056EA1
:10130000250E046E43C006F044C007F064EC14F0F0
:10131000000E446E010E436EB6EF09F045C0D9FFD2
:1013200046C0DAFFDE2A000EDD22000E446E000EFB
:10133000436EB6EF09F045C0D9FF46C0DAFFDECFF5
:10134000F6FFDDCFF7FF0800F550046E056A43C0D5
:1013500006F044C007F064EC14F045C0D9FF46C065
:10136000DAFFDE2A000EDD2288EF09F0120021C02C
:1013700039F022C03AF023C03BF024C03CF025C035
:101380003DF026C03EF027C03FF028C040F040BEF0
:10139000CCEF09F0CFEF09F0010ED0EF09F0000E0D
:1013A000376E386A37503810D8B4D9EF09F0DBEF10
:1013B00009F0EBEF09F0401E3F1E3E1E3D1E3C1E95
:1013C0003B1E3A1E396C000E3A223B223C223D2243
:1013D0003E223F22402259BEF0EF09F0F2EF09F021
:1013E000F3EF09F05A9259BE00EF0AF0595006E1A6
:1013F0005804D8B0FEEF09F000EF0AF006EF0AF04B
:10140000000E346E010E336E0AEF0AF058C033F04E
:1014100059C034F096C035F097C036F037503810C8
:10142000D8A415EF0AF017EF0AF01EEF0AF05AA43D
:101430001CEF0AF01EEF0AF021EF0AF03506D8A0E3
:101440003606000E426E1F0E416E000E0001B76F91
:10145000A6EF0AF04106D8A04206980E4124D96EA4
:10146000000E4220DA6E39C004F03AC005F03BC0ED
:1014700006F03CC007F03DC008F03EC009F03FC098
:101480000AF040C00BF00A0E0C6E000E0D6E000E3E
:101490000E6E000E0F6E000E106E000E116E000E1E
:1014A000126E000E136EEBEC10F004C029F005C0B4
:1014B0002AF006C02BF007C02CF008C02DF009C0A0
:1014C0002EF00AC02FF00BC030F029C016F02BC050
:1014D00017F06AEC17F01650300FDF6E3306D8A005
:1014E00034063506D8A0360639C004F03AC005F0F7
:1014F0003BC006F03CC007F03DC008F03EC009F01C
:101500003FC00AF040C00BF00A0E0C6E000E0D6ECC
:10151000000E0E6E000E0F6E000E106E000E116E9D
:10152000000E126E000E136EB1EC0EF004C039F016
:1015300005C03AF006C03BF007C03CF008C03DF0E3
:1015400009C03EF00AC03FF00BC040F042BEB1EF10
:101550000AF0425008E14104D8A0B1EF0AF0B3EF1D
:101560000AF0E3EF0AF039503A103B103C103D10FE
:101570003E103F104010D8A4C0EF0AF0C2EF0AF0AE
:101580002AEF0AF034BECFEF0AF0345006E13304FC
:10159000D8B0CDEF0AF0CFEF0AF02AEF0AF036BE4E
:1015A000DAEF0AF0365008E13504D8A0DAEF0AF095
:1015B000DCEF0AF0E3EF0AF05AB2E1EF0AF0E3EFF2
:1015C0000AF02AEF0AF037503810D8A4EAEF0AF0F0
:1015D000ECEF0AF0F3EF0AF05AA4F1EF0AF0F3EFA0
:1015E0000AF011EF0BF04106D8A042063750381030
:1015F000D8A4FDEF0AF0FFEF0AF005EF0BF0000EA4
:10160000326E2B0E316E09EF0BF0000E326E2D0E86
:10161000316E980E4124D96E000E4220DA6E31C030
:10162000DFFF1FC014F020C015F0980E4124166E85
:10163000000E4220176E35C018F036C019F0C9EC04
:1016400014F014C01FF015C020F0120004C0D9FF20
:1016500005C0DAFF000EDF6EF00E816EF00E81180D
:10166000D8B435EF0BF037EF0BF00FEF0CF0FE0EA8
:10167000816E81B83EEF0BF040EF0BF046EF0BF0C0
:1016800004C0D9FF05C0DAFF2A0EDF6E81BA4BEF26
:101690000BF04DEF0BF053EF0BF004C0D9FF05C07A
:1016A000DAFF300EDF6E81BC58EF0BF05AEF0BF013
:1016B00060EF0BF004C0D9FF05C0DAFF230EDF6E28
:1016C00081BE65EF0BF067EF0BF06DEF0BF004C020
:1016D000D9FF05C0DAFF440EDF6EFD0E816E81B8C2
:1016E00074EF0BF076EF0BF07CEF0BF004C0D9FF3A
:1016F00005C0DAFF370EDF6E81BA81EF0BF083EFA2
:101700000BF089EF0BF004C0D9FF05C0DAFF380EEB
:10171000DF6E81BC8EEF0BF090EF0BF096EF0BF0CD
:1017200004C0D9FF05C0DAFF390EDF6E81BE9BEF22
:101730000BF09DEF0BF0A3EF0BF004C0D9FF05C039
:10174000DAFF430EDF6EFB0E816E81B8AAEF0BF05D
:10175000ACEF0BF0B2EF0BF004C0D9FF05C0DAFF1D
:10176000340EDF6E81BAB7EF0BF0B9EF0BF0BFEFBD
:101770000BF004C0D9FF05C0DAFF350EDF6E81BC67
:10178000C4EF0BF0C6EF0BF0CCEF0BF004C0D9FFA9
:1017900005C0DAFF360EDF6E81BED1EF0BF0D3EF5E
:1017A0000BF0D9EF0BF004C0D9FF05C0DAFF420EF1
:1017B000DF6EF70E816E81B8E0EF0BF0E2EF0BF019
:1017C000E8EF0BF004C0D9FF05C0DAFF310EDF6E81
:1017D00081BAEDEF0BF0EFEF0BF0F5EF0BF004C07B
:1017E000D9FF05C0DAFF320EDF6E81BCFAEF0BF0D5
:1017F000FCEF0BF002EF0CF004C0D9FF05C0DAFFDC
:10180000330EDF6E81BE07EF0CF009EF0CF00FEF27
:101810000CF004C0D9FF05C0DAFF410EDF6EF00EF8
:10182000816EF00E8118D8A418EF0CF01AEF0CF0AE
:1018300011EF0CF01200070E00018425046E000E5B
:101840008521056E000E076E000E066E000E096EF5
:10185000100E086E30EC10F0010E8AEC17F000014B
:1018600020EE04F08451D9268551DA2204C0DEFF2F
:1018700005C0DDFF000E336E000E346E800E356E37
:10188000440E366E000E1A6E000E1B6EA00E1C6EFD
:10189000400E1D6E20EE04F08451D9268551DA22C7
:1018A000DECF86F0DDCF87F086C008F087C009F074
:1018B0000A6A0B6A000E0FEC0DF008C016F009C0A2
:1018C00017F00AC018F00BC019F01FEC04F016C096
:1018D0002FF017C030F018C031F019C032F034ECDE
:1018E00006F02FC088F030C089F031C08AF032C0D5
:1018F0008BF0000E1A6E000E1B6EC80E1C6E420E90
:101900001D6E88C016F089C017F08AC018F08BC011
:1019100019F01FEC04F016C048F017C049F018C0C9
:101920004AF019C04BF07BEC13F0000120EE04F0FC
:101930008451D9268551DA2248C0DEFF49C0DDFF37
:10194000000E336E000E346EFA0E356E430E366E98
:10195000000E1A6E000E1B6EC80E1C6E420E1D6E1F
:1019600020EE04F08451D9268551DA22DECF86F0AC
:10197000DDCF87F086C008F087C009F00A6A0B6ADD
:10198000000E0FEC0DF008C016F009C017F00AC0E9
:1019900018F00BC019F01FEC04F016C02FF017C0A0
:1019A00030F018C031F019C032F034EC06F02FC01E
:1019B00048F030C049F031C04AF032C04BF07BEC07
:1019C00013F0000120EE04F08451D9268551DA226B
:1019D00048C0DEFF49C0DDFF070E8425726F000E90
:1019E0008521736F290E746F080E756F20EE04F059
:1019F0008451D9268551DA22DECF76F0DDCF77F01B
:101A00008EEC16F0000E076E070E00018425086E9E
:101A1000000E8521096E020EFEEC13F01200106E0E
:101A20001050D8B416EF0DF018EF0DF03AEF0DF09E
:101A30000BBE1FEF0DF01DEF0DF03AEF0DF008C0DB
:101A40000CF009C00DF00AC00EF00BC00FF00C1E18
:101A50000D1E0E1E0F1E0C2A000E0D220E220F222E
:101A60000CC012F00DC013F00EC014F00FC015F032
:101A700042EF0DF008C012F009C013F00AC014F0D4
:101A80000BC015F0085009100A100B10D8A44BEF2A
:101A90000DF04DEF0DF057EF0DF0000E086E000E3B
:101AA000096E000E0A6E000E0B6EE8EF0DF0960E3A
:101AB000116E61EF0DF0112AD890153214321332E5
:101AC0001232000E12140C6E000E13140D6E000E66
:101AD00014140E6EFE0E15140F6E0C500D100E1019
:101AE0000F10D8A476EF0DF078EF0DF05BEF0DF04E
:101AF00086EF0DF0112A010E1226000E1322142279
:101B00001522D8901532143213321232000E1214EC
:101B10000C6E000E13140D6E000E14140E6EFF0EDC
:101B200015140F6E0C500D100E100F10D8A49BEF53
:101B30000DF09DEF0DF07AEF0DF0A5EF0DF0110611
:101B4000D890123613361436153614BEAAEF0DF09F
:101B5000ACEF0DF0B4EF0DF0020E1160B2EF0DF02E
:101B6000B4EF0DF09FEF0DF011B0B9EF0DF0BBEF3A
:101B70000DF0BCEF0DF0149ED890113211C00CF096
:101B80000D6A0E6A0F6A0CC00FF00E6A0D6A0C6ABD
:101B90000C5012120D5013120E5014120F50151239
:101BA0001050D8B4D6EF0DF0D8EF0DF0E0EF0DF0F7
:101BB0000BBEDFEF0DF0DDEF0DF0E0EF0DF0158E59
:101BC00012C008F013C009F014C00AF015C00BF0E1
:101BD0001200000E196E000E186E000E126E000E2E
:101BE000116EF5EF0DF00B4A0C2A010E176E0BC0AB
:101BF000F6FF0CC0F7FF0800F550200AD8B403EF39
:101C00000EF005EF0EF022EF0EF0F70E0D6EFF0E48
:101C10000E6E0BC0F6FF0CC0F7FF0800F5500F6EFC
:101C2000106A0D500F260E501022105009E1050EBB
:101C30000F5CD8A01EEF0EF020EF0EF022EF0EF09A
:101C4000000E176E17C013F0146A13501410D8A4A6
:101C50002CEF0EF02EEF0EF0F3EF0DF038EF0EF04C
:101C6000000E126E010E116E0B4A0C2A6DEF0EF073
:101C70000BC0F6FF0CC0F7FF0800F5500D6E0E6AA2
:101C80000E50000AD8B447EF0EF06DEF0EF00D5075
:101C90002B0AD8B434EF0EF0060AD8B430EF0EF0A9
:101CA0006DEF0EF018C004F019C005F0000E076EBD
:101CB0000A0E066E0EEC18F00BC0F6FF0CC0F7FF14
:101CC0000800F550045E000E055A300E0424186E0C
:101CD000000E0520196E34EF0EF0D00E0D6EFF0EC3
:101CE0000E6E0BC0F6FF0CC0F7FF0800F5500F6E2C
:101CF000106A0D500F260E50102210500AE10A0EE5
:101D00000F5CD8A086EF0EF089EF0EF0010E8AEF7F
:101D10000EF0000E156E166A15501610D8A493EF2B
:101D20000EF095EF0EF052EF0EF011501210D8A4F5
:101D30009CEF0EF09EEF0EF0ACEF0EF018C00DF021
:101D400019C00EF00D1E0E1E0D4A0E2A0DC00BF00E
:101D50000EC00CF0B0EF0EF018C00BF019C00CF074
:101D60001200000E156E13BEBAEF0EF0B8EF0EF0B3
:101D7000CCEF0EF0131E121E111E101E0F1E0E1E93
:101D80000D1E0C6C000E0D220E220F2210221122AD
:101D900012221322010E156E0BBED3EF0EF0D1EFFF
:101DA0000EF0E5EF0EF00B1E0A1E091E081E071EA0
:101DB000061E051E046C000E0522062207220822BC
:101DC00009220A220B22010E151A20EE16F0070E28
:101DD000DE6AE806FDE20C500D100E100F10101018
:101DE000111012101310D8B4F8EF0EF0FAEF0EF035
:101DF0004CEF0FF0010E146E08EF0FF0D8900C3678
:101E00000D360E360F361036113612361336142AAA
:101E100013AE0DEF0FF00FEF0FF0FEEF0EF0D890B6
:101E200016361736183619361A361B361C361D3636
:101E30000C50045C0D5005580E5006580F500758B2
:101E4000105008581150095812500A5813500B5886
:101E5000D8A02DEF0FF02FEF0FF040EF0FF00C5048
:101E6000045E0D50055A0E50065A0F50075A105076
:101E7000085A1150095A12500A5A13500B5A168018
:101E8000D89013321232113210320F320E320D321C
:101E90000C32142E0FEF0FF01550D8B452EF0FF094
:101EA00054EF0FF064EF0FF01D1E1C1E1B1E1A1EB8
:101EB000191E181E171E166C000E17221822192242
:101EC0001A221B221C221D2216C004F017C005F086
:101ED00018C006F019C007F01AC008F01BC009F0BE
:101EE0001CC00AF01DC00BF01200000E0001BB6FF9
:101EF000000E876F000E866F000E886F51EC18F091
:101F0000BF0E046E000E056E000E076E000E066E0C
:101F1000000E096E100E086E30EC10F0010EE6ECAB
:101F200012F0020E0001856F860E846F990EE82E66
:101F3000FED7842FFCD7852FFAD7000E076E010E2F
:101F4000086E080E096E010EFEEC13F0EBEF0FF0B9
:101F5000880E046E000E056E26EC0BF02F0E0001AD
:101F60008865B5EF0FF0B7EF0FF0D4EF0FF03A0E32
:101F70008861BDEF0FF0BFEF0FF0D4EF0FF086C018
:101F800004F087C005F0000E076E0A0E066E0EEC18
:101F900018F0000188510426000E0522D00E0424FA
:101FA000866FFF0E0520876FBF0E726F000E736F76
:101FB0003A0E746F080E756F86C076F087C077F0A2
:101FC0008EEC16F0000E076EBF0E086E000E096E46
:101FD000020EFEEC13F02A0E00018819D8A4F3EFCC
:101FE0000FF0F5EF0FF0A8EF0FF08651B95F8751B2
:101FF000BA5B000EBE6FBABF08EF10F0BA5106E12F
:10200000B905D8B006EF10F008EF10F00CEF10F0A3
:10201000000EBA6F000EB96F080E0001856F9D0E9D
:10202000846F050EE82EFED7842FFCD7852FFAD7B4
:1020300000D0010EE6EC12F0020E0001856F860E54
:10204000846F990EE82EFED7842FFCD7852FFAD700
:10205000F40E0001CF6F2F0ED06F44EC18F0120079
:1020600004C00EF005C00FF008500910D8A43BEFD3
:1020700010F03DEF10F03FEF10F0EAEF10F00EC05F
:10208000D9FF0FC0DAFF06C0DFFF08500E240A6E2A
:1020900009500F200B6EFF0E0A24D96EFF0E0B2085
:1020A000DA6E06C0DFFF095007E1030E085CD8B006
:1020B0005CEF10F05EEF10F060EF10F0EAEF10F060
:1020C00020EE01F00E50D9260F50DA2206C0DFFFB5
:1020D00020EE02F00E50D9260F50DA2206C0DFFFA4
:1020E00008500E240A6E09500F200B6EFE0E0A24B3
:1020F000D96EFF0E0B20DA6E06C0DFFF08500E24EB
:102100000A6E09500F200B6EFD0E0A24D96EFF0EC9
:102110000B20DA6E06C0DFFF095007E1070E085CEE
:10212000D8B095EF10F097EF10F099EF10F0EAEFBC
:1021300010F020EE03F00E50D9260F50DA2206C020
:10214000DFFF08500E240A6E09500F200B6EFC0EA4
:102150000A24D96EFF0E0B20DA6E06C0DFFF09508D
:1021600007E1090E085CD8B0B8EF10F0BAEF10F034
:10217000BCEF10F0EAEF10F00EC00AF00FC00BF049
:102180000A1E0B1E0A4A0B2A030E0A140C6E0D6A55
:102190000C500E260D500F220C50085E0D50095A9F
:1021A000FC0E0816FF0E0916E1EF10F00EC0D9FF65
:1021B0000FC0DAFF06C0DFFF0806D8A009060E4AE6
:1021C0000F2A08500910D8A4E8EF10F0EAEF10F039
:1021D000D6EF10F01200000E156E0BBEF4EF10F0EB
:1021E000F2EF10F006EF11F00B1E0A1E091E081E7A
:1021F000071E061E051E046C000E0522062207227D
:10220000082209220A220B22010E156E13BE0DEFC1
:1022100011F00BEF11F01DEF11F0131E121E111E25
:10222000101E0F1E0E1E0D1E0C6C000E0D220E2217
:102230000F2210221122122213220C500D100E1008
:102240000F101010111012101310D8B42AEF11F043
:102250002CEF11F074EF11F0010E146E3AEF11F043
:10226000D8900C360D360E360F3610361136123623
:102270001336142A13AE3FEF11F041EF11F030EF97
:1022800011F00C50045C0D5005580E5006580F50BC
:102290000758105008581150095812500A58135036
:1022A0000B58D8A056EF11F058EF11F068EF11F06D
:1022B0000C50045E0D50055A0E50065A0F50075A26
:1022C0001050085A1150095A12500A5A13500B5AFA
:1022D000D89013321232113210320F320E320D32C8
:1022E0000C32142E41EF11F01550D8B47AEF11F0E2
:1022F0007CEF11F08CEF11F00B1E0A1E091E081E58
:10230000071E061E051E046C000E0522062207226B
:10231000082209220A220B2204C004F005C005F09D
:1023200006C006F007C007F008C008F009C009F0B1
:102330000AC00AF00BC00BF01200066E8C968C845B
:1023400006C004F0070E056E04340432052EA4EF17
:1023500011F0010E0416043204328C5004187F0B65
:1023600004188C6E06C004F0060E056E04340432A8
:10237000052EB6EF11F0010E0416043A0446044689
:102380008C500418BF0B04188C6E06C004F0050EA8
:10239000056E04340432052EC9EF11F0010E041647
:1023A000043A04468C500418DF0B04188C6E06C0E7
:1023B00004F0040E056E04340432052EDBEF11F038
:1023C000010E0416043A8C500418EF0B04188C6E9E
:1023D000030EE82EFED700F08C86050EE82EFED701
:1023E0008C9606C004F0030E056E04340432052EEC
:1023F000F5EF11F0010E0416043204328C5004186B
:102400007F0B04188C6E06C004F0043404320434CC
:102410000432010E0416043A044604468C50041893
:10242000BF0B04188C6E06C004F0010E056E043458
:102430000432052E17EF12F0010E0416043A04467A
:102440008C500418DF0B04188C6E06C004F0010ECB
:102450000416043A8C500418EF0B04188C6E030E0B
:10246000E82EFED700F08C86050EE82EFED78C965F
:10247000050EE82EFED7160E046E6C0EE82EFED763
:10248000042EFCD700D01200070E00018425046E34
:10249000000E8521056E000E076E000E066E000E02
:1024A000096E100E086E30EC10F0000E8AEC17F07A
:1024B00004C008F005C009F00A6A0B6A000E0FECB0
:1024C0000DF008C086F009C087F00AC088F00BC084
:1024D00089F0F60E1A6E280E1B6E9C0E1C6E400EB6
:1024E0001D6E86C016F087C017F088C018F089C02E
:1024F00019F01FEC04F016C02FF017C030F018C010
:1025000031F019C032F0000E336E000E346E200E22
:10251000356E410E366E34EC06F02FC086F030C0BA
:1025200087F031C088F032C089F0070E00018425A1
:10253000726F000E8521736F0F0E746F080E756F2A
:1025400086C048F087C049F088C04AF089C04BF087
:102550007BEC13F048500001766F776B000E1A6E1B
:10256000000E1B6EC80E1C6E420E1D6E86C016F04D
:1025700087C017F088C018F089C019F01FEC04F06C
:1025800016C048F017C049F018C04AF019C04BF007
:102590007BEC13F04850526E536A000E556E640E79
:1025A000546E8AEC15F052500001786F796B8EEC06
:1025B00016F0000E076E070E00018425086E000E4F
:1025C0008521096E010EFEEC13F01200066E8C964A
:1025D0008C94046A06AE01D0042A010E041604325B
:1025E00004328C5004187F0B04188C6E06C004F063
:1025F000060E056ED8900432052EFAEF12F0010E89
:102600000416043A044604468C500418BF0B041800
:102610008C6E06C004F0050E056ED8900432052EAF
:102620000DEF13F0010E0416043A04468C50041802
:10263000DF0B04188C6E06C004F0043A0F0E04166B
:10264000010E0416043A8C500418EF0B04188C6E1B
:10265000030EE82EFED700F08C86050EE82EFED77E
:102660008C9606C004F0D8900432D8900432D890EA
:102670000432010E0416043204328C5004187F0B0D
:1026800004188C6E06C004F0D8900432D89004323E
:10269000010E0416043A044604468C500418BF0B7D
:1026A00004188C6E06C004F0D8900432010E041693
:1026B000043A04468C500418DF0B04188C6E06C0D4
:1026C00004F0010E0416043A8C500418EF0B0418A1
:1026D0008C6E030EE82EFED700F08C86050EE82ED9
:1026E000FED78C96160E046E6C0EE82EFED7042EC6
:1026F000FCD700D012004A344B34516E5150D8A44C
:1027000084EF13F086EF13F090EF13F0000E486E95
:10271000000E496E000E4A6E000E4B6EFDEF13F078
:1027200048C04CF049C04DF04AC04EF04BC04FF08D
:10273000200EA0EF13F0D8904F324E324D324C3273
:10274000E82E9BEF13F04C50506E4A8EFF0E481649
:10275000FF0E4916FF0E4A16000E4B16960E515EDE
:1027600051BEB7EF13F0B5EF13F0CDEF13F05150AA
:10277000800A970FD8B0BFEF13F0C1EF13F0C3EF8B
:1027800013F086EF13F0D8904B324A324932483278
:10279000513EC3EF13F0E5EF13F01F0E5164D3EF7A
:1027A00013F0D5EF13F0DDEF13F086EF13F0D890B0
:1027B000483649364A364B3651065150D8A4E3EFD5
:1027C00013F0E5EF13F0D7EF13F05050D8B4EBEF60
:1027D00013F0EDEF13F0F5EF13F04B1E4A1E491EF8
:1027E000486C000E49224A224B2248C048F049C09A
:1027F00049F04AC04AF04BC04BF012000C6E15EF86
:1028000014F00750800F0D6E32EF14F00750C00F18
:102810000D6E32EF14F00750940F0D6E32EF14F07E
:102820000750D40F0D6E32EF14F00C500A6E0B6A85
:102830000B50000AD8B41FEF14F032EF14F00A5016
:10284000010AD8B401EF14F0030AD8B406EF14F06B
:10285000010AD8B40BEF14F0070AD8B410EF14F043
:1028600032EF14F00D50E6EC12F04BEF14F008C00C
:10287000F6FF09C0F7FFF86A070EF76403D00800F7
:10288000F55005D0F6CFE1FFF7CFE2FFE7509DEC22
:1028900011F0084A092A08C0F6FF09C0F7FFF86AD4
:1028A000070EF76403D00800F55005D0F6CFE1FF1E
:1028B000F7CFE2FFE7500009D8A461EF14F063EF0F
:1028C00014F037EF14F0120006500710D8B46BEF75
:1028D00014F06DEF14F076EF14F006500710D8A442
:1028E00074EF14F076EF14F07BEF14F0045053EC17
:1028F00018F0C8EF14F020EE04F00650D926075067
:10290000DA22DE50DE10D8B488EF14F08AEF14F02B
:10291000A5EF14F020EE04F00650D9260750DA2275
:1029200010EE02F00650E1260750E222DE50E65C8F
:10293000E650800A0C6EDE50800A0C58D8B0A3EF27
:1029400014F0A5EF14F0C8EF14F020EE02F00650DA
:10295000D9260750DA22DECF08F0DDCF09F006C015
:10296000D9FF07C0DAFFDECF0AF0DDCF0BF0085049
:102970000A24D96E09500B20DA6E04C0DFFF20EE66
:1029800002F00650D9260750DA22DE2A000EDD2298
:1029900012005AA0CEEF14F0D0EF14F0DAEF14F0DA
:1029A00016C00DF017C00EF014C00FF015C010F0D7
:1029B00027EC17F019BEDFEF14F0E1EF14F0E7EFAA
:1029C00014F018C01DF019C01EF0EBEF14F0000E4B
:1029D0001E6E000E1D6E000E1C6E000E1B6EFDEFB7
:1029E00014F0000E056E200E046E14C006F015C023
:1029F00007F064EC14F01B4A1C2A1D501B5C1C5091
:102A0000800A1A6E1E50800A1A58D8A00AEF15F0D4
:102A10000CEF15F0F1EF14F05AB011EF15F013EFC1
:102A200015F01DEF15F016C00DF017C00EF014C014
:102A30000FF015C010F027EC17F016C004F017C007
:102A400005F0DFEC17F01D500424146E1E50052015
:102A5000156E1200959E959C959A959895969594CD
:102A6000850E076E760EE82EFED7072EFCD700D017
:102A7000000E086E8C9E8C9C8C8A8C888C968C9414
:102A80008C9E8C9C8C8A8C888C868C94050EE82E6F
:102A9000FED78C9E8C9C8C8A8C888C968C94160E7F
:102AA000076E6C0EE82EFED7072EFCD700D0082A42
:102AB000030E08645EEF15F060EF15F03AEF15F0C5
:102AC0008C9E8C9C8C8A8C988C968C948C9E8C9CE6
:102AD0008C8A8C988C868C94050EE82EFED78C9E62
:102AE0008C9C8C8A8C988C968C94160E076E6C0E2F
:102AF000E82EFED7072EFCD700D0280EE6EC12F009
:102B0000100EE6EC12F0010EE6EC12F00F0EE6EC01
:102B100012F01200000E576E53BE93EF15F091EFB6
:102B200015F099EF15F0526C531ED8B0532A010ED0
:102B3000576E55BEA0EF15F09EEF15F0A4EF15F0FF
:102B4000546C551ED8B0552A54505510D8B4ABEF1C
:102B500015F0ADEF15F0D1EF15F0010E566EB5EF93
:102B600015F0D89054365536562A55AEBAEF15F0B2
:102B7000BCEF15F0B1EF15F05450525C555053585E
:102B8000D8A0C5EF15F0C7EF15F0CBEF15F05450F6
:102B9000525E5550535AD89055325432562EBCEF8F
:102BA00015F05750D8B4D7EF15F0D9EF15F0DDEF89
:102BB00015F0526C531ED8B0532A52C052F053C075
:102BC00053F012002AEC15F0010EE6EC12F00C0E98
:102BD000E6EC12F0020E0F6E860E0E6E990EE82EC7
:102BE000FED70E2EFCD70F2EFAD700F0030E076E7D
:102BF0001D0E086E080E096E010EFEEC13F0060E97
:102C0000076E320E086E080E096E020EFEEC13F00F
:102C10001F0E0F6E710E0E6E1E0EE82EFED70E2EBC
:102C2000FCD70F2EFAD700D0010EE6EC12F0020E00
:102C30000F6E860E0E6E990EE82EFED70E2EFCD766
:102C40000F2EFAD700F01200F00E936EF19E9296BE
:102C50002EEC18F089A62FEF16F034EF16F00001D5
:102C60008C6B8C2B36EF16F000018C6B8C478C47ED
:102C70008C4789508C19F70B8C19896E020E000154
:102C80008D6F860E8C6F990EE82EFED78C2FFCD799
:102C90008D2FFAD720EECFF002D859EF16F00500AD
:102CA000FA6EDE50FD6EDE50FE6EF850FF6EFA508A
:102CB00012002AEF16F055EF00F06EC04DF06FC015
:102CC0004EF0000E0001956F000E946F7BEF16F032
:102CD0006CC043F06DC044F04D0E456E000E466E64
:102CE00070C047F071C048F001EC08F0435000019B
:102CF0009427445095234DC0F6FF4EC0F7FF0800BF
:102D0000F5500009D8A487EF16F089EF16F068EFA8
:102D100016F094C06CF095C06DF01200760E0001B4
:102D20007C6F000E7D6F72C07EF073C07FF0000E6E
:102D3000816F000E806F000E836F000E826F7E0E1B
:102D40006C6F000E6D6F74C06EF075C06FF07C0E0E
:102D5000706F000E716F5DEC16F0000180517225EE
:102D6000D96E81517321DA6E000EDF6E1200010EF2
:102D70000A6E200E04180510D8B4C1EF16F0C3EF88
:102D800016F0DCEF16F0F70E066EFF0E076E04C0AD
:102D900008F005C009F0065008260750092209501E
:102DA00009E1050E085CD8A0D8EF16F0DAEF16F0AE
:102DB000DCEF16F0000E0A6E0AC004F0056A12007D
:102DC000056E0550D8A4E7EF16F0E9EF16F0EFEF27
:102DD00016F0C150F00B0E09C16EF7EF16F005505A
:102DE0000F08046EC1500418F00B0418C16ECF0E0A
:102DF000C116C050C70B1009C06EC050F80B0309B4
:102E0000C06EC08EC280120020EE86F0050EDE6A13
:102E1000E806FDE2860E0001726F000E736F380E39
:102E2000746F080E756F84C0D9FF85C0DAFFDECFDE
:102E300076F0DDCF77F08EEC16F00A0E076E860E78
:102E4000086E000E096E020EFEEC13F01200000E6A
:102E5000136E000E126E38EF17F011C004F0056A01
:102E60000FC006F010C007F064EC14F0124A132AE9
:102E700012500D24D96E13500E20DA6EDF50116EF1
:102E80001150D8A446EF17F048EF17F02DEF17F0C8
:102E90001200420EF66E300EF76E000EF86E00EE67
:102EA000B8F010EE19F00900F5CFEEFFE550E15053
:102EB000FAE100EE8EF02A0EEE6AE806FDE15B6AAA
:102EC0005A6A596A586A5C905C92000EF86E00016A
:102ED00024EF16F017BE77EF17F0175006E116042F
:102EE000D8B075EF17F077EF17F085EF17F016C031
:102EF00018F017C019F0181E191E184A192A18C000
:102F000016F019C017F089EF17F016C016F017C0A9
:102F100017F01200076E07C006F006460646C250BC
:102F20000618C30B0618C26E080E066ECA0EE82EEF
:102F3000FED7062EFCD7C282C2B2A1EF17F0A3EFD4
:102F400017F09CEF17F0C3CF04F0C4CF05F01200C8
:102F5000D00E066EFF0E076E04C008F005C009F023
:102F6000065008260750092209500AE10A0E085C9B
:102F7000D8A0BDEF17F0C0EF17F0010EC1EF17F0AA
:102F8000000E046E056A1200B80E0001846F000E78
:102F9000856F44EC12F0B80E0001846F000E856F4F
:102FA0001BEC0CF0B90E0001846F000E856F04EC71
:102FB00017F0F40E0001CF6F2F0ED06F120004C077
:102FC00006F005C007F0E7EF17F0044A052A04C031
:102FD000D9FF05C0DAFFDF50D8A4F1EF17F0F3EF07
:102FE00017F0E5EF17F00650045C046E0750055823
:102FF000056E1200BE0E046E000E056E26EC0BF080
:103000000001BE51D8B407EF18F009EF18F00DEF2A
:1030100018F0010EBB6F000EBE6F120004500602C6
:10302000F3CF08F0F4CF09F004500702F35009265B
:1030300005500602F350092608C004F009C005F047
:10304000120000FF0000000000000000000000006F
:0B305000000000000000000000F42F52
:10305C004AEC18F0E2EC15F0020EE0EC16F03AEC4B
:10306C0018F044EC18F01200B190B18EB192300E01
:10307C00B112B184A192A292A0821200500EB36E32
:10308C00380EB26EB1801200D08EF28EF28C12001D
:0C309C0006005C921100B19012001200BE
:020000040020DA
:08000000FFFFFFFFFFFFFFFF00
:020000040030CA
:0E000000000C191EFF8181FF0FC00FE00F40A2
:00000001FF
