:020000040000FA
:0400000055EF00F0C8
:060008005C822AED18F0F5
:100018005C80D8CF01F0E8CF02F0E0CF03F0A0A2D7
:1000280018EF00F01AEF00F04DEF00F0A1A21FEF5B
:1000380000F021EF00F04DEF00F0A1920001B82B85
:100048000A0EB819D8A42BEF00F02DEF00F03DEF01
:1000580000F0BB51D8A433EF00F035EF00F03DEFCE
:1000680000F0000EB86FE80ECF6F2F0ED06F49EF7B
:1000780000F0BB05D8A443EF00F045EF00F049EFCE
:1000880000F0620ECF6F2C0ED06F500EB36E380E8C
:10009800B26E03C0E0FF02C0E8FF01C0D8FF5C9069
:0600A800100079EF17F0D3
:10080000005265636172676120506F722066617685
:100810006F7221004320646520766163756E617399
:100820003A00543A253032642E2530326420430099
:1008300053696E20766163756E6173004269656EFF
:1008400076656E69646F73004261743A2530326474
:0D08500000534943435600233A256400003D
:10085E001950800B226E19501924286E18AE3AEFDB
:10086E0004F03CEF04F03DEF04F028802850D8B49B
:10087E0043EF04F045EF04F058EF04F02828D8A415
:10088E004BEF04F04DEF04F055EF04F0000E166E32
:10089E00000E176E000E186E000E196E188E60EF99
:1008AE0004F0000E166E000E176E000E186E000E7F
:1008BE00196E1D50800B221A1D501D24276E1CAE62
:1008CE006BEF04F06DEF04F06EEF04F0278027500D
:1008DE00D8B474EF04F076EF04F089EF04F0272813
:1008EE00D8A47CEF04F07EEF04F086EF04F0000E47
:1008FE001A6E000E1B6E000E1C6E000E1D6E1C8EF0
:10090E0091EF04F0000E1A6E000E1B6E000E1C6EA0
:10091E00000E1D6E2750D8B497EF04F099EF04F037
:10092E00A1EF04F02850D8A49FEF04F0A1EF04F03B
:10093E00ABEF04F0000E166E000E176E000E186E62
:10094E00000E196E43EF06F01C501602F3CF2DF079
:10095E00F4CF2EF02D50236E246A256A266A2E506F
:10096E00296E2A6A2B6A2C6A1B501702F3CF2DF0C0
:10097E00F4CF2EF02D502326000E242225222622DF
:10098E002E502926000E2A222B222C221A50180213
:10099E00F3CF2DF0F4CF2EF02D502326000E24226F
:1009AE00252226222E502926000E2A222B222C22E8
:1009BE0025C026F024C025F023C024F0236A1A5047
:1009CE001702F3CF2DF0F4CF2EF02D5023262E50FC
:1009DE002422000E2522000E26221B501602F3CFD3
:1009EE002DF0F4CF2EF02D5023262E502422000E63
:1009FE002522000E262225C026F024C025F023C075
:100A0E0024F0236A1A501602F3CF2DF0F4CF2EF0F5
:100A1E002D5023262E502422000E2522000E262293
:100A2E001C501702F3CF2DF0F4CF2EF02D502926A7
:100A3E002E502A22000E2B22000E2C221B501802A2
:100A4E00F3CF2DF0F4CF2EF02D5029262E502A2242
:100A5E00000E2B22000E2C221C501802F3CF2DF06C
:100A6E00F4CF2EF02D501E6E2E501F6E206A216A6E
:100A7E0020C021F01FC020F01EC01FF01E6A1E50A5
:100A8E0029261F502A2220502B2221502C2223C0EF
:100A9E001EF024C01FF025C020F026C021F0190E34
:100AAE005EEF05F0D890213220321F321E32E82E32
:100ABE0059EF05F01E5029261F502A2220502B22B6
:100ACE0021502C2225C026F024C025F023C024F06E
:100ADE00236A275028C01EF01F6A1E26000E1F22F2
:100AEE00820E1E242D6EFF0E1F202E6E94EF05F02B
:100AFE00D89029362A362B362C3626AE89EF05F0BD
:100B0E008BEF05F08CEF05F02980D8902336243634
:100B1E00253626362D06D8A02E062BAE99EF05F0DB
:100B2E009BEF05F07FEF05F0000E276E26AEA2EFCD
:100B3E0005F0A4EF05F0C8EF05F0FF0E23141E6EAE
:100B4E00FF0E24141F6EFF0E2514206E7F0E26142A
:100B5E00216E1E501F1020102110D8B4B9EF05F0D1
:100B6E00BBEF05F0BFEF05F0010E276EC8EF05F0E5
:100B7E0029A0C4EF05F0C6EF05F0C8EF05F0BBEFF6
:100B8E0005F02750D8B4CEEF05F0D0EF05F0F4EF16
:100B9E0005F0010E2926000E2A222B222C222CA033
:100BAE00DBEF05F0DDEF05F0F4EF05F029C01EF0E8
:100BBE002AC01FF02BC020F02CC021F0213421328E
:100BCE0020321F321E321EC029F01FC02AF020C054
:100BDE002BF021C02CF02D4A2E2A2EBEFFEF05F051
:100BEE002E5008E12D28D8A0FFEF05F001EF06F0FA
:100BFE000BEF06F0000E296E000E2A6E800E2B6E85
:100C0E007F0E2C6E39EF06F02EBE18EF06F02E502A
:100C1E0006E12D04D8B016EF06F018EF06F024EF1B
:100C2E0006F0000E296E000E2A6E000E2B6E000EC0
:100C3E002C6E000E226E39EF06F02DC028F0FF0E3E
:100C4E002916FF0E2A167F0E2B16000E2C1628A024
:100C5E0033EF06F035EF06F036EF06F02B8ED89018
:100C6E0028302C6E22502C1229C016F02AC017F0F4
:100C7E002BC018F02CC019F012003250800B3F6EB2
:100C8E0032503224466E31AE4FEF06F051EF06F081
:100C9E0052EF06F046804650D8B458EF06F05AEFA1
:100CAE0006F06FEF06F04628D8A460EF06F062EF6C
:100CBE0006F06AEF06F0000E2F6E000E306E000E7C
:100CCE00316E000E326E318E000E326E77EF06F000
:100CDE00000E2F6E000E306E000E316E000E326E54
:100CEE003650800B3F1A36503624476E35AE82EFA3
:100CFE0006F084EF06F085EF06F047804750D8B433
:100D0E008BEF06F08DEF06F0A2EF06F04728D8A481
:100D1E0093EF06F095EF06F09DEF06F0000E336EA2
:100D2E00000E346E000E356E000E366E358E000ED1
:100D3E00366EAAEF06F0000E336E000E346E000E05
:100D4E00356E000E366E3350341035103610D8A472
:100D5E00B3EF06F0B5EF06F0CDEF06F0000E2F6EF6
:100D6E00000E306E000E316E000E326E800E31129D
:100D7E007F0E32123F5032122FC02FF030C030F0A3
:100D8E0031C031F032C032F010EF08F04650D8A426
:100D9E00D3EF06F0D5EF06F0DFEF06F0000E2F6E64
:100DAE00000E306E000E316E000E326E10EF08F037
:100DBE00475046C037F0386A375E000E385A7F0EFD
:100DCE003724406E000E3820416E2FC03BF030C0ED
:100DDE003CF031C03DF032C03EF0000E2F6E000EE2
:100DEE00306E000E316E000E326E000E426E000E30
:100DFE00436E000E446E000E456E000E476E40EFC1
:100E0E0007F04750D8B40EEF07F010EF07F027EFBA
:100E1E0007F0D8903B363C363D363E36D8902F36CE
:100E2E0030363136323645AE1FEF07F021EF07F080
:100E3E0022EF07F02F80D89042364336443645369F
:100E4E0033503B5C34503C5835503D5836503E582C
:100E5E00D8A034EF07F036EF07F03FEF07F0458CE0
:100E6E0033503B5E34503C5A35503D5A36503E5A04
:100E7E00472A190E476446EF07F048EF07F008EFD0
:100E8E0007F03B503C103D103E10D8B451EF07F028
:100E9E0053EF07F06BEF07F042806BEF07F0D8903F
:100EAE002F3630363136323645AE60EF07F062EF10
:100EBE0007F063EF07F02F80D89042364336443662
:100ECE0045364006D8A0410631AE70EF07F072EFFE
:100EDE0007F056EF07F0000E476E45AE79EF07F0BC
:100EEE007BEF07F09FEF07F0FF0E4214376EFF0EF9
:100EFE004314386EFF0E4414396E7F0E45143A6E4D
:100F0E003750381039103A10D8B490EF07F092EFEE
:100F1E0007F096EF07F0010E476E9FEF07F02FA038
:100F2E009BEF07F09DEF07F09FEF07F092EF07F0B2
:100F3E004750D8B4A5EF07F0A7EF07F0CBEF07F0B7
:100F4E00010E2F26000E30223122322232A0B2EFB5
:100F5E0007F0B4EF07F0CBEF07F02FC037F030C03B
:100F6E0038F031C039F032C03AF03A343A323932D0
:100F7E003832373237C02FF038C030F039C031F048
:100F8E003AC032F0404A412A41BED6EF07F04150F6
:100F9E0008E14028D8A0D6EF07F0D8EF07F0E3EF2E
:100FAE0007F0000E416E4068000E2F6E000E306E80
:100FBE00000E316E000E326E41BEF0EF07F0415062
:100FCE0006E14004D8B0EEEF07F0F0EF07F0FEEFC9
:100FDE0007F0000E416E000E406E000E2F6E000EDA
:100FEE00306E000E316E000E326E000E3F6E40C03F
:100FFE0046F046A005EF08F007EF08F00AEF08F0FC
:10100E00318E0BEF08F0319ED8904630326EC1EF24
:10101E0006F0120045C0D9FF46C0DAFFDECFF6FF5C
:10102E00DDCFF7FF0800F550250AD8A421EF08F010
:10103E0023EF08F0ABEF09F045C0D9FF46C0DAFF49
:10104E00DE2A000EDD22000E0001976F000E966F55
:10105E0096C05AF097C05BF058685968000E696FD9
:10106E00000E686F81EF08F05A8045C0D9FF46C068
:10107E00DAFFDE2A000EDD2281EF08F05A823CEF05
:10108E0008F05A843CEF08F05A863CEF08F05A8874
:10109E003CEF08F0000E696F010E686F81EF08F0EB
:1010AE0045C0D9FF46C0DAFFDECFF6FFDDCFF7FF32
:1010BE000800F550496E4A6A4A50000AD8B46AEFE1
:1010CE0008F051EF08F04950200AD8B44BEF08F061
:1010DE00030AD8B44EEF08F0080AD8B448EF08F067
:1010EE00060AD8B43BEF08F01D0AD8B445EF08F055
:1010FE0051EF08F068516911D8B488EF08F08AEF03
:10110E0008F057EF08F05AA08FEF08F091EF08F0B3
:10111E0092EF08F05A9245C0D9FF46C0DAFFDECFF3
:10112E00F6FFDDCFF7FF0800F5502A0AD8A4A2EF8C
:10113E0008F0A4EF08F0CDEF08F045C0D9FF46C087
:10114E00DAFFDE2A000EDD2247C0D9FF48C0DAFFE3
:10115E00DFCF49F0020EDE26DFCF4AF0000EDD2291
:10116E0049C0D9FF4AC0DAFFDECF96F0DDCF97F047
:10117E0097BFC6EF08F0C4EF08F011EF09F05A80E0
:10118E00966D971FD8B0972B11EF09F045C0D9FF78
:10119E0046C0DAFFDECF0BF0DDCF0CF0F9EC0DF030
:1011AE000BC096F00CC097F0E4EF08F045C0D9FFE5
:1011BE0046C0DAFFDE2A000EDD22D00E496EFF0E8B
:1011CE004A6E45C0D9FF46C0DAFFDECFF6FFDDCF4F
:1011DE00F7FF0800F5504B6E4C6A49504B264A50AB
:1011EE004C224C500AE10A0E4B5CD8A001EF09F0DC
:1011FE0004EF09F0010E05EF09F0000E00016A6F11
:10120E006B6B6A516B11D8A40FEF09F011EF09F057
:10121E00DDEF08F045C0D9FF46C0DAFFDECFF6FF9E
:10122E00DDCFF7FF0800F550640AD8B421EF09F0BE
:10123E0023EF09F035EF09F045C0D9FF46C0DAFFBC
:10124E00DECFF6FFDDCFF7FF0800F550690AD8A410
:10125E0033EF09F035EF09F075EF09F045C0D9FF0E
:10126E0046C0DAFFDE2A000EDD2247C0D9FF48C095
:10127E00DAFFDFCF49F0020EDE26DFCF4AF0000E96
:10128E00DD2249C0D9FF4AC0DAFFDECF60F0DDCFE4
:10129E0061F0000E61BFFF0E626F636F646F656F6A
:1012AE00666F676F43C01FF044C020F060C021F02E
:1012BE0061C022F062C023F063C024F064C025F048
:1012CE0065C026F066C027F067C028F0C7EC09F0AD
:1012DE001FC043F020C044F0C6EF09F045C0D9FF4F
:1012EE0046C0DAFFDECFF6FFDDCFF7FF0800F55080
:1012FE00250AD8A485EF09F087EF09F09EEF09F0D3
:10130E0045C0D9FF46C0DAFFDE2A000EDD22000EF0
:10131E00056E250E046E43C006F044C007F038EC8F
:10132E0014F0000E446E010E436EC6EF09F045C078
:10133E00D9FF46C0DAFFDE2A000EDD22000E446E13
:10134E00000E436EC6EF09F045C0D9FF46C0DAFF66
:10135E00DECFF6FFDDCFF7FF0800F550046E056A0D
:10136E0043C006F044C007F038EC14F045C0D9FF76
:10137E0046C0DAFFDE2A000EDD2298EF09F01200D9
:10138E0021C039F022C03AF023C03BF024C03CF01B
:10139E0025C03DF026C03EF027C03FF028C040F0EB
:1013AE0040BEDCEF09F0DFEF09F0010EE0EF09F0CF
:1013BE00000E376E386A37503810D8B4E9EF09F09E
:1013CE00EBEF09F0FBEF09F0401E3F1E3E1E3D1EE7
:1013DE003C1E3B1E3A1E396C000E3A223B223C222A
:1013EE003D223E223F22402259BE00EF0AF002EF7C
:1013FE000AF003EF0AF05A9259BE10EF0AF0595054
:10140E0006E15804D8B00EEF0AF010EF0AF016EF0E
:10141E000AF0000E346E010E336E1AEF0AF058C049
:10142E0033F059C034F096C035F097C036F03750CF
:10143E003810D8A425EF0AF027EF0AF02EEF0AF0A5
:10144E005AA42CEF0AF02EEF0AF031EF0AF035060F
:10145E00D8A03606000E426E1F0E416E000E000121
:10146E00B76FB6EF0AF04106D8A04206980E412497
:10147E00D96E000E4220DA6E39C004F03AC005F083
:10148E003BC006F03CC007F03DC008F03EC009F07E
:10149E003FC00AF040C00BF00A0E0C6E000E0D6E2F
:1014AE00000E0E6E000E0F6E000E106E000E116E00
:1014BE00000E126E000E136E40EC10F004C029F0F8
:1014CE0005C02AF006C02BF007C02CF008C02DF086
:1014DE0009C02EF00AC02FF00BC030F029C016F054
:1014EE002BC017F09AEC17F01650300FDF6E330644
:1014FE00D8A034063506D8A0360639C004F03AC056
:10150E0005F03BC006F03CC007F03DC008F03EC001
:10151E0009F03FC00AF040C00BF00A0E0C6E000E30
:10152E000D6E000E0E6E000E0F6E000E106E000E83
:10153E00116E000E126E000E136EC1EC0EF004C092
:10154E0039F005C03AF006C03BF007C03CF008C0C9
:10155E003DF009C03EF00AC03FF00BC040F042BE65
:10156E00C1EF0AF0425008E14104D8A0C1EF0AF0E1
:10157E00C3EF0AF0F3EF0AF039503A103B103C106B
:10158E003D103E103F104010D8A4D0EF0AF0D2EF1D
:10159E000AF03AEF0AF034BEDFEF0AF0345006E1FB
:1015AE003304D8B0DDEF0AF0DFEF0AF03AEF0AF0BD
:1015BE0036BEEAEF0AF0365008E13504D8A0EAEF5D
:1015CE000AF0ECEF0AF0F3EF0AF05AB2F1EF0AF07C
:1015DE00F3EF0AF03AEF0AF037503810D8A4FAEFCA
:1015EE000AF0FCEF0AF003EF0BF05AA401EF0BF038
:1015FE0003EF0BF021EF0BF04106D8A04206375057
:10160E003810D8A40DEF0BF00FEF0BF015EF0BF019
:10161E00000E326E2B0E316E19EF0BF0000E326E85
:10162E002D0E316E980E4124D96E000E4220DA6EC8
:10163E0031C0DFFF1FC014F020C015F0980E4124FA
:10164E00166E000E4220176E35C018F036C019F017
:10165E009DEC14F014C01FF015C020F0120004C051
:10166E00D9FF05C0DAFF000EDF6EF00E816EF00EB0
:10167E008118D8B445EF0BF047EF0BF01FEF0CF0CD
:10168E00FE0E816E81B84EEF0BF050EF0BF056EF61
:10169E000BF004C0D9FF05C0DAFF2A0EDF6E81BA47
:1016AE005BEF0BF05DEF0BF063EF0BF004C0D9FFB7
:1016BE0005C0DAFF300EDF6E81BC68EF0BF06AEF0B
:1016CE000BF070EF0BF004C0D9FF05C0DAFF230E4C
:1016DE00DF6E81BE75EF0BF077EF0BF07DEF0BF049
:1016EE0004C0D9FF05C0DAFF440EDF6EFD0E816E19
:1016FE0081B884EF0BF086EF0BF08CEF0BF004C08B
:10170E00D9FF05C0DAFF370EDF6E81BA91EF0BF00D
:10171E0093EF0BF099EF0BF004C0D9FF05C0DAFF81
:10172E00380EDF6E81BC9EEF0BF0A0EF0BF0A6EF34
:10173E000BF004C0D9FF05C0DAFF390EDF6E81BE93
:10174E00ABEF0BF0ADEF0BF0B3EF0BF004C0D9FF26
:10175E0005C0DAFF430EDF6EFB0E816E81B8BAEF65
:10176E000BF0BCEF0BF0C2EF0BF004C0D9FF05C0BD
:10177E00DAFF340EDF6E81BAC7EF0BF0C9EF0BF054
:10178E00CFEF0BF004C0D9FF05C0DAFF350EDF6EC8
:10179E0081BCD4EF0BF0D6EF0BF0DCEF0BF004C0F6
:1017AE00D9FF05C0DAFF360EDF6E81BEE1EF0BF01A
:1017BE00E3EF0BF0E9EF0BF004C0D9FF05C0DAFF41
:1017CE00420EDF6EF70E816E81B8F0EF0BF0F2EF86
:1017DE000BF0F8EF0BF004C0D9FF05C0DAFF310EA5
:1017EE00DF6E81BAFDEF0BF0FFEF0BF005EF0CF0A3
:1017FE0004C0D9FF05C0DAFF320EDF6E81BC0AEFDE
:10180E000CF00CEF0CF012EF0CF004C0D9FF05C079
:10181E00DAFF330EDF6E81BE17EF0CF019EF0CF00E
:10182E001FEF0CF004C0D9FF05C0DAFF410EDF6ECA
:10183E00F00E816EF00E8118D8A428EF0CF02AEF6E
:10184E000CF021EF0CF01200070E00018425046E3F
:10185E00000E8521056E000E076E000E066E000E40
:10186E00096E100E086E85EC0FF0010EBAEC17F033
:10187E00000120EE04F08451D9268551DA2204C0ED
:10188E00DEFF05C0DDFF000E336E000E346E800EDF
:10189E00356E440E366E000E1A6E000E1B6EA00EC6
:1018AE001C6E400E1D6E20EE04F08451D92685511B
:1018BE00DA22DECF86F0DDCF87F086C008F087C053
:1018CE0009F00A6A0B6A000E1FEC0DF008C016F044
:1018DE0009C017F00AC018F00BC019F02FEC04F075
:1018EE0016C02FF017C030F018C031F019C032F00A
:1018FE0044EC06F02FC088F030C089F031C08AF079
:10190E0032C08BF0000E1A6E000E1B6EC80E1C6ECF
:10191E00420E1D6E88C016F089C017F08AC018F0EE
:10192E008BC019F02FEC04F016C048F017C049F028
:10193E0018C04AF019C04BF0D0EC12F0000120EEA6
:10194E0004F08451D9268551DA2248C0DEFF49C001
:10195E00DDFF000E336E000E346EFA0E356E430E42
:10196E00366E000E1A6E000E1B6EC80E1C6E420EE8
:10197E001D6E20EE04F08451D9268551DA22DECF79
:10198E0086F0DDCF87F086C008F087C009F00A6ABE
:10199E000B6A000E1FEC0DF008C016F009C017F010
:1019AE000AC018F00BC019F02FEC04F016C02FF07F
:1019BE0017C030F018C031F019C032F044EC06F008
:1019CE002FC048F030C049F031C04AF032C04BF061
:1019DE00D0EC12F0000120EE04F08451D92685518E
:1019EE00DA2248C0DEFF49C0DDFF070E8425726F84
:1019FE00000E8521736F480E746F080E756F20EE02
:101A0E0004F08451D9268551DA22DECF76F0DDCF6F
:101A1E0077F09AEC16F0000E076E070E0001842583
:101A2E00086E000E8521096E020ED2EC13F0120024
:101A3E00106E1050D8B426EF0DF028EF0DF04AEFCF
:101A4E000DF00BBE2FEF0DF02DEF0DF04AEF0DF058
:101A5E0008C00CF009C00DF00AC00EF00BC00FF05C
:101A6E000C1E0D1E0E1E0F1E0C2A000E0D220E2217
:101A7E000F220CC012F00DC013F00EC014F00FC0E8
:101A8E0015F052EF0DF008C012F009C013F00AC0A5
:101A9E0014F00BC015F0085009100A100B10D8A442
:101AAE005BEF0DF05DEF0DF067EF0DF0000E086EC1
:101ABE00000E096E000E0A6E000E0B6EF8EF0DF0A2
:101ACE00960E116E71EF0DF0112AD8901532143258
:101ADE0013321232000E12140C6E000E13140D6E11
:101AEE00000E14140E6EFE0E15140F6E0C500D100B
:101AFE000E100F10D8A486EF0DF088EF0DF06BEFDF
:101B0E000DF096EF0DF0112A010E1226000E132283
:101B1E0014221522D8901532143213321232000EBE
:101B2E0012140C6E000E13140D6E000E14140E6EA5
:101B3E00FF0E15140F6E0C500D100E100F10D8A4B2
:101B4E00ABEF0DF0ADEF0DF08AEF0DF0B5EF0DF040
:101B5E001106D890123613361436153614BEBAEF57
:101B6E000DF0BCEF0DF0C4EF0DF0020E1160C2EFE0
:101B7E000DF0C4EF0DF0AFEF0DF011B0C9EF0DF099
:101B8E00CBEF0DF0CCEF0DF0149ED890113211C0AA
:101B9E000CF00D6A0E6A0F6A0CC00FF00E6A0D6A19
:101BAE000C6A0C5012120D5013120E5014120F50CC
:101BBE0015121050D8B4E6EF0DF0E8EF0DF0F0EF7F
:101BCE000DF00BBEEFEF0DF0EDEF0DF0F0EF0DF0B1
:101BDE00158E12C008F013C009F014C00AF015C01B
:101BEE000BF01200000E196E000E186E000E126E23
:101BFE00000E116E05EF0EF00B4A0C2A010E176E39
:101C0E000BC0F6FF0CC0F7FF0800F550200AD8B441
:101C1E0013EF0EF015EF0EF032EF0EF0F70E0D6E15
:101C2E00FF0E0E6E0BC0F6FF0CC0F7FF0800F5504E
:101C3E000F6E106A0D500F260E501022105009E133
:101C4E00050E0F5CD8A02EEF0EF030EF0EF032EF37
:101C5E000EF0000E176E17C013F0146A1350141006
:101C6E00D8A43CEF0EF03EEF0EF003EF0EF048EF6F
:101C7E000EF0000E126E010E116E0B4A0C2A7DEF45
:101C8E000EF00BC0F6FF0CC0F7FF0800F5500D6EFE
:101C9E000E6A0E50000AD8B457EF0EF07DEF0EF01C
:101CAE000D502B0AD8B444EF0EF0060AD8B440EF0C
:101CBE000EF07DEF0EF018C004F019C005F0000E06
:101CCE00076E0A0E066E6AEC18F00BC0F6FF0CC01B
:101CDE00F7FF0800F550045E000E055A300E04247E
:101CEE00186E000E0520196E44EF0EF0D00E0D6E1C
:101CFE00FF0E0E6E0BC0F6FF0CC0F7FF0800F5507E
:101D0E000F6E106A0D500F260E50102210500AE161
:101D1E000A0E0F5CD8A096EF0EF099EF0EF0010EA2
:101D2E009AEF0EF0000E156E166A15501610D8A406
:101D3E00A3EF0EF0A5EF0EF062EF0EF011501210A1
:101D4E00D8A4ACEF0EF0AEEF0EF0BCEF0EF018C054
:101D5E000DF019C00EF00D1E0E1E0D4A0E2A0DC0EE
:101D6E000BF00EC00CF0C0EF0EF018C00BF019C047
:101D7E000CF01200000E156E13BECAEF0EF0C8EF77
:101D8E000EF0DCEF0EF0131E121E111E101E0F1E93
:101D9E000E1E0D1E0C6C000E0D220E220F22102296
:101DAE00112212221322010E156E0BBEE3EF0EF05E
:101DBE00E1EF0EF0F5EF0EF00B1E0A1E091E081EC7
:101DCE00071E061E051E046C000E052206220722A3
:101DDE00082209220A220B22010E151A20EE16F0F5
:101DEE00070EDE6AE806FDE20C500D100E100F1005
:101DFE001010111012101310D8B408EF0FF00AEFD4
:101E0E000FF05CEF0FF0010E146E18EF0FF0D8907C
:101E1E000C360D360E360F36103611361236133688
:101E2E00142A13AE1DEF0FF01FEF0FF00EEF0FF091
:101E3E00D89016361736183619361A361B361C3603
:101E4E001D360C50045C0D5005580E5006580F50A0
:101E5E000758105008581150095812500A5813506C
:101E6E000B58D8A03DEF0FF03FEF0FF050EF0FF0F3
:101E7E000C50045E0D50055A0E50065A0F50075A5C
:101E8E001050085A1150095A12500A5A13500B5A30
:101E9E001680D89013321232113210320F320E32A7
:101EAE000D320C32142E1FEF0FF01550D8B462EF16
:101EBE000FF064EF0FF074EF0FF01D1E1C1E1B1EB3
:101ECE001A1E191E181E171E166C000E1722182227
:101EDE0019221A221B221C221D2216C004F017C022
:101EEE0005F018C006F019C007F01AC008F01BC0A4
:101EFE0009F01CC00AF01DC00BF0120004C00EF059
:101F0E0005C00FF008500910D8A490EF0FF092EF13
:101F1E000FF094EF0FF03FEF10F00EC0D9FF0FC08F
:101F2E00DAFF06C0DFFF08500E240A6E09500F209C
:101F3E000B6EFF0E0A24D96EFF0E0B20DA6E06C052
:101F4E00DFFF095007E1030E085CD8B0B1EF0FF0C8
:101F5E00B3EF0FF0B5EF0FF03FEF10F020EE01F002
:101F6E000E50D9260F50DA2206C0DFFF20EE02F007
:101F7E000E50D9260F50DA2206C0DFFF08500E246D
:101F8E000A6E09500F200B6EFE0E0A24D96EFF0E3C
:101F9E000B20DA6E06C0DFFF08500E240A6E0950C1
:101FAE000F200B6EFD0E0A24D96EFF0E0B20DA6E7B
:101FBE0006C0DFFF095007E1070E085CD8B0EAEF54
:101FCE000FF0ECEF0FF0EEEF0FF03FEF10F020EE12
:101FDE0003F00E50D9260F50DA2206C0DFFF08504C
:101FEE000E240A6E09500F200B6EFC0E0A24D96EB9
:101FFE00FF0E0B20DA6E06C0DFFF095007E1090E57
:10200E00085CD8B00DEF10F00FEF10F011EF10F0DC
:10201E003FEF10F00EC00AF00FC00BF00A1E0B1EA1
:10202E000A4A0B2A030E0A140C6E0D6A0C500E2669
:10203E000D500F220C50085E0D50095AFC0E08165A
:10204E00FF0E091636EF10F00EC0D9FF0FC0DAFFE3
:10205E0006C0DFFF0806D8A009060E4A0F2A085050
:10206E000910D8A43DEF10F03FEF10F02BEF10F059
:10207E001200000E156E0BBE49EF10F047EF10F078
:10208E005BEF10F00B1E0A1E091E081E071E061E11
:10209E00051E046C000E05220622072208220922C4
:1020AE000A220B22010E156E13BE62EF10F060EFC6
:1020BE0010F072EF10F0131E121E111E101E0F1EC6
:1020CE000E1E0D1E0C6C000E0D220E220F22102263
:1020DE001122122213220C500D100E100F10101080
:1020EE00111012101310D8B47FEF10F081EF10F012
:1020FE00C9EF10F0010E146E8FEF10F0D8900C3661
:10210E000D360E360F361036113612361336142A99
:10211E0013AE94EF10F096EF10F085EF10F00C5018
:10212E00045C0D5005580E5006580F5007581050AD
:10213E0008581150095812500A5813500B58D8A06D
:10214E00ABEF10F0ADEF10F0BDEF10F00C50045EE1
:10215E000D50055A0E50065A0F50075A1050085A75
:10216E001150095A12500A5A13500B5AD890133262
:10217E001232113210320F320E320D320C32142E48
:10218E0096EF10F01550D8B4CFEF10F0D1EF10F04D
:10219E00E1EF10F00B1E0A1E091E081E071E061E7A
:1021AE00051E046C000E05220622072208220922B3
:1021BE000A220B2204C004F005C005F006C006F08A
:1021CE0007C007F008C008F009C009F00AC00AF0FD
:1021DE000BC00BF01200066E8C968C8406C004F0B9
:1021EE00070E056E04340432052EF9EF10F0010EC1
:1021FE000416043204328C5004187F0B04188C6EB3
:10220E0006C004F0060E056E04340432052E0BEFE4
:10221E0011F0010E0416043A044604468C500418BC
:10222E00BF0B04188C6E06C004F0050E056E043448
:10223E000432052E1EEF11F0010E0416043A044668
:10224E008C500418DF0B04188C6E06C004F0040EBC
:10225E00056E04340432052E30EF11F0010E041613
:10226E00043A8C500418EF0B04188C6E030EE82EF3
:10227E00FED700F08C86050EE82EFED78C9606C093
:10228E0004F0030E056E04340432052E4AEF11F0ED
:10229E00010E0416043204328C5004187F0B0418FD
:1022AE008C6E06C004F00434043204340432010E81
:1022BE000416043A044604468C500418BF0B041846
:1022CE008C6E06C004F0010E056E04340432052E29
:1022DE006CEF11F0010E0416043A04468C500418EB
:1022EE00DF0B04188C6E06C004F0010E0416043ABF
:1022FE008C500418EF0B04188C6E030EE82EFED7CC
:10230E0000F08C86050EE82EFED78C96050EE82E74
:10231E00FED7160E046E6C0EE82EFED7042EFCD7DA
:10232E0000D01200070E00018425046E000E8521D8
:10233E00056E000E076E000E066E000E096E100E74
:10234E00086E85EC0FF0000EBAEC17F004C008F022
:10235E0005C009F00A6A0B6A000E1FEC0DF008C0EA
:10236E0086F009C087F00AC088F00BC089F0F60E1F
:10237E001A6E280E1B6E9C0E1C6E400E1D6E86C0B5
:10238E0016F087C017F088C018F089C019F02FEC2E
:10239E0004F016C02FF017C030F018C031F019C07D
:1023AE0032F0000E336E000E346E200E356E410E7E
:1023BE00366E44EC06F02FC086F030C087F031C088
:1023CE0088F032C089F0070E00018425726F000E6E
:1023DE008521736F220E746F080E756F86C048F0DC
:1023EE0087C049F088C04AF089C04BF0D0EC12F09B
:1023FE0048500001766F776B000E1A6E000E1B6E42
:10240E00C80E1C6E420E1D6E86C016F087C017F0E9
:10241E0088C018F089C019F02FEC04F016C048F0EF
:10242E0017C049F018C04AF019C04BF0D0EC12F0AA
:10243E004850526E536A000E556E640E546E5EEC2A
:10244E0015F052500001786F796B9AEC16F0000E71
:10245E00076E070E00018425086E000E8521096E99
:10246E00010ED2EC13F01200066E8C968C94046A58
:10247E0006AE01D0042A010E0416043204328C502A
:10248E0004187F0B04188C6E06C004F0060E056E41
:10249E00D8900432052E4FEF12F0010E0416043AB6
:1024AE00044604468C500418BF0B04188C6E06C0EC
:1024BE0004F0050E056ED8900432052E62EF12F070
:1024CE00010E0416043A04468C500418DF0B04184F
:1024DE008C6E06C004F0043A0F0E0416010E04169C
:1024EE00043A8C500418EF0B04188C6E030EE82E71
:1024FE00FED700F08C86050EE82EFED78C9606C011
:10250E0004F0D8900432D8900432D8900432010EE0
:10251E000416043204328C5004187F0B04188C6E8F
:10252E0006C004F0D8900432D8900432010E04167E
:10253E00043A044604468C500418BF0B04188C6EE3
:10254E0006C004F0D8900432010E0416043A044674
:10255E008C500418DF0B04188C6E06C004F0010EAC
:10256E000416043A8C500418EF0B04188C6E030EEC
:10257E00E82EFED700F08C86050EE82EFED78C9640
:10258E00160E046E6C0EE82EFED7042EFCD700D06D
:10259E0012004A344B34516E5150D8A4D9EF12F078
:1025AE00DBEF12F0E5EF12F0000E486E000E496EF2
:1025BE00000E4A6E000E4B6E52EF13F048C04CF0F8
:1025CE0049C04DF04AC04EF04BC04FF0200EF5EF13
:1025DE0012F0D8904F324E324D324C32E82EF0EF90
:1025EE0012F04C50506E4A8EFF0E4816FF0E4916D2
:1025FE00FF0E4A16000E4B16960E515E51BE0CEF94
:10260E0013F00AEF13F022EF13F05150800A970FD8
:10261E00D8B014EF13F016EF13F018EF13F0DBEF42
:10262E0012F0D8904B324A3249324832513E18EFAE
:10263E0013F03AEF13F01F0E516428EF13F02AEF48
:10264E0013F032EF13F0DBEF12F0D8904836493624
:10265E004A364B3651065150D8A438EF13F03AEFA4
:10266E0013F02CEF13F05050D8B440EF13F042EFAC
:10267E0013F04AEF13F04B1E4A1E491E486C000E13
:10268E0049224A224B2248C048F049C049F04AC06C
:10269E004AF04BC04BF01200000E0001876F000E87
:1026AE00866F000E886F070E8425046E000E85213E
:1026BE00056E000E076E000E066E000E096E100EF1
:1026CE00086E85EC0FF0000E076E140E086E080EE5
:1026DE00096E010ED2EC13F0BDEF13F0880E046EEE
:1026EE00000E056E36EC0BF02F0E0001886582EFA2
:1026FE0013F084EF13F0A1EF13F03A0E88618AEF16
:10270E0013F08CEF13F0A1EF13F086C004F087C026
:10271E0005F0000E076E0A0E066E6AEC18F0000148
:10272E0088510426000E0522D00E0424866FFF0E5B
:10273E000520876F070E8425726F000E8521736F3B
:10274E00590E746F080E756F86C076F087C077F0DD
:10275E009AEC16F0000E076E070E00018425086E27
:10276E00000E8521096E020ED2EC13F02A0E000126
:10277E008819D8A4C5EF13F0C7EF13F075EF13F057
:10278E0020EE01F08451D9268551DA2286C0DEFF73
:10279E0087C0DDFF12000C6EE9EF13F00750800FBB
:1027AE000D6E06EF14F00750C00F0D6E06EF14F00D
:1027BE000750940F0D6E06EF14F00750D40F0D6EE8
:1027CE0006EF14F00C500A6E0B6A0B50000AD8B4C8
:1027DE00F3EF13F006EF14F00A50010AD8B4D5EF58
:1027EE0013F0030AD8B4DAEF13F0010AD8B4DFEF0E
:1027FE0013F0070AD8B4E4EF13F006EF14F00D50FF
:10280E003BEC12F01FEF14F008C0F6FF09C0F7FF03
:10281E00F86A070EF76403D00800F55005D0F6CF1E
:10282E00E1FFF7CFE2FFE750F2EC10F0084A092A79
:10283E0008C0F6FF09C0F7FFF86A070EF76403D069
:10284E000800F55005D0F6CFE1FFF7CFE2FFE750D5
:10285E000009D8A435EF14F037EF14F00BEF14F095
:10286E00120006500710D8B43FEF14F041EF14F0E9
:10287E004AEF14F006500710D8A448EF14F04AEFB0
:10288E0014F04FEF14F00450B4EC18F09CEF14F069
:10289E0020EE04F00650D9260750DA22DE50DE1064
:1028AE00D8B45CEF14F05EEF14F079EF14F020EE74
:1028BE0004F00650D9260750DA2210EE02F0065028
:1028CE00E1260750E222DE50E65CE650800A0C6EEE
:1028DE00DE50800A0C58D8B077EF14F079EF14F070
:1028EE009CEF14F020EE02F00650D9260750DA22A3
:1028FE00DECF08F0DDCF09F006C0D9FF07C0DAFF42
:10290E00DECF0AF0DDCF0BF008500A24D96E095045
:10291E000B20DA6E04C0DFFF20EE02F00650D9263F
:10292E000750DA22DE2A000EDD2212005AA0A2EF94
:10293E0014F0A4EF14F0AEEF14F016C00DF017C0A3
:10294E000EF014C00FF015C010F057EC17F019BEB2
:10295E00B3EF14F0B5EF14F0BBEF14F018C01DF088
:10296E0019C01EF0BFEF14F0000E1E6E000E1D6E8D
:10297E00000E1C6E000E1B6ED1EF14F0000E056ED5
:10298E00200E046E14C006F015C007F038EC14F0DB
:10299E001B4A1C2A1D501B5C1C50800A1A6E1E50AE
:1029AE00800A1A58D8A0DEEF14F0E0EF14F0C5EF4D
:1029BE0014F05AB0E5EF14F0E7EF14F0F1EF14F065
:1029CE0016C00DF017C00EF014C00FF015C010F0A9
:1029DE0057EC17F016C004F017C005F00FEC18F006
:1029EE001D500424146E1E500520156E1200959E67
:1029FE00959C959A959895969594850E076E760E5C
:102A0E00E82EFED7072EFCD700D0000E086E8C9E47
:102A1E008C9C8C8A8C888C968C948C9E8C9C8C8AAC
:102A2E008C888C868C94050EE82EFED78C9E8C9C02
:102A3E008C8A8C888C968C94160E076E6C0EE82EF3
:102A4E00FED7072EFCD700D0082A030E086432EFFB
:102A5E0015F034EF15F00EEF15F08C9E8C9C8C8AD1
:102A6E008C988C968C948C9E8C9C8C8A8C988C8654
:102A7E008C94050EE82EFED78C9E8C9C8C8A8C989E
:102A8E008C968C94160E076E6C0EE82EFED7072EC3
:102A9E00FCD700D0280E3BEC12F0100E3BEC12F0DF
:102AAE00010E3BEC12F00F0E3BEC12F01200000E7A
:102ABE00576E53BE67EF15F065EF15F06DEF15F01D
:102ACE00526C531ED8B0532A010E576E55BE74EF7A
:102ADE0015F072EF15F078EF15F0546C551ED8B056
:102AEE00552A54505510D8B47FEF15F081EF15F0DC
:102AFE00A5EF15F0010E566E89EF15F0D8905436ED
:102B0E005536562A55AE8EEF15F090EF15F085EF2F
:102B1E0015F05450525C55505358D8A099EF15F0FB
:102B2E009BEF15F09FEF15F05450525E5550535ACF
:102B3E00D89055325432562E90EF15F05750D8B4D7
:102B4E00ABEF15F0ADEF15F0B1EF15F0526C531E63
:102B5E00D8B0532A52C052F053C053F01200FEECBC
:102B6E0014F0010E3BEC12F00C0E3BEC12F0020EC8
:102B7E000F6E860E0E6E990EE82EFED70E2EFCD719
:102B8E000F2EFAD700F0030E076E3C0E086E080EDD
:102B9E00096E010ED2EC13F0060E076E510E086E82
:102BAE00080E096E020ED2EC13F01F0E0F6E710E90
:102BBE000E6E1E0EE82EFED70E2EFCD70F2EFAD757
:102BCE0000D0010E3BEC12F0020E0F6E860E0E6E52
:102BDE00990EE82EFED70E2EFCD70F2EFAD700F048
:102BEE001200F00E936EF19E92967DEC18F089A66F
:102BFE0003EF16F008EF16F000018C6B8C2B0AEF2A
:102C0E0016F000018C6B8C478C478C4789508C19C1
:102C1E00F70B8C19896E020E00018D6F860E8C6F6C
:102C2E00990EE82EFED78C2FFCD78D2FFAD720EEDB
:102C3E00CFF002D82DEF16F00500FA6EDE50FD6EC5
:102C4E00DE50FE6EF850FF6EFA501200FEEF15F0D9
:102C5E0055EF00F0000E0001BB6FB0EC18F0010E46
:102C6E003BEC12F0020E00018A6F860E896F990EF0
:102C7E00E82EFED7892FFCD78A2FFAD7B80E00017F
:102C8E00846F000E856F53EC13F0010E3BEC12F0C7
:102C9E00020E00018A6F860E896F990EE82EFED7FE
:102CAE00892FFCD78A2FFAD7B80E046E000E056E48
:102CBE00ADEC18F0860E0001CF6F300ED06FA3EC86
:102CCE0018F012006EC04DF06FC04EF0000E0001F5
:102CDE00956F000E946F87EF16F06CC043F06DC0C9
:102CEE0044F04D0E456E000E466E70C047F071C03A
:102CFE0048F011EC08F043500001942744509523FE
:102D0E004DC0F6FF4EC0F7FF0800F5500009D8A4DD
:102D1E0093EF16F095EF16F074EF16F094C06CF07A
:102D2E0095C06DF01200760E00017C6F000E7D6F67
:102D3E0072C07EF073C07FF0000E816F000E806F48
:102D4E00000E836F000E826F7E0E6C6F000E6D6F25
:102D5E0074C06EF075C06FF07C0E706F000E716FE8
:102D6E0069EC16F0000180517225D96E81517321E4
:102D7E00DA6E000EDF6E1200010E0A6E200E0418BF
:102D8E000510D8B4CDEF16F0CFEF16F0E8EF16F031
:102D9E00F70E066EFF0E076E04C008F005C009F0B0
:102DAE000650082607500922095009E1050E085C55
:102DBE00D8A0E4EF16F0E6EF16F0E8EF16F0000EEE
:102DCE000A6E0AC004F0056A1200010E3BEC12F006
:102DDE00020E0F6E860E0E6E990EE82EFED70E2E7A
:102DEE00FCD70F2EFAD700F0000E076E300E086ECD
:102DFE00080E096E010ED2EC13F0000E076E010ED6
:102E0E00086E080E096E020ED2EC13F0FBEF16F0F0
:102E1E001200056E0550D8A417EF17F019EF17F032
:102E2E001FEF17F0C150F00B0E09C16E27EF17F010
:102E3E0005500F08046EC1500418F00B0418C16E33
:102E4E00CF0EC116C050C70B1009C06EC050F80B84
:102E5E000309C06EC08EC280120020EE86F0050EF1
:102E6E00DE6AE806FDE2860E0001726F000E736FD9
:102E7E00570E746F080E756F84C0D9FF85C0DAFFC8
:102E8E00DECF76F0DDCF77F09AEC16F00A0E076EF5
:102E9E00860E086E000E096E020ED2EC13F01200B2
:102EAE00000E136E000E126E68EF17F011C004F0D4
:102EBE00056A0FC006F010C007F038EC14F0124A85
:102ECE00132A12500D24D96E13500E20DA6EDF50D5
:102EDE00116E1150D8A476EF17F078EF17F05DEF62
:102EEE0017F012001E0EF66E310EF76E000EF86E13
:102EFE0000EEB8F010EE19F00900F5CFEEFFE55038
:102F0E00E150FAE100EE8EF02A0EEE6AE806FDE1DF
:102F1E005B6A5A6A596A586A5C905C92000EF86E47
:102F2E000001F8EF15F017BEA7EF17F0175006E1E6
:102F3E001604D8B0A5EF17F0A7EF17F0B5EF17F0FE
:102F4E0016C018F017C019F0181E191E184A192AA3
:102F5E0018C016F019C017F0B9EF17F016C016F01A
:102F6E0017C017F01200076E07C006F00646064699
:102F7E00C2500618C30B0618C26E080E066ECA0E95
:102F8E00E82EFED7062EFCD7C282C2B2D1EF17F0C2
:102F9E00D3EF17F0CCEF17F0C3CF04F0C4CF05F08A
:102FAE001200D00E066EFF0E076E04C008F005C0AC
:102FBE0009F0065008260750092209500AE10A0EA8
:102FCE00085CD8A0EDEF17F0F0EF17F0010EF1EF5F
:102FDE0017F0000E046E056A1200B80E0001846F21
:102FEE00000E856F99EC11F0B80E0001846F000E83
:102FFE00856F2BEC0CF0B90E0001846F000E856FFF
:10300E0034EC17F0860E0001CF6F300ED06F120029
:10301E0004C006F005C007F017EF18F0044A052AA1
:10302E0004C0D9FF05C0DAFFDF50D8A421EF18F095
:10303E0023EF18F015EF18F00650045C046E0750DD
:10304E000558056E12000600F2AA30EF18F032EFA6
:10305E0018F041EF18F0F2A437EF18F039EF18F02E
:10306E0041EF18F0F2940A0E0001BB6FD80ECF6F2D
:10307E002D0ED06F5C921100BE0E046E000E056E0A
:10308E0036EC0BF00001BE51D8B450EF18F052EFF1
:10309E0018F056EF18F0010EBB6F000EBE6F120047
:1030AE00B190B18EB192300EB112B184D59ED58C45
:1030BE00D58AD598D5869288F28AF294F184A19217
:1030CE00A292A082120004500602F3CF08F0F4CFB1
:1030DE0009F004500702F350092605500602F3507A
:1030EE00092608C004F009C005F01200A9EC18F07A
:1030FE00B6EC15F0020E10EC17F057EC18F0000EAF
:10310E00056EFA0E046E9CEC18F0A3EC18F012008B
:10311E0000FF0000000000000000000000000000A2
:09312E00000000000000008630E2
:10313800010E0424D66E000E0520D76E1200500E24
:10314800B36E380EB26EB1801200D08EF28EF28C51
:103158001200B2EC18F01200B1901200D58E1200D5
:02316800120053
:020000040020DA
:08000000FFFFFFFFFFFFFFFF00
:020000040030CA
:0E000000000C191EFF8181FF0FC00FE00F40A2
:00000001FF
