:020000040000FA
:040000003FEF00F0DE
:060008005C82DAED22F03B
:100018005C80D8CF01F0E8CF02F0E0CF03F0A0A2D7
:1000280018EF00F01AEF00F037EF00F0A1A21FEF71
:1000380000F021EF00F037EF00F0A1920101592BF9
:100048000A0E5919D8A42BEF00F02DEF00F033EF6A
:1000580000F0000E596F3A0E6E6F450E6F6F500E1E
:10006800B36E380EB26E03C0E0FF02C0E8FF01C0F5
:0A007800D8FF5C9010002BEF21F080
:10080000004269656E76656E69646F7300543A25BF
:10081000302E31662043004261743A25640053490A
:1008200043435600233A256400494E46004E414E4C
:0D08300000696E66006E616E006C6600006F
:10083E00000E00017B6F000E7A6F4CC08CF04DC025
:10084E008DF04EC08EF04FC08FF08FBF33EF04F09F
:10085E0031EF04F049EF04F0000E7B6F010E7A6F5A
:10086E008CC004F08DC005F08EC006F08FC007F06E
:10087E0037EC22F004C08CF005C08DF006C08EF06F
:10088E0007C08FF0000E0001936F000E926FF6C03E
:10089E007EF0F7C07FF07A517B11D8A459EF04F0A7
:1008AE005BEF04F062EF04F05AA460EF04F062EF25
:1008BE0004F07CEF04F07A517B11D8A469EF04F0B8
:1008CE006BEF04F071EF04F0000E616F2B0E606F92
:1008DE0075EF04F0000E616F2D0E606F60C009F1B0
:1008EE00924B932B7E07D8A07F078CC004F08DC04F
:1008FE0005F08EC006F08FC007F0E9EC1BF0040483
:10090E000510D8A48DEF04F08FEF04F0E6EF04F09D
:10091E00BF0E516EFF0E526E5050536E546A5150B0
:10092E0053265250542254500AE11A0E535CD8A04A
:10093E00A3EF04F0A6EF04F0010EA7EF04F0000EF3
:10094E000001626F636B62516311D8B4B1EF04F0B2
:10095E00B3EF04F0C1EF04F0090E9225046E010E00
:10096E009321056E290E066E080E076EABEC20F075
:10097E00CDEF04F0090E9225046E010E9321056E43
:10098E00310E066E080E076EABEC20F00001FD0E68
:10099E007E27FF0E7F234AC014F04BC015F0090EC0
:1009AE00166E010E176E7EC018F07FC019F063EC44
:1009BE001EF014C04AF015C04BF04BEF0AF08CC07D
:1009CE0004F08DC005F08EC006F08FC007F0E9EC84
:1009DE001BF004500510D8A4F7EF04F0F9EF04F063
:1009EE0039EF05F0BF0E516EFF0E526E5050536E22
:1009FE00546A515053265250542254500AE11A0E42
:100A0E00535CD8A00DEF05F010EF05F0010E11EFBD
:100A1E0005F0000E0001646F656B64516511D8B46A
:100A2E001BEF05F01DEF05F02BEF05F0090E9225DB
:100A3E00046E010E9321056E2D0E066E080E076EC6
:100A4E00ABEC20F0CDEF04F0090E9225046E010EF2
:100A5E009321056E350E066E080E076EABEC20F078
:100A6E00CDEF04F0000E0001946F000E956F800E16
:100A7E00966F3F0E976F000E916F000E906F8CC0A9
:100A8E0004F08DC005F08EC006F08FC007F0000E8A
:100A9E00086E000E096E000E0A6E000E0B6E7CECD8
:100AAE001FF0D8B05DEF05F05FEF05F0E2EF05F057
:100ABE007EEF05F094C004F095C005F096C006F0E8
:100ACE0097C007F0000E086E000E096E200E0A6E1B
:100ADE00410E0B6EA4EC0FF004C094F005C095F01F
:100AEE0006C096F007C097F00001904B912B8CC07A
:100AFE001DF08DC01EF08EC01FF08FC020F0000EB6
:100B0E00086E000E096E200E0A6E410E0B6E94C01A
:100B1E0004F095C005F096C006F097C007F0A4EC5F
:100B2E000FF004C021F005C022F006C023F007C06C
:100B3E0024F067EC1BF0D8B0A7EF05F0A9EF05F095
:100B4E0061EF05F0C9EF05F094C01DF095C01EF0E1
:100B5E0096C01FF097C020F0000E216E000E226E80
:100B6E00200E236E410E246EB9EC11F01DC094F0D0
:100B7E001EC095F01FC096F020C097F000019007A0
:100B8E00D8A091078CC01DF08DC01EF08EC01FF036
:100B9E008FC020F094C021F095C022F096C023F0B3
:100BAE0097C024F067EC1BF0D8A0E0EF05F0E2EF61
:100BBE0005F0ABEF05F050C00AF00B6A7BEC20F0AD
:100BCE000A500001816F81C080F0670E8119D8A490
:100BDE00F3EF05F0F5EF05F01BEF06F0F851F91104
:100BEE00D8A4FCEF05F0FEEF05F002EF06F0000EC4
:100BFE00F96F010EF86FF9BF0FEF06F0F95106E12C
:100C0E00F805D8B00DEF06F00FEF06F015EF06F071
:100C1E00000E7D6F060E7C6F24EF06F0F8C07CF0A0
:100C2E00F9C07DF024EF06F0F9BF20EF06F022EFB9
:100C3E0006F00FEF06F015EF06F0670E8119D8A437
:100C4E002BEF06F02DEF06F05CEF06F091AF3BEFC9
:100C5E0006F0FC0E905DFF0E9159D8A039EF06F00C
:100C6E003BEF06F05AEF06F0FF0E516EFF0E526E7E
:100C7E007CC053F07DC054F0515053265250542234
:100C8E009051535C5450800A556E9151800A5558BC
:100C9E00D8A054EF06F056EF06F05AEF06F0660EA7
:100CAE00806F5CEF06F0650E806F7CC072F07DC0C9
:100CBE0073F0670E8119D8A467EF06F069EF06F09E
:100CCE0079EF06F0660E8019D8A470EF06F072EF79
:100CDE0006F07BEF06F091BF79EF06F077EF06F0A6
:100CEE007BEF06F0724B732B660E8019D8A482EF41
:100CFE0006F084EF06F0A4EF06F091BF8BEF06F03E
:100D0E0089EF06F097EF06F0000E946F000E956FC8
:100D1E00800E966F3F0E976F000E916F000E906FC4
:100D2E00670E8119D8B49EEF06F0A0EF06F0A4EF7F
:100D3E0006F09051722791517323000E8B6F000EA7
:100D4E008A6F8CC082F08DC083F08EC084F08FC00D
:100D5E0085F094C074F095C075F096C076F097C08B
:100D6E0077F035EF07F082C01DF083C01EF084C00F
:100D7E001FF085C020F094C021F095C022F096C0DF
:100D8E0023F097C024F0B9EC11F01DC036F01EC050
:100D9E0037F01FC038F020C039F0F6EC14F036C032
:100DAE0086F037C087F038C088F039C089F086C029
:100DBE0036F087C037F088C038F089C039F0E4ECDF
:100DCE001AF036C078F037C079F082C01DF083C0BB
:100DDE001EF084C01FF085C020F094C008F095C0AE
:100DEE0009F096C00AF097C00BF086C004F087C0D9
:100DFE0005F088C006F089C007F0A4EC0FF004C01F
:100E0E0021F005C022F006C023F007C024F098ECB4
:100E1E0021F01DC082F01EC083F01FC084F020C0E0
:100E2E0085F094C01DF095C01EF096C01FF097C0BF
:100E3E0020F0000E216E000E226E200E236E410E4B
:100E4E00246EB9EC11F01DC094F01EC095F01FC0B9
:100E5E0096F020C097F000018A4B8B2B72518A5D61
:100E6E008B51800A516E7351800A5158D8A042EFAF
:100E7E0007F044EF07F0BAEF06F094C004F095C007
:100E8E0005F096C006F097C007F0000E086E000E33
:100E9E00096EA00E0A6E400E0B6EA4EC0FF004C08D
:100EAE0086F005C087F006C088F007C089F082C0C2
:100EBE001DF083C01EF084C01FF085C020F086C0D8
:100ECE0021F087C022F088C023F089C024F067EC9F
:100EDE001BF0D8B075EF07F077EF07F082EF07F051
:100EEE00000E0001866F000E876F000E886F000ED9
:100EFE00896FABEF07F082C004F083C005F084C0A9
:100F0E0006F085C007F086C008F087C009F088C0DB
:100F1E000AF089C00BF07CEC1FF0D8A099EF07F017
:100F2E009BEF07F0ABEF07F0000178B1A1EF07F0F0
:100F3E00A3EF07F0ABEF07F0000E866F000E876F82
:100F4E00000E886F000E896F8CC004F08DC005F006
:100F5E008EC006F08FC007F086C008F087C009F07B
:100F6E0088C00AF089C00BF044EC0DF004C082F08A
:100F7E0005C083F006C084F007C085F082C01DF066
:100F8E0083C01EF084C01FF085C020F0000E086ED6
:100F9E00000E096E200E0A6E410E0B6E74C004F028
:100FAE0075C005F076C006F077C007F0A4EC0FF020
:100FBE0004C021F005C022F006C023F007C024F0C3
:100FCE0067EC1BF0D8A0EEEF07F0F0EF07F019EF8B
:100FDE0008F00001904B912B74C004F075C005F021
:100FEE0076C006F077C007F0000E086E000E096E90
:100FFE00200E0A6E410E0B6EA4EC0FF004C074F0BE
:10100E0005C075F006C076F007C077F0660E0001D9
:10101E008019D8A415EF08F017EF08F019EF08F0B3
:10102E00724B732B74C094F075C095F076C096F029
:10103E0077C097F0650E00018019D8B429EF08F03B
:10104E002BEF08F031EF08F090C070F091C071F006
:10105E0035EF08F0000E716F000E706F000E6F6F9F
:10106E00000E6E6F000E6D6F000E6C6F000E8B6FAC
:10107E00000E8A6F31EF09F082C01DF083C01EF0A2
:10108E0084C01FF085C020F094C021F095C022F0DE
:10109E0096C023F097C024F0B9EC11F01DC036F0C5
:1010AE001EC037F01FC038F020C039F0F6EC14F037
:1010BE0036C086F037C087F038C088F039C089F066
:1010CE0086C036F087C037F088C038F089C039F056
:1010DE00E4EC1AF036C078F037C079F05AB87AEFEF
:1010EE0008F07CEF08F09AEF08F0000178517911C2
:1010FE00D8A484EF08F086EF08F09AEF08F0670E98
:10110E008119D8A48DEF08F08FEF08F09AEF08F050
:10111E0071BF96EF08F094EF08F09AEF08F06C4B61
:10112E006D2BE5EF08F000016E516F11D8A4A2EF00
:10113E0008F0A4EF08F0CEEF08F071BFABEF08F0A7
:10114E00A9EF08F0CEEF08F0090E9225D96E010E28
:10115E009321DA6E2E0EDF6E924B932B7E07D8A064
:10116E007F07000E6F6F010E6E6FCEEF08F0090E47
:10117E009225D96E010E9321DA6E300EDF6E924BF0
:10118E00932B7E07D8A07F076C07D8A06D076C51F4
:10119E006D11D8A4D5EF08F0D7EF08F0BEEF08F028
:1011AE00090E9225D96E010E9321DA6E7851300F09
:1011BE00DF6E924B932B7E07D8A07F0782C01DF067
:1011CE0083C01EF084C01FF085C020F094C008F0CC
:1011DE0095C009F096C00AF097C00BF086C004F0D7
:1011EE0087C005F088C006F089C007F0A4EC0FF0A8
:1011FE0004C021F005C022F006C023F007C024F081
:10120E0098EC21F01DC082F01EC083F01FC084F048
:10121E0020C085F094C01DF095C01EF096C01FF042
:10122E0097C020F0000E216E000E226E200E236E4F
:10123E00410E246EB9EC11F01DC094F01EC095F055
:10124E001FC096F020C097F000017007D8A071075C
:10125E008A4B8B2B72518A5D8B51800A516E735162
:10126E00800A5158D8B03EEF09F040EF09F04EEF2A
:10127E0009F093BF4CEF09F0935109E14B0E925DCB
:10128E00D8A04CEF09F04EEF09F043EF08F06E5185
:10129E006F11D8A455EF09F057EF09F068EF09F078
:1012AE005AA85CEF09F05EEF09F068EF09F0090E3D
:1012BE009225D96E010E9321DA6E2E0EDF6E924BB1
:1012CE00932B090E9225D96E010E9321DA6E000E24
:1012DE00DF6E650E8019D8A477EF09F079EF09F06B
:1012EE00D2EF04F0000E8B6F4F0E8A6F090E8A2517
:1012FE00D96E010E8B21DA6E000EDF6E000E7B6F43
:10130E00000E7A6F91BF90EF09F08EEF09F098EF13
:10131E0009F0000E7B6F010E7A6F906D911FD8B0A1
:10132E00912B000E7D6F020E7C6FC9EF09F08A07BC
:10133E00D8A08B07090E8A25D96E010E8B21DA6E85
:10134E0090C004F091C005F0000E076E0A0E066EF6
:10135E0024EC1FF00450300FDF6E90C004F091C0EB
:10136E0005F0000E076E0A0E066E01EC1EF004C0AC
:10137E0090F005C091F000017C07D8A07D077E0794
:10138E00D8A07F0790519111D8A4D0EF09F0D2EFD9
:10139E0009F09EEF09F07DBFDFEF09F07D5106E108
:1013AE007C05D8B0DDEF09F0DFEF09F09EEF09F014
:1013BE008A07D8A08B077A517B11D8A4E9EF09F0E0
:1013CE00EBEF09F0F1EF09F0000E676F2B0E666F71
:1013DE00F5EF09F0000E676F2D0E666F090E8A2568
:1013EE00D96E010E8B21DA6E66C0DFFF7E07D8A0A4
:1013FE007F078A07D8A08B07BF0E516EFF0E526E65
:10140E005050536E546A51505326525054225450D9
:10141E000AE11A0E535CD8A017EF0AF01AEF0AF081
:10142E00010E1BEF0AF0000E6A6F6B6B6A516B11A7
:10143E00D8A424EF0AF026EF0AF02CEF0AF0000EE3
:10144E00696F650E686F30EF0AF0000E696F450E1A
:10145E00686F090E8A25D96E010E8B21DA6E68C06F
:10146E00DFFF7E07D8A07F07090E9225046E010EBE
:10147E009321056E090E8A25066E010E8B21076ECD
:10148E00ABEC20F0D2EF04F012009AC0D9FF9BC053
:10149E00DAFFDECFF6FFDDCFF7FF0800F550250AA5
:1014AE00D8A45CEF0AF05EEF0AF028EF0DF09AC0B8
:1014BE00D9FF9BC0DAFFDE2A000EDD22000E0001EE
:1014CE00F76F000EF66FF6C05AF0F7C05BF0F869D2
:1014DE00F969000EA76F000EA66FBCEF0AF05A80D6
:1014EE009AC0D9FF9BC0DAFFDE2A000EDD22BCEFC8
:1014FE000AF05A8277EF0AF05A8477EF0AF05A868A
:10150E0077EF0AF05A8877EF0AF0000EA76F010EF8
:10151E00A66FBCEF0AF09AC0D9FF9BC0DAFFDECFF0
:10152E00F6FFDDCFF7FF0800F550566E576A57509D
:10153E00000AD8B4A5EF0AF08CEF0AF05650200A34
:10154E00D8B486EF0AF0030AD8B489EF0AF0080A75
:10155E00D8B483EF0AF0060AD8B476EF0AF01D0A63
:10156E00D8B480EF0AF08CEF0AF0A651A711D8B4C8
:10157E00C3EF0AF0C5EF0AF092EF0AF05AA0CAEFD5
:10158E000AF0CCEF0AF0CDEF0AF05A929AC0D9FFCA
:10159E009BC0DAFFDECFF6FFDDCFF7FF0800F55078
:1015AE002E0AD8A4DDEF0AF0DFEF0AF05DEF0BF0A4
:1015BE00000EF96F000EF86F9AC0D9FF9BC0DAFFCC
:1015CE00DE2A000EDD229AC0D9FF9BC0DAFFDECFE5
:1015DE00F6FFDDCFF7FF0800F5502A0AD8A4FAEF80
:1015EE000AF0FCEF0AF019EF0BF09AC0D9FF9BC07E
:1015FE00DAFFDE2A000EDD229CC0D9FF9DC0DAFF85
:10160E00DFCF56F0020EDE26DFCF57F0000EDD22C2
:10161E0056C0D9FF57C0DAFFDECFF8F0DDCFF9F0B4
:10162E005DEF0BF09AC0D9FF9BC0DAFFDECF0BF057
:10163E00DDCF0CF0D9EC16F00BC0F8F00CC0F9F0C1
:10164E0030EF0BF09AC0D9FF9BC0DAFFDE2A000EF6
:10165E00DD22D00E566EFF0E576E9AC0D9FF9BC07C
:10166E00DAFFDECFF6FFDDCFF7FF0800F550586E3C
:10167E00596A565058265750592259500AE10A0EA7
:10168E00585CD8A04DEF0BF050EF0BF0010E51EF60
:10169E000BF0000E0001A86FA96BA851A911D8A4D8
:1016AE005BEF0BF05DEF0BF029EF0BF09AC0D9FF5B
:1016BE009BC0DAFFDECFF6FFDDCFF7FF0800F55057
:1016CE000A6E0B6A7BEC20F00A500001AC6FAC5135
:1016DE00D8B474EF0BF076EF0BF0B0EF0BF09AC0BE
:1016EE00D9FF9BC0DAFFDECF56F0DDCF57F0010EEB
:1016FE005626000E572256C0F6FF57C0F7FF0800B9
:10170E00F5500A6E0B6A7BEC20F00A500001AD6FAB
:10171E00AD51D8B495EF0BF097EF0BF0B0EF0BF097
:10172E009AC0D9FF9BC0DAFFDECF56F0DDCF57F05F
:10173E00020E5626000E572256C0F6FF57C0F7FF70
:10174E000800F5500A6E0B6A7BEC20F00A5000017F
:10175E00AE6F9AC0D9FF9BC0DAFFDECFF6FFDDCFAA
:10176E00F7FF0800F550640AD8B4C0EF0BF0C2EFD3
:10177E000BF0D4EF0BF09AC0D9FF9BC0DAFFDECF8F
:10178E00F6FFDDCFF7FF0800F550690AD8A4D2EFB7
:10179E000BF0D4EF0BF014EF0CF09AC0D9FF9BC0F6
:1017AE00DAFFDE2A000EDD229CC0D9FF9DC0DAFFD3
:1017BE00DFCF56F0020EDE26DFCF57F0000EDD2211
:1017CE0056C0D9FF57C0DAFFDECF9EF0DDCF9FF0B7
:1017DE00000E9FBFFF0EA06FA16FA26FA36FA46F2D
:1017EE00A56F98C01FF099C020F09EC021F09FC039
:1017FE0022F0A0C023F0A1C024F0A2C025F0A3C007
:10180E0026F0A4C027F0A5C028F086EC13F01FC068
:10181E0098F020C099F043EF0DF0660EAC19D8A4E5
:10182E001BEF0CF01DEF0CF05DEF0CF09AC0D9FF22
:10183E009BC0DAFFDECFF6FFDDCFF7FF0800F5CF56
:10184E00B3F09AC0D9FF9BC0DAFFDE2A000EDD226C
:10185E009CC0D9FF9DC0DAFFDFCF56F0040EDE2606
:10186E00DFCF57F0000EDD2256C0D9FF57C0DAFF8A
:10187E00DECFAFF0DECFB0F0DECFB1F0DECFB2F024
:10188E0098C04AF099C04BF0AFC04CF0B0C04DF0CC
:10189E00B1C04EF0B2C04FF0B3C050F01FEC04F028
:1018AE004AC098F04BC099F043EF0DF0AC0E046EA9
:1018BE00000E056E390E066E080E076E000E096ECE
:1018CE00020E086E68EC1CF004500510D8A472EFDE
:1018DE000CF074EF0CF0F0EF0CF09AC0D9FF9BC037
:1018EE00DAFFDECF56F0DDCF57F0010E5626000E92
:1018FE00572256C0F6FF57C0F7FF0800F5CFB3F0DA
:10190E00BF0E566EFF0E576E9AC0D9FF9BC0DAFF00
:10191E00DECFF6FFDDCFF7FF0800F550586E596A9F
:10192E00565058265750592259500AE11A0E585CF3
:10193E00D8A0A4EF0CF0A7EF0CF0010EA8EF0CF05E
:10194E00000E0001AA6FAB6BAA51AB11D8B4B2EF67
:10195E000CF0B4EF0CF0CEEF0CF09CC0D9FF9DC094
:10196E00DAFFDFCF56F0040EDE26DFCF57F0000E83
:10197E00DD2256C0D9FF57C0DAFFDECFAFF0DECF83
:10198E00B0F0DECFB1F0DECFB2F0E6EF0CF09CC0DF
:10199E00D9FF9DC0DAFFDFCF56F0040EDE26DFCF73
:1019AE0057F0000EDD2256C0D9FF57C0DAFFDECF4A
:1019BE00AFF0DECFB0F0DECFB1F0DECFB2F0020E80
:1019CE009AC0D9FF9BC0DAFFDE26000EDD2247EF5C
:1019DE000CF09AC0D9FF9BC0DAFFDECFF6FFDDCF49
:1019EE00F7FF0800F550250AD8A400EF0DF002EF1E
:1019FE000DF01AEF0DF09AC0D9FF9BC0DAFFDE2A68
:101A0E00000EDD22000E056E250E046E98C006F047
:101A1E0099C007F039EC1DF0000E0001996F010E10
:101A2E00986F43EF0DF09AC0D9FF9BC0DAFFDE2A04
:101A3E00000EDD22000E0001996F000E986F43EF2D
:101A4E000DF09AC0D9FF9BC0DAFFDECFF6FFDDCFD7
:101A5E00F7FF0800F550046E056A98C006F099C0AD
:101A6E0007F039EC1DF09AC0D9FF9BC0DAFFDE2AD1
:101A7E00000EDD2213EF0DF012000750800B106EDA
:101A8E0007500724126E06AE4FEF0DF051EF0DF01A
:101A9E0052EF0DF012801250D8B458EF0DF05AEFED
:101AAE000DF06FEF0DF01228D8A460EF0DF062EF7D
:101ABE000DF06AEF0DF0000E046E000E056E000EB6
:101ACE00066E000E076E068E000E076E77EF0DF097
:101ADE00000E046E000E056E000E066E000E076EF2
:101AEE000B50800B116E10501118D8B481EF0DF001
:101AFE0083EF0DF084EF0DF0108C0B500B24116E54
:101B0E000AAE8CEF0DF08EEF0DF08FEF0DF0118011
:101B1E001150D8B495EF0DF097EF0DF0ACEF0DF02E
:101B2E001128D8A49DEF0DF09FEF0DF0A7EF0DF04B
:101B3E00000E086E000E096E000E0A6E000E0B6E81
:101B4E000A8E000E0B6EB4EF0DF0000E086E000E36
:101B5E00096E000E0A6E000E0B6E1250115CD8B09C
:101B6E00BBEF0DF0BDEF0DF0E4EF0DF010ACC2EFDA
:101B7E000DF0C4EF0DF0C6EF0DF0800E101A12C06E
:101B8E0013F011C012F013C011F004C013F008C00E
:101B9E0004F013C008F005C013F009C005F013C01F
:101BAE0009F006C013F00AC006F013C00AF007C011
:101BBE0013F00BC007F013C00BF0000E136E125093
:101BCE0011C00CF00D6A0C5E000E0D5A0DBEF9EF31
:101BDE000DF00D5009E11A0E0C5CD8A0F9EF0DF0C6
:101BEE00FBEF0DF032EF0EF004500510061007104B
:101BFE00D8A404EF0EF007EF0EF0010E08EF0EF072
:101C0E00000E136E000E046E000E056E000E066EB4
:101C1E00000E076E11C012F03BEF0EF013A01AEF7C
:101C2E000EF01CEF0EF022EF0EF0D89013300109DB
:101C3E00136E24EF0EF0D890133204A029EF0EF09D
:101C4E002BEF0EF02CEF0EF0138E07340732063208
:101C5E0005320432122A1150125CD8A039EF0EF060
:101C6E003BEF0EF015EF0EF010BC40EF0EF042EF12
:101C7E000EF082EF0EF01250D8A448EF0EF04AEF9D
:101C8E000EF054EF0EF0000E046E000E056E000EF8
:101C9E00066E000E076EA3EF0FF0085004260950D3
:101CAE0005220A5006220B50072207A061EF0EF004
:101CBE0063EF0EF00FEF0FF013A068EF0EF06AEF68
:101CCE000EF070EF0EF0D89013300109136E72EF14
:101CDE000EF0D890133204A077EF0EF079EF0EF0DD
:101CEE007AEF0EF0138E07340732063205320432C5
:101CFE00122A0FEF0FF00850045C095005580A50D5
:101D0E0006580750800A0C6E0B50800A0C58D8B03B
:101D1E0093EF0EF095EF0EF0C0EF0EF00450085C4E
:101D2E000C6E055009580D6E06500A580E6E07506F
:101D3E000B580F6EFF0E0C24046EFF0E0D20056E59
:101D4E00FF0E0E20066EFF0E0F20076E800E101A6D
:101D5E00136C1350D8A4B6EF0EF0B8EF0EF0C8EF18
:101D6E000EF0010E0426000E052206220722C8EFF1
:101D7E000EF00850045E0950055A0A50065A0B50D0
:101D8E00075A0450051006100710D8A4D1EF0EF014
:101D9E00D3EF0EF008EF0FF01350D8A4D9EF0EF0DA
:101DAE00DBEF0EF008EF0FF0000E046E000E056E66
:101DBE00000E066E000E076EA3EF0FF0D8900436DD
:101DCE0005360636073613AEEFEF0EF0F1EF0EF0D6
:101DDE00F2EF0EF0048013A0F7EF0EF0F9EF0EF015
:101DEE00FDEF0EF0D8801336FFEF0EF0D8901336BD
:101DFE001250D8B405EF0FF007EF0FF008EF0FF009
:101E0E00120606AE0DEF0FF00FEF0FF0E5EF0EF02E
:101E1E00000E116E13AE16EF0FF018EF0FF030EF3D
:101E2E000FF013C00CF07F0E0C16D8B421EF0FF08C
:101E3E0023EF0FF027EF0FF0010E116E30EF0FF0C2
:101E4E0004A02CEF0FF02EEF0FF030EF0FF023EF7A
:101E5E000FF01150D8B436EF0FF038EF0FF063EFEC
:101E6E000FF0010E0426000E05220622072207A0FF
:101E7E0043EF0FF045EF0FF063EF0FF004C00CF0DF
:101E8E0005C00DF006C00EF007C00FF00F340F3274
:101E9E000E320D320C320CC004F00DC005F00EC027
:101EAE0006F00FC007F01228D8B460EF0FF062EF03
:101EBE000FF063EF0FF0122A1228D8B469EF0FF06B
:101ECE006BEF0FF073EF0FF01250D8A471EF0FF00D
:101EDE0073EF0FF085EF0FF0000E046E000E056E1F
:101EEE00000E066E000E076E1250D8A481EF0FF092
:101EFE0083EF0FF085EF0FF0000E106E12A08AEF39
:101F0E000FF08CEF0FF08FEF0FF0068E90EF0FF0BB
:101F1E00069ED8901230076E10AE98EF0FF09AEF23
:101F2E000FF09BEF0FF0078E04C004F005C005F014
:101F3E0006C006F007C007F012000750800B106EA7
:101F4E0007500724166E06AEAFEF0FF0B1EF0FF08D
:101F5E00B2EF0FF016801650D8B4B8EF0FF0BAEFFC
:101F6E000FF0CDEF0FF01628D8A4C0EF0FF0C2EF90
:101F7E000FF0CAEF0FF0000E046E000E056E000E8D
:101F8E00066E000E076E068ED5EF0FF0000E046E75
:101F9E00000E056E000E066E000E076E0B50800BC7
:101FAE00101A0B500B24156E0AAEE0EF0FF0E2EF95
:101FBE000FF0E3EF0FF015801550D8B4E9EF0FF0E6
:101FCE00EBEF0FF0FEEF0FF01528D8A4F1EF0FF0A6
:101FDE00F3EF0FF0FBEF0FF0000E086E000E096E20
:101FEE00000E0A6E000E0B6E0A8E06EF10F0000E3B
:101FFE00086E000E096E000E0A6E000E0B6E155066
:10200E00D8B40CEF10F00EEF10F016EF10F01650D3
:10201E00D8A414EF10F016EF10F020EF10F0000E11
:10202E00046E000E056E000E066E000E076EB8EF03
:10203E0011F00A500402F3CF1BF0F4CF1CF01B502A
:10204E00116E126A136A146A1C50176E186A196A96
:10205E001A6A09500502F3CF1BF0F4CF1CF01B5087
:10206E001126000E1222132214221C501726000EC7
:10207E00182219221A2208500602F3CF1BF0F4CFB1
:10208E001CF01B501126000E1222132214221C507B
:10209E001726000E182219221A2213C014F012C08D
:1020AE0013F011C012F0116A08500502F3CF1BF0A5
:1020BE00F4CF1CF01B5011261C501222000E1322BE
:1020CE00000E142209500402F3CF1BF0F4CF1CF0C3
:1020DE001B5011261C501222000E1322000E142229
:1020EE0013C014F012C013F011C012F0116A085090
:1020FE000402F3CF1BF0F4CF1CF01B5011261C5022
:10210E001222000E1322000E14220A500502F3CFE3
:10211E001BF0F4CF1CF01B5017261C501822000E7B
:10212E001922000E1A2209500602F3CF1BF0F4CF2B
:10213E001CF01B5017261C501822000E1922000EE0
:10214E001A220A500602F3CF1BF0F4CF1CF01B50DC
:10215E000C6E1C500D6E0E6A0F6A0EC00FF00DC085
:10216E000EF00CC00DF00C6A0C5017260D501822F4
:10217E000E5019220F501A2211C00CF012C00DF081
:10218E0013C00EF014C00FF0190ED3EF10F0D8904C
:10219E000F320E320D320C32E82ECEEF10F00C5004
:1021AE0017260D5018220E5019220F501A2213C046
:1021BE0014F012C013F011C012F0116A155016C0AF
:1021CE000CF00D6A0C26000E0D22820E0C241B6ED6
:1021DE00FF0E0D201C6E09EF11F0D8901736183631
:1021EE0019361A3614AEFEEF10F000EF11F001EFB3
:1021FE0011F01780D89011361236133614361B068E
:10220E00D8A01C0619AE0EEF11F010EF11F0F4EF7E
:10221E0010F0000E156E14AE17EF11F019EF11F04D
:10222E003DEF11F0FF0E11140C6EFF0E12140D6E19
:10223E00FF0E13140E6E7F0E14140F6E0C500D1035
:10224E000E100F10D8B42EEF11F030EF11F034EF56
:10225E0011F0010E156E3DEF11F017A039EF11F0D0
:10226E003BEF11F03DEF11F030EF11F01550D8B4F7
:10227E0043EF11F045EF11F069EF11F0010E172643
:10228E00000E182219221A221AA050EF11F052EF46
:10229E0011F069EF11F017C00CF018C00DF019C055
:1022AE000EF01AC00FF00F340F320E320D320C3208
:1022BE000CC017F00DC018F00EC019F00FC01AF0B8
:1022CE001B4A1C2A1CBE74EF11F01C5008E11B287F
:1022DE00D8A074EF11F076EF11F080EF11F0000E30
:1022EE00176E000E186E800E196E7F0E1A6EAEEF00
:1022FE0011F01CBE8DEF11F01C5006E11B04D8B07E
:10230E008BEF11F08DEF11F099EF11F0000E176EAB
:10231E00000E186E000E196E000E1A6E000E106E64
:10232E00AEEF11F01BC016F0FF0E1716FF0E1816AB
:10233E007F0E1916000E1A1616A0A8EF11F0AAEFAE
:10234E0011F0ABEF11F0198ED89016301A6E1050A6
:10235E001A1217C004F018C005F019C006F01AC002
:10236E0007F012002050800B2D6E20502024346E6A
:10237E001FAEC4EF11F0C6EF11F0C7EF11F03480AD
:10238E003450D8B4CDEF11F0CFEF11F0E4EF11F0DF
:10239E003428D8A4D5EF11F0D7EF11F0DFEF11F0FC
:1023AE00000E1D6E000E1E6E000E1F6E000E206EB5
:1023BE001F8E000E206EECEF11F0000E1D6E000E43
:1023CE001E6E000E1F6E000E206E2450800B2D1AF6
:1023DE0024502424356E23AEF7EF11F0F9EF11F0EF
:1023EE00FAEF11F035803550D8B400EF12F002EF4D
:1023FE0012F017EF12F03528D8A408EF12F00AEFFA
:10240E0012F012EF12F0000E216E000E226E000E70
:10241E00236E000E246E238E000E246E1FEF12F01C
:10242E00000E216E000E226E000E236E000E246E24
:10243E002150221023102410D8A428EF12F02AEFD6
:10244E0012F042EF12F0000E1D6E000E1E6E000E08
:10245E001F6E000E206E800E1F127F0E20122D504A
:10246E0020121DC01DF01EC01EF01FC01FF020C088
:10247E0020F085EF13F03450D8A448EF12F04AEF55
:10248E0012F054EF12F0000E1D6E000E1E6E000EB6
:10249E001F6E000E206E85EF13F0355034C025F000
:1024AE00266A255E000E265A7F0E25242E6E000EFD
:1024BE0026202F6E1DC029F01EC02AF01FC02BF043
:1024CE0020C02CF0000E1D6E000E1E6E000E1F6E34
:1024DE00000E206E000E306E000E316E000E326E4B
:1024EE00000E336E000E356EB5EF12F03550D8B4C7
:1024FE0083EF12F085EF12F09CEF12F0D890293690
:10250E002A362B362C36D8901D361E361F362036E0
:10251E0033AE94EF12F096EF12F097EF12F01D809B
:10252E00D89030363136323633362150295C22502F
:10253E002A5823502B5824502C58D8A0A9EF12F00B
:10254E00ABEF12F0B4EF12F0338C2150295E225013
:10255E002A5A23502B5A24502C5A352A190E3564D8
:10256E00BBEF12F0BDEF12F07DEF12F029502A10E2
:10257E002B102C10D8B4C6EF12F0C8EF12F0E0EF0B
:10258E0012F03080E0EF12F0D8901D361E361F3656
:10259E00203633AED5EF12F0D7EF12F0D8EF12F09F
:1025AE001D80D89030363136323633362E06D8A0CE
:1025BE002F061FAEE5EF12F0E7EF12F0CBEF12F0A1
:1025CE00000E356E33AEEEEF12F0F0EF12F014EFA8
:1025DE0013F0FF0E3014256EFF0E3114266EFF0E13
:1025EE003214276E7F0E3314286E255026102710B6
:1025FE002810D8B405EF13F007EF13F00BEF13F01C
:10260E00010E356E14EF13F01DA010EF13F012EF44
:10261E0013F014EF13F007EF13F03550D8B41AEF90
:10262E0013F01CEF13F040EF13F0010E1D26000EF9
:10263E001E221F22202220A027EF13F029EF13F0D5
:10264E0040EF13F01DC025F01EC026F01FC027F06E
:10265E0020C028F02834283227322632253225C0D1
:10266E001DF026C01EF027C01FF028C020F02E4AF5
:10267E002F2A2FBE4BEF13F02F5008E12E28D8A093
:10268E004BEF13F04DEF13F058EF13F0000E2F6ECB
:10269E002E68000E1D6E000E1E6E000E1F6E000EBA
:1026AE00206E2FBE65EF13F02F5006E12E04D8B02A
:1026BE0063EF13F065EF13F073EF13F0000E2F6E50
:1026CE00000E2E6E000E1D6E000E1E6E000E1F6E84
:1026DE00000E206E000E2D6E2EC034F034A07AEF58
:1026EE0013F07CEF13F07FEF13F01F8E80EF13F0DB
:1026FE001F9ED8903430206E36EF12F0120021C09B
:10270E0039F022C03AF023C03BF024C03CF025C083
:10271E003DF026C03EF027C03FF028C040F040BE3E
:10272E009BEF13F09EEF13F0010E9FEF13F0000ED0
:10273E00376E386A37503810D8B4A8EF13F0AAEFB6
:10274E0013F0BAEF13F0401E3F1E3E1E3D1E3C1E00
:10275E003B1E3A1E396C000E3A223B223C223D2291
:10276E003E223F2240220001F9BFC0EF13F0C2EF1C
:10277E0013F0C3EF13F05A92F9BFD0EF13F0F951E3
:10278E0006E1F805D8B0CEEF13F0D0EF13F0D6EF88
:10279E0013F0000E346E010E336EDAEF13F0F8C044
:1027AE0033F0F9C034F0F6C035F0F7C036F03750DC
:1027BE003810D8A4E5EF13F0E7EF13F0EEEF13F0B7
:1027CE005AA4ECEF13F0EEEF13F0F1EF13F0350621
:1027DE00D8A03606000E426E4F0E416E000E01015D
:1027EE00586F76EF14F04106D8A04206090E412428
:1027FE00D96E010E4220DA6E39C004F03AC005F0EF
:10280E003BC006F03CC007F03DC008F03EC009F0EA
:10281E003FC00AF040C00BF00A0E0C6E000E0D6E9B
:10282E00000E0E6E000E0F6E000E106E000E116E6C
:10283E00000E126E000E136E65EC18F004C029F037
:10284E0005C02AF006C02BF007C02CF008C02DF0F2
:10285E0009C02EF00AC02FF00BC030F029C016F0C0
:10286E002BC017F0DDEC21F01650300FDF6E330663
:10287E00D8A034063506D8A0360639C004F03AC0C2
:10288E0005F03BC006F03CC007F03DC008F03EC06E
:10289E0009F03FC00AF040C00BF00A0E0C6E000E9D
:1028AE000D6E000E0E6E000E0F6E000E106E000EF0
:1028BE00116E000E126E000E136EA1EC17F004C016
:1028CE0039F005C03AF006C03BF007C03CF008C036
:1028DE003DF009C03EF00AC03FF00BC040F042BED2
:1028EE0081EF14F0425008E14104D8A081EF14F0BA
:1028FE0083EF14F0B3EF14F039503A103B103C1044
:10290E003D103E103F104010D8A490EF14F092EFFF
:10291E0014F0FAEF13F034BE9FEF14F0345006E1CA
:10292E003304D8B09DEF14F09FEF14F0FAEF13F0CC
:10293E0036BEAAEF14F0365008E13504D8A0AAEF3F
:10294E0014F0ACEF14F0B3EF14F05AB2B1EF14F080
:10295E00B3EF14F0FAEF13F037503810D8A4BAEFE3
:10296E0014F0BCEF14F0C3EF14F05AA4C1EF14F03E
:10297E00C3EF14F0E1EF14F04106D8A04206375031
:10298E003810D8A4CDEF14F0CFEF14F0D5EF14F02B
:10299E00000E326E2B0E316ED9EF14F0000E326E29
:1029AE002D0E316E090E4124D96E010E4220DA6EC3
:1029BE0031C0DFFF1FC014F020C015F0090E4124F6
:1029CE00166E010E4220176E35C018F036C019F083
:1029DE0063EC1EF014C01FF015C020F01200ECC006
:1029EE0046F0EDC047F0EEC048F0EFC049F036C0FB
:1029FE0046F037C047F038C048F039C049F0810E74
:102A0E003A6EFF0E3B6E46C03CF047C03DF048C0EC
:102A1E003EF049C03FF0180E1AEF15F0D8903F3235
:102A2E003E323D323C32E82E15EF15F03C503A2442
:102A3E00446E000E3B20456E45BE2FEF15F04550FF
:102A4E0009E1170E445CD8A02FEF15F031EF15F009
:102A5E003BEF15F036C036F037C037F038C038F0DF
:102A6E0039C039F0FEEF15F045BE40EF15F042EFDC
:102A7E0015F0B2EF15F044C03AF0FF0E3B6EFF0EAC
:102A8E003C6E7F0E3D6E000E3E6E3A6651EF15F0B7
:102A9E0059EF15F03E343E323D323C323B323A2E47
:102AAE004CEF15F03BC040F03CC041F03DC042F051
:102ABE003EC043F0405046143A6E415047143B6EB0
:102ACE00425048143C6E435049143D6E3A503B10F0
:102ADE003C103D10D8A476EF15F078EF15F07AEF94
:102AEE0015F031EF15F046C03AF047C03BF048C044
:102AFE003CF049C03DF0200E8AEF15F0D8903D32E3
:102B0E003C323B323A32E82E85EF15F03A503B100C
:102B1E003C103D10D8B496EF15F098EF15F0A0EFDD
:102B2E0015F040504626415047224250482243500D
:102B3E004922401C3A6E411C3B6E421C3C6E431CAB
:102B4E003D6E3A5046163B5047163C5048163D5087
:102B5E004916F6EF15F046C03AF047C03BF048C0B4
:102B6E003CF049C03DF0200EC2EF15F0D8903D323A
:102B7E003C323B323A32E82EBDEF15F03A503B1064
:102B8E003C103D10D8A4CEEF15F0D0EF15F0DAEFD3
:102B9E0015F0000E466E000E476E000E486E000ECB
:102BAE00496EF6EF15F0D89046343A6E47343B6EC8
:102BBE0048343C6E49343D6E3A503B103C103D104B
:102BCE00D8B4ECEF15F0EEEF15F0F6EF15F0000EB1
:102BDE00466E000E476E800E486EBF0E496E46C0A2
:102BEE0036F047C037F048C038F049C039F012000F
:102BFE00106E1050D8B406EF16F008EF16F02AEF4C
:102C0E0016F00BBE0FEF16F00DEF16F02AEF16F0C2
:102C1E0008C00CF009C00DF00AC00EF00BC00FF08A
:102C2E000C1E0D1E0E1E0F1E0C2A000E0D220E2245
:102C3E000F220CC012F00DC013F00EC014F00FC016
:102C4E0015F032EF16F008C012F009C013F00AC0EA
:102C5E0014F00BC015F0085009100A100B10D8A470
:102C6E003BEF16F03DEF16F047EF16F0000E086E34
:102C7E00000E096E000E0A6E000E0B6ED8EF16F0E7
:102C8E00960E116E51EF16F0112AD890153214329D
:102C9E0013321232000E12140C6E000E13140D6E3F
:102CAE00000E14140E6EFE0E15140F6E0C500D1039
:102CBE000E100F10D8A466EF16F068EF16F04BEF5B
:102CCE0016F076EF16F0112A010E1226000E1322C0
:102CDE0014221522D8901532143213321232000EED
:102CEE0012140C6E000E13140D6E000E14140E6ED4
:102CFE00FF0E15140F6E0C500D100E100F10D8A4E1
:102D0E008BEF16F08DEF16F06AEF16F095EF16F0CA
:102D1E001106D890123613361436153614BE9AEFA5
:102D2E0016F09CEF16F0A4EF16F0020E1160A2EF53
:102D3E0016F0A4EF16F08FEF16F011B0A9EF16F003
:102D4E00ABEF16F0ACEF16F0149ED890113211C006
:102D5E000CF00D6A0E6A0F6A0CC00FF00E6A0D6A47
:102D6E000C6A0C5012120D5013120E5014120F50FA
:102D7E0015121050D8B4C6EF16F0C8EF16F0D0EFFB
:102D8E0016F00BBECFEF16F0CDEF16F0D0EF16F01B
:102D9E00158E12C008F013C009F014C00AF015C049
:102DAE000BF01200000E196E000E186E000E126E51
:102DBE00000E116EE5EF16F00B4A0C2A010E176E7F
:102DCE000BC0F6FF0CC0F7FF0800F550200AD8B470
:102DDE00F3EF16F0F5EF16F012EF17F0F70E0D6E8B
:102DEE00FF0E0E6E0BC0F6FF0CC0F7FF0800F5507D
:102DFE000F6E106A0D500F260E501022105009E162
:102E0E00050E0F5CD8A00EEF17F010EF17F012EFB3
:102E1E0017F0000E176E17C013F0146A135014102B
:102E2E00D8A41CEF17F01EEF17F0E3EF16F028EF03
:102E3E0017F0000E126E010E116E0B4A0C2A5DEF8A
:102E4E0017F00BC0F6FF0CC0F7FF0800F5500D6E23
:102E5E000E6A0E50000AD8B437EF17F05DEF17F078
:102E6E000D502B0AD8B424EF17F0060AD8B420EF71
:102E7E0017F05DEF17F018C004F019C005F0000E42
:102E8E00076E0A0E066E8AEC22F00BC0F6FF0CC01F
:102E9E00F7FF0800F550045E000E055A300E0424AC
:102EAE00186E000E0520196E24EF17F0D00E0D6E61
:102EBE00FF0E0E6E0BC0F6FF0CC0F7FF0800F550AC
:102ECE000F6E106A0D500F260E50102210500AE190
:102EDE000A0E0F5CD8A076EF17F079EF17F0010EFF
:102EEE007AEF17F0000E156E166A15501610D8A44C
:102EFE0083EF17F085EF17F042EF17F01150121015
:102F0E00D8A48CEF17F08EEF17F09CEF17F018C0C7
:102F1E000DF019C00EF00D1E0E1E0D4A0E2A0DC01C
:102F2E000BF00EC00CF0A0EF17F018C00BF019C08C
:102F3E000CF01200000E156E13BEAAEF17F0A8EFDC
:102F4E0017F0BCEF17F0131E121E111E101E0F1ECF
:102F5E000E1E0D1E0C6C000E0D220E220F221022C4
:102F6E00112212221322010E156E0BBEC3EF17F0A3
:102F7E00C1EF17F0D5EF17F00B1E0A1E091E081E23
:102F8E00071E061E051E046C000E052206220722D1
:102F9E00082209220A220B22010E151A20EE16F023
:102FAE00070EDE6AE806FDE20C500D100E100F1033
:102FBE001010111012101310D8B4E8EF17F0EAEF3A
:102FCE0017F03CEF18F0010E146EF8EF17F0D890D2
:102FDE000C360D360E360F361036113612361336B7
:102FEE00142A13AEFDEF17F0FFEF17F0EEEF17F008
:102FFE00D89016361736183619361A361B361C3632
:10300E001D360C50045C0D5005580E5006580F50CE
:10301E000758105008581150095812500A5813509A
:10302E000B58D8A01DEF18F01FEF18F030EF18F066
:10303E000C50045E0D50055A0E50065A0F50075A8A
:10304E001050085A1150095A12500A5A13500B5A5E
:10305E001680D89013321232113210320F320E32D5
:10306E000D320C32142EFFEF17F01550D8B442EF7C
:10307E0018F044EF18F054EF18F01D1E1C1E1B1E06
:10308E001A1E191E181E171E166C000E1722182255
:10309E0019221A221B221C221D2216C004F017C050
:1030AE0005F018C006F019C007F01AC008F01BC0D2
:1030BE0009F01CC00AF01DC00BF01200000E156EB8
:1030CE000BBE6EEF18F06CEF18F080EF18F00B1EC1
:1030DE000A1E091E081E071E061E051E046C000E83
:1030EE00052206220722082209220A220B22010E9D
:1030FE00156E13BE87EF18F085EF18F097EF18F0E6
:10310E00131E121E111E101E0F1E0E1E0D1E0C6CF7
:10311E00000E0D220E220F22102211221222132235
:10312E000C500D100E100F10101011101210131055
:10313E00D8B4A4EF18F0A6EF18F0EEEF18F0010EC9
:10314E00146EB4EF18F0D8900C360D360E360F36CE
:10315E001036113612361336142A13AEB9EF18F094
:10316E00BBEF18F0AAEF18F00C50045C0D50055888
:10317E000E5006580F500758105008581150095845
:10318E0012500A5813500B58D8A0D0EF18F0D2EFA7
:10319E0018F0E2EF18F00C50045E0D50055A0E5068
:1031AE00065A0F50075A1050085A1150095A125009
:1031BE000A5A13500B5AD89013321232113210325F
:1031CE000F320E320D320C32142EBBEF18F015509A
:1031DE00D8B4F4EF18F0F6EF18F006EF19F00B1E56
:1031EE000A1E091E081E071E061E051E046C000E72
:1031FE00052206220722082209220A220B2204C0D7
:10320E0004F005C005F006C006F007C007F008C0C0
:10321E0008F009C009F00AC00AF00BC00BF012004A
:10322E00066E8C968C8406C004F0070E056E043470
:10323E000432052E1EEF19F0010E0416043204326C
:10324E008C5004187F0B04188C6E06C004F0060E0A
:10325E00056E04340432052E30EF19F0010E0416FB
:10326E00043A044604468C500418BF0B04188C6EA6
:10327E0006C004F0050E056E04340432052E43EF2D
:10328E0019F0010E0416043A04468C500418DF0B94
:10329E0004188C6E06C004F0040E056E043404325D
:1032AE00052E55EF19F0010E0416043A8C50041831
:1032BE00EF0B04188C6E030EE82EFED700F08C86F2
:1032CE00050EE82EFED78C9606C004F0030E056E92
:1032DE0004340432052E6FEF19F0010E0416043279
:1032EE0004328C5004187F0B04188C6E06C004F048
:1032FE000434043204340432010E0416043A044633
:10330E0004468C500418BF0B04188C6E06C004F0D3
:10331E00010E056E04340432052E91EF19F0010EE4
:10332E000416043A04468C500418DF0B04188C6EF5
:10333E0006C004F0010E0416043A8C500418EF0B6C
:10334E0004188C6E030EE82EFED700F08C86050E48
:10335E00E82EFED78C96050EE82EFED7160E046EBE
:10336E006C0EE82EFED7042EFCD700D01200066E8F
:10337E008C968C94046A06AE01D0042A010E0416B3
:10338E00043204328C5004187F0B04188C6E06C065
:10339E0004F0060E056ED8900432052ED2EF19F009
:1033AE00010E0416043A044604468C500418BF0B52
:1033BE0004188C6E06C004F0050E056ED89004320B
:1033CE00052EE5EF19F0010E0416043A04468C5052
:1033DE000418DF0B04188C6E06C004F0043A0F0EAE
:1033EE000416010E0416043A8C500418EF0B041840
:1033FE008C6E030EE82EFED700F08C86050EE82E9E
:10340E00FED78C9606C004F0D8900432D8900432C1
:10341E00D8900432010E0416043204328C50041873
:10342E007F0B04188C6E06C004F0D8900432D8902E
:10343E000432010E0416043A044604468C50041855
:10344E00BF0B04188C6E06C004F0D8900432010E27
:10345E000416043A04468C500418DF0B04188C6EC4
:10346E0006C004F0010E0416043A8C500418EF0B3B
:10347E0004188C6E030EE82EFED700F08C86050E17
:10348E00E82EFED78C96160E046E6C0EE82EFED726
:10349E00042EFCD700D0120020EECEF0070EDE6A0E
:1034AE00E806FDE2010EFDEC21F004C008F005C0B7
:1034BE0009F00A6A0B6A000EFFEC15F008C0D8F08E
:1034CE0009C0D9F00AC0DAF00BC0DBF0000E086EAE
:1034DE00000E096EA00E0A6E400E0B6ED8C004F0E0
:1034EE00D9C005F0DAC006F0DBC007F0A4EC0FF08F
:1034FE0004C01DF005C01EF006C01FF007C020F06E
:10350E00000E216E000E226E800E236E440E246E6F
:10351E00B9EC11F01DC0D8F01EC0D9F01FC0DAF002
:10352E0020C0DBF0000E216E000E226EA00E236E68
:10353E00400E246E000E086E000E096EC80E0A6E46
:10354E00420E0B6ED8C004F0D9C005F0DAC006F0FA
:10355E00DBC007F0A4EC0FF004C01DF005C01EF098
:10356E0006C01FF007C020F0B9EC11F01DC036F0F8
:10357E001EC037F01FC038F020C039F0E4EC1AF04E
:10358E0036C0D6F037C0D7F0CE0E0001BC6F000E9D
:10359E00BD6F170EBE6F080EBF6FD6C0C0F0D7C07E
:1035AE00C1F0D9EC20F0000E076ECE0E086E000EA4
:1035BE00096E020ED3EC1CF01200383439343F6E13
:1035CE003F50D8A4EDEF1AF0EFEF1AF0F9EF1AF022
:1035DE00000E366E000E376E000E386E000E396E0F
:1035EE0066EF1BF036C03AF037C03BF038C03CF007
:1035FE0039C03DF0200E09EF1BF0D8903D323C3221
:10360E003B323A32E82E04EF1BF03A503E6E388EC3
:10361E00FF0E3616FF0E3716FF0E3816000E391631
:10362E00960E3F5E3FBE20EF1BF01EEF1BF036EFF7
:10363E001BF03F50800A970FD8B028EF1BF02AEFEF
:10364E001BF02CEF1BF0EFEF1AF0D8903932383216
:10365E00373236323F3E2CEF1BF04EEF1BF01F0E73
:10366E003F643CEF1BF03EEF1BF046EF1BF0EFEF1D
:10367E001AF0D89036363736383639363F063F5040
:10368E00D8A44CEF1BF04EEF1BF040EF1BF03E505A
:10369E00D8B454EF1BF056EF1BF05EEF1BF0391E43
:1036AE00381E371E366C000E37223822392236C0AD
:1036BE0036F037C037F038C038F039C039F0120064
:1036CE00000E1D14256E000E1E14266E800E1F1485
:1036DE00276E7F0E2014286E2550261027102810D6
:1036EE00D8A47CEF1BF07EEF1BF086EF1BF0000ED4
:1036FE001D6E000E1E6E000E1F6E000E206E000E52
:10370E002114256E000E2214266E800E2314276EB1
:10371E007F0E2414286E2550261027102810D8A4AA
:10372E009BEF1BF09DEF1BF0A5EF1BF0000E216E23
:10373E00000E226E000E236E000E246E20AEAAEF37
:10374E001BF0ACEF1BF0B5EF1BF01D6C1E1ED8B0BE
:10375E001E2A1F1ED8B01F2A800E205624AEBAEF86
:10376E001BF0BCEF1BF0C5EF1BF0216C221ED8B076
:10377E00222A231ED8B0232A800E2456000E1D1A8C
:10378E00000E1E1A000E1F1A800E201A000E211A8D
:10379E00000E221A000E231A800E241A21501D5CD0
:1037AE0022501E5823501F5824502058D8B0E2EFF4
:1037BE001BF0E4EF1BF0E7EF1BF0D890E8EF1BF0E7
:1037CE00D8801200F0C00EF0F1C00FF0F2C010F071
:1037DE00F3C011F004C00EF005C00FF006C010F0DB
:1037EE0007C011F00EC008F00FC009F010C00AF0AB
:1037FE0011C00BF0180E09EF1CF0D8900B320A32E4
:10380E0009320832E82E04EF1CF008500C6E0D6AD7
:10381E000C500D10D8A416EF1CF018EF1CF038EF5A
:10382E001CF0D8900E34086E0F34096E10340A6EE8
:10383E0011340B6E085009100A100B10D8A42AEF81
:10384E001CF02CEF1CF032EF1CF0000E056E020E79
:10385E00046E67EF1CF0000E056E030E046E67EF2C
:10386E001CF00C280D10D8A43FEF1CF041EF1CF0FB
:10387E0063EF1CF00EC008F00FC009F010C00AF084
:10388E0011C00BF0090ED890083609360A360B36E1
:10389E00E82E4AEF1CF0085009100A100B10D8B48D
:1038AE005BEF1CF05EEF1CF0010E5FEF1CF0000EE4
:1038BE00046E056A67EF1CF0000E056E040E046EB2
:1038CE00120004C00BF005C00CF006C00DF007C0CE
:1038DE000EF00806D8A00906082806E10928D8A483
:1038EE007BEF1CF07DEF1CF08AEF1CF0000E056ED6
:1038FE00000E046ED2EF1CF00B4A0C2A0D4A0E2A53
:10390E000806D8A009060BC0D9FF0CC0DAFFDF509D
:10391E00D8B494EF1CF096EF1CF0C1EF1CF00DC064
:10392E00F6FF0EC0F7FF0800F5500009D8B4A2EF5D
:10393E001CF0A4EF1CF0C1EF1CF008500910D8B415
:10394E00ABEF1CF0ADEF1CF0C1EF1CF00BC0D9FFBC
:10395E000CC0DAFFDF500A6E0DC0F6FF0EC0F7FF87
:10396E000800F5500A18D8B4BFEF1CF0C1EF1CF0D8
:10397E0083EF1CF00BC0D9FF0CC0DAFFDF500A6ECC
:10398E000DC0F6FF0EC0F7FF0800F5500A5C046E7E
:10399E00056AD8A0050612000C6EEAEF1CF007505F
:1039AE00800F0D6E07EF1DF00750C00F0D6E07EF65
:1039BE001DF00750940F0D6E07EF1DF00750D40F3A
:1039CE000D6E07EF1DF00C500A6E0B6A0B50000ABD
:1039DE00D8B4F4EF1CF007EF1DF00A50010AD8B46A
:1039EE00D6EF1CF0030AD8B4DBEF1CF0010AD8B4F2
:1039FE00E0EF1CF0070AD8B4E5EF1CF007EF1DF05E
:103A0E000D50BEEC19F020EF1DF008C0F6FF09C0F6
:103A1E00F7FFF86A070EF76403D00800F55005D0DB
:103A2E00F6CFE1FFF7CFE2FFE75017EC19F0084AA7
:103A3E00092A08C0F6FF09C0F7FFF86A070EF764F7
:103A4E0003D00800F55005D0F6CFE1FFF7CFE2FF27
:103A5E00E7500009D8A436EF1DF038EF1DF00CEF3B
:103A6E001DF0120006500710D8B440EF1DF042EFC3
:103A7E001DF04BEF1DF006500710D8A449EF1DF0B6
:103A8E004BEF1DF050EF1DF00450DEEC22F09DEFD9
:103A9E001DF020EE04F00650D9260750DA22DE5033
:103AAE00DE10D8B45DEF1DF05FEF1DF07AEF1DF064
:103ABE0020EE04F00650D9260750DA2210EE02F05E
:103ACE000650E1260750E222DE50E65CE650800A00
:103ADE000C6EDE50800A0C58D8B078EF1DF07AEFDD
:103AEE001DF09DEF1DF020EE02F00650D926075076
:103AFE00DA22DECF08F0DDCF09F006C0D9FF07C00D
:103B0E00DAFFDECF0AF0DDCF0BF008500A24D96EB3
:103B1E0009500B20DA6E04C0DFFF20EE02F00650D3
:103B2E00D9260750DA22DE2A000EDD22120020EE00
:103B3E00CEF0080EDE6AE806FDE2000EFDEC21F086
:103B4E0004C008F005C009F00A6A0B6A000EFFEC0B
:103B5E0015F008C0D7F009C0D8F00AC0D9F00BC0D4
:103B6E00DAF0F60E086E280E096E9C0E0A6E400EE6
:103B7E000B6ED7C004F0D8C005F0D9C006F0DAC07D
:103B8E0007F0A4EC0FF004C01DF005C01EF006C037
:103B9E001FF007C020F0000E216E000E226E200EC8
:103BAE00236E410E246EB9EC11F01DC0D7F01EC06D
:103BBE00D8F01FC0D9F020C0DAF0CE0E0001BC6FD5
:103BCE00000EBD6F0D0EBE6F080EBF6FD7C0C0F0DA
:103BDE00D8C0C1F0D9C0C2F0DAC0C3F0D9EC20F021
:103BEE00000E076ECE0E086E000E096E010ED3EC9F
:103BFE001CF01200000E096E07BE0AEF1EF008EF51
:103C0E001EF010EF1EF0066C071ED8B0072A010E2C
:103C1E00096E05BE17EF1EF015EF1EF01DEF1EF01C
:103C2E00046C051ED8B0052A010E091A000E0B6E83
:103C3E00000E0A6E06500710D8B428EF1EF02AEFB9
:103C4E001EF052EF1EF0010E086E32EF1EF0D890ED
:103C5E0006360736082A07AE37EF1EF039EF1EF08C
:103C6E002EEF1EF0D8900A360B360650045C075025
:103C7E000558D8A045EF1EF047EF1EF04CEF1EF092
:103C8E000650045E0750055A0A80D8900732063255
:103C9E00082E39EF1EF00950D8B458EF1EF05AEF27
:103CAE001EF05EEF1EF00A6C0B1ED8B00B2A0AC077
:103CBE0004F00BC005F012005AA068EF1EF06AEF78
:103CCE001EF074EF1EF016C00DF017C00EF014C0EB
:103CDE000FF015C010F0BBEC21F019BE79EF1EF0FD
:103CEE007BEF1EF081EF1EF018C01DF019C01EF004
:103CFE0085EF1EF0000E1E6E000E1D6E000E1C6E69
:103D0E00000E1B6E97EF1EF0000E056E200E046E59
:103D1E0014C006F015C007F039EC1DF01B4A1C2A22
:103D2E001D501B5C1C50800A1A6E1E50800A1A58B9
:103D3E00D8A0A4EF1EF0A6EF1EF08BEF1EF05AB027
:103D4E00ABEF1EF0ADEF1EF0B7EF1EF016C00DF08C
:103D5E0017C00EF014C00FF015C010F0BBEC21F020
:103D6E0016C004F017C005F06FEC22F01D500424AD
:103D7E00146E1E500520156E1200959E959C959AF8
:103D8E00959895969594850E076E760EE82EFED72D
:103D9E00072EFCD700D0000E086E8C9E8C9C8C8A51
:103DAE008C888C968C948C9E8C9C8C8A8C888C8621
:103DBE008C94050EE82EFED78C9E8C9C8C8A8C885B
:103DCE008C968C94160E076E6C0EE82EFED7072E70
:103DDE00FCD700D0082A030E0864F8EF1EF0FAEFA5
:103DEE001EF0D4EF1EF08C9E8C9C8C8A8C988C9638
:103DFE008C948C9E8C9C8C8A8C988C868C94050EC4
:103E0E00E82EFED78C9E8C9C8C8A8C988C968C94EB
:103E1E00160E076E6C0EE82EFED7072EFCD700D0BE
:103E2E00280EBEEC19F0100EBEEC19F0010EBEEC11
:103E3E0019F00F0EBEEC19F01200000E096E05BE41
:103E4E002DEF1FF02BEF1FF033EF1FF0046C051E4C
:103E5E00D8B0052A010E096E07BE3AEF1FF038EFF3
:103E6E001FF03EEF1FF0066C071ED8B0072A065053
:103E7E000710D8B445EF1FF047EF1FF06BEF1FF0A0
:103E8E00010E086E4FEF1FF0D89006360736082A3F
:103E9E0007AE54EF1FF056EF1FF04BEF1FF006501A
:103EAE00045C07500558D8A05FEF1FF061EF1FF0BC
:103EBE0065EF1FF00650045E0750055AD890073282
:103ECE000632082E56EF1FF00950D8B471EF1FF0CE
:103EDE0073EF1FF077EF1FF0046C051ED8B0052AA4
:103EEE0004C004F005C005F01200000E04140C6EA0
:103EFE00000E05140D6E800E06140E6E7F0E071446
:103F0E000F6E0C500D100E100F10D8A491EF1FF065
:103F1E0093EF1FF09BEF1FF0000E046E000E056E68
:103F2E00000E066E000E076E000E08140C6E000ECC
:103F3E0009140D6E800E0A140E6E7F0E0B140F6E8A
:103F4E000C500D100E100F10D8A4B0EF1FF0B2EFE2
:103F5E001FF0BAEF1FF0000E086E000E096E000E75
:103F6E000A6E000E0B6E085004180FE1095005186A
:103F7E000CE10A50061809E10B500718D8B4CAEF25
:103F8E001FF0CCEF1FF0CFEF1FF0D890D0EF1FF047
:103F9E00D8801200C4EC1EF0010EBEEC19F00C0E0F
:103FAE00BEEC19F0020E0F6E860E0E6E990EE82EF6
:103FBE00FED70E2EFCD70F2EFAD700F0030E076E8B
:103FCE00010E086E080E096E010ED3EC1CF0060EE3
:103FDE00076E1E0E086E080E096E020ED3EC1CF054
:103FEE001F0E0F6E710E0E6E1E0EE82EFED70E2ECB
:103FFE00FCD70F2EFAD700D0010EBEEC19F0020E30
:10400E000F6E860E0E6E990EE82EFED70E2EFCD774
:10401E000F2EFAD700F0120093968A94AEEC22F08F
:10402E008AA61CEF20F021EF20F00001DC6BDC2BC8
:10403E0023EF20F00001DC6BDC47DC47DC478A50C5
:10404E00DC19F70BDC198A6E020E0001DD6F860E8D
:10405E00DC6F990EE82EFED7DC2FFCD7DD2FFAD7BA
:10406E0021EE6EF002D846EF20F00500FA6EDE501B
:10407E00FD6EDE50FE6EF850FF6EFA50120017EF16
:10408E0020F03FEF00F0B6C0BAF0B7C0BBF0000EA4
:10409E000001F56F000EF46F68EF20F0B4C098F0D9
:1040AE00B5C099F0BA0E9A6F000E9B6FB8C09CF017
:1040BE00B9C09DF04CEC0AF000019851F4279951CB
:1040CE00F523BAC0F6FFBBC0F7FF0800F550000994
:1040DE00D8A474EF20F076EF20F055EF20F0F4C066
:1040EE00B4F0F5C0B5F01200BF0E0C6EFF0E0D6EE3
:1040FE000AC00EF00BC00FF00C500E260D500F2202
:10410E000F500AE11A0E0E5CD8A090EF20F093EF3C
:10411E0020F0010E94EF20F0000E106E116A105078
:10412E001110D8B49DEF20F09FEF20F0A6EF20F0F5
:10413E00200E0A100A6E0B500B6EAAEF20F00AC06A
:10414E000AF00BC00BF0120006C00AF007C00BF00D
:10415E0004C00CF005C00DF00A50086E0B50096E2D
:10416E000A4A0B2A08C0F6FF09C0F7FFF86A0CC00E
:10417E00D9FF0DC0DAFF0C4A0D2A070EF76403D0E3
:10418E000800F55005D0F6CFE1FFF7CFE2FFE7507C
:10419E00DF6EDF50D8A4D6EF20F0D8EF20F0B3EFCB
:1041AE0020F01200C00E0001C66F000EC76FBCC01B
:1041BE00C8F0BDC0C9F0000ECB6F000ECA6F000E66
:1041CE00CD6F000ECC6FC80EB46F000EB56FBEC0B3
:1041DE00B6F0BFC0B7F0C60EB86F000EB96F4AEC9E
:1041EE0020F00001CA51BC25D96ECB51BD21DA6E2B
:1041FE00000EDF6E1200010E0A6E200E041805105E
:10420E00D8B40CEF21F00EEF21F027EF21F0F70ECE
:10421E00066EFF0E076E04C008F005C009F00650CA
:10422E00082607500922095009E1050E085CD8A09E
:10423E0023EF21F025EF21F027EF21F0000E0A6E7B
:10424E000AC004F0056A1200740EF66E450EF76E83
:10425E00000EF86E01EE59F010EE17F00900F5CFD2
:10426E00EEFFE550E150FAE101EE00F0590EEE6A74
:10427E00E806FDE100EEDEF01C0EEE6AE806FDE15A
:10428E005B6A5A6A5C905C92000EF86E000113EF46
:10429E0020F020EED1F0050EDE6AE806FDE2D10E2A
:1042AE000001BC6F000EBD6F240EBE6F080EBF6FF7
:1042BE00CEC0D9FFCFC0DAFFDF50D06FD051C06F64
:1042CE00C16BD9EC20F0080E076ED10E086E000EF1
:1042DE00096E020ED3EC1CF01200056E0550D8A428
:1042EE007BEF21F07DEF21F083EF21F0C150F00B39
:1042FE000E09C16E8BEF21F005500F08046EC150F0
:10430E000418F00B0418C16ECF0EC116C050C70BA7
:10431E001009C06EC050F80B0309C06EC08EC2806B
:10432E001200000E211A000E221A000E231A800E01
:10433E00241A1DC004F01EC005F01FC006F020C0D8
:10434E0007F021C008F022C009F023C00AF024C0F3
:10435E000BF044EC0DF004C01DF005C01EF006C0BD
:10436E001FF007C020F01200000E136E000E126E2A
:10437E00CCEF21F011C004F0056A0FC006F010C09A
:10438E0007F039EC1DF0124A132A12500D24D96E83
:10439E0013500E20DA6EDF50116E1150D8A4DAEFE2
:1043AE0021F0DCEF21F0C1EF21F0120017BEEAEF91
:1043BE0021F0175006E11604D8B0E8EF21F0EAEF2D
:1043CE0021F0F8EF21F016C018F017C019F0181EE2
:1043DE00191E184A192A18C016F019C017F0FCEF4A
:1043EE0021F016C016F017C017F01200076E07C0A6
:1043FE0006F006460646C2500618C30B0618C26ED5
:10440E00080E066ECA0EE82EFED7062EFCD7C28206
:10441E00C2B214EF22F016EF22F00FEF22F0C3CF4C
:10442E0004F0C4CF05F01200BF0E066EFF0E076E2D
:10443E0004C008F005C009F00650082607500922EE
:10444E0009500AE11A0E085CD8A030EF22F033EFC3
:10445E0022F0010E34EF22F0000E046E056A1200F7
:10446E000450051006100710D8B440EF22F042EFAA
:10447E0022F04AEF22F0000E041A000E051A000E6A
:10448E00061A800E071A04C004F005C005F006C017
:10449E0006F007C007F01200D00E066EFF0E076E74
:1044AE0004C008F005C009F006500826075009227E
:1044BE0009500AE10A0E085CD8A068EF22F06BEFF3
:1044CE0022F0010E6CEF22F0000E046E056A12004F
:1044DE0004C006F005C007F077EF22F0044A052A63
:1044EE0004C0D9FF05C0DAFFDF50D8A481EF22F057
:1044FE0083EF22F075EF22F00650045C046E075035
:10450E000558056E120004500602F3CF08F0F4CFE2
:10451E0009F004500702F350092605500602F35025
:10452E00092608C004F009C005F012009EEC1DF02B
:10453E0053EC1AF05A0E0001CE6F010ECF6F50ECF5
:10454E0021F0BA0E01016E6F450E6F6F1200D6ECA0
:10455E0022F0D1EC1FF0020E74EC21F0C6EC22F02A
:10456E00D0EC22F0120000FF00000000000000005E
:0D457E000000000000000000000000BA4531
:10458C00B190B18EB192300EB112B184A192A292BF
:10459C00A0821200500EB36E380EB26EB1801200B3
:1045AC00D08EF28EF28C120006005C92110012007A
:0245BC001200EB
:020000040020DA
:08000000FFFFFFFFFFFFFFFF00
:020000040030CA
:0E000000000C191EFF8181FF0FC00FE00F40A2
:00000001FF
