:020000040000FA
:040000004DEF00F0D0
:100018005A80D8CF02F0E8CF03F0E0CF04F0A0A2D6
:1000280018EF00F01AEF00F045EF00F0A1A21FEF63
:1000380000F021EF00F045EF00F0A1920001BC2B89
:10004800320EBC19D8A42BEF00F02DEF00F045EFCD
:1000580000F0000EBC6F8AA434EF00F038EF00F017
:10006800016A012A39EF00F0016A014601468A5007
:100078000118FB0B01188A6E320E0001BE6F150EB7
:10008800BF6F04C0E0FF03C0E8FF02C0D8FF5A906A
:060098001000F5EF0BF073
:10080000004269656E76656E69646F7300414443AA
:10081000313A256400414443323A25640053494348
:100820004356000022C03AF023C03BF024C03CF005
:1008300025C03DF026C03EF027C03FF028C040F064
:1008400029C041F041BE27EF04F02AEF04F0010E69
:100850002BEF04F0000E386E396A38503910D8B4D6
:1008600034EF04F036EF04F046EF04F0411E401E72
:100870003F1E3E1E3D1E3C1E3B1E3A6C000E3B22A0
:100880003C223D223E223F224022412257BE4BEFD6
:1008900004F04DEF04F04EEF04F0589257BE5BEFBA
:1008A00004F0575006E15604D8B059EF04F05BEF5E
:1008B00004F061EF04F0000E356E010E346E65EF4A
:1008C00004F056C034F057C035F072C036F073C033
:1008D00037F038503910D8A470EF04F072EF04F0FC
:1008E00079EF04F058A477EF04F079EF04F07CEF8F
:1008F00004F03606D8A03706000E436E1F0E426E77
:10090000000E0001936F01EF05F04206D8A04306E8
:10091000740E4224D96E000E4320DA6E3AC005F000
:100920003BC006F03CC007F03DC008F03EC009F0F7
:100930003FC00AF040C00BF041C00CF00A0E0D6E33
:10094000000E0E6E000E0F6E000E106E000E116E79
:10095000000E126E000E136E000E146E1FEC07F0E8
:1009600005C02AF006C02BF007C02CF008C02DF0FF
:1009700009C02EF00AC02FF00BC030F00CC031F0CF
:100980002AC017F02CC018F016EC0CF01750300FDE
:10099000DF6E3406D8A035063606D8A037063AC032
:1009A00005F03BC006F03CC007F03DC008F03EC07B
:1009B00009F03FC00AF040C00BF041C00CF00A0E35
:1009C0000D6E000E0E6E000E0F6E000E106E000EFD
:1009D000116E000E126E000E136E000E146E5BECA4
:1009E00006F005C03AF006C03BF007C03CF008C076
:1009F0003DF009C03EF00AC03FF00BC040F00CC013
:100A000041F043BE0CEF05F0435008E14204D8A08A
:100A10000CEF05F00EEF05F03EEF05F03A503B10FD
:100A20003C103D103E103F1040104110D8A41BEF69
:100A300005F01DEF05F085EF04F035BE2AEF05F057
:100A4000355006E13404D8B028EF05F02AEF05F060
:100A500085EF04F037BE35EF05F0375008E1360476
:100A6000D8A035EF05F037EF05F03EEF05F058B2AE
:100A70003CEF05F03EEF05F085EF04F038503910FB
:100A8000D8A445EF05F047EF05F04EEF05F058A468
:100A90004CEF05F04EEF05F06CEF05F04206D8A0E4
:100AA000430638503910D8A458EF05F05AEF05F036
:100AB00060EF05F0000E336E2B0E326E64EF05F022
:100AC000000E336E2D0E326E740E4224D96E000E5F
:100AD0004320DA6E32C0DFFF20C015F021C016F0CF
:100AE000740E4224176E000E4320186E36C019F0A3
:100AF00037C01AF0D8EC09F015C020F016C021F06C
:100B0000120046C0D9FF47C0DAFFDECFF6FFDDCFC7
:100B1000F7FF0800F550250AD8A491EF05F093EFF0
:100B200005F03FEF06F046C0D9FF47C0DAFFDE2AE6
:100B3000000EDD22000E0001736F000E726F72C096
:100B400058F073C059F05668576846C0D9FF47C07F
:100B5000DAFFDECFF6FFDDCFF7FF0800F550640ABD
:100B6000D8B4B5EF05F0B7EF05F0C9EF05F046C012
:100B7000D9FF47C0DAFFDECFF6FFDDCFF7FF080071
:100B8000F550690AD8A4C7EF05F0C9EF05F009EFE1
:100B900006F046C0D9FF47C0DAFFDE2A000EDD228C
:100BA00048C0D9FF49C0DAFFDFCF4AF0020EDE2687
:100BB000DFCF4BF0000EDD224AC0D9FF4BC0DAFF79
:100BC000DECF4CF0DDCF4DF0000E4DBEFF0E4E6E71
:100BD0004F6E506E516E526E536E44C020F045C041
:100BE00021F04CC022F04DC023F04EC024F04FC085
:100BF00025F050C026F051C027F052C028F053C055
:100C000029F012EC04F020C044F021C045F05AEF66
:100C100006F046C0D9FF47C0DAFFDECFF6FFDDCFD2
:100C2000F7FF0800F550250AD8A419EF06F01BEFCE
:100C300006F032EF06F046C0D9FF47C0DAFFDE2AE1
:100C4000000EDD22000E066E250E056E44C007F074
:100C500045C008F073EC09F0000E456E010E446EBD
:100C60005AEF06F046C0D9FF47C0DAFFDE2A000E71
:100C7000DD22000E456E000E446E5AEF06F046C0AF
:100C8000D9FF47C0DAFFDECFF6FFDDCFF7FF080060
:100C9000F550056E066A44C007F045C008F073ECD5
:100CA00009F046C0D9FF47C0DAFFDE2A000EDD2278
:100CB0002CEF06F01200000E166E14BE64EF06F064
:100CC00062EF06F076EF06F0141E131E121E111EC0
:100CD000101E0F1E0E1E0D6C000E0E220F22102273
:100CE0001122122213221422010E166E0CBE7DEF69
:100CF00006F07BEF06F08FEF06F00C1E0B1E0A1EAF
:100D0000091E081E071E061E056C000E062207227D
:100D1000082209220A220B220C22010E161A20EEAA
:100D200017F0070EDE6AE806FDE20D500E100F10F8
:100D300010101110121013101410D8B4A2EF06F0F6
:100D4000A4EF06F0F6EF06F0010E156EB2EF06F016
:100D5000D8900D360E360F36103611361236133641
:100D60001436152A14AEB7EF06F0B9EF06F0A8EF67
:100D700006F0D8901736183619361A361B361C3638
:100D80001D361E360D50055C0E5006580F50075884
:100D9000105008581150095812500A5813500B5847
:100DA00014500C58D8A0D7EF06F0D9EF06F0EAEFB0
:100DB00006F00D50055E0E50065A0F50075A10509F
:100DC000085A1150095A12500A5A13500B5A14500B
:100DD0000C5A1780D890143213321232113210325A
:100DE0000F320E320D32152EB9EF06F01650D8B470
:100DF000FCEF06F0FEEF06F00EEF07F01E1E1D1EC4
:100E00001C1E1B1E1A1E191E181E176C000E1822FF
:100E100019221A221B221C221D221E2217C005F095
:100E200018C006F019C007F01AC008F01BC009F07E
:100E30001CC00AF01DC00BF01EC00CF01200000E0A
:100E4000166E0CBE28EF07F026EF07F03AEF07F01A
:100E50000C1E0B1E0A1E091E081E071E061E056C10
:100E6000000E06220722082209220A220B220C2247
:100E7000010E166E14BE41EF07F03FEF07F051EF81
:100E800007F0141E131E121E111E101E0F1E0E1E22
:100E90000D6C000E0E220F2210221122122213229C
:100EA00014220D500E100F101010111012101310EC
:100EB0001410D8B45EEF07F060EF07F0A8EF07F06A
:100EC000010E156E6EEF07F0D8900D360E360F3608
:100ED00010361136123613361436152A14AE73EF47
:100EE00007F075EF07F064EF07F00D50055C0E504A
:100EF00006580F50075810500858115009581250F2
:100F00000A5813500B5814500C58D8A08AEF07F009
:100F10008CEF07F09CEF07F00D50055E0E50065A5F
:100F20000F50075A1050085A1150095A12500A5AB5
:100F300013500B5A14500C5AD890143213321232E8
:100F4000113210320F320E320D32152E75EF07F0BE
:100F50001650D8B4AEEF07F0B0EF07F0C0EF07F0CF
:100F60000C1E0B1E0A1E091E081E071E061E056CFF
:100F7000000E06220722082209220A220B220C2236
:100F800005C005F006C006F007C007F008C008F06D
:100F900009C009F00AC00AF00BC00BF00CC00CF03D
:100FA0001200076E8C968C8407C005F0070E066E43
:100FB00005340532062ED8EF07F0010E051605326E
:100FC00005328C5005187F0B05188C6E07C005F094
:100FD000060E066E05340532062EEAEF07F0010E06
:100FE0000516053A054605468C500518BF0B051831
:100FF0008C6E07C005F0050E066E05340532062E10
:10100000FDEF07F0010E0516053A05468C50051850
:10101000DF0B05188C6E07C005F0040E066E053454
:101020000532062E0FEF08F0010E0516053A8C501A
:101030000518EF0B05188C6E030EE82EFED700F096
:101040008C86050EE82EFED78C9607C005F0030EA1
:10105000066E05340532062E29EF08F0010E05163E
:10106000053205328C5005187F0B05188C6E07C0B1
:1010700005F00534053205340532010E0516053A32
:10108000054605468C500518BF0B05188C6E07C029
:1010900005F0010E066E05340532062E4BEF08F002
:1010A000010E0516053A05468C500518DF0B05188C
:1010B0008C6E07C005F0010E0516053A8C50051818
:1010C000EF0B05188C6E030EE82EFED700F08C8611
:1010D000050EE82EFED78C96050EE82EFED7160ECE
:1010E000056E6C0EE82EFED7052EFCD700D0120040
:1010F000076E8C968C94056A07AE01D0052A010E06
:101100000516053205328C5005187F0B05188C6EBC
:1011100007C005F0060E066ED8900532062E8CEF3D
:1011200008F0010E0516053A054605468C500518CF
:10113000BF0B05188C6E07C005F0050E066ED89023
:101140000532062E9FEF08F0010E0516053A0546FA
:101150008C500518DF0B05188C6E07C005F0053A9A
:101160000F0E0516010E0516053A8C500518EF0BEB
:1011700005188C6E030EE82EFED700F08C86050E47
:10118000E82EFED78C9607C005F0D8900532D8908F
:101190000532D8900532010E0516053205328C5005
:1011A00005187F0B05188C6E07C005F0D890053226
:1011B000D8900532010E0516053A054605468C50B5
:1011C0000518BF0B05188C6E07C005F0D8900532C6
:1011D000010E0516053A05468C500518DF0B05185B
:1011E0008C6E07C005F0010E0516053A8C500518E7
:1011F000EF0B05188C6E030EE82EFED700F08C86E0
:10120000050EE82EFED78C96160E056E6C0EE82E97
:10121000FED7052EFCD700D012000D6E24EF09F08A
:101220000850800F0E6E41EF09F00850C00F0E6E8F
:1012300041EF09F00850940F0E6E41EF09F008508D
:10124000D40F0E6E41EF09F00D500B6E0C6A0C506E
:10125000000AD8B42EEF09F041EF09F00B50010A53
:10126000D8B410EF09F0030AD8B415EF09F0010A59
:10127000D8B41AEF09F0070AD8B41FEF09F041EF0C
:1012800009F00E5078EC08F05AEF09F009C0F6FFAB
:101290000AC0F7FFF86A070EF76403D00800F5509C
:1012A00005D0F6CFE1FFF7CFE2FFE750D1EC07F032
:1012B000094A0A2A09C0F6FF0AC0F7FFF86A070EB2
:1012C000F76403D00800F55005D0F6CFE1FFF7CF63
:1012D000E2FFE7500009D8A470EF09F072EF09F0BF
:1012E00046EF09F0120007500810D8B47AEF09F061
:1012F0007CEF09F085EF09F007500810D8A483EFC0
:1013000009F085EF09F08AEF09F0055092EC0CF036
:10131000D7EF09F020EE04F00750D9260850DA2262
:10132000DE50DE10D8B497EF09F099EF09F0B4EF72
:1013300009F020EE04F00750D9260850DA2210EE0A
:1013400002F00750E1260850E222DE50E65CE6504B
:10135000800A0D6EDE50800A0D58D8B0B2EF09F049
:10136000B4EF09F0D7EF09F020EE02F00750D926CC
:101370000850DA22DECF09F0DDCF0AF007C0D9FF2E
:1013800008C0DAFFDECF0BF0DDCF0CF009500B24E4
:10139000D96E0A500C20DA6E05C0DFFF20EE02F095
:1013A0000750D9260850DA22DE2A000EDD2212006C
:1013B00058A0DDEF09F0DFEF09F0E9EF09F017C001
:1013C0000EF018C00FF015C010F016C011F0D3ECDD
:1013D0000BF01ABEEEEF09F0F0EF09F0F6EF09F0AE
:1013E00019C01EF01AC01FF0FAEF09F0000E1F6EB0
:1013F000000E1E6E000E1D6E000E1C6E0CEF0AF02D
:10140000000E066E200E056E15C007F016C008F01F
:1014100073EC09F01C4A1D2A1E501C5C1D50800AEA
:101420001B6E1F50800A1B58D8A019EF0AF01BEF43
:101430000AF000EF0AF058B020EF0AF022EF0AF0AD
:101440002CEF0AF017C00EF018C00FF015C010F006
:1014500016C011F0D3EC0BF017C005F018C006F061
:1014600054EC0CF01E500524156E1F500620166E0D
:101470001200959E959C959A959895969594850EB3
:10148000086E760EE82EFED7082EFCD700D0000E90
:10149000096E8C9E8C9C8C8A8C888C968C948C9EED
:1014A0008C9C8C8A8C888C868C94050EE82EFED7BA
:1014B0008C9E8C9C8C8A8C888C968C94160E086ED4
:1014C0006C0EE82EFED7082EFCD700D0092A030E9A
:1014D00009646DEF0AF06FEF0AF049EF0AF08C9E95
:1014E0008C9C8C8A8C988C968C948C9E8C9C8C8AF0
:1014F0008C988C868C94050EE82EFED78C9E8C9C46
:101500008C8A8C988C968C94160E086E6C0EE82E35
:10151000FED7082EFCD700D0280E78EC08F0100E6D
:1015200078EC08F0010E78EC08F00F0E78EC08F07B
:10153000120020EEAAF00F0EDE6AE806FDE2AA0E07
:1015400000019A6F000E9B6F0D0E9C6F080E9D6F31
:10155000000E36EC0CF005C09EF006C09FF086EC45
:101560000BF0000E086EAA0E096E000E0A6E010E38
:101570000DEC09F0AA0E00019A6F000E9B6F150E7C
:101580009C6F080E9D6F010E36EC0CF005C09EF0AE
:1015900006C09FF086EC0BF0000E086EAA0E096ED6
:1015A000000E0A6E020E0DEC09F0220E0001BE6F55
:1015B000190EBF6F120039EC0AF0010E78EC08F03A
:1015C0000C0E78EC08F0020E106E860E0F6E990E5F
:1015D000E82EFED70F2EFCD7102EFAD700F0030E00
:1015E000086E010E096E080E0A6E010E0DEC09F070
:1015F000060E086E1D0E096E080E0A6E020E0DEC28
:1016000009F01F0E106E710E0F6E1E0EE82EFED723
:101610000F2EFCD7102EFAD700D0010E78EC08F070
:10162000020E106E860E0F6E990EE82EFED70F2E4C
:10163000FCD7102EFAD700F01200939493968A9458
:101640006FEC0CF08AA627EF0BF02CEF0BF00001EB
:10165000BA6BBA2B2EEF0BF00001BA6BBA47BA4740
:10166000BA478A50BA19F70BBA198A6E020E0001EE
:10167000BB6F860EBA6F990EE82EFED7BA2FFCD735
:10168000BB2FFAD720EEBEF002D851EF0BF00500C9
:10169000FA6EDE50FD6EDE50FE6EF850FF6EFA50B0
:1016A000120022EF0BF04DEF00F096C054F097C0FF
:1016B00055F0000E0001716F000E706F73EF0BF0AC
:1016C00094C044F095C045F0540E466E000E476E2F
:1016D00098C048F099C049F081EC05F044500001F1
:1016E00070274550712354C0F6FF55C0F7FF08001E
:1016F000F5500009D8A47FEF0BF081EF0BF060EFFD
:101700000BF070C094F071C095F012009E0E0001B5
:10171000A26F000EA36F9AC0A4F09BC0A5F0000EAC
:10172000A76F000EA66F000EA96F000EA86FA40E83
:10173000946F000E956F9CC096F09DC097F0A20E1E
:10174000986F000E996F55EC0BF00001A6519A2589
:10175000D96EA7519B21DA6E000EDF6E1200066E65
:101760000650D8A4B6EF0BF0B8EF0BF0BEEF0BF0BD
:10177000C150F00B0E09C16EC6EF0BF006500F08FA
:10178000056EC1500518F00B0518C16ECF0EC116BD
:10179000C050C70B1009C06EC050F80B0309C06ED3
:1017A000C08EC2801200000E146E000E136EE4EFA5
:1017B0000BF012C005F0066A10C007F011C008F067
:1017C00073EC09F0134A142A13500E24D96E1450E6
:1017D0000F20DA6EDF50126E1250D8A4F2EF0BF029
:1017E000F4EF0BF0D9EF0BF012001E0EF66E190E8F
:1017F000F76E000EF86E00EEBCF010EE04F009007B
:10180000F5CFEEFFE550E150FAE100EE60F0340E66
:10181000EE6AE806FDE1596A586A576A566A5A90B4
:101820005A92000EF86E00011DEF0BF018BE23EF68
:101830000CF0185006E11704D8B021EF0CF023EF9C
:101840000CF031EF0CF017C019F018C01AF0191E87
:101850001A1E194A1A2A19C017F01AC018F035EFC3
:101860000CF017C017F018C018F01200086E08C06E
:1018700007F007460746C2500718C30B0718C26E89
:10188000080E076ECA0EE82EFED7072EFCD7C282BE
:10189000C2B24DEF0CF04FEF0CF048EF0CF0C3CF9D
:1018A00005F0C4CF06F0120005C007F006C008F02E
:1018B0005CEF0CF0054A062A05C0D9FF06C0DAFF26
:1018C000DF50D8A466EF0CF068EF0CF05AEF0CF084
:1018D0000750055C056E08500658066E12008BEC2A
:1018E0000CF0DBEC0AF0020EAFEC0BF07BEC0CF032
:1018F00085EC0CF01200B190B18EB192300EB112A5
:10190000B184A192A292A0821200500EB36E380E42
:10191000B26EB1801200D08EF28EF28C12000000F6
:0619200022191200120062
:020000040020DA
:08000000FFFFFFFFFFFFFFFF00
:020000040030CA
:0E000000000C191EFF8181FF0FC00FE00F40A2
:00000001FF
