:020000040000FA
:0400000071EF0CF0A0
:10080000004269656E76656E69646F203A2A002A37
:1008100043616C63756C61646F72612A004144438B
:10082000313A256400414443323A256400001EC039
:1008300036F01FC037F020C038F021C039F022C098
:100840003AF023C03BF024C03CF025C03DF03DBE53
:100850002CEF04F02FEF04F0010E30EF04F0000E47
:10086000346E356A34503510D8B439EF04F03BEFAC
:1008700004F04BEF04F03D1E3C1E3B1E3A1E391E99
:10088000381E371E366C000E3722382239223A22A3
:100890003B223C223D22000165BF51EF04F053EFA3
:1008A00004F054EF04F0669365BF61EF04F0655106
:1008B00006E16405D8B05FEF04F061EF04F067EF84
:1008C00004F0000E316E010E306E6BEF04F064C068
:1008D00030F065C031F062C032F063C033F03450A4
:1008E0003510D8A476EF04F078EF04F07FEF04F031
:1008F00066A57DEF04F07FEF04F082EF04F032068E
:10090000D8A03306000E3F6E1F0E3E6E000E896F9C
:1009100006EF05F03E06D8A03F066A0E3E24D96ECB
:10092000000E3F20DA6E36C001F037C002F038C04A
:1009300003F039C004F03AC005F03BC006F03CC0FB
:1009400007F03DC008F00A0E096E000E0A6E000E98
:100950000B6E000E0C6E000E0D6E000E0E6E000E75
:100960000F6E000E106E26EC07F001C026F002C0DC
:1009700027F003C028F004C029F005C02AF006C003
:100980002BF007C02CF008C02DF026C013F028C0B3
:1009900014F018EC0CF01350300FDF6E3006D8A0B6
:1009A00031063206D8A0330636C001F037C002F057
:1009B00038C003F039C004F03AC005F03BC006F07F
:1009C0003CC007F03DC008F00A0E096E000E0A6E2A
:1009D000000E0B6E000E0C6E000E0D6E000E0E6EF5
:1009E000000E0F6E000E106E62EC06F001C036F0C5
:1009F00002C037F003C038F004C039F005C03AF047
:100A000006C03BF007C03CF008C03DF03FBE11EF10
:100A100005F03F5008E13E04D8A011EF05F013EFB8
:100A200005F044EF05F036503710381039103A1001
:100A30003B103C103D10D8A420EF05F022EF05F04C
:100A40008AEF04F031BE2FEF05F0315006E130049B
:100A5000D8B02DEF05F02FEF05F08AEF04F033BE8C
:100A60003AEF05F0335008E13204D8A03AEF05F030
:100A70003CEF05F044EF05F0000166B342EF05F0EE
:100A800044EF05F08AEF04F034503510D8A44BEF52
:100A900005F04DEF05F055EF05F0000166A553EFA9
:100AA00005F055EF05F073EF05F03E06D8A03F06C0
:100AB00034503510D8A45FEF05F061EF05F067EF13
:100AC00005F0000E2F6E2B0E2E6E6BEF05F0000E54
:100AD0002F6E2D0E2E6E6A0E3E24D96E000E3F2014
:100AE000DA6E2EC0DFFF1CC011F01DC012F06A0EBE
:100AF0003E24136E000E3F20146E32C015F033C03A
:100B000016F014EC0AF011C01CF012C01DF0120017
:100B100042C0D9FF43C0DAFFDECFF6FFDDCFF7FFDB
:100B20000800F550250AD8A498EF05F09AEF05F0D3
:100B300046EF06F042C0D9FF43C0DAFFDE2A000EBE
:100B4000DD22000E0001636F000E626F62C066F06E
:100B500063C067F06469656942C0D9FF43C0DAFFCA
:100B6000DECFF6FFDDCFF7FF0800F550640AD8B4FA
:100B7000BCEF05F0BEEF05F0D0EF05F042C0D9FFA5
:100B800043C0DAFFDECFF6FFDDCFF7FF0800F550F8
:100B9000690AD8A4CEEF05F0D0EF05F010EF06F00B
:100BA00042C0D9FF43C0DAFFDE2A000EDD2244C076
:100BB000D9FF45C0DAFFDFCF46F0020EDE26DFCFD9
:100BC00047F0000EDD2246C0D9FF47C0DAFFDECF76
:100BD00048F0DDCF49F0000E49BEFF0E4A6E4B6E65
:100BE0004C6E4D6E4E6E4F6E40C01CF041C01DF0FD
:100BF00048C01EF049C01FF04AC020F04BC021F091
:100C00004CC022F04DC023F04EC024F04FC025F060
:100C100017EC04F01CC040F01DC041F061EF06F07D
:100C200042C0D9FF43C0DAFFDECFF6FFDDCFF7FFCA
:100C30000800F550250AD8A420EF06F022EF06F0B0
:100C400039EF06F042C0D9FF43C0DAFFDE2A000EBA
:100C5000DD22000E026E250E016E40C003F041C081
:100C600004F0AFEC09F0000E416E010E406E61EF32
:100C700006F042C0D9FF43C0DAFFDE2A000EDD22B3
:100C8000000E416E000E406E61EF06F042C0D9FFCB
:100C900043C0DAFFDECFF6FFDDCFF7FF0800F550E7
:100CA000016E026A40C003F041C004F0AFEC09F0ED
:100CB00042C0D9FF43C0DAFFDE2A000EDD2233EF47
:100CC00006F01200000E126E10BE6BEF06F069EF18
:100CD00006F07DEF06F0101E0F1E0E1E0D1E0C1EE0
:100CE0000B1E0A1E096C000E0A220B220C220D227A
:100CF0000E220F221022010E126E08BE84EF06F0A3
:100D000082EF06F096EF06F0081E071E061E051E6F
:100D1000041E031E021E016C000E02220322042286
:100D20000522062207220822010E121A20EE13F0D5
:100D3000070EDE6AE806FDE209500A100B100C10DF
:100D40000D100E100F101010D8B4A9EF06F0ABEF75
:100D500006F0FDEF06F0010E116EB9EF06F0D89027
:100D600009360A360B360C360D360E360F3610366F
:100D7000112A10AEBEEF06F0C0EF06F0AFEF06F09E
:100D8000D8901336143615361636173618361936E7
:100D90001A360950015C0A5002580B5003580C5087
:100DA00004580D5005580E5006580F500758105053
:100DB0000858D8A0DEEF06F0E0EF06F0F1EF06F0FD
:100DC0000950015E0A50025A0B50035A0C50045A43
:100DD0000D50055A0E50065A0F50075A1050085A17
:100DE0001380D89010320F320E320D320C320B328B
:100DF0000A320932112EC0EF06F01250D8B403EFB8
:100E000007F005EF07F015EF07F01A1E191E181E60
:100E1000171E161E151E141E136C000E142215220A
:100E200016221722182219221A2213C001F014C008
:100E300002F015C003F016C004F017C005F018C08A
:100E400006F019C007F01AC008F01200000E126E6A
:100E500008BE2FEF07F02DEF07F041EF07F0081E57
:100E6000071E061E051E041E031E021E016C000E38
:100E70000222032204220522062207220822010E52
:100E8000126E10BE48EF07F046EF07F058EF07F07C
:100E9000101E0F1E0E1E0D1E0C1E0B1E0A1E096CB0
:100EA000000E0A220B220C220D220E220F221022EB
:100EB00009500A100B100C100D100E100F1010100E
:100EC000D8B465EF07F067EF07F0AFEF07F0010E5A
:100ED000116E75EF07F0D89009360A360B360C36CE
:100EE0000D360E360F361036112A10AE7AEF07F097
:100EF0007CEF07F06BEF07F00950015C0A500258D5
:100F00000B5003580C5004580D5005580E500658FD
:100F10000F50075810500858D8A091EF07F093EFE2
:100F200007F0A3EF07F00950015E0A50025A0B5078
:100F3000035A0C50045A0D50055A0E50065A0F50C1
:100F4000075A1050085AD89010320F320E320D3214
:100F50000C320B320A320932112E7CEF07F012509C
:100F6000D8B4B5EF07F0B7EF07F0C7EF07F0081EEA
:100F7000071E061E051E041E031E021E016C000E27
:100F8000022203220422052206220722082201C08F
:100F900001F002C002F003C003F004C004F005C079
:100FA00005F006C006F007C007F008C008F0120000
:100FB000036E8C968C8403C001F0070E026E013420
:100FC0000132022EDFEF07F0010E0116013201326D
:100FD0008C5001187F0B01188C6E03C001F0060EB7
:100FE000026E01340132022EF1EF07F0010E0116FC
:100FF000013A014601468C500118BF0B01188C6E56
:1010000003C001F0050E026E01340132022E04EF1E
:1010100008F0010E0116013A01468C500118DF0B51
:1010200001188C6E03C001F0040E026E013401320F
:10103000022E16EF08F0010E0116013A8C5001182D
:10104000EF0B01188C6E030EE82EFED700F08C8695
:10105000050EE82EFED78C9603C001F0030E026E3B
:1010600001340132022E30EF08F0010E0116013278
:1010700001328C5001187F0B01188C6E03C001F0F7
:101080000134013201340132010E0116013A0146E8
:1010900001468C500118BF0B01188C6E03C001F083
:1010A000010E026E01340132022E52EF08F0010EE1
:1010B0000116013A01468C500118DF0B01188C6EA5
:1010C00003C001F0010E0116013A8C500118EF0B1C
:1010D00001188C6E030EE82EFED700F08C86050EEC
:1010E000E82EFED78C96050EE82EFED7160E016E62
:1010F0006C0EE82EFED7012EFCD700D0120077EC44
:101100000AF0010E1AEC09F00C0E1AEC09F0020EAE
:101110005F6E860E5E6E990EE82EFED75E2EFCD7B1
:101120005F2EFAD700F0010E046E010E056E080E58
:10113000066E010ED7EC0AF0010E046E0F0E056E5E
:10114000080E066E020ED7EC0AF0100E5F6E390E16
:101150005E6E0E0EE82EFED75E2EFCD75F2EFAD7FF
:10116000010E1AEC09F0020E5F6E860E5E6E990E8D
:10117000E82EFED75E2EFCD75F2EFAD700F0020EC7
:10118000D2EC0BF0000E38EC0CF001C068F002C09D
:1011900069F08A0E586E000E596E1D0E5A6E080EBA
:1011A0005B6E68C05CF069C05DF0A9EC0BF0000EEE
:1011B000046E8A0E056E000E066E010E29EC0BF011
:1011C000020E5F6E860E5E6E990EE82EFED75E2EC4
:1011D000FCD75F2EFAD700F0010E38EC0CF001C0FE
:1011E00068F002C069F08A0E586E000E596E250E26
:1011F0005A6E080E5B6E68C05CF069C05DF0A9ECC9
:101200000BF0000E046E8A0E056E000E066E020EC6
:1012100029EC0BF0020E5F6E860E5E6E990EE82EC4
:10122000FED75E2EFCD75F2EFAD700F0C2EF08F093
:1012300000EF00F0036E8C968C94016A03AE01D02F
:10124000012A010E0116013201328C5001187F0B68
:1012500001188C6E03C001F0060E026ED8900132A8
:10126000022E2EEF09F0010E0116013A0146014649
:101270008C500118BF0B01188C6E03C001F0050ED5
:10128000026ED8900132022E41EF09F0010E0116D4
:10129000013A01468C500118DF0B01188C6E03C017
:1012A00001F0013A0F0E0116010E0116013A8C50A1
:1012B0000118EF0B01188C6E030EE82EFED700F01C
:1012C0008C86050EE82EFED78C9603C001F0D890D0
:1012D0000132D8900132D8900132010E011601324C
:1012E00001328C5001187F0B01188C6E03C001F085
:1012F000D8900132D8900132010E0116013A014610
:1013000001468C500118BF0B01188C6E03C001F010
:10131000D8900132010E0116013A01468C50011895
:10132000DF0B01188C6E03C001F0010E0116013AAB
:101330008C500118EF0B01188C6E030EE82EFED7AF
:1013400000F08C86050EE82EFED78C96160E016EE8
:101350006C0EE82EFED7012EFCD700D012000350F1
:101360000410D8B4B6EF09F0B8EF09F0C1EF09F0F6
:1013700003500410D8A4BFEF09F0C1EF09F0C6EF85
:1013800009F001507CEC0CF013EF0AF020EE04F0B1
:101390000350D9260450DA22DE50DE10D8B4D3EF41
:1013A00009F0D5EF09F0F0EF09F020EE04F003505A
:1013B000D9260450DA2210EE02F00350E126045040
:1013C000E222DE50E65CE650800A096EDE50800ABA
:1013D0000958D8B0EEEF09F0F0EF09F013EF0AF07A
:1013E00020EE02F00350D9260450DA22DECF05F0B9
:1013F000DDCF06F003C0D9FF04C0DAFFDECF07F06F
:10140000DDCF08F005500724D96E06500820DA6EAB
:1014100001C0DFFF20EE02F00350D9260450DA228B
:10142000DE2A000EDD221200000166A11AEF0AF08A
:101430001CEF0AF026EF0AF013C00AF014C00BF0FC
:1014400011C00CF012C00DF0F6EC0BF016BE2BEF35
:101450000AF02DEF0AF033EF0AF015C01AF016C0AB
:101460001BF037EF0AF0000E1B6E000E1A6E000E16
:10147000196E000E186E49EF0AF0000E026E200E73
:10148000016E11C003F012C004F0AFEC09F0184A6D
:10149000192A1A50185C1950800A176E1B50800ABE
:1014A0001758D8A056EF0AF058EF0AF03DEF0AF0AF
:1014B000000166B15EEF0AF060EF0AF06AEF0AF031
:1014C00013C00AF014C00BF011C00CF012C00DF0E4
:1014D000F6EC0BF013C001F014C002F056EC0CF067
:1014E0001A500124116E1B500220126E1200959E9C
:1014F000959C959A959895969594850E046E760E82
:10150000E82EFED7042EFCD700D0000E056E8C9E70
:101510008C9C8C8A8C888C968C948C9E8C9C8C8ACF
:101520008C888C868C94050EE82EFED78C9E8C9C25
:101530008C8A8C888C968C94160E046E6C0EE82E19
:10154000FED7042EFCD700D0052A030E0564ABEFAE
:101550000AF0ADEF0AF087EF0AF08C9E8C9C8C8A23
:101560008C988C968C948C9E8C9C8C8A8C988C8677
:101570008C94050EE82EFED78C9E8C9C8C8A8C98C1
:101580008C968C94160E046E6C0EE82EFED7042EEC
:10159000FCD700D0280E1AEC09F0100E1AEC09F056
:1015A000010E1AEC09F00F0E1AEC09F01200096E88
:1015B000EEEF0AF00450800F0A6E0BEF0BF00450B0
:1015C000C00F0A6E0BEF0BF00450940F0A6E0BEF76
:1015D0000BF00450D40F0A6E0BEF0BF00950076E9E
:1015E000086A0850000AD8B4F8EF0AF00BEF0BF0C5
:1015F0000750010AD8B4DAEF0AF0030AD8B4DFEFD3
:101600000AF0010AD8B4E4EF0AF0070AD8B4E9EF07
:101610000AF00BEF0BF00A501AEC09F01AEF0BF07E
:1016200005C0F6FF06C0F7FF0800F550D8EC07F03C
:10163000054A062A05C0F6FF06C0F7FF0800F55068
:101640000009D8A426EF0BF028EF0BF010EF0BF0F9
:101650001200096E40EF0BF00450800F0A6E5DEF30
:101660000BF00450C00F0A6E5DEF0BF00450940FA6
:101670000A6E5DEF0BF00450D40F0A6E5DEF0BF0B5
:101680000950076E086A0850000AD8B44AEF0BF0F8
:101690005DEF0BF00750010AD8B42CEF0BF0030AF2
:1016A000D8B431EF0BF0010AD8B436EF0BF0070ACB
:1016B000D8B43BEF0BF05DEF0BF00A501AEC09F0D9
:1016C0006BEF0BF005C0D9FF06C0DAFFDF50D8EC96
:1016D00007F0054A062A05C0D9FF06C0DAFFDF5029
:1016E000D8A475EF0BF077EF0BF062EF0BF0120060
:1016F00052C056F053C057F0000E0001616F000E4B
:10170000606F96EF0BF050C040F051C041F0560EA4
:10171000426E000E436E54C044F055C045F088EC54
:1017200005F04050000160274150612356C0F6FF8C
:1017300057C0F7FF0800F5500009D8A4A2EF0BF03E
:10174000A4EF0BF083EF0BF060C050F061C051F0DC
:1017500012005C0E00019C6F000E9D6F58C09EF041
:1017600059C09FF0000EA16F000EA06F000EA36F76
:10177000000EA26F9E0E506E000E516E5AC052F0B7
:101780005BC053F09C0E546E000E556E78EC0BF05F
:101790000001A0515824D96EA1515920DA6E000ED3
:1017A000DF6E1200026E0250D8A4D9EF0BF0DBEF0F
:1017B0000BF0E1EF0BF0C150F00B0E09C16EE9EF39
:1017C0000BF002500F08016EC1500118F00B011808
:1017D000C16ECF0EC116C050C70B1009C06EC050ED
:1017E000F80B0309C06EC08EC2801200000E106E8E
:1017F000000E0F6E07EF0CF00EC001F0026A0CC075
:1018000003F00DC004F0AFEC09F00F4A102A0F509E
:101810000A24D96E10500B20DA6EDF500E6E0E5077
:10182000D8A415EF0CF017EF0CF0FCEF0BF0120042
:1018300014BE25EF0CF0145006E11304D8B023EFCA
:101840000CF025EF0CF033EF0CF013C015F014C0C2
:1018500016F0151E161E154A162A15C013F016C0CE
:1018600014F037EF0CF013C013F014C014F0120092
:10187000046E04C003F003460346C2500318C30BB2
:101880000318C26E080E036ECA0EE82EFED7032E92
:10189000FCD7C282C2B24FEF0CF051EF0CF04AEF0E
:1018A0000CF0C3CF01F0C4CF02F0120001C003F06E
:1018B00002C004F05EEF0CF0014A022A01C0D9FF19
:1018C00002C0DAFFDF50D8A468EF0CF06AEF0CF02A
:1018D0005CEF0CF00350015C016E04500258026E84
:1018E000120000EE60F03A0EEE6AE806FDE1000E2E
:0A18F000F86E00017FEF08F012000F
:020000040020DA
:08000000FFFFFFFFFFFFFFFF00
:020000040030CA
:0E000000000C191EFF8181FF0FC00FE00F40A2
:00000001FF
