:020000040000FA
:04000000CDEF06F04A
:10080000004269656E76656E69646F730000156EEF
:100810008C968C8415C013F0070E146E13341332AB
:10082000142E0EEF04F0010E1316133213328C50F7
:1008300013187F0B13188C6E15C013F0060E146E70
:1008400013341332142E20EF04F0010E1316133A52
:10085000134613468C501318BF0B13188C6E15C01B
:1008600013F0050E146E13341332142E33EF04F00C
:10087000010E1316133A13468C501318DF0B13187E
:100880008C6E15C013F0040E146E13341332142E34
:1008900045EF04F0010E1316133A8C501318EF0BAA
:1008A00013188C6E030EE82EFED700F08C86050E12
:1008B000E82EFED78C9615C013F0030E146E133479
:1008C0001332142E5FEF04F0010E1316133213329D
:1008D0008C5013187F0B13188C6E15C013F0133443
:1008E000133213341332010E1316133A1346134600
:1008F0008C501318BF0B13188C6E15C013F0010E1B
:10090000146E13341332142E81EF04F0010E1316FB
:10091000133A13468C501318DF0B13188C6E15C046
:1009200013F0010E1316133A8C501318EF0B131813
:100930008C6E030EE82EFED700F08C86050EE82E96
:10094000FED78C96050EE82EFED7160E136E6C0E93
:10095000E82EFED7132EFCD700D01200156E8C9611
:100960008C94136A15AE01D0132A010E131613329C
:1009700013328C5013187F0B13188C6E15C013F0A4
:10098000060E146ED8901332142EC2EF04F0010E2E
:100990001316133A134613468C501318BF0B131833
:1009A0008C6E15C013F0050E146ED8901332142EF1
:1009B000D5EF04F0010E1316133A13468C5013189A
:1009C000DF0B13188C6E15C013F0133A0F0E1316AD
:1009D000010E1316133A8C501318EF0B13188C6E6C
:1009E000030EE82EFED700F08C86050EE82EFED70B
:1009F0008C9615C013F0D8901332D8901332D8903B
:100A00001332010E1316133213328C5013187F0B4E
:100A100013188C6E15C013F0D8901332D89013327F
:100A2000010E1316133A134613468C501318BF0BBE
:100A300013188C6E15C013F0D8901332010E1316D4
:100A4000133A13468C501318DF0B13188C6E15C015
:100A500013F0010E1316133A8C501318EF0B1318E2
:100A60008C6E030EE82EFED700F08C86050EE82E65
:100A7000FED78C96160E136E6C0EE82EFED7132E34
:100A8000FCD700D01200959E959C959A95989596C6
:100A90009594850E166E760EE82EFED7162EFCD790
:100AA00000D0000E176E8C9E8C9C8C8A8C888C9645
:100AB0008C948C9E8C9C8C8A8C888C868C94050E55
:100AC000E82EFED78C9E8C9C8C8A8C888C968C947D
:100AD000160E166E6C0EE82EFED7162EFCD700D022
:100AE000172A030E176477EF05F079EF05F053EF3F
:100AF00005F08C9E8C9C8C8A8C988C968C948C9E09
:100B00008C9C8C8A8C988C868C94050EE82EFED753
:100B10008C9E8C9C8C8A8C988C968C94160E166E5F
:100B20006C0EE82EFED7162EFCD700D0280EAEECA9
:100B300004F0100EAEEC04F0010EAEEC04F00F0E5B
:100B4000AEEC04F0120043EC05F0010EAEEC04F044
:100B50000C0EAEEC04F0020E1E6E860E1D6E990E8B
:100B6000E82EFED71D2EFCD71E2EFAD700F0000E61
:100B7000166E010E176E080E186E010EFFEC05F0D2
:100B8000100E1E6E390E1D6E0E0EE82EFED71D2E97
:100B9000FCD71E2EFAD7010EAEEC04F0020E1E6E2C
:100BA000860E1D6E990EE82EFED71D2EFCD71E2E2A
:100BB000FAD700F0020E99EC06F0D8EC06F02D0EF4
:100BC000BDEC06F0100E1E6E390E1D6E0E0EE82ED8
:100BD000FED71D2EFCD71E2EFAD7210EBDEC06F037
:100BE000100E1E6E390E1D6E0E0EE82EFED71D2E37
:100BF000FCD71E2EFAD7DFEF05F000EF00F01B6EDA
:100C000016EF06F01650800F1C6E33EF06F01650EC
:100C1000C00F1C6E33EF06F01650940F1C6E33EFAE
:100C200006F01650D40F1C6E33EF06F01B50196EF1
:100C30001A6A1A50000AD8B420EF06F033EF06F013
:100C40001950010AD8B402EF06F0030AD8B407EF2E
:100C500006F0010AD8B40CEF06F0070AD8B411EF79
:100C600006F033EF06F01C50AEEC04F042EF06F055
:100C700017C0F6FF18C0F7FF0800F55007EC04F0A6
:100C8000174A182A17C0F6FF18C0F7FF0800F550DA
:100C90000009D8A44EEF06F050EF06F038EF06F04A
:100CA0001200146E939214C0D6FFD76AF2948A820F
:100CB0002D0E1418D8B45FEF06F061EF06F069EF5F
:100CC00006F01404D8A467EF06F069EF06F072EF9F
:100CD00006F0080E136ECA0EE82EFED7132EFCD7B0
:100CE0008BEF06F0210E1418D8B479EF06F07BEFE5
:100CF00006F083EF06F01450D8A481EF06F083EFDE
:100D000006F08BEF06F0040E136EE40EE82EFED70D
:100D1000132EFCD700D0D58E8FEF06F08A92F2A466
:100D200094EF06F096EF06F08EEF06F0F294D59E63
:100D30001200146E1450D8A4A0EF06F0A2EF06F033
:100D4000A8EF06F0C150F00B0E09C16EB0EF06F02F
:100D500014500F08136EC1501318F00B1318C16E06
:100D6000CF0EC116C050C70B1009C06EC050F80B93
:100D70000309C06EC08EC2801200156E000E166E82
:100D8000155051EC06F0162A090E1664CAEF06F04B
:100D9000CCEF06F0C0EF06F0120000EE01F0120EEC
:100DA000EE6AE806FDE1000EF86E0001A3EF05F023
:0C0DB000D58CD59AD596070ED5121200EE
:020000040020DA
:08000000FFFFFFFFFFFFFFFF00
:020000040030CA
:0E000000000C191EFF8181FF0FC00FE00F40A2
:00000001FF
