:020000040000FA
:04000000E1EF0AF032
:10080000002A2A2A2A2A2A5843382A2A2A2A2A2A1D
:10081000002A2A494445204D504C414220582A2A5A
:1008200000414443313A256400414443323A25644F
:1008300000001EC036F01FC037F020C038F021C0C5
:1008400039F022C03AF023C03BF024C03CF025C070
:100850003DF03DBE2EEF04F031EF04F0010E32EF1B
:1008600004F0000E346E356A34503510D8B43BEFC6
:1008700004F03DEF04F04DEF04F03D1E3C1E3B1E26
:100880003A1E391E381E371E366C000E37223822AB
:1008900039223A223B223C223D22000165BF53EF20
:1008A00004F055EF04F056EF04F0669365BF63EF74
:1008B00004F0655106E16405D8B061EF04F063EF20
:1008C00004F069EF04F0000E316E010E306E6DEF32
:1008D00004F064C030F065C031F062C032F063C033
:1008E00033F034503510D8A478EF04F07AEF04F0E8
:1008F00081EF04F066A57FEF04F081EF04F084EF50
:1009000004F03206D8A03306000E3F6E1F0E3E6E76
:10091000000E876F08EF05F03E06D8A03F06680E70
:100920003E24D96E000E3F20DA6E36C001F037C08B
:1009300002F038C003F039C004F03AC005F03BC003
:1009400006F03CC007F03DC008F00A0E096E000E2C
:100950000A6E000E0B6E000E0C6E000E0D6E000E79
:100960000E6E000E0F6E000E106E28EC07F001C028
:1009700026F002C027F003C028F004C029F005C00B
:100980002AF006C02BF007C02CF008C02DF026C0BE
:1009900013F028C014F0A3EC0AF01350300FDF6EF0
:1009A0003006D8A031063206D8A0330636C001F092
:1009B00037C002F038C003F039C004F03AC005F087
:1009C0003BC006F03CC007F03DC008F00A0E096EBF
:1009D000000E0A6E000E0B6E000E0C6E000E0D6EF9
:1009E000000E0E6E000E0F6E000E106E64EC06F020
:1009F00001C036F002C037F003C038F004C039F04F
:100A000005C03AF006C03BF007C03CF008C03DF01E
:100A10003FBE13EF05F03F5008E13E04D8A013EFAE
:100A200005F015EF05F046EF05F036503710381099
:100A300039103A103B103C103D10D8A422EF05F0BD
:100A400024EF05F08CEF04F031BE31EF05F03150AA
:100A500006E13004D8B02FEF05F031EF05F08CEF50
:100A600004F033BE3CEF05F0335008E13204D8A067
:100A70003CEF05F03EEF05F046EF05F0000166B3F0
:100A800044EF05F046EF05F08CEF04F034503510DC
:100A9000D8A44DEF05F04FEF05F057EF05F000013A
:100AA00066A555EF05F057EF05F075EF05F03E062A
:100AB000D8A03F0634503510D8A461EF05F063EF9D
:100AC00005F069EF05F0000E2F6E2B0E2E6E6DEF08
:100AD00005F0000E2F6E2D0E2E6E680E3E24D96E80
:100AE000000E3F20DA6E2EC0DFFF1CC011F01DC0CB
:100AF00012F0680E3E24136E000E3F20146E32C0BA
:100B000015F033C016F0C7EC08F011C01CF012C08D
:100B10001DF0120042C0D9FF43C0DAFFDECFF6FF5E
:100B2000DDCFF7FF0800F550250AD8A49AEF05F0AD
:100B30009CEF05F048EF06F042C0D9FF43C0DAFF52
:100B4000DE2A000EDD22000E0001636F000E626FD0
:100B500062C066F063C067F06469656942C0D9FF2E
:100B600043C0DAFFDECFF6FFDDCFF7FF0800F55018
:100B7000640AD8B4BEEF05F0C0EF05F0D2EF05F07F
:100B800042C0D9FF43C0DAFFDECFF6FFDDCFF7FF6B
:100B90000800F550690AD8A4D0EF05F0D2EF05F0AF
:100BA00012EF06F042C0D9FF43C0DAFFDE2A000E82
:100BB000DD2244C0D9FF45C0DAFFDFCF46F0020E88
:100BC000DE26DFCF47F0000EDD2246C0D9FF47C04A
:100BD000DAFFDECF48F0DDCF49F0000E49BEFF0E50
:100BE0004A6E4B6E4C6E4D6E4E6E4F6E40C01CF09A
:100BF00041C01DF048C01EF049C01FF04AC020F09F
:100C00004BC021F04CC022F04DC023F04EC024F068
:100C10004FC025F019EC04F01CC040F01DC041F09D
:100C200063EF06F042C0D9FF43C0DAFFDECFF6FF24
:100C3000DDCFF7FF0800F550250AD8A422EF06F013
:100C400024EF06F03BEF06F042C0D9FF43C0DAFFC5
:100C5000DE2A000EDD22000E026E250E016E40C05F
:100C600003F041C004F062EC08F0000E416E010E8A
:100C7000406E63EF06F042C0D9FF43C0DAFFDE2AC0
:100C8000000EDD22000E416E000E406E63EF06F096
:100C900042C0D9FF43C0DAFFDECFF6FFDDCFF7FF5A
:100CA0000800F550016E026A40C003F041C004F034
:100CB00062EC08F042C0D9FF43C0DAFFDE2A000E22
:100CC000DD2235EF06F01200000E126E10BE6DEF41
:100CD00006F06BEF06F07FEF06F0101E0F1E0E1EE3
:100CE0000D1E0C1E0B1E0A1E096C000E0A220B2282
:100CF0000C220D220E220F221022010E126E08BEAF
:100D000086EF06F084EF06F098EF06F0081E071E47
:100D1000061E051E041E031E021E016C000E02228A
:100D2000032204220522062207220822010E121A9B
:100D300020EE13F0070EDE6AE806FDE209500A1005
:100D40000B100C100D100E100F101010D8B4ABEFCC
:100D500006F0ADEF06F0FFEF06F0010E116EBBEFEF
:100D600006F0D89009360A360B360C360D360E369C
:100D70000F361036112A10AEC0EF06F0C2EF06F0A3
:100D8000B1EF06F0D89013361436153616361736EE
:100D9000183619361A360950015C0A5002580B50A1
:100DA00003580C5004580D5005580E5006580F505B
:100DB000075810500858D8A0E0EF06F0E2EF06F010
:100DC000F3EF06F00950015E0A50025A0B50035A25
:100DD0000C50045A0D50055A0E50065A0F50075A1F
:100DE0001050085A1380D89010320F320E320D3244
:100DF0000C320B320A320932112EC2EF06F01250B9
:100E0000D8B405EF07F007EF07F017EF07F01A1E49
:100E1000191E181E171E161E151E141E136C000E0A
:100E20001422152216221722182219221A2213C060
:100E300001F014C002F015C003F016C004F017C092
:100E400005F018C006F019C007F01AC008F012002B
:100E5000000E126E08BE31EF07F02FEF07F043EFE0
:100E600007F0081E071E061E051E041E031E021E96
:100E7000016C000E02220322042205220622072210
:100E80000822010E126E10BE4AEF07F048EF07F07D
:100E90005AEF07F0101E0F1E0E1E0D1E0C1E0B1E0D
:100EA0000A1E096C000E0A220B220C220D220E22B1
:100EB0000F22102209500A100B100C100D100E10EA
:100EC0000F101010D8B467EF07F069EF07F0B1EF1B
:100ED00007F0010E116E77EF07F0D89009360A3649
:100EE0000B360C360D360E360F361036112A10AE74
:100EF0007CEF07F07EEF07F06DEF07F00950015C23
:100F00000A5002580B5003580C5004580D50055805
:100F10000E5006580F50075810500858D8A093EF9D
:100F200007F095EF07F0A5EF07F00950015E0A50B2
:100F3000025A0B50035A0C50045A0D50055A0E50C9
:100F4000065A0F50075A1050085AD89010320F32D4
:100F50000E320D320C320B320A320932112E7EEF74
:100F600007F01250D8B4B7EF07F0B9EF07F0C9EFA8
:100F700007F0081E071E061E051E041E031E021E85
:100F8000016C000E022203220422052206220722FF
:100F9000082201C001F002C002F003C003F004C047
:100FA00004F005C005F006C006F007C007F008C051
:100FB00008F01200000E956E69EC09F0020E5DEC6F
:100FC0000AF041EC0BF0010E046E010EA2EC09F0E8
:100FD000110E056E080E066E2AEC09F0010E046E65
:100FE000020EA2EC09F0010E056E080E066E2AEC48
:100FF00009F0100E5F6E390E5E6E0E0EE82EFED7F3
:101000005E2EFCD75F2EFAD741EC0BF0000EC3EC3E
:101010000AF001C0AAF002C0ABF0880E586E000EB4
:10102000596E210E5A6E080E5B6EAAC05CF0ABC002
:101030005DF034EC0AF0010E046E010EA2EC09F032
:10104000880E056E000E066E2AEC09F0020E5F6E29
:10105000860E5E6E990EE82EFED75E2EFCD75F2EB2
:10106000FAD700F0010EC3EC0AF001C0AAF002C0EA
:10107000ABF0880E586E000E596E290E5A6E080E8F
:101080005B6EAAC05CF0ABC05DF034EC0AF0010E00
:10109000046E020EA2EC09F0880E056E000E066EBC
:1010A0002AEC09F0020E5F6E860E5E6E990EE82E37
:1010B000FED75E2EFCD75F2EFAD700F006EF08F0C1
:1010C00000EF00F003500410D8B469EF08F06BEFA4
:1010D00008F074EF08F003500410D8A472EF08F081
:1010E00074EF08F079EF08F001504BEC0BF0C6EF0D
:1010F00008F020EE04F00350D9260450DA22DE5026
:10110000DE10D8B486EF08F088EF08F0A3EF08F0FF
:1011100020EE04F00350D9260450DA2210EE02F03B
:101120000350E1260450E222DE50E65CE650800ADD
:10113000096EDE50800A0958D8B0A1EF08F0A3EF7D
:1011400008F0C6EF08F020EE02F00350D926045054
:10115000DA22DECF05F0DDCF06F003C0D9FF04C0F0
:10116000DAFFDECF07F0DDCF08F005500724D96E97
:1011700006500820DA6E01C0DFFF20EE02F00350B7
:10118000D9260450DA22DE2A000EDD2212000001E8
:1011900066A1CDEF08F0CFEF08F0D9EF08F013C04B
:1011A0000AF014C00BF011C00CF012C00DF081EC6D
:1011B0000AF016BEDEEF08F0E0EF08F0E6EF08F008
:1011C00015C01AF016C01BF0EAEF08F0000E1B6EF7
:1011D000000E1A6E000E196E000E186EFCEF08F06D
:1011E000000E026E200E016E11C003F012C004F05A
:1011F00062EC08F0184A192A1A50185C1950800A33
:10120000176E1B50800A1758D8A009EF09F00BEF92
:1012100009F0F0EF08F0000166B111EF09F013EFEB
:1012200009F01DEF09F013C00AF014C00BF011C053
:101230000CF012C00DF081EC0AF013C001F014C0E4
:1012400002F0FCEC0AF01A500124116E1B5002202F
:10125000126E1200000E0A6E000E096E4AEF09F0BF
:1012600009500524076E0A500620086E07C0F6FFD5
:1012700008C0F7FFF86A070EF76403D00800F550BE
:1012800005D0F6CFE1FFF7CFE2FFE75017EC0BF008
:10129000094A0A2A09500524076E0A500620086EDA
:1012A00007C0F6FF08C0F7FFF86A070EF76403D01F
:1012B0000800F55005D0F6CFE1FFF7CFE2FFE75089
:1012C0000009D8A466EF09F068EF09F030EF09F0E3
:1012D0001200000E06EC0AF04E0E046EEB0EE82E25
:1012E000FED7042EFCD700F0030E31EC0BF0140EE9
:1012F000046E7A0EE82EFED7042EFCD7030E31ECD6
:101300000BF02B0E046EDA0EE82EFED7042EFCD75F
:1013100000D0030E31EC0BF0020E31EC0BF0020E9C
:1013200031EC0BF0080E31EC0BF0000E31EC0BF051
:101330000C0E31EC0BF0000E31EC0BF0060E31EC24
:101340000BF01200056E0504D8A4A9EF09F0ABEF6D
:1013500009F0BCEF09F004507F0F086E08380F0B3E
:10136000066E08500F0B076E065031EC0BF007505D
:1013700031EC0BF0D4EF09F0020E0518D8A4C3EF3E
:1013800009F0C5EF09F0D4EF09F00450BF0F086E63
:1013900008380F0B066E08500F0B076E065031EC25
:1013A0000BF0075031EC0BF0120052C056F053C056
:1013B00057F0000E0001616F000E606FF3EF09F04F
:1013C00050C040F051C041F0560E426E000E436EC8
:1013D00054C044F055C045F08AEC05F0405000017F
:1013E00060274150612356C0F6FF57C0F7FF080041
:1013F000F5500009D8A4FFEF09F001EF0AF0E0EF83
:1014000009F060C050F061C051F01200016E01A0FF
:101410000CEF0AF00EEF0AF011EF0AF08C8812EFD1
:101420000AF08C9801A217EF0AF019EF0AF01CEFEE
:101430000AF08C8A1DEF0AF08C9A01A422EF0AF0C0
:1014400024EF0AF027EF0AF08C8C28EF0AF08C9C2E
:1014500001A62DEF0AF02FEF0AF032EF0AF08C8E82
:1014600033EF0AF08C9E12005C0E00019E6F000E9E
:101470009F6F58C0A0F059C0A1F0000EA36F000EDE
:10148000A26F000EA56F000EA46FA00E506E000E8E
:10149000516E5AC052F05BC053F09E0E546E000E57
:1014A000556ED5EC09F00001A2515824D96EA35114
:1014B0005920DA6E000EDF6E1200026E0250D8A4C0
:1014C00064EF0AF066EF0AF06CEF0AF0C150F00B1F
:1014D0000E09C16E74EF0AF002500F08016EC15080
:1014E0000118F00B0118C16ECF0EC116C050C70B0A
:1014F0001009C06EC050F80B0309C06EC08EC280C8
:101500001200000E106E000E0F6E92EF0AF00EC069
:1015100001F0026A0CC003F00DC004F062EC08F0A8
:101520000F4A102A0F500A24D96E10500B20DA6E81
:10153000DF500E6E0E50D8A4A0EF0AF0A2EF0AF012
:1015400087EF0AF0120014BEB0EF0AF0145006E163
:101550001304D8B0AEEF0AF0B0EF0AF0BEEF0AF015
:1015600013C015F014C016F0151E161E154A162AC3
:1015700015C013F016C014F0C2EF0AF013C013F038
:1015800014C014F01200046E04C003F003460346B6
:10159000C2500318C30B0318C26E080E036ECA0EA6
:1015A000E82EFED7032EFCD7C282C2B2DAEF0AF0D1
:1015B000DCEF0AF0D5EF0AF0C3CF01F0C4CF02F0A0
:1015C0001200900EF66E160EF76E000EF86E00EE1C
:1015D000A6F010EE06F00900F5CFEEFFE550E15061
:1015E000FAE100EE60F03C0EEE6AE806FDE1000E66
:1015F000F86E0001DAEF07F001C003F002C004F05A
:1016000004EF0BF0014A022A01C0D9FF02C0DAFF41
:10161000DF50D8A40EEF0BF010EF0BF002EF0BF041
:101620000350015C016E04500258026E1200046EF9
:1016300004500F0B026E0450F00B036E8C840338C1
:101640000F0B06EC0AF08C86280EE82EFED78C963F
:10165000025006EC0AF08C86280EE82EFED78C96F7
:101660001200036E8C94035006EC0AF08C86100E68
:10167000026E940EE82EFED7022EFCD700D08C9678
:101680001200000E31EC0BF0010E31EC0BF01200E9
:081690003D0A8F401400120016
:020000040020DA
:08000000FFFFFFFFFFFFFFFF00
:020000040030CA
:0E000000000C191EFF8181FF0FC00FE00F40A2
:00000001FF
