:020000040000FA
:0400000078EF00F0A5
:060008005982A6ED17F07D
:100018005980D8CF04F0E8CF05F0E0CF06F0A0A2D1
:1000280018EF00F01AEF00F070EF00F0A1A21FEF38
:1000380000F021EF00F070EF00F0582A0001644B47
:10004800652B020E5818D8A42CEF00F02EEF00F004
:1000580047EF00F0C551D8B434EF00F036EF00F0A8
:100068003FEF00F0020EC519D8A43DEF00F03FEFB6
:1000780000F047EF00F0000E586E8E0ED96F300E6C
:10008800DA6F6BEF00F0E80E641907E1030E6519EB
:10009800D8A451EF00F053EF00F05FEF00F0000E2E
:1000A800656F000E646F080EC56FF40ED96F340EBD
:1000B800DA6F6BEF00F0C505D8A465EF00F067EFC5
:1000C80000F06BEF00F0A60ED96F310EDA6F500E0C
:1000D800B36E380EB26EA19206C0E0FF05C0E8FF0D
:0C00E80004C0D8FF59901000C4EF1AF0BB
:10080000005265636172676120506F726661766F36
:1008100072004320646520766163756E61733A00EF
:10082000543A253032642E25303264204300496E1C
:10083000666F726D6163696F6E4000436F6E6669CB
:10084000726D6163696F6E0053696E2076616375C6
:100850006E6173004269656E76656E69646F7300E0
:10086000416374697661646F40004261743A253077
:0F087000326400534943435600233A2564000085
:100880001C50800B256E1C501C242B6E1BAE4BEF96
:1008900004F04DEF04F04EEF04F02B802B50D8B451
:1008A00054EF04F056EF04F069EF04F02B28D8A4BD
:1008B0005CEF04F05EEF04F066EF04F0000E196EDA
:1008C000000E1A6E000E1B6E000E1C6E1B8E71EF5A
:1008D00004F0000E196E000E1A6E000E1B6E000E54
:1008E0001C6E2050800B251A205020242A6E1FAE2B
:1008F0007CEF04F07EEF04F07FEF04F02A802A50B2
:10090000D8B485EF04F087EF04F09AEF04F02A28BA
:10091000D8A48DEF04F08FEF04F097EF04F0000EF1
:100920001D6E000E1E6E000E1F6E000E206E1F8EBE
:10093000A2EF04F0000E1D6E000E1E6E000E1F6E64
:10094000000E206E2A50D8B4A8EF04F0AAEF04F0ED
:10095000B2EF04F02B50D8A4B0EF04F0B2EF04F0E3
:10096000BCEF04F0000E196E000E1A6E000E1B6E26
:10097000000E1C6E54EF06F01F501902F3CF30F03A
:10098000F4CF31F03050266E276A286A296A315038
:100990002C6E2D6A2E6A2F6A1E501A02F3CF30F089
:1009A000F4CF31F030502626000E272228222922AB
:1009B00031502C26000E2D222E222F221D501B02DC
:1009C000F3CF30F0F4CF31F030502626000E27223E
:1009D0002822292231502C26000E2D222E222F22B1
:1009E00028C029F027C028F026C027F0266A1D500D
:1009F0001A02F3CF30F0F4CF31F0305026263150C8
:100A00002722000E2822000E29221E501902F3CFA1
:100A100030F0F4CF31F03050262631502722000E2E
:100A20002822000E292228C029F027C028F026C03D
:100A300027F0266A1D501902F3CF30F0F4CF31F0C1
:100A40003050262631502722000E2822000E29225F
:100A50001F501A02F3CF30F0F4CF31F030502C2673
:100A600031502D22000E2E22000E2F221E501B026E
:100A7000F3CF30F0F4CF31F030502C2631502D220E
:100A8000000E2E22000E2F221F501B02F3CF30F03B
:100A9000F4CF31F03050216E3150226E236A246A37
:100AA00023C024F022C023F021C022F0216A21506B
:100AB0002C2622502D2223502E2224502F2226C0B5
:100AC00021F027C022F028C023F029C024F0190EFD
:100AD0006FEF05F0D8902432233222322132E82EF3
:100AE0006AEF05F021502C2622502D2223502E2271
:100AF00024502F2228C029F027C028F026C027F034
:100B0000266A2A502BC021F0226A2126000E2222BA
:100B1000820E2124306EFF0E2220316EA5EF05F0EB
:100B2000D8902C362D362E362F3629AE9AEF05F07A
:100B30009CEF05F09DEF05F02C80D89026362736E7
:100B4000283629363006D8A031062EAEAAEF05F099
:100B5000ACEF05F090EF05F0000E2A6E29AEB3EF72
:100B600005F0B5EF05F0D9EF05F0FF0E2614216E64
:100B7000FF0E2714226EFF0E2814236E7F0E2914F9
:100B8000246E2150221023102410D8B4CAEF05F08F
:100B9000CCEF05F0D0EF05F0010E2A6ED9EF05F08D
:100BA0002CA0D5EF05F0D7EF05F0D9EF05F0CCEF8D
:100BB00005F02A50D8B4DFEF05F0E1EF05F005EFBE
:100BC00006F0010E2C26000E2D222E222F222FA001
:100BD000ECEF05F0EEEF05F005EF06F02CC021F08C
:100BE0002DC022F02EC023F02FC024F02434243254
:100BF00023322232213221C02CF022C02DF023C01A
:100C00002EF024C02FF0304A312A31BE10EF06F00A
:100C1000315008E13028D8A010EF06F012EF06F0AE
:100C20001CEF06F0000E2C6E000E2D6E800E2E6E48
:100C30007F0E2F6E4AEF06F031BE29EF06F03150DD
:100C400006E13004D8B027EF06F029EF06F035EFC3
:100C500006F0000E2C6E000E2D6E000E2E6E000E95
:100C60002F6E000E256E4AEF06F030C02BF0FF0EFF
:100C70002C16FF0E2D167F0E2E16000E2F162BA0F3
:100C800044EF06F046EF06F047EF06F02E8ED890C0
:100C90002B302F6E25502F122CC019F02DC01AF0BA
:100CA0002EC01BF02FC01CF012003550800B426E7E
:100CB00035503524496E34AE60EF06F062EF06F031
:100CC00063EF06F049804950D8B469EF06F06BEF46
:100CD00006F080EF06F04928D8A471EF06F073EF14
:100CE00006F07BEF06F0000E326E000E336E000E43
:100CF000346E000E356E348E000E356E88EF06F0C1
:100D0000000E326E000E336E000E346E000E356E25
:100D10003950800B421A395039244A6E38AE93EF5D
:100D200006F095EF06F096EF06F04A804A50D8B4E8
:100D30009CEF06F09EEF06F0B3EF06F04A28D8A429
:100D4000A4EF06F0A6EF06F0AEEF06F0000E366E4A
:100D5000000E376E000E386E000E396E388E000EA3
:100D6000396EBBEF06F0000E366E000E376E000EC9
:100D7000386E000E396E3650371038103910D8A43E
:100D8000C4EF06F0C6EF06F0DEEF06F0000E326E9E
:100D9000000E336E000E346E000E356E800E34126F
:100DA0007F0E35124250351232C032F033C033F06C
:100DB00034C034F035C035F021EF08F04950D8A4E4
:100DC000E4EF06F0E6EF06F0F0EF06F0000E326E0C
:100DD000000E336E000E346E000E356E21EF08F0FB
:100DE0004A5049C03AF03B6A3A5E000E3B5A7F0EC9
:100DF0003A24436E000E3B20446E32C03EF033C0B6
:100E00003FF034C040F035C041F0000E326E000EAD
:100E1000336E000E346E000E356E000E456E000E01
:100E2000466E000E476E000E486E000E4A6E51EF81
:100E300007F04A50D8B41FEF07F021EF07F038EF62
:100E400007F0D8903E363F3640364136D89032369D
:100E500033363436353648AE30EF07F032EF07F030
:100E600033EF07F03280D89045364636473648365D
:100E700036503E5C37503F583850405839504158F2
:100E8000D8A045EF07F047EF07F050EF07F0488C88
:100E900036503E5E37503F5A3850405A3950415ACA
:100EA0004A2A190E4A6457EF07F059EF07F019EF75
:100EB00007F03E503F1040104110D8B462EF07F0E9
:100EC00064EF07F07CEF07F045807CEF07F0D890E7
:100ED000323633363436353648AE71EF07F073EFBD
:100EE00007F074EF07F03280D89045364636473623
:100EF00048364306D8A0440634AE81EF07F083EFAE
:100F000007F067EF07F0000E4A6E48AE8AEF07F071
:100F10008CEF07F0B0EF07F0FF0E45143A6EFF0EAE
:100F200046143B6EFF0E47143C6E7F0E48143D6E18
:100F30003A503B103C103D10D8B4A1EF07F0A3EF9E
:100F400007F0A7EF07F0010E4A6EB0EF07F032A0EE
:100F5000ACEF07F0AEEF07F0B0EF07F0A3EF07F04C
:100F60004A50D8B4B6EF07F0B8EF07F0DCEF07F05F
:100F7000010E3226000E33223422352235A0C3EF73
:100F800007F0C5EF07F0DCEF07F032C03AF033C0EE
:100F90003BF034C03CF035C03DF03D343D323C3296
:100FA0003B323A323AC032F03BC033F03CC034F00E
:100FB0003DC035F0434A442A44BEE7EF07F04450B1
:100FC00008E14328D8A0E7EF07F0E9EF07F0F4EFD6
:100FD00007F0000E446E4368000E326E000E336E52
:100FE000000E346E000E356E44BE01EF08F0445022
:100FF00006E14304D8B0FFEF07F001EF08F00FEF70
:1010000008F0000E446E000E436E000E326E000EAD
:10101000336E000E346E000E356E000E426E43C00D
:1010200049F049A016EF08F018EF08F01BEF08F0A0
:10103000348E1CEF08F0349ED8904930356ED2EFD4
:1010400006F0120048C0D9FF49C0DAFFDECFF6FF34
:10105000DDCFF7FF0800F550250AD8A432EF08F0DD
:1010600034EF08F0BCEF09F048C0D9FF49C0DAFFFF
:10107000DE2A000EDD22000E0001636F000E626F9B
:1010800062C055F063C056F053685468000E9F6FFD
:10109000000E9E6F92EF08F0558048C0D9FF49C0FE
:1010A000DAFFDE2A000EDD2292EF08F055824DEFC6
:1010B00008F055844DEF08F055864DEF08F055883F
:1010C0004DEF08F0000E9F6F010E9E6F92EF08F03B
:1010D00048C0D9FF49C0DAFFDECFF6FFDDCFF7FF0A
:1010E0000800F5504C6E4D6A4D50000AD8B47BEFA5
:1010F00008F062EF08F04C50200AD8B45CEF08F01A
:10110000030AD8B45FEF08F0080AD8B459EF08F022
:10111000060AD8B44CEF08F01D0AD8B456EF08F010
:1011200062EF08F09E519F11D8B499EF08F09BEF41
:1011300008F068EF08F055A0A0EF08F0A2EF08F063
:10114000A3EF08F0559248C0D9FF49C0DAFFDECFBF
:10115000F6FFDDCFF7FF0800F5502A0AD8A4B3EF59
:1011600008F0B5EF08F0DEEF08F048C0D9FF49C03D
:10117000DAFFDE2A000EDD224AC0D9FF4BC0DAFFBB
:10118000DFCF4CF0020EDE26DFCF4DF0000EDD2269
:101190004CC0D9FF4DC0DAFFDECF62F0DDCF63F087
:1011A00063BFD7EF08F0D5EF08F022EF09F05580C4
:1011B000626D631FD8B0632B22EF09F048C0D9FFDE
:1011C00049C0DAFFDECF0EF0DDCF0FF0E1EC0EF01C
:1011D0000EC062F00FC063F0F5EF08F048C0D9FF11
:1011E00049C0DAFFDE2A000EDD22D00E4C6EFF0E63
:1011F0004D6E48C0D9FF49C0DAFFDECFF6FFDDCF24
:10120000F7FF0800F5504E6E4F6A4C504E264D5079
:101210004F224F500AE10A0E4E5CD8A012EF09F09F
:1012200015EF09F0010E16EF09F0000E0001A06F96
:10123000A16BA051A111D8A420EF09F022EF09F071
:10124000EEEF08F048C0D9FF49C0DAFFDECFF6FF65
:10125000DDCFF7FF0800F550640AD8B432EF09F08B
:1012600034EF09F046EF09F048C0D9FF49C0DAFF72
:10127000DECFF6FFDDCFF7FF0800F550690AD8A4EE
:1012800044EF09F046EF09F086EF09F048C0D9FFB6
:1012900049C0DAFFDE2A000EDD224AC0D9FF4BC06A
:1012A000DAFFDFCF4CF0020EDE26DFCF4DF0000E6E
:1012B000DD224CC0D9FF4DC0DAFFDECF96F0DDCF86
:1012C00097F0000E97BFFF0E986F996F9A6F9B6F04
:1012D0009C6F9D6F46C022F047C023F096C024F05B
:1012E00097C025F098C026F099C027F09AC028F042
:1012F0009BC029F09CC02AF09DC02BF0D8EC09F0CF
:1013000022C046F023C047F0D7EF09F048C0D9FF0C
:1013100049C0DAFFDECFF6FFDDCFF7FF0800F5505A
:10132000250AD8A496EF09F098EF09F0AFEF09F07D
:1013300048C0D9FF49C0DAFFDE2A000EDD22000EC8
:10134000086E250E076E46C009F047C00AF077EC1C
:1013500015F0000E476E010E466ED7EF09F048C03B
:10136000D9FF49C0DAFFDE2A000EDD22000E476EEB
:10137000000E466ED7EF09F048C0D9FF49C0DAFF2A
:10138000DECFF6FFDDCFF7FF0800F550076E086AE5
:1013900046C009F047C00AF077EC15F048C0D9FF05
:1013A00049C0DAFFDE2A000EDD22A9EF09F01200A3
:1013B00024C03CF025C03DF026C03EF027C03FF0E1
:1013C00028C040F029C041F02AC042F02BC043F0B1
:1013D00043BEEDEF09F0F0EF09F0010EF1EF09F077
:1013E000000E3A6E3B6A3A503B10D8B4FAEF09F05F
:1013F000FCEF09F00CEF0AF0431E421E411E401E96
:101400003F1E3E1E3D1E3C6C000E3D223E223F22F2
:10141000402241224222432254BE11EF0AF013EF30
:101420000AF014EF0AF0559254BE21EF0AF054501E
:1014300006E15304D8B01FEF0AF021EF0AF027EFBE
:101440000AF0000E376E010E366E2BEF0AF053C015
:1014500036F054C037F062C038F063C039F03A500B
:101460003B10D8A436EF0AF038EF0AF03FEF0AF04D
:1014700055A43DEF0AF03FEF0AF042EF0AF03806BC
:10148000D8A03906000E456E1F0E446E000E0001F6
:10149000856FC7EF0AF04406D8A04506660E4424BF
:1014A000D96E000E4520DA6E3CC007F03DC008F052
:1014B0003EC009F03FC00AF040C00BF041C00CF044
:1014C00042C00DF043C00EF00A0E0F6E000E106EFB
:1014D000000E116E000E126E000E136E000E146ED2
:1014E000000E156E000E166E28EC11F007C02CF0E1
:1014F00008C02DF009C02EF00AC02FF00BC030F04C
:101500000CC031F00DC032F00EC033F02CC019F019
:101510002EC01AF02CEC1BF01950300FDF6E36067F
:10152000D8A037063806D8A039063CC007F03DC021
:1015300008F03EC009F03FC00AF040C00BF041C0C7
:101540000CF042C00DF043C00EF00A0E0F6E000EFC
:10155000106E000E116E000E126E000E136E000E55
:10156000146E000E156E000E166EA9EC0FF007C07B
:101570003CF008C03DF009C03EF00AC03FF00BC08F
:1015800040F00CC041F00DC042F00EC043F045BE2B
:10159000D2EF0AF0455008E14404D8A0D2EF0AF097
:1015A000D4EF0AF004EF0BF03C503D103E103F101A
:1015B0004010411042104310D8A4E1EF0AF0E3EFCD
:1015C0000AF04BEF0AF037BEF0EF0AF0375006E1B1
:1015D0003604D8B0EEEF0AF0F0EF0AF04BEF0AF065
:1015E00039BEFBEF0AF0395008E13804D8A0FBEF10
:1015F0000AF0FDEF0AF004EF0BF055B202EF0BF02A
:1016000004EF0BF04BEF0AF03A503B10D8A40BEF6D
:101610000BF00DEF0BF014EF0BF055A412EF0BF0E5
:1016200014EF0BF032EF0BF04406D8A045063A5009
:101630003B10D8A41EEF0BF020EF0BF026EF0BF0C1
:10164000000E356E2B0E346E2AEF0BF0000E356E49
:101650002D0E346E660E4424D96E000E4520DA6ECF
:1016600034C0DFFF22C017F023C018F0660E4424F8
:10167000196E000E45201A6E38C01BF039C01CF0E0
:10168000DCEC15F017C022F018C023F0120007C0E0
:10169000D9FF08C0DAFF000EDF6EF00E816EF00E8B
:1016A0008118D8B456EF0BF058EF0BF030EF0CF078
:1016B000FE0E816E81B85FEF0BF061EF0BF067EF0C
:1016C0000BF007C0D9FF08C0DAFF2A0EDF6E81BA1F
:1016D0006CEF0BF06EEF0BF074EF0BF007C0D9FF5F
:1016E00008C0DAFF300EDF6E81BC79EF0BF07BEFC4
:1016F0000BF081EF0BF007C0D9FF08C0DAFF230E13
:10170000DF6E81BE86EF0BF088EF0BF08EEF0BF0F3
:1017100007C0D9FF08C0DAFF440EDF6EFD0E816EF0
:1017200081B895EF0BF097EF0BF09DEF0BF007C032
:10173000D9FF08C0DAFF370EDF6E81BAA2EF0BF0D7
:10174000A4EF0BF0AAEF0BF007C0D9FF08C0DAFF37
:10175000380EDF6E81BCAFEF0BF0B1EF0BF0B7EFDF
:101760000BF007C0D9FF08C0DAFF390EDF6E81BE6B
:10177000BCEF0BF0BEEF0BF0C4EF0BF007C0D9FFCE
:1017800008C0DAFF430EDF6EFB0E816E81B8CBEF2F
:101790000BF0CDEF0BF0D3EF0BF007C0D9FF08C073
:1017A000DAFF340EDF6E81BAD8EF0BF0DAEF0BF010
:1017B000E0EF0BF007C0D9FF08C0DAFF350EDF6E8F
:1017C00081BCE5EF0BF0E7EF0BF0EDEF0BF007C09E
:1017D000D9FF08C0DAFF360EDF6E81BEF2EF0BF0E4
:1017E000F4EF0BF0FAEF0BF007C0D9FF08C0DAFFF7
:1017F000420EDF6EF70E816E81B801EF0CF003EF41
:101800000CF009EF0CF007C0D9FF08C0DAFF310E69
:10181000DF6E81BA0EEF0CF010EF0CF016EF0CF04B
:1018200007C0D9FF08C0DAFF320EDF6E81BC1BEFA4
:101830000CF01DEF0CF023EF0CF007C0D9FF08C02F
:10184000DAFF330EDF6E81BE28EF0CF02AEF0CF0CA
:1018500030EF0CF007C0D9FF08C0DAFF410EDF6E91
:10186000F00E816EF00E8118D8A439EF0CF03BEF2A
:101870000CF032EF0CF01200070E0001BA25076ED3
:10188000000EBB21086E000E0A6E000E096E000EDF
:101890000C6E100E0B6E6DEC10F0010E4CEC1BF08C
:1018A000000120EE04F0BA51D926BB51DA2207C05C
:1018B000DEFF08C0DDFF000E366E000E376E800EB4
:1018C000386E440E396E000E1D6E000E1E6EA00E98
:1018D0001F6E400E206E20EE04F0BA51D926BB5187
:1018E000DA22DECFBCF0DDCFBDF0BCC00BF0BDC056
:1018F0000CF00D6A0E6A000E30EC0DF00BC019F002
:101900000CC01AF00DC01BF00EC01CF040EC04F02F
:1019100019C032F01AC033F01BC034F01CC035F0CF
:1019200055EC06F032C0BEF033C0BFF034C0C0F09A
:1019300035C0C1F0000E1D6E000E1E6EC80E1F6E6B
:10194000420E206EBEC019F0BFC01AF0C0C01BF01E
:10195000C1C01CF040EC04F019C04BF01AC04CF0B0
:101960001BC04DF01CC04EF0A4EC13F0000120EEA3
:1019700004F0BA51D926BB51DA224BC0DEFF4CC06D
:10198000DDFF000E366E000E376EFA0E386E430E17
:10199000396E000E1D6E000E1E6EC80E1F6E420EBA
:1019A000206E20EE04F0BA51D926BB51DA22DECFE8
:1019B000BCF0DDCFBDF0BCC00BF0BDC00CF00D6ABB
:1019C0000E6A000E30EC0DF00BC019F00CC01AF0CE
:1019D0000DC01BF00EC01CF040EC04F019C032F03A
:1019E0001AC033F01BC034F01CC035F055EC06F0C3
:1019F00032C04BF033C04CF034C04DF035C04EF027
:101A0000A4EC13F0000120EE04F0BA51D926BB512A
:101A1000DA224BC0DEFF4CC0DDFF070EBA25A86FEF
:101A2000000EBB21A96F6A0EAA6F080EAB6F20EEE5
:101A300004F0BA51D926BB51DA22DECFACF0DDCFAB
:101A4000ADF003EC1AF0000E0A6E070E0001BA2585
:101A50000B6E000EBB210C6E020E11EC15F0120085
:101A6000136E1350D8B437EF0DF039EF0DF05BEF74
:101A70000DF00EBE40EF0DF03EEF0DF05BEF0DF000
:101A80000BC00FF00CC010F00DC011F00EC012F022
:101A90000F1E101E111E121E0F2A000E10221122E0
:101AA00012220FC015F010C016F011C017F012C0AE
:101AB00018F063EF0DF00BC015F00CC016F00DC060
:101AC00017F00EC018F00B500C100D100E10D8A40B
:101AD0006CEF0DF06EEF0DF078EF0DF0000E0B6E69
:101AE000000E0C6E000E0D6E000E0E6E09EF0EF065
:101AF000960E146E82EF0DF0142AD8901832173219
:101B000016321532000E15140F6E000E1614106EDC
:101B1000000E1714116EFE0E1814126E0F501010D6
:101B200011101210D8A497EF0DF099EF0DF07CEF83
:101B30000DF0A7EF0DF0142A010E1526000E162247
:101B400017221822D8901832173216321532000E8A
:101B500015140F6E000E1614106E000E1714116E71
:101B6000FF0E1814126E0F50101011101210D8A47E
:101B7000BCEF0DF0BEEF0DF09BEF0DF0C6EF0DF0DA
:101B80001406D890153616361736183617BECBEF12
:101B90000DF0CDEF0DF0D5EF0DF0020E1460D3EF88
:101BA0000DF0D5EF0DF0C0EF0DF014B0DAEF0DF041
:101BB000DCEF0DF0DDEF0DF0179ED890143214C05D
:101BC0000FF0106A116A126A0FC012F0116A106ADF
:101BD0000F6A0F5015121050161211501712125092
:101BE00018121350D8B4F7EF0DF0F9EF0DF001EF24
:101BF0000EF00EBE00EF0EF0FEEF0DF001EF0EF056
:101C0000188E15C00BF016C00CF017C00DF018C0E0
:101C10000EF01200070E0001BA25076E000EBB2160
:101C2000086E000E0A6E000E096E000E0C6E100E8D
:101C30000B6E6DEC10F0000E4CEC1BF007C00BF0BF
:101C400008C00CF00D6A0E6A000E30EC0DF00BC0EF
:101C5000BCF00CC0BDF00DC0BEF00EC0BFF0F60E63
:101C60001D6E280E1E6E9C0E1F6E400E206EBCC098
:101C700019F0BDC01AF0BEC01BF0BFC01CF040EC94
:101C800004F019C032F01AC033F01BC034F01CC08D
:101C900035F0000E366E000E376E200E386E410E97
:101CA000396E55EC06F032C0BCF033C0BDF034C024
:101CB000BEF035C0BFF0070E0001BA25A86F000EB8
:101CC000BB21A96F200EAA6F080EAB6FBCC04BF0F2
:101CD000BDC04CF0BEC04DF0BFC04EF0A4EC13F040
:101CE0004B500001AC6FAD6B000E1D6E000E1E6EF2
:101CF000C80E1F6E420E206EBCC019F0BDC01AF097
:101D0000BEC01BF0BFC01CF040EC04F019C04BF08B
:101D10001AC04CF01BC04DF01CC04EF0A4EC13F0E8
:101D20004B500001986F996B000E9B6F640E9A6F79
:101D3000FBEC16F000019851AE6FAF6B03EC1AF09C
:101D4000000E0A6E070E0001BA250B6E000EBB21B5
:101D50000C6E010E11EC15F0BCC04BF0BDC04CF088
:101D6000BEC04DF0BFC04EF0A4EC13F04CBEC4EFAB
:101D70000EF04C5007E1020E4B5CD8B0C2EF0EF0F3
:101D8000C4EF0EF0C7EF0EF08B92E0EF0EF0BCC088
:101D90004BF0BDC04CF0BEC04DF0BFC04EF0A4EC47
:101DA00013F04CBEDDEF0EF04C5009E1070E4B5C1A
:101DB000D8A0DDEF0EF0DFEF0EF0E0EF0EF08B823B
:101DC0001200000E1C6E000E1B6E000E156E000E33
:101DD000146EEDEF0EF00E4A0F2A010E1A6E0EC0B1
:101DE000F6FF0FC0F7FF0800F550200AD8B4FBEF4C
:101DF0000EF0FDEF0EF01AEF0FF0F70E106EFF0E63
:101E0000116E0EC0F6FF0FC0F7FF0800F550126EFE
:101E1000136A1050122611501322135009E1050EB7
:101E2000125CD8A016EF0FF018EF0FF01AEF0FF0BA
:101E3000000E1A6E1AC016F0176A16501710D8A4A2
:101E400024EF0FF026EF0FF0EBEF0EF030EF0FF076
:101E5000000E156E010E146E0E4A0F2A65EF0FF07C
:101E60000EC0F6FF0FC0F7FF0800F550106E116AA4
:101E70001150000AD8B43FEF0FF065EF0FF010508B
:101E80002B0AD8B42CEF0FF0060AD8B428EF0FF0C5
:101E900065EF0FF01BC007F01CC008F0000E0A6EC3
:101EA0000A0E096EE7EC1BF00EC0F6FF0FC0F7FF3D
:101EB0000800F550075E000E085A300E07241B6E0E
:101EC000000E08201C6E2CEF0FF0D00E106EFF0ECF
:101ED000116E0EC0F6FF0FC0F7FF0800F550126E2E
:101EE000136A105012261150132213500AE10A0EE1
:101EF000125CD8A07EEF0FF081EF0FF0010E82EFA1
:101F00000FF0000E186E196A18501910D8A48BEF34
:101F10000FF08DEF0FF04AEF0FF014501510D8A40A
:101F200094EF0FF096EF0FF0A4EF0FF01BC010F03E
:101F30001CC011F0101E111E104A112A10C00EF004
:101F400011C00FF0A8EF0FF01BC00EF01CC00FF077
:101F50001200000E186E16BEB2EF0FF0B0EF0FF0C9
:101F6000C4EF0FF0161E151E141E131E121E111E96
:101F7000101E0F6C000E10221122122213221422A6
:101F800015221622010E186E0EBECBEF0FF0C9EF10
:101F90000FF0DDEF0FF00E1E0D1E0C1E0B1E0A1EA5
:101FA000091E081E076C000E082209220A220B22B5
:101FB0000C220D220E22010E181A20EE19F0070E27
:101FC000DE6AE806FDE20F50101011101210131017
:101FD000141015101610D8B4F0EF0FF0F2EF0FF048
:101FE00044EF10F0010E176E00EF10F0D8900F368E
:101FF0001036113612361336143615361636172AA1
:1020000016AE05EF10F007EF10F0F6EF0FF0D890D6
:1020100019361A361B361C361D361E361F3620362C
:102020000F50075C105008581150095812500A58A8
:1020300013500B5814500C5815500D5816500E587C
:10204000D8A025EF10F027EF10F038EF10F00F5068
:10205000075E1050085A1150095A12500A5A13506C
:102060000B5A14500C5A15500D5A16500E5A19800E
:10207000D890163215321432133212321132103215
:102080000F32172E07EF10F01850D8B44AEF10F0A7
:102090004CEF10F05CEF10F0201E1F1E1E1E1D1EC8
:1020A0001C1E1B1E1A1E196C000E1A221B221C223B
:1020B0001D221E221F22202219C007F01AC008F07C
:1020C0001BC009F01CC00AF01DC00BF01EC00CF0B4
:1020D0001FC00DF020C00EF0120007C011F008C0A4
:1020E00012F00B500C10D8A478EF10F07AEF10F02B
:1020F0007CEF10F027EF11F011C0D9FF12C0DAFF0A
:1021000009C0DFFF0B5011240D6E0C5012200E6E13
:10211000FF0E0D24D96EFF0E0E20DA6E09C0DFFF10
:102120000C5007E1030E0B5CD8B099EF10F09BEF59
:1021300010F09DEF10F027EF11F020EE01F011509C
:10214000D9261250DA2209C0DFFF20EE02F011502A
:10215000D9261250DA2209C0DFFF0B5011240D6E70
:102160000C5012200E6EFE0E0D24D96EFF0E0E20A6
:10217000DA6E09C0DFFF0B5011240D6E0C501220D7
:102180000E6EFD0E0D24D96EFF0E0E20DA6E09C004
:10219000DFFF0C5007E1070E0B5CD8B0D2EF10F058
:1021A000D4EF10F0D6EF10F027EF11F020EE03F08F
:1021B0001150D9261250DA2209C0DFFF0B5011242A
:1021C0000D6E0C5012200E6EFC0E0D24D96EFF0EFB
:1021D0000E20DA6E09C0DFFF0C5007E1090E0B5C20
:1021E000D8B0F5EF10F0F7EF10F0F9EF10F027EF9F
:1021F00011F011C00DF012C00EF00D1E0E1E0D4A92
:102200000E2A030E0D140F6E106A0F501126105077
:1022100012220F500B5E10500C5AFC0E0B16FF0EC4
:102220000C161EEF11F011C0D9FF12C0DAFF09C061
:10223000DFFF0B06D8A00C06114A122A0B500C1017
:10224000D8A425EF11F027EF11F013EF11F01200D1
:10225000000E186E0EBE31EF11F02FEF11F043EFAC
:1022600011F00E1E0D1E0C1E0B1E0A1E091E081E4E
:10227000076C000E082209220A220B220C220D22D2
:102280000E22010E186E16BE4AEF11F048EF11F043
:102290005AEF11F0161E151E141E131E121E111ECB
:1022A000101E0F6C000E1022112212221322142273
:1022B000152216220F5010101110121013101410A6
:1022C00015101610D8B467EF11F069EF11F0B1EFE7
:1022D00011F0010E176E77EF11F0D8900F3610360F
:1022E000113612361336143615361636172A16AE30
:1022F0007CEF11F07EEF11F06DEF11F00F50075CE5
:10230000105008581150095812500A5813500B58C1
:1023100014500C5815500D5816500E58D8A093EF65
:1023200011F095EF11F0A5EF11F00F50075E10506E
:10233000085A1150095A12500A5A13500B5A145085
:102340000C5A15500D5A16500E5AD8901632153296
:10235000143213321232113210320F32172E7EEF36
:1023600011F01850D8B4B7EF11F0B9EF11F0C9EF70
:1023700011F00E1E0D1E0C1E0B1E0A1E091E081E3D
:10238000076C000E082209220A220B220C220D22C1
:102390000E2207C007F008C008F009C009F00AC003
:1023A0000AF00BC00BF00CC00CF00DC00DF00EC00D
:1023B0000EF01200096E8C968C8409C007F0070E8F
:1023C000086E07340732082EE1EF11F0010E0716F0
:1023D000073207328C5007187F0B07188C6E09C024
:1023E00007F0060E086E07340732082EF3EF11F0DF
:1023F000010E0716073A074607468C500718BF0B11
:1024000007188C6E09C007F0050E086E07340732F6
:10241000082E06EF12F0010E0716073A07468C50F9
:102420000718DF0B07188C6E09C007F0040E086E42
:1024300007340732082E18EF12F0010E0716073A7C
:102440008C500718EF0B07188C6E030EE82EFED782
:1024500000F08C86050EE82EFED78C9609C007F09A
:10246000030E086E07340732082E32EF12F0010E09
:102470000716073207328C5007187F0B07188C6E2F
:1024800009C007F00734073207340732010E071678
:10249000073A074607468C500718BF0B07188C6E83
:1024A00009C007F0010E086E07340732082E54EFFA
:1024B00012F0010E0716073A07468C500718DF0B7B
:1024C00007188C6E09C007F0010E0716073A8C50EA
:1024D0000718EF0B07188C6E030EE82EFED700F0DE
:1024E0008C86050EE82EFED78C96050EE82EFED7BC
:1024F000160E076E6C0EE82EFED7072EFCD700D006
:102500001200096E8C968C94076A09AE01D0072AD6
:10251000010E0716073207328C5007187F0B071879
:102520008C6E09C007F0060E086ED8900732082E90
:1025300095EF12F0010E0716073A074607468C5032
:102540000718BF0B07188C6E09C007F0050E086E40
:10255000D8900732082EA8EF12F0010E0716073A9E
:1025600007468C500718DF0B07188C6E09C007F060
:10257000073A0F0E0716010E0716073A8C50071878
:10258000EF0B07188C6E030EE82EFED700F08C863A
:10259000050EE82EFED78C9609C007F0D8900732BA
:1025A000D8900732D8900732010E0716073207324B
:1025B0008C5007187F0B07188C6E09C007F0D89055
:1025C0000732D8900732010E0716073A074607462A
:1025D0008C500718BF0B07188C6E09C007F0D890F5
:1025E0000732010E0716073A07468C500718DF0B13
:1025F00007188C6E09C007F0010E0716073A8C50B9
:102600000718EF0B07188C6E030EE82EFED700F0AC
:102610008C86050EE82EFED78C96160E076E6C0E75
:10262000E82EFED7072EFCD700D012000A6E0AC093
:10263000CCFFCB689E9226EF13F08D803FEF13F016
:102640008D823FEF13F08D843FEF13F00750086E3B
:10265000096A0950000AD8B430EF13F03FEF13F0C5
:102660000850000AD8B41DEF13F0010AD8B420EFC7
:1026700013F0030AD8B423EF13F03FEF13F02D0E3D
:102680000A18D8A446EF13F048EF13F051EF13F0F7
:10269000080E086ECA0EE82EFED7082EFCD775EF7E
:1026A00013F0210E0A18D8A458EF13F05AEF13F0C4
:1026B00064EF13F0040E086EE40EE82EFED7082E29
:1026C000FCD700D075EF13F0270E0A18D8A46BEFD3
:1026D00013F06DEF13F075EF13F0060E086ED70EC2
:1026E000E82EFED7082EFCD700F0CA849AEF13F02C
:1026F0008D909AEF13F08D929AEF13F08D949AEFDC
:1027000013F00750086E096A0950000AD8B48BEF1D
:1027100013F09AEF13F00850000AD8B478EF13F0D2
:10272000010AD8B47BEF13F0030AD8B47EEF13F09C
:102730009AEF13F09EA29FEF13F0A1EF13F081EF39
:1027400013F0CA949E9212004D344E340001976FDC
:102750009751D8A4AEEF13F0B0EF13F0BAEF13F027
:10276000000E4B6E000E4C6E000E4D6E000E4E6E47
:1027700027EF14F04BC04FF04CC050F04DC051F05B
:102780004EC052F0200ECAEF13F0D89052325132A0
:1027900050324F32E82EC5EF13F04F50966F4D8EEA
:1027A000FF0E4B16FF0E4C16FF0E4D16000E4E166A
:1027B000960E975F97BFE1EF13F0DFEF13F0F7EF9F
:1027C00013F09751800A970FD8B0E9EF13F0EBEFB1
:1027D00013F0EDEF13F0B0EF13F0D8904E324D320E
:1027E0004C324B32973FEDEF13F00FEF14F01F0E0A
:1027F0009765FDEF13F0FFEF13F007EF14F0B0EF64
:1028000013F0D8904B364C364D364E3697079751CD
:10281000D8A40DEF14F00FEF14F001EF14F096515F
:10282000D8B415EF14F017EF14F01FEF14F04E1E8C
:102830004D1E4C1E4B6C000E4C224D224E224BC0A6
:102840004BF04CC04CF04DC04DF04EC04EF012005D
:10285000000E0001BD6F000EBC6F000EBE6F070EB4
:10286000BA25076E000EBB21086E000E0A6E000E20
:10287000096E000E0C6E100E0B6E6DEC10F0000E5B
:102880000A6E120E0B6E080E0C6E010E11EC15F096
:1028900092EF14F0BE0E076E000E086E47EC0BF0C0
:1028A0002F0E0001BE6557EF14F059EF14F076EFCC
:1028B00014F03A0EBE615FEF14F061EF14F076EFA2
:1028C00014F0BCC007F0BDC008F0000E0A6E0A0E7E
:1028D000096EE7EC1BF00001BE510726000E08222E
:1028E000D00E0724BC6FFF0E0820BD6F070EBA255F
:1028F000A86F000EBB21A96F7B0EAA6F080EAB6FED
:10290000BCC0ACF0BDC0ADF003EC1AF0000E0A6E16
:10291000070E0001BA250B6E000EBB210C6E020ED5
:1029200011EC15F02A0E0001BE19D8A49AEF14F08C
:102930009CEF14F04AEF14F020EE01F0BA51D926C2
:10294000BB51DA22BC51DE26BD51DD221200860EBB
:10295000076E000E086E2E0E096E080E0A6E000E2F
:102960000C6E0C0E0B6EF8EC17F007500810D8A484
:10297000BCEF14F0BEEF14F0D5EF14F0860E076E26
:10298000000E086E000E0A6E000E096E000E0C6E30
:10299000080E0B6E6DEC10F0000E0001C56F3A0EC4
:1029A000D96F2D0EDA6F10EF15F0860E076E000E40
:1029B000086E600E096E080E0A6E000E0C6E090E8F
:1029C0000B6EF8EC17F007500810D8A4EAEF14F0DB
:1029D000ECEF14F010EF15F0010E81EC12F0020E86
:1029E000146E860E136E990EE82EFED7132EFCD7AA
:1029F000142EFAD700F0860E076E000E086E000E39
:102A00000A6E000E096E000E0C6E080E0B6E6DEC59
:102A100010F0000E0001C56F8E0ED96F300EDA6F08
:102A200012000F6E28EF15F00A50800F106E45EF60
:102A300015F00A50C00F106E45EF15F00A50940FB4
:102A4000106E45EF15F00A50D40F106E45EF15F0DB
:102A50000F500D6E0E6A0E50000AD8B432EF15F00A
:102A600045EF15F00D50010AD8B414EF15F0030A24
:102A7000D8B419EF15F0010AD8B41EEF15F0070A03
:102A8000D8B423EF15F045EF15F0105081EC12F09B
:102A90005EEF15F00BC0F6FF0CC0F7FFF86A070EEB
:102AA000F76403D00800F55005D0F6CFE1FFF7CF6B
:102AB000E2FFE750DAEC11F00B4A0C2A0BC0F6FFEC
:102AC0000CC0F7FFF86A070EF76403D00800F55052
:102AD00005D0F6CFE1FFF7CFE2FFE7500009D8A419
:102AE00074EF15F076EF15F04AEF15F0120009506B
:102AF0000A10D8B47EEF15F080EF15F089EF15F0CD
:102B000009500A10D8A487EF15F089EF15F08EEF61
:102B100015F007502EEC1CF0DBEF15F020EE04F062
:102B20000950D9260A50DA22DE50DE10D8B49BEFC5
:102B300015F09DEF15F0B8EF15F020EE04F00950F8
:102B4000D9260A50DA2210EE02F00950E1260A5086
:102B5000E222DE50E65CE650800A0F6EDE50800A0C
:102B60000F58D8B0B6EF15F0B8EF15F0DBEF15F051
:102B700020EE02F00950D9260A50DA22DECF0BF0FF
:102B8000DDCF0CF009C0D9FF0AC0DAFFDECF0DF0AF
:102B9000DDCF0EF00B500D24D96E0C500E20DA6EE6
:102BA00007C0DFFF20EE02F00950D9260A50DA22D2
:102BB000DE2A000EDD22120055A0E1EF15F0E3EF52
:102BC00015F0EDEF15F019C010F01AC011F017C094
:102BD00012F018C013F00AEC1BF01CBEF2EF15F057
:102BE000F4EF15F0FAEF15F01BC020F01CC021F037
:102BF000FEEF15F0000E216E000E206E000E1F6E0F
:102C0000000E1E6E10EF16F0000E086E200E076EFE
:102C100017C009F018C00AF077EC15F01E4A1F2AF9
:102C200020501E5C1F50800A1D6E2150800A1D58C6
:102C3000D8A01DEF16F01FEF16F004EF16F055B0F8
:102C400024EF16F026EF16F030EF16F019C010F052
:102C50001AC011F017C012F018C013F00AEC1BF0E4
:102C600019C007F01AC008F086EC1BF020500724AA
:102C7000176E21500820186E1200959E959C959A0B
:102C8000959895969594850E0A6E760EE82EFED749
:102C90000A2EFCD700D0000E0B6E8C9E8C9C8C8A6A
:102CA0008C888C968C948C9E8C9C8C8A8C888C8640
:102CB0008C94050EE82EFED78C9E8C9C8C8A8C887A
:102CC0008C968C94160E0A6E6C0EE82EFED70A2E89
:102CD000FCD700D00B2A030E0B6471EF16F073EFD4
:102CE00016F04DEF16F08C9E8C9C8C8A8C988C96EE
:102CF0008C948C9E8C9C8C8A8C988C868C94050EE3
:102D0000E82EFED78C9E8C9C8C8A8C988C968C940A
:102D1000160E0A6E6C0EE82EFED70A2EFCD700D0D7
:102D2000280E81EC12F0100E81EC12F0010E81ECF5
:102D300012F00F0E81EC12F01200C20E0001BA6FF9
:102D4000000EBB6F0AEC0EF0C20E0B6E000E0C6E86
:102D500075EC19F0C20E0001BA6F000EBB6F3CECAF
:102D60000CF0C20E0B6E000E0C6E75EC19F0C20E5C
:102D70000001BA6F000EBB6F42EC19F0C20E0B6E71
:102D8000000E0C6E75EC19F0C90E076E000E086E81
:102D9000000E0A6E000E096E000E0C6E100E0B6E09
:102DA0006DEC10F0C90E0001A86F000EA96F390E6E
:102DB000AA6F080EAB6F03EC1AF0C20E0B6E000E7A
:102DC0000C6E75EC19F02AEC1CF0C90E076E000EA3
:102DD000086E000E0A6E000E096E000E0C6E100ECC
:102DE0000B6E6DEC10F0000E0001C56FAA0ED96FCE
:102DF000340EDA6F1200000E00019D6F99BF05EFCF
:102E000017F003EF17F00BEF17F0986D991FD8B07C
:102E1000992B010E9D6F9BBF12EF17F010EF17F06B
:102E200016EF17F09A6D9B1FD8B09B2B9A519B11F0
:102E3000D8B41DEF17F01FEF17F043EF17F0010E96
:102E40009C6F27EF17F0D8909A379B379C2B9BAF3E
:102E50002CEF17F02EEF17F023EF17F09A51985D33
:102E60009B519959D8A037EF17F039EF17F03DEF84
:102E700017F09A51985F9B51995BD8909B339A3386
:102E80009C2F2EEF17F09D51D8B449EF17F04BEF60
:102E900017F04FEF17F0986D991FD8B0992B98C085
:102EA00098F099C099F01200000E0F6E000E106E8F
:102EB000000E116E000E126E0B500C100D100E1045
:102EC000D8B465EF17F067EF17F09DEF17F0010E1C
:102ED000136E71EF17F0D8900B360C360D360E3698
:102EE000132A0EAE76EF17F078EF17F06BEF17F0AE
:102EF000D8900F361036113612360B50075C0C5036
:102F000008580D5009580E500A58D8A08AEF17F0EB
:102F10008CEF17F095EF17F00B50075E0C50085A26
:102F20000D50095A0E500A5A0F80D8900E320D32A9
:102F30000C320B32132E78EF17F00FC007F010C0D1
:102F400008F011C009F012C00AF012000600D9CF33
:102F500002F0DACF03F0F2AAB0EF17F0B2EF17F0F9
:102F6000C1EF17F0F2A4B7EF17F0B9EF17F0C1EF08
:102F700017F0F2940A0E0001C56F160ED96F320ECB
:102F8000DA6F9EAAC6EF17F0C8EF17F0F2EF17F04E
:102F90009DAACDEF17F0CFEF17F0F2EF17F0860EE6
:102FA0005724D96EDA6A000EDA22AECFDFFF860E22
:102FB0005724D96EDA6A000EDA22400EDE18D8B431
:102FC000E4EF17F0E6EF17F0E9EF17F0572AF2EF0A
:102FD00017F0040E0001C56F4E0ED96F290EDA6F7F
:102FE000000E576E03C0DAFF02C0D9FF59921100DC
:102FF00007C00EF008C00FF009C010F00AC011F0B1
:1030000009EF18F00B06D8A00C060E4A0F2A104A3A
:10301000112A0B500C10D8B410EF18F012EF18F062
:1030200026EF18F00EC0D9FF0FC0DAFFDF500D6E8B
:1030300010C0F6FF11C0F7FF0800F5500D18D8B406
:1030400024EF18F026EF18F002EF18F00B500C10D8
:10305000D8A42DEF18F02FEF18F035EF18F0000E70
:10306000086E000E076E46EF18F00EC0D9FF0FC0B5
:10307000DAFFDF500D6E10C0F6FF11C0F7FF080039
:10308000F5500D5C076E086AD8A008061200C20E43
:103090000001BA6F000EBB6F0AEC0EF0C20E000109
:1030A000BA6F000EBB6F3CEC0CF0C20E0001BA6FA1
:1030B000000EBB6F42EC19F0020E0001C519D8A436
:1030C00064EF18F066EF18F08BEF18F0898AD6508D
:1030D000C31907E1D750C419D8A471EF18F073EFE2
:1030E00018F08BEF18F0D6CFC3F0D7CFC4F026EC92
:1030F0001CF0000E0001C56F0A0E0B6E020E0C6E66
:10310000210ED2EC1BF0899A0A0E0B6E000E0C6E8B
:103110002D0ED2EC1BF0AA0E0001D96F340EDA6F1F
:1031200012003DEC16F0010E81EC12F00C0E81EC59
:1031300012F0020E126E860E116E990EE82EFED758
:10314000112EFCD7122EFAD700F0030E0A6E540E81
:103150000B6E080E0C6E010E11EC15F0060E0A6EC9
:10316000730E0B6E080E0C6E020E11EC15F01F0E96
:10317000126E710E116E1E0EE82EFED7112EFCD7A8
:10318000122EFAD700D0010E81EC12F0020E126E50
:10319000860E116E990EE82EFED7112EFCD7122E38
:1031A000FAD700F01200020E0001C56F28EC1CF0E7
:1031B000010E81EC12F0020E0001C06F860EBF6F8F
:1031C000990EE82EFED7BF2FFCD7C02FFAD7C20E1C
:1031D0000001BA6F000EBB6F28EC14F0010E81ECF9
:1031E00012F0020E0001C06F860EBF6F990EE82E1E
:1031F000FED7BF2FFCD7C02FFAD7C20E0F6E000E1E
:10320000106E13EC1CF0AA0E0001D96F340EDA6FA9
:103210002AEC1CF0120028EC1CF0010E81EC12F0DC
:10322000020E126E860E116E990EE82EFED7112E2A
:10323000FCD7122EFAD700F0000E0A6E480E0B6E65
:10324000080E0C6E010E11EC15F0000E0A6E010E48
:103250000B6E080E0C6E020E11EC15F00A0E0B6EC2
:10326000010E0C6E2D0ED2EC1BF00A0E0001C519DA
:10327000D8B43DEF19F03FEF19F035EF19F02AEC13
:103280001CF01200070E0001BA25076E000EBB21CC
:10329000086E000E0A6E000E096E000E0C6E100E07
:1032A0000B6E6DEC10F0070E0001BA25A86F000E32
:1032B000BB21A96F790EAA6F080EAB6FD65000081C
:1032C000AC6FD750D8A0E82A0108AD6F03EC1AF014
:1032D0000A0E0A6E070E0001BA250B6E000EBB2106
:1032E0000C6E020E11EC15F01200000E0F6E8FEF37
:1032F00019F0ACA27EEF19F080EF19F08FEF19F002
:103300000F500B240D6E000E0C200E6E070E0D24B8
:10331000D96E000E0E20DA6EDF50AD6E0F2A070E4A
:103320000B24076E000E0C20086E86EC1BF00F506D
:103330000D6E0E6A07500D5C08500E58D8A0A3EF12
:1033400019F0A5EF19F079EF19F01200A4C050F0B0
:10335000A5C051F0000E0001616F000E606FC4EF58
:1033600019F0A2C046F0A3C047F0500E486E000E00
:10337000496EA6C04AF0A7C04BF022EC08F04650B8
:10338000000160274750612350C0F6FF51C0F7FF8E
:103390000800F5500009D8A4D0EF19F0D2EF19F0C9
:1033A000B1EF19F060C0A2F061C0A3F01200949CCC
:1033B000948EB896000E076E1B0E086EB70E096E3F
:1033C000000E0A6E14C00BF015C00CF016C00DF004
:1033D00017C00EF054EC17F0070EF4EF19F0D89068
:1033E0000A32093208320732E82EEFEF19F00704EB
:1033F000AF6EAC94AC98AC9CAC8AAB8EAB9CAB88FB
:103400009D8A9F8A1200AC0E0001B26F000EB36F4E
:10341000A8C0B4F0A9C0B5F0000EB76F000EB66F2B
:10342000000EB96F000EB86FB40EA26F000EA36F3E
:10343000AAC0A4F0ABC0A5F0B20EA66F000EA76F95
:10344000A6EC19F00001B651A825D96EB751A921F3
:10345000DA6E000EDF6E1200010E0D6E200E0718E0
:103460000810D8B436EF1AF038EF1AF051EF1AF00E
:10347000F70E096EFF0E0A6E07C00BF008C00CF0C5
:1034800009500B260A500C220C5009E1050E0B5C6A
:10349000D8A04DEF1AF04FEF1AF051EF1AF0000ECE
:1034A0000D6E0DC007F0086A1200C80E076E000E00
:1034B000086E47EC0BF00001C851D8B462EF1AF067
:1034C00064EF1AF06AEF1AF0010EC56F000EC86FB4
:1034D00079EF1AF080A66FEF1AF071EF1AF079EF1A
:1034E0001AF00A0E0B6E000E0C6E210ED2EC1BF0C1
:1034F000A1821200000E0A6E3B0E0B6E080E0C6EBF
:10350000010E11EC15F0080E0001C519D8B48BEFAF
:103510001AF08DEF1AF083EF1AF0010E81EC12F021
:10352000020E126E860E116E990EE82EFED7112E27
:10353000FCD7122EFAD700F02AEC1CF01200086E0D
:103540000850D8A4A6EF1AF0A8EF1AF0AEEF1AF0C0
:10355000C150F00B0E09C16EB6EF1AF008500F08FB
:10356000076EC1500718F00B0718C16ECF0EC116B9
:10357000C050C70B1009C06EC050F80B0309C06ED5
:10358000C08EC28094921200F40EF66E370EF76E63
:10359000000EF86E00EEC2F010EE19F00900F5CF43
:1035A000EEFFE550E150FAE100EE60F0360EEE6A13
:1035B000E806FDE1586A576A566A556A546A536AC2
:1035C00059905992000EF86E0001A1EF1BF022EC09
:1035D0001CF091EC18F0020E9FEC1AF0BBEC1BF003
:1035E000000E086E000E076E1DEC1CF007EC1CF0C0
:1035F000800E146E250E156E000E166E000E176EE0
:10360000D7EC19F00A0E0B6E000E0C6E210ED2ECE8
:103610001BF01200000E166E000E156E1BEF1BF055
:1036200014C007F0086A12C009F013C00AF077EC62
:1036300015F0154A162A15501024D96E165011206F
:10364000DA6EDF50146E1450D8A429EF1BF02BEF64
:103650001BF010EF1BF012001ABE39EF1BF01A50CE
:1036600006E11904D8B037EF1BF039EF1BF047EF34
:103670001BF019C01BF01AC01CF01B1E1C1E1B4A9D
:103680001C2A1BC019F01CC01AF04BEF1BF019C00C
:1036900019F01AC01AF012000A6E0AC009F00946A1
:1036A0000946C2500918C30B0918C26E080E096EEC
:1036B000CA0EE82EFED7092EFCD7C282C2B263EF33
:1036C0001BF065EF1BF05EEF1BF0C3CF07F0C4CF1C
:1036D00008F01200D00E096EFF0E0A6E07C00BF044
:1036E00008C00CF009500B260A500C220C500AE1BD
:1036F0000A0E0B5CD8A07FEF1BF082EF1BF0010ECF
:1037000083EF1BF0000E076E086A120007C009F075
:1037100008C00AF08EEF1BF0074A082A07C0D9FF3D
:1037200008C0DAFFDF50D8A498EF1BF09AEF1BF027
:103730008CEF1BF00950075C076E0A500858086EA2
:103740001200F00E936EF19E9294929AE7EC1AF0AA
:1037500020EED9F002D8B7EF1BF00500FA6EDE506C
:10376000FD6EDE50FE6EF850FF6EFA501200A8EFAC
:103770001BF078EF00F0B190B18EB192300EB11223
:10378000B184500EB36E380EB26ED59ED58CD58AEC
:10379000D598D5869288F28AF294F184A192A29269
:1037A000A08212000D6E000E0E6EDDEF1BF00CC03D
:1037B00007F00D5016EC13F00E2A0B500E5CD8A03B
:1037C000E4EF1BF0E6EF1BF0D7EF1BF01200075001
:1037D0000902F3CF0BF0F4CF0CF007500A02F350BC
:1037E0000C2608500902F3500C260BC007F00CC041
:1037F00008F01200000000080000000000000000B7
:0D3800000000000000000000000000F43493
:10380E00CA50FC0B0209CA6ECA86CA88CA8ACA8CFA
:10381E0096909692969412002CEC1CF00A0E0B6E5B
:10382E00020E0C6E270ED2EC1BF0120007C0D6FF54
:10383E0008C0D7FF1200D08EF28EF28C1200D59EE9
:10384E001200B1901200B1801200D58E120012003B
:020000040020DA
:08000000FFFFFFFFFFFFFFFF00
:020000040030CA
:0E000000000C191EFF8181FF0FC00FE00F40A2
:00000001FF
