:020000040000FA
:040000008BEF3FF053
:107F16000001D0EF3FF0046E04C003F003460346B1
:107F2600C2500318C30B0318C26E200E036E2A0E2E
:107F3600E82EFED7032EFCD7C282C2B2A5EF3FF0D1
:107F4600A7EF3FF0A0EF3FF0C3CF01F0C4CF02F0A0
:107F56001200026E0250D8A4B3EF3FF0B5EF3FF027
:107F6600BBEF3FF0C150F00B0E09C16EC3EF3FF0FF
:107F760002500F08016EC1500118F00B0118C16EB6
:107F8600CF0EC116C050C70B1009C06EC050F80BFB
:107F96000309C06EC08EC2801200928092829294B3
:107FA600000E956E020EACEC3FF0000E8EEC3FF02C
:107FB60001508C6E89841F0E066E710E056E1E0EA4
:107FC600E82EFED7052EFCD7062EFAD700D0010ED6
:107FD6008EEC3FF001508C6E89941F0E066E710E6A
:107FE600056E1E0EE82EFED7052EFCD7062EFAD7F6
:0A7FF60000D0D8EF3FF000EF00F0DC
:020000040020DA
:08000000FFFFFFFFFFFFFFFF00
:020000040030CA
:0E000000020E191EFF8181FF0FC00FE00F409E
:00000001FF
