:020000040000FA
:0400000055EF00F0C8
:060008005C825EED18F0C1
:100018005C80D8CF01F0E8CF02F0E0CF03F0A0A2D7
:1000280018EF00F01AEF00F04DEF00F0A1A21FEF5B
:1000380000F021EF00F04DEF00F0A1920001B82B85
:100048000A0EB819D8A42BEF00F02DEF00F03DEF01
:1000580000F0BB51D8A433EF00F035EF00F03DEFCE
:1000680000F0000EB86F500ECF6F300ED06F49EF12
:1000780000F0BB05D8A443EF00F045EF00F049EFCE
:1000880000F0C80ECF6F2C0ED06F500EB36E380E26
:10009800B26E03C0E0FF02C0E8FF01C0D8FF5C9069
:0600A8001000ADEF17F09F
:10080000005265636172676120506F726661766F36
:1008100072004320646520766163756E61733A00EF
:10082000543A253032642E25303264204300536917
:100830006E20766163756E6173004269656E7665E0
:100840006E69646F73004261743A253032640053FC
:0B0850004943435600233A2564000092
:10085C001950800B226E19501924286E18AE39EFDE
:10086C0004F03BEF04F03CEF04F028802850D8B49F
:10087C0042EF04F044EF04F057EF04F02828D8A41A
:10088C004AEF04F04CEF04F054EF04F0000E166E37
:10089C00000E176E000E186E000E196E188E5FEF9C
:1008AC0004F0000E166E000E176E000E186E000E81
:1008BC00196E1D50800B221A1D501D24276E1CAE64
:1008CC006AEF04F06CEF04F06DEF04F02780275012
:1008DC00D8B473EF04F075EF04F088EF04F0272818
:1008EC00D8A47BEF04F07DEF04F085EF04F0000E4C
:1008FC001A6E000E1B6E000E1C6E000E1D6E1C8EF2
:10090C0090EF04F0000E1A6E000E1B6E000E1C6EA3
:10091C00000E1D6E2750D8B496EF04F098EF04F03B
:10092C00A0EF04F02850D8A49EEF04F0A0EF04F040
:10093C00AAEF04F0000E166E000E176E000E186E65
:10094C00000E196E42EF06F01C501602F3CF2DF07C
:10095C00F4CF2EF02D50236E246A256A266A2E5071
:10096C00296E2A6A2B6A2C6A1B501702F3CF2DF0C2
:10097C00F4CF2EF02D502326000E242225222622E1
:10098C002E502926000E2A222B222C221A50180215
:10099C00F3CF2DF0F4CF2EF02D502326000E242271
:1009AC00252226222E502926000E2A222B222C22EA
:1009BC0025C026F024C025F023C024F0236A1A5049
:1009CC001702F3CF2DF0F4CF2EF02D5023262E50FE
:1009DC002422000E2522000E26221B501602F3CFD5
:1009EC002DF0F4CF2EF02D5023262E502422000E65
:1009FC002522000E262225C026F024C025F023C077
:100A0C0024F0236A1A501602F3CF2DF0F4CF2EF0F7
:100A1C002D5023262E502422000E2522000E262295
:100A2C001C501702F3CF2DF0F4CF2EF02D502926A9
:100A3C002E502A22000E2B22000E2C221B501802A4
:100A4C00F3CF2DF0F4CF2EF02D5029262E502A2244
:100A5C00000E2B22000E2C221C501802F3CF2DF06E
:100A6C00F4CF2EF02D501E6E2E501F6E206A216A70
:100A7C0020C021F01FC020F01EC01FF01E6A1E50A7
:100A8C0029261F502A2220502B2221502C2223C0F1
:100A9C001EF024C01FF025C020F026C021F0190E36
:100AAC005DEF05F0D890213220321F321E32E82E35
:100ABC0058EF05F01E5029261F502A2220502B22B9
:100ACC0021502C2225C026F024C025F023C024F070
:100ADC00236A275028C01EF01F6A1E26000E1F22F4
:100AEC00820E1E242D6EFF0E1F202E6E93EF05F02E
:100AFC00D89029362A362B362C3626AE88EF05F0C0
:100B0C008AEF05F08BEF05F02980D8902336243638
:100B1C00253626362D06D8A02E062BAE98EF05F0DE
:100B2C009AEF05F07EEF05F0000E276E26AEA1EFD2
:100B3C0005F0A3EF05F0C7EF05F0FF0E23141E6EB2
:100B4C00FF0E24141F6EFF0E2514206E7F0E26142C
:100B5C00216E1E501F1020102110D8B4B8EF05F0D4
:100B6C00BAEF05F0BEEF05F0010E276EC7EF05F0EA
:100B7C0029A0C3EF05F0C5EF05F0C7EF05F0BAEFFC
:100B8C0005F02750D8B4CDEF05F0CFEF05F0F3EF1B
:100B9C0005F0010E2926000E2A222B222C222CA035
:100BAC00DAEF05F0DCEF05F0F3EF05F029C01EF0ED
:100BBC002AC01FF02BC020F02CC021F02134213290
:100BCC0020321F321E321EC029F01FC02AF020C056
:100BDC002BF021C02CF02D4A2E2A2EBEFEEF05F054
:100BEC002E5008E12D28D8A0FEEF05F000EF06F0FE
:100BFC000AEF06F0000E296E000E2A6E800E2B6E88
:100C0C007F0E2C6E38EF06F02EBE17EF06F02E502E
:100C1C0006E12D04D8B015EF06F017EF06F023EF20
:100C2C0006F0000E296E000E2A6E000E2B6E000EC2
:100C3C002C6E000E226E38EF06F02DC028F0FF0E41
:100C4C002916FF0E2A167F0E2B16000E2C1628A026
:100C5C0032EF06F034EF06F035EF06F02B8ED8901D
:100C6C0028302C6E22502C1229C016F02AC017F0F6
:100C7C002BC018F02CC019F012003250800B3F6EB4
:100C8C0032503224466E31AE4EEF06F050EF06F085
:100C9C0051EF06F046804650D8B457EF06F059EFA6
:100CAC0006F06EEF06F04628D8A45FEF06F061EF71
:100CBC0006F069EF06F0000E2F6E000E306E000E7F
:100CCC00316E000E326E318E000E326E76EF06F003
:100CDC00000E2F6E000E306E000E316E000E326E56
:100CEC003650800B3F1A36503624476E35AE81EFA6
:100CFC0006F083EF06F084EF06F047804750D8B437
:100D0C008AEF06F08CEF06F0A1EF06F04728D8A486
:100D1C0092EF06F094EF06F09CEF06F0000E336EA7
:100D2C00000E346E000E356E000E366E358E000ED3
:100D3C00366EA9EF06F0000E336E000E346E000E08
:100D4C00356E000E366E3350341035103610D8A474
:100D5C00B2EF06F0B4EF06F0CCEF06F0000E2F6EFB
:100D6C00000E306E000E316E000E326E800E31129F
:100D7C007F0E32123F5032122FC02FF030C030F0A5
:100D8C0031C031F032C032F00FEF08F04650D8A429
:100D9C00D2EF06F0D4EF06F0DEEF06F0000E2F6E69
:100DAC00000E306E000E316E000E326E0FEF08F03A
:100DBC00475046C037F0386A375E000E385A7F0EFF
:100DCC003724406E000E3820416E2FC03BF030C0EF
:100DDC003CF031C03DF032C03EF0000E2F6E000EE4
:100DEC00306E000E316E000E326E000E426E000E32
:100DFC00436E000E446E000E456E000E476E3FEFC4
:100E0C0007F04750D8B40DEF07F00FEF07F026EFBF
:100E1C0007F0D8903B363C363D363E36D8902F36D0
:100E2C0030363136323645AE1EEF07F020EF07F084
:100E3C0021EF07F02F80D8904236433644364536A2
:100E4C0033503B5C34503C5835503D5836503E582E
:100E5C00D8A033EF07F035EF07F03EEF07F0458CE5
:100E6C0033503B5E34503C5A35503D5A36503E5A06
:100E7C00472A190E476445EF07F047EF07F007EFD5
:100E8C0007F03B503C103D103E10D8B450EF07F02B
:100E9C0052EF07F06AEF07F042806AEF07F0D89044
:100EAC002F3630363136323645AE5FEF07F061EF14
:100EBC0007F062EF07F02F80D89042364336443665
:100ECC0045364006D8A0410631AE6FEF07F071EF02
:100EDC0007F055EF07F0000E476E45AE78EF07F0C0
:100EEC007AEF07F09EEF07F0FF0E4214376EFF0EFD
:100EFC004314386EFF0E4414396E7F0E45143A6E4F
:100F0C003750381039103A10D8B48FEF07F091EFF2
:100F1C0007F095EF07F0010E476E9EEF07F02FA03C
:100F2C009AEF07F09CEF07F09EEF07F091EF07F0B8
:100F3C004750D8B4A4EF07F0A6EF07F0CAEF07F0BC
:100F4C00010E2F26000E30223122322232A0B1EFB8
:100F5C0007F0B3EF07F0CAEF07F02FC037F030C03F
:100F6C0038F031C039F032C03AF03A343A323932D2
:100F7C003832373237C02FF038C030F039C031F04A
:100F8C003AC032F0404A412A41BED5EF07F04150F9
:100F9C0008E14028D8A0D5EF07F0D7EF07F0E2EF33
:100FAC0007F0000E416E4068000E2F6E000E306E82
:100FBC00000E316E000E326E41BEEFEF07F0415065
:100FCC0006E14004D8B0EDEF07F0EFEF07F0FDEFCE
:100FDC0007F0000E416E000E406E000E2F6E000EDC
:100FEC00306E000E316E000E326E000E3F6E40C041
:100FFC0046F046A004EF08F006EF08F009EF08F001
:10100C00318E0AEF08F0319ED8904630326EC0EF28
:10101C0006F0120045C0D9FF46C0DAFFDECFF6FF5E
:10102C00DDCFF7FF0800F550250AD8A420EF08F013
:10103C0022EF08F0AAEF09F045C0D9FF46C0DAFF4D
:10104C00DE2A000EDD22000E0001976F000E966F57
:10105C0096C05AF097C05BF058685968000E696FDB
:10106C00000E686F80EF08F05A8045C0D9FF46C06B
:10107C00DAFFDE2A000EDD2280EF08F05A823BEF09
:10108C0008F05A843BEF08F05A863BEF08F05A8878
:10109C003BEF08F0000E696F010E686F80EF08F0EF
:1010AC0045C0D9FF46C0DAFFDECFF6FFDDCFF7FF34
:1010BC000800F550496E4A6A4A50000AD8B469EFE4
:1010CC0008F050EF08F04950200AD8B44AEF08F065
:1010DC00030AD8B44DEF08F0080AD8B447EF08F06B
:1010EC00060AD8B43AEF08F01D0AD8B444EF08F059
:1010FC0050EF08F068516911D8B487EF08F089EF08
:10110C0008F056EF08F05AA08EEF08F090EF08F0B8
:10111C0091EF08F05A9245C0D9FF46C0DAFFDECFF6
:10112C00F6FFDDCFF7FF0800F5502A0AD8A4A1EF8F
:10113C0008F0A3EF08F0CCEF08F045C0D9FF46C08B
:10114C00DAFFDE2A000EDD2247C0D9FF48C0DAFFE5
:10115C00DFCF49F0020EDE26DFCF4AF0000EDD2293
:10116C0049C0D9FF4AC0DAFFDECF96F0DDCF97F049
:10117C0097BFC5EF08F0C3EF08F010EF09F05A80E5
:10118C00966D971FD8B0972B10EF09F045C0D9FF7B
:10119C0046C0DAFFDECF0BF0DDCF0CF0CEEC0EF05C
:1011AC000BC096F00CC097F0E3EF08F045C0D9FFE8
:1011BC0046C0DAFFDE2A000EDD22D00E496EFF0E8D
:1011CC004A6E45C0D9FF46C0DAFFDECFF6FFDDCF51
:1011DC00F7FF0800F5504B6E4C6A49504B264A50AD
:1011EC004C224C500AE10A0E4B5CD8A000EF09F0DF
:1011FC0003EF09F0010E04EF09F0000E00016A6F15
:10120C006B6B6A516B11D8A40EEF09F010EF09F05B
:10121C00DCEF08F045C0D9FF46C0DAFFDECFF6FFA1
:10122C00DDCFF7FF0800F550640AD8B420EF09F0C1
:10123C0022EF09F034EF09F045C0D9FF46C0DAFFC0
:10124C00DECFF6FFDDCFF7FF0800F550690AD8A412
:10125C0032EF09F034EF09F074EF09F045C0D9FF13
:10126C0046C0DAFFDE2A000EDD2247C0D9FF48C097
:10127C00DAFFDFCF49F0020EDE26DFCF4AF0000E98
:10128C00DD2249C0D9FF4AC0DAFFDECF60F0DDCFE6
:10129C0061F0000E61BFFF0E626F636F646F656F6C
:1012AC00666F676F43C01FF044C020F060C021F030
:1012BC0061C022F062C023F063C024F064C025F04A
:1012CC0065C026F066C027F067C028F0C6EC09F0B0
:1012DC001FC043F020C044F0C5EF09F045C0D9FF52
:1012EC0046C0DAFFDECFF6FFDDCFF7FF0800F55082
:1012FC00250AD8A484EF09F086EF09F09DEF09F0D8
:10130C0045C0D9FF46C0DAFFDE2A000EDD22000EF2
:10131C00056E250E046E43C006F044C007F06BEC5E
:10132C0014F0000E446E010E436EC5EF09F045C07B
:10133C00D9FF46C0DAFFDE2A000EDD22000E446E15
:10134C00000E436EC5EF09F045C0D9FF46C0DAFF69
:10135C00DECFF6FFDDCFF7FF0800F550046E056A0F
:10136C0043C006F044C007F06BEC14F045C0D9FF45
:10137C0046C0DAFFDE2A000EDD2297EF09F01200DC
:10138C0021C039F022C03AF023C03BF024C03CF01D
:10139C0025C03DF026C03EF027C03FF028C040F0ED
:1013AC0040BEDBEF09F0DEEF09F0010EDFEF09F0D4
:1013BC00000E376E386A37503810D8B4E8EF09F0A1
:1013CC00EAEF09F0FAEF09F0401E3F1E3E1E3D1EEB
:1013DC003C1E3B1E3A1E396C000E3A223B223C222C
:1013EC003D223E223F22402259BEFFEF09F001EF81
:1013FC000AF002EF0AF05A9259BE0FEF0AF0595058
:10140C0006E15804D8B00DEF0AF00FEF0AF015EF13
:10141C000AF0000E346E010E336E19EF0AF058C04C
:10142C0033F059C034F096C035F097C036F03750D1
:10143C003810D8A424EF0AF026EF0AF02DEF0AF0AA
:10144C005AA42BEF0AF02DEF0AF030EF0AF0350614
:10145C00D8A03606000E426E1F0E416E000E000123
:10146C00B76FB5EF0AF04106D8A04206980E41249A
:10147C00D96E000E4220DA6E39C004F03AC005F085
:10148C003BC006F03CC007F03DC008F03EC009F080
:10149C003FC00AF040C00BF00A0E0C6E000E0D6E31
:1014AC00000E0E6E000E0F6E000E106E000E116E02
:1014BC00000E126E000E136E15EC11F004C029F024
:1014CC0005C02AF006C02BF007C02CF008C02DF088
:1014DC0009C02EF00AC02FF00BC030F029C016F056
:1014EC002BC017F0CEEC17F01650300FDF6E330612
:1014FC00D8A034063506D8A0360639C004F03AC058
:10150C0005F03BC006F03CC007F03DC008F03EC003
:10151C0009F03FC00AF040C00BF00A0E0C6E000E32
:10152C000D6E000E0E6E000E0F6E000E106E000E85
:10153C00116E000E126E000E136E96EC0FF004C0BE
:10154C0039F005C03AF006C03BF007C03CF008C0CB
:10155C003DF009C03EF00AC03FF00BC040F042BE67
:10156C00C0EF0AF0425008E14104D8A0C0EF0AF0E5
:10157C00C2EF0AF0F2EF0AF039503A103B103C106F
:10158C003D103E103F104010D8A4CFEF0AF0D1EF21
:10159C000AF039EF0AF034BEDEEF0AF0345006E1FF
:1015AC003304D8B0DCEF0AF0DEEF0AF039EF0AF0C2
:1015BC0036BEE9EF0AF0365008E13504D8A0E9EF61
:1015CC000AF0EBEF0AF0F2EF0AF05AB2F0EF0AF081
:1015DC00F2EF0AF039EF0AF037503810D8A4F9EFCF
:1015EC000AF0FBEF0AF002EF0BF05AA400EF0BF03D
:1015FC0002EF0BF020EF0BF04106D8A0420637505B
:10160C003810D8A40CEF0BF00EEF0BF014EF0BF01E
:10161C00000E326E2B0E316E18EF0BF0000E326E88
:10162C002D0E316E980E4124D96E000E4220DA6ECA
:10163C0031C0DFFF1FC014F020C015F0980E4124FC
:10164C00166E000E4220176E35C018F036C019F019
:10165C00D0EC14F014C01FF015C020F0120004C020
:10166C00D9FF05C0DAFF000EDF6EF00E816EF00EB2
:10167C008118D8B444EF0BF046EF0BF01EEF0CF0D2
:10168C00FE0E816E81B84DEF0BF04FEF0BF055EF66
:10169C000BF004C0D9FF05C0DAFF2A0EDF6E81BA49
:1016AC005AEF0BF05CEF0BF062EF0BF004C0D9FFBC
:1016BC0005C0DAFF300EDF6E81BC67EF0BF069EF0F
:1016CC000BF06FEF0BF004C0D9FF05C0DAFF230E4F
:1016DC00DF6E81BE74EF0BF076EF0BF07CEF0BF04E
:1016EC0004C0D9FF05C0DAFF440EDF6EFD0E816E1B
:1016FC0081B883EF0BF085EF0BF08BEF0BF004C090
:10170C00D9FF05C0DAFF370EDF6E81BA90EF0BF010
:10171C0092EF0BF098EF0BF004C0D9FF05C0DAFF85
:10172C00380EDF6E81BC9DEF0BF09FEF0BF0A5EF39
:10173C000BF004C0D9FF05C0DAFF390EDF6E81BE95
:10174C00AAEF0BF0ACEF0BF0B2EF0BF004C0D9FF2B
:10175C0005C0DAFF430EDF6EFB0E816E81B8B9EF68
:10176C000BF0BBEF0BF0C1EF0BF004C0D9FF05C0C1
:10177C00DAFF340EDF6E81BAC6EF0BF0C8EF0BF058
:10178C00CEEF0BF004C0D9FF05C0DAFF350EDF6ECB
:10179C0081BCD3EF0BF0D5EF0BF0DBEF0BF004C0FB
:1017AC00D9FF05C0DAFF360EDF6E81BEE0EF0BF01D
:1017BC00E2EF0BF0E8EF0BF004C0D9FF05C0DAFF45
:1017CC00420EDF6EF70E816E81B8EFEF0BF0F1EF8A
:1017DC000BF0F7EF0BF004C0D9FF05C0DAFF310EA8
:1017EC00DF6E81BAFCEF0BF0FEEF0BF004EF0CF0A8
:1017FC0004C0D9FF05C0DAFF320EDF6E81BC09EFE1
:10180C000CF00BEF0CF011EF0CF004C0D9FF05C07D
:10181C00DAFF330EDF6E81BE16EF0CF018EF0CF012
:10182C001EEF0CF004C0D9FF05C0DAFF410EDF6ECD
:10183C00F00E816EF00E8118D8A427EF0CF029EF72
:10184C000CF020EF0CF01200070E00018425046E42
:10185C00000E8521056E000E076E000E066E000E42
:10186C00096E100E086E5AEC10F0010EEEEC17F02B
:10187C00000120EE04F08451D9268551DA2204C0EF
:10188C00DEFF05C0DDFF000E336E000E346E800EE1
:10189C00356E440E366E000E1A6E000E1B6EA00EC8
:1018AC001C6E400E1D6E20EE04F08451D92685511D
:1018BC00DA22DECF86F0DDCF87F086C008F087C055
:1018CC0009F00A6A0B6A000E1EEC0DF008C016F047
:1018DC0009C017F00AC018F00BC019F02EEC04F078
:1018EC0016C02FF017C030F018C031F019C032F00C
:1018FC0043EC06F02FC088F030C089F031C08AF07C
:10190C0032C08BF0000E1A6E000E1B6EC80E1C6ED1
:10191C00420E1D6E88C016F089C017F08AC018F0F0
:10192C008BC019F02EEC04F016C048F017C049F02B
:10193C0018C04AF019C04BF003EC13F0000120EE74
:10194C0004F08451D9268551DA2248C0DEFF49C003
:10195C00DDFF000E336E000E346EFA0E356E430E44
:10196C00366E000E1A6E000E1B6EC80E1C6E420EEA
:10197C001D6E20EE04F08451D9268551DA22DECF7B
:10198C0086F0DDCF87F086C008F087C009F00A6AC0
:10199C000B6A000E1EEC0DF008C016F009C017F013
:1019AC000AC018F00BC019F02EEC04F016C02FF082
:1019BC0017C030F018C031F019C032F043EC06F00B
:1019CC002FC048F030C049F031C04AF032C04BF063
:1019DC0003EC13F0000120EE04F08451D92685515C
:1019EC00DA2248C0DEFF49C0DDFF070E8425726F86
:1019FC00000E8521736F460E746F080E756F20EE06
:101A0C0004F08451D9268551DA22DECF76F0DDCF71
:101A1C0077F0CDEC16F0000E076E070E0001842552
:101A2C00086E000E8521096E020E05EC14F01200F2
:101A3C00106E1050D8B425EF0DF027EF0DF049EFD4
:101A4C000DF00BBE2EEF0DF02CEF0DF049EF0DF05D
:101A5C0008C00CF009C00DF00AC00EF00BC00FF05E
:101A6C000C1E0D1E0E1E0F1E0C2A000E0D220E2219
:101A7C000F220CC012F00DC013F00EC014F00FC0EA
:101A8C0015F051EF0DF008C012F009C013F00AC0A8
:101A9C0014F00BC015F0085009100A100B10D8A444
:101AAC005AEF0DF05CEF0DF066EF0DF0000E086EC6
:101ABC00000E096E000E0A6E000E0B6EF7EF0DF0A5
:101ACC00960E116E70EF0DF0112AD890153214325B
:101ADC0013321232000E12140C6E000E13140D6E13
:101AEC00000E14140E6EFE0E15140F6E0C500D100D
:101AFC000E100F10D8A485EF0DF087EF0DF06AEFE4
:101B0C000DF095EF0DF0112A010E1226000E132286
:101B1C0014221522D8901532143213321232000EC0
:101B2C0012140C6E000E13140D6E000E14140E6EA7
:101B3C00FF0E15140F6E0C500D100E100F10D8A4B4
:101B4C00AAEF0DF0ACEF0DF089EF0DF0B4EF0DF046
:101B5C001106D890123613361436153614BEB9EF5A
:101B6C000DF0BBEF0DF0C3EF0DF0020E1160C1EFE5
:101B7C000DF0C3EF0DF0AEEF0DF011B0C8EF0DF09E
:101B8C00CAEF0DF0CBEF0DF0149ED890113211C0AE
:101B9C000CF00D6A0E6A0F6A0CC00FF00E6A0D6A1B
:101BAC000C6A0C5012120D5013120E5014120F50CE
:101BBC0015121050D8B4E5EF0DF0E7EF0DF0EFEF84
:101BCC000DF00BBEEEEF0DF0ECEF0DF0EFEF0DF0B6
:101BDC00158E12C008F013C009F014C00AF015C01D
:101BEC000BF01200070E00018425046E000E8521F7
:101BFC00056E000E076E000E066E000E096E100EBE
:101C0C00086E5AEC10F0000EEEEC17F004C008F061
:101C1C0005C009F00A6A0B6A000E1EEC0DF008C034
:101C2C0086F009C087F00AC088F00BC089F0F60E68
:101C3C001A6E280E1B6E9C0E1C6E400E1D6E86C0FE
:101C4C0016F087C017F088C018F089C019F02EEC78
:101C5C0004F016C02FF017C030F018C031F019C0C6
:101C6C0032F0000E336E000E346E200E356E410EC7
:101C7C00366E43EC06F02FC086F030C087F031C0D2
:101C8C0088F032C089F0070E00018425726F000EB7
:101C9C008521736F200E746F080E756F86C048F027
:101CAC0087C049F088C04AF089C04BF003EC13F0B0
:101CBC0048500001766F776B000E1A6E000E1B6E8B
:101CCC00C80E1C6E420E1D6E86C016F087C017F033
:101CDC0088C018F089C019F02EEC04F016C048F03A
:101CEC0017C049F018C04AF019C04BF003EC13F0C0
:101CFC004850526E536A000E556E640E546E91EC41
:101D0C0015F052500001786F796BCDEC16F0000E87
:101D1C00076E070E00018425086E000E8521096EE2
:101D2C00010E05EC14F086C048F087C049F088C05D
:101D3C004AF089C04BF003EC13F049BEB1EF0EF042
:101D4C00495007E1020E485CD8B0AFEF0EF0B1EF8E
:101D5C000EF0B4EF0EF08B92CDEF0EF086C048F083
:101D6C0087C049F088C04AF089C04BF003EC13F0EF
:101D7C0049BECAEF0EF0495009E1070E485CD8A0E5
:101D8C00CAEF0EF0CCEF0EF0CDEF0EF08B821200FE
:101D9C00000E196E000E186E000E126E000E116EF3
:101DAC00DAEF0EF00B4A0C2A010E176E0BC0F6FF81
:101DBC000CC0F7FF0800F550200AD8B4E8EF0EF07D
:101DCC00EAEF0EF007EF0FF0F70E0D6EFF0E0E6E32
:101DDC000BC0F6FF0CC0F7FF0800F5500F6E106A31
:101DEC000D500F260E501022105009E1050E0F5CFD
:101DFC00D8A003EF0FF005EF0FF007EF0FF0000E78
:101E0C00176E17C013F0146A13501410D8A411EFE6
:101E1C000FF013EF0FF0D8EF0EF01DEF0FF0000ED8
:101E2C00126E010E116E0B4A0C2A52EF0FF00BC002
:101E3C00F6FF0CC0F7FF0800F5500D6E0E6A0E5041
:101E4C00000AD8B42CEF0FF052EF0FF00D502B0A04
:101E5C00D8B419EF0FF0060AD8B415EF0FF052EF03
:101E6C000FF018C004F019C005F0000E076E0A0E32
:101E7C00066E9EEC18F00BC0F6FF0CC0F7FF0800C6
:101E8C00F550045E000E055A300E0424186E000E38
:101E9C000520196E19EF0FF0D00E0D6EFF0E0E6EA1
:101EAC000BC0F6FF0CC0F7FF0800F5500F6E106A60
:101EBC000D500F260E50102210500AE10A0E0F5C26
:101ECC00D8A06BEF0FF06EEF0FF0010E6FEF0FF06D
:101EDC00000E156E166A15501610D8A478EF0FF078
:101EEC007AEF0FF037EF0FF011501210D8A481EFEA
:101EFC000FF083EF0FF091EF0FF018C00DF019C039
:101F0C000EF00D1E0E1E0D4A0E2A0DC00BF00EC04B
:101F1C000CF095EF0FF018C00BF019C00CF012007C
:101F2C00000E156E13BE9FEF0FF09DEF0FF0B1EF8B
:101F3C000FF0131E121E111E101E0F1E0E1E0D1E54
:101F4C000C6C000E0D220E220F22102211221222D6
:101F5C001322010E156E0BBEB8EF0FF0B6EF0FF09B
:101F6C00CAEF0FF00B1E0A1E091E081E071E061EC6
:101F7C00051E046C000E05220622072208220922E7
:101F8C000A220B22010E151A20EE16F0070EDE6A3D
:101F9C00E806FDE20C500D100E100F101010111071
:101FAC0012101310D8B4DDEF0FF0DFEF0FF031EF9C
:101FBC0010F0010E146EEDEF0FF0D8900C360D36BC
:101FCC000E360F361036113612361336142A13AE5F
:101FDC00F2EF0FF0F4EF0FF0E3EF0FF0D8901636AE
:101FEC001736183619361A361B361C361D360C5059
:101FFC00045C0D5005580E5006580F5007581050E1
:10200C0008581150095812500A5813500B58D8A0A0
:10201C0012EF10F014EF10F025EF10F00C50045EDE
:10202C000D50055A0E50065A0F50075A1050085AA8
:10203C001150095A12500A5A13500B5A1680D89044
:10204C0013321232113210320F320E320D320C3278
:10205C00142EF4EF0FF01550D8B437EF10F039EF11
:10206C0010F049EF10F01D1E1C1E1B1E1A1E191E0F
:10207C00181E171E166C000E1722182219221A226F
:10208C001B221C221D2216C004F017C005F018C01C
:10209C0006F019C007F01AC008F01BC009F01CC0EC
:1020AC000AF01DC00BF0120004C00EF005C00FF0BA
:1020BC0008500910D8A465EF10F067EF10F069EF25
:1020CC0010F014EF11F00EC0D9FF0FC0DAFF06C0EC
:1020DC00DFFF08500E240A6E09500F200B6EFF0E06
:1020EC000A24D96EFF0E0B20DA6E06C0DFFF0950F2
:1020FC0007E1030E085CD8B086EF10F088EF10F003
:10210C008AEF10F014EF11F020EE01F00E50D926EA
:10211C000F50DA2206C0DFFF20EE02F00E50D92657
:10212C000F50DA2206C0DFFF08500E240A6E095049
:10213C000F200B6EFE0E0A24D96EFF0E0B20DA6EEA
:10214C0006C0DFFF08500E240A6E09500F200B6EDC
:10215C00FD0E0A24D96EFF0E0B20DA6E06C0DFFFCF
:10216C00095007E1070E085CD8B0BFEF10F0C1EFC3
:10217C0010F0C3EF10F014EF11F020EE03F00E503E
:10218C00D9260F50DA2206C0DFFF08500E240A6E43
:10219C0009500F200B6EFC0E0A24D96EFF0E0B207B
:1021AC00DA6E06C0DFFF095007E1090E085CD8B0F3
:1021BC00E2EF10F0E4EF10F0E6EF10F014EF11F096
:1021CC000EC00AF00FC00BF00A1E0B1E0A4A0B2A97
:1021DC00030E0A140C6E0D6A0C500E260D500F22B5
:1021EC000C50085E0D50095AFC0E0816FF0E09160D
:1021FC000BEF11F00EC0D9FF0FC0DAFF06C0DFFFE6
:10220C000806D8A009060E4A0F2A08500910D8A4AF
:10221C0012EF11F014EF11F000EF11F01200000E9C
:10222C00156E0BBE1EEF11F01CEF11F030EF11F01C
:10223C000B1E0A1E091E081E071E061E051E046C18
:10224C00000E052206220722082209220A220B224E
:10225C00010E156E13BE37EF11F035EF11F047EF8D
:10226C0011F0131E121E111E101E0F1E0E1E0D1E1F
:10227C000C6C000E0D220E220F22102211221222A3
:10228C0013220C500D100E100F10101011101210F4
:10229C001310D8B454EF11F056EF11F09EEF11F06B
:1022AC00010E146E64EF11F0D8900C360D360E360C
:1022BC000F361036113612361336142A13AE69EF58
:1022CC0011F06BEF11F05AEF11F00C50045C0D5043
:1022DC0005580E5006580F500758105008581150FA
:1022EC00095812500A5813500B58D8A080EF11F00F
:1022FC0082EF11F092EF11F00C50045E0D50055A64
:10230C000E50065A0F50075A1050085A1150095ABD
:10231C0012500A5A13500B5AD890133212321132EF
:10232C0010320F320E320D320C32142E6BEF11F0C4
:10233C001550D8B4A4EF11F0A6EF11F0B6EF11F0D0
:10234C000B1E0A1E091E081E071E061E051E046C07
:10235C00000E052206220722082209220A220B223D
:10236C0004C004F005C005F006C006F007C007F075
:10237C0008C008F009C009F00AC00AF00BC00BF045
:10238C001200066E8C968C8406C004F0070E056E47
:10239C0004340432052ECEEF11F0010E0416043273
:1023AC0004328C5004187F0B04188C6E06C004F099
:1023BC00060E056E04340432052EE0EF11F0010E0A
:1023CC000416043A044604468C500418BF0B041837
:1023DC008C6E06C004F0050E056E04340432052E16
:1023EC00F3EF11F0010E0416043A04468C50041855
:1023FC00DF0B04188C6E06C004F0040E056E04345A
:10240C000432052E05EF12F0010E0416043A8C501E
:10241C000418EF0B04188C6E030EE82EFED700F098
:10242C008C86050EE82EFED78C9606C004F0030EA3
:10243C00056E04340432052E1FEF12F0010E041643
:10244C00043204328C5004187F0B04188C6E06C0B6
:10245C0004F00434043204340432010E0416043A39
:10246C00044604468C500418BF0B04188C6E06C02E
:10247C0004F0010E056E04340432052E41EF12F007
:10248C00010E0416043A04468C500418DF0B041891
:10249C008C6E06C004F0010E0416043A8C5004181D
:1024AC00EF0B04188C6E030EE82EFED700F08C8612
:1024BC00050EE82EFED78C96050EE82EFED7160ECE
:1024CC00046E6C0EE82EFED7042EFCD700D0120042
:1024DC00066E8C968C94046A06AE01D0042A010E0A
:1024EC000416043204328C5004187F0B04188C6EC2
:1024FC0006C004F0060E056ED8900432052E82EF4D
:10250C0012F0010E0416043A044604468C500418CA
:10251C00BF0B04188C6E06C004F0050E056ED89027
:10252C000432052E95EF12F0010E0416043A0446FF
:10253C008C500418DF0B04188C6E06C004F0043A9F
:10254C000F0E0416010E0416043A8C500418EF0BEF
:10255C0004188C6E030EE82EFED700F08C86050E48
:10256C00E82EFED78C9606C004F0D8900432D89092
:10257C000432D8900432010E0416043204328C500A
:10258C0004187F0B04188C6E06C004F0D89004322B
:10259C00D8900432010E0416043A044604468C50BA
:1025AC000418BF0B04188C6E06C004F0D8900432CB
:1025BC00010E0416043A04468C500418DF0B041860
:1025CC008C6E06C004F0010E0416043A8C500418EC
:1025DC00EF0B04188C6E030EE82EFED700F08C86E1
:1025EC00050EE82EFED78C96160E046E6C0EE82E99
:1025FC00FED7042EFCD700D012004A344B34516E57
:10260C005150D8A40CEF13F00EEF13F018EF13F099
:10261C00000E486E000E496E000E4A6E000E4B6E98
:10262C0085EF13F048C04CF049C04DF04AC04EF055
:10263C004BC04FF0200E28EF13F0D8904F324E3293
:10264C004D324C32E82E23EF13F04C50506E4A8E24
:10265C00FF0E4816FF0E4916FF0E4A16000E4B16BB
:10266C00960E515E51BE3FEF13F03DEF13F055EF58
:10267C0013F05150800A970FD8B047EF13F049EF81
:10268C0013F04BEF13F00EEF13F0D8904B324A329D
:10269C0049324832513E4BEF13F06DEF13F01F0EE1
:1026AC0051645BEF13F05DEF13F065EF13F00EEF79
:1026BC0013F0D890483649364A364B3651065150AD
:1026CC00D8A46BEF13F06DEF13F05FEF13F05050D5
:1026DC00D8B473EF13F075EF13F07DEF13F04B1EBE
:1026EC004A1E491E486C000E49224A224B2248C001
:1026FC0048F049C049F04AC04AF04BC04BF01200B8
:10270C00000E0001876F000E866F000E886F070E9B
:10271C008425046E000E8521056E000E076E000EDA
:10272C00066E000E096E100E086E5AEC10F0000EBC
:10273C00076E120E086E080E096E010E05EC14F0F1
:10274C00F0EF13F0880E046E000E056E35EC0BF0F6
:10275C002F0E00018865B5EF13F0B7EF13F0D4EF2F
:10276C0013F03A0E8861BDEF13F0BFEF13F0D4EF06
:10277C0013F086C004F087C005F0000E076E0A0E39
:10278C00066E9EEC18F0000188510426000E0522FE
:10279C00D00E0424866FFF0E0520876F070E84254C
:1027AC00726F000E8521736F570E746F080E756F64
:1027BC0086C076F087C077F0CDEC16F0000E076E71
:1027CC00070E00018425086E000E8521096E020E8D
:1027DC0005EC14F02A0E00018819D8A4F8EF13F0B8
:1027EC00FAEF13F0A8EF13F020EE01F08451D92684
:1027FC008551DA2286C0DEFF87C0DDFF12000C6E29
:10280C001CEF14F00750800F0D6E39EF14F00750C9
:10281C00C00F0D6E39EF14F00750940F0D6E39EF99
:10282C0014F00750D40F0D6E39EF14F00C500A6EE3
:10283C000B6A0B50000AD8B426EF14F039EF14F0E1
:10284C000A50010AD8B408EF14F0030AD8B40DEFFB
:10285C0014F0010AD8B412EF14F0070AD8B417EF29
:10286C0014F039EF14F00D506EEC12F052EF14F02E
:10287C0008C0F6FF09C0F7FFF86A070EF76403D02B
:10288C000800F55005D0F6CFE1FFF7CFE2FFE75097
:10289C00C7EC11F0084A092A08C0F6FF09C0F7FF77
:1028AC00F86A070EF76403D00800F55005D0F6CF90
:1028BC00E1FFF7CFE2FFE7500009D8A468EF14F06E
:1028CC006AEF14F03EEF14F0120006500710D8B463
:1028DC0072EF14F074EF14F07DEF14F00650071043
:1028EC00D8A47BEF14F07DEF14F082EF14F00450B9
:1028FC00E8EC18F0CFEF14F020EE04F00650D926D7
:10290C000750DA22DE50DE10D8B48FEF14F091EFBE
:10291C0014F0ACEF14F020EE04F00650D92607505A
:10292C00DA2210EE02F00650E1260750E222DE50C9
:10293C00E65CE650800A0C6EDE50800A0C58D8B06B
:10294C00AAEF14F0ACEF14F0CFEF14F020EE02F07D
:10295C000650D9260750DA22DECF08F0DDCF09F079
:10296C0006C0D9FF07C0DAFFDECF0AF0DDCF0BF0CF
:10297C0008500A24D96E09500B20DA6E04C0DFFF10
:10298C0020EE02F00650D9260750DA22DE2A000E7D
:10299C00DD2212005AA0D5EF14F0D7EF14F0E1EFBE
:1029AC0014F016C00DF017C00EF014C00FF015C0C7
:1029BC0010F08BEC17F019BEE6EF14F0E8EF14F002
:1029CC00EEEF14F018C01DF019C01EF0F2EF14F069
:1029DC00000E1E6E000E1D6E000E1C6E000E1B6E89
:1029EC0004EF15F0000E056E200E046E14C006F0F8
:1029FC0015C007F06BEC14F01B4A1C2A1D501B5C15
:102A0C001C50800A1A6E1E50800A1A58D8A011EF5A
:102A1C0015F013EF15F0F8EF14F05AB018EF15F09D
:102A2C001AEF15F024EF15F016C00DF017C00EF0CC
:102A3C0014C00FF015C010F08BEC17F016C004F09A
:102A4C0017C005F043EC18F01D500424146E1E50F2
:102A5C000520156E1200959E959C959A95989596C5
:102A6C009594850E076E760EE82EFED7072EFCD7B2
:102A7C0000D0000E086E8C9E8C9C8C8A8C888C9658
:102A8C008C948C9E8C9C8C8A8C888C868C94050E59
:102A9C00E82EFED78C9E8C9C8C8A8C888C968C9481
:102AAC00160E076E6C0EE82EFED7072EFCD700D044
:102ABC00082A030E086465EF15F067EF15F041EF77
:102ACC0015F08C9E8C9C8C8A8C988C968C948C9EFD
:102ADC008C9C8C8A8C988C868C94050EE82EFED758
:102AEC008C9E8C9C8C8A8C988C968C94160E076E73
:102AFC006C0EE82EFED7072EFCD700D0280E6EECFD
:102B0C0012F0100E6EEC12F0010E6EEC12F00F0EB5
:102B1C006EEC12F01200000E576E53BE9AEF15F0C9
:102B2C0098EF15F0A0EF15F0526C531ED8B0532A45
:102B3C00010E576E55BEA7EF15F0A5EF15F0ABEFD4
:102B4C0015F0546C551ED8B0552A54505510D8B4A5
:102B5C00B2EF15F0B4EF15F0D8EF15F0010E566E7C
:102B6C00BCEF15F0D89054365536562A55AEC1EFF9
:102B7C0015F0C3EF15F0B8EF15F05450525C5550EA
:102B8C005358D8A0CCEF15F0CEEF15F0D2EF15F0CE
:102B9C005450525E5550535AD89055325432562E8A
:102BAC00C3EF15F05750D8B4DEEF15F0E0EF15F089
:102BBC00E4EF15F0526C531ED8B0532A52C052F0A9
:102BCC0053C053F0120031EC15F0010E6EEC12F004
:102BDC000C0E6EEC12F0020E0F6E860E0E6E990E2F
:102BEC00E82EFED70E2EFCD70F2EFAD700F0030ED0
:102BFC00076E3A0E086E080E096E010E05EC14F005
:102C0C00060E076E4F0E086E080E096E020E05ECCE
:102C1C0014F01F0E0F6E710E0E6E1E0EE82EFED7E8
:102C2C000E2EFCD70F2EFAD700D0010E6EEC12F040
:102C3C00020E0F6E860E0E6E990EE82EFED70E2E1D
:102C4C00FCD70F2EFAD700F01200F00E936EF19E07
:102C5C009296B1EC18F089A636EF16F03BEF16F011
:102C6C0000018C6B8C2B3DEF16F000018C6B8C47AC
:102C7C008C478C4789508C19F70B8C19896E020E76
:102C8C0000018D6F860E8C6F990EE82EFED78C2F5F
:102C9C00FCD78D2FFAD720EECFF002D860EF16F0CC
:102CAC000500FA6EDE50FD6EDE50FE6EF850FF6EC3
:102CBC00FA50120031EF16F055EF00F0000E000143
:102CCC00BB6FE4EC18F0010E6EEC12F0020E00017A
:102CDC008A6F860E896F990EE82EFED7892FFCD746
:102CEC008A2FFAD7B80E0001846F000E856F86EC20
:102CFC0013F0010E6EEC12F0020E00018A6F860EBC
:102D0C00896F990EE82EFED7892FFCD78A2FFAD718
:102D1C00B80E046E000E056EE1EC18F0EE0E00011C
:102D2C00CF6F300ED06FD7EC18F012006EC04DF094
:102D3C006FC04EF0000E0001956F000E946FBAEF4D
:102D4C0016F06CC043F06DC044F04D0E456E000E95
:102D5C00466E70C047F071C048F010EC08F043505C
:102D6C0000019427445095234DC0F6FF4EC0F7FF49
:102D7C000800F5500009D8A4C6EF16F0C8EF16F0FD
:102D8C00A7EF16F094C06CF095C06DF01200760EA3
:102D9C0000017C6F000E7D6F72C07EF073C07FF0FF
:102DAC00000E816F000E806F000E836F000E826F1D
:102DBC007E0E6C6F000E6D6F74C06EF075C06FF090
:102DCC007C0E706F000E716F9CEC16F00001805140
:102DDC007225D96E81517321DA6E000EDF6E1200EE
:102DEC00010E0A6E200E04180510D8B400EF17F06F
:102DFC0002EF17F01BEF17F0F70E066EFF0E076EC3
:102E0C0004C008F005C009F0065008260750092236
:102E1C00095009E1050E085CD8A017EF17F019EF5F
:102E2C0017F01BEF17F0000E0A6E0AC004F0056ACB
:102E3C001200056E0550D8A426EF17F028EF17F0F6
:102E4C002EEF17F0C150F00B0E09C16E36EF17F0D4
:102E5C0005500F08046EC1500418F00B0418C16E15
:102E6C00CF0EC116C050C70B1009C06EC050F80B66
:102E7C000309C06EC08EC28094921200010E6EECDB
:102E8C0012F0020E0F6E860E0E6E990EE82EFED705
:102E9C000E2EFCD70F2EFAD700F0000E076E2E0E5A
:102EAC00086E080E096E010E05EC14F0000E076E8C
:102EBC00010E086E080E096E020E05EC14F053EFAD
:102ECC0017F0120020EE86F0050EDE6AE806FDE231
:102EDC00860E0001726F000E736F550E746F080E24
:102EEC00756F84C0D9FF85C0DAFFDECF76F0DDCFF9
:102EFC0077F0CDEC16F00A0E076E860E086E000EFB
:102F0C00096E020E05EC14F01200000E136E000E8A
:102F1C00126E9CEF17F011C004F0056A0FC006F09A
:102F2C0010C007F06BEC14F0124A132A12500D2447
:102F3C00D96E13500E20DA6EDF50116E1150D8A4DA
:102F4C00AAEF17F0ACEF17F091EF17F01200860E06
:102F5C00F66E310EF76E000EF86E00EEB8F010EE55
:102F6C0019F00900F5CFEEFFE550E150FAE100EE63
:102F7C008EF02A0EEE6AE806FDE15B6A5A6A596A1F
:102F8C00586A5C905C92000EF86E00012BEF16F004
:102F9C0017BEDBEF17F0175006E11604D8B0D9EFC7
:102FAC0017F0DBEF17F0E9EF17F016C018F017C0A9
:102FBC0019F0181E191E184A192A18C016F019C033
:102FCC0017F0EDEF17F016C016F017C017F012003F
:102FDC00076E07C006F006460646C2500618C30B1D
:102FEC000618C26E080E066ECA0EE82EFED7062E06
:102FFC00FCD7C282C2B205EF18F007EF18F000EF51
:10300C0018F0C3CF04F0C4CF05F01200D00E066E3A
:10301C00FF0E076E04C008F005C009F00650082624
:10302C000750092209500AE10A0E085CD8A021EFCA
:10303C0018F024EF18F0010E25EF18F0000E046EB6
:10304C00056A1200B80E0001846F000E856FF8EC53
:10305C000DF0B80E0001846F000E856F2AEC0CF099
:10306C00B90E0001846F000E856F68EC17F0EE0E40
:10307C000001CF6F300ED06F120004C006F005C0F7
:10308C0007F04BEF18F0044A052A04C0D9FF05C01D
:10309C00DAFFDF50D8A455EF18F057EF18F049EFCE
:1030AC0018F00650045C046E07500558056E1200AB
:1030BC000600F2AA64EF18F066EF18F075EF18F03E
:1030CC00F2A46BEF18F06DEF18F075EF18F0F294A6
:1030DC000A0E0001BB6F880ECF6F2E0ED06F5C9264
:1030EC001100BE0E046E000E056E35EC0BF00001E7
:1030FC00BE51D8B484EF18F086EF18F08AEF18F0B0
:10310C00010EBB6F000EBE6F1200B190B18EB1926A
:10311C00300EB112B184D59ED58CD58AD598D58672
:10312C009288F28AF294F184A192A292A082120067
:10313C0004500602F3CF08F0F4CF09F00450070254
:10314C00F350092605500602F350092608C004F076
:10315C0009C005F01200DDEC18F0E9EC15F0020ED8
:10316C001FEC17F08BEC18F0000E056EFA0E046EC7
:10317C00D0EC18F0D7EC18F0120000FF00000000A3
:10318C000000000000000000000000000000000033
:03319C0000EE3012
:1031A000010E0424D66E000E0520D76E1200500EBC
:1031B000B36E380EB26EB1801200D08EF28EF28CE9
:1031C0001200E6EC18F01200B1901200D58E120039
:0231D0001200EB
:020000040020DA
:08000000FFFFFFFFFFFFFFFF00
:020000040030CA
:0E000000000C191EFF8181FF0FC00FE00F40A2
:00000001FF
