:020000040000FA
:040000005EEF00F0BF
:060008005882CCED17F058
:100018005880D8CF04F0E8CF05F0E0CF06F0A0A2D2
:1000280018EF00F01AEF00F056EF00F0A1A21FEF52
:1000380000F021EF00F056EF00F0A1920001C02B74
:10004800050EC019D8A42BEF00F02DEF00F046EFF5
:1000580000F0C351D8B433EF00F035EF00F03EEFB5
:1000680000F0020EC319D8A43CEF00F03EEF00F0F8
:1000780046EF00F0000EC06FDA0ED76F300ED86F63
:1000880052EF00F0C305D8A44CEF00F04EEF00F09B
:1000980052EF00F0F00ED76F310ED86F500EB36EDE
:1000A800380EB26E06C0E0FF05C0E8FF04C0D8FFF6
:0800B800589010000BEF1BF043
:10080000005265636172676120506F726661766F36
:1008100072004320646520766163756E61733A00EF
:10082000543A253032642E25303264204300496E1C
:10083000666F726D6163696F6E4000436F6E6669CB
:10084000726D6163696F6E0053696E2076616375C6
:100850006E6173004269656E76656E69646F7300E0
:10086000416374697661646F40004261743A253077
:0F087000326400534943435600233A2564000085
:100880001C50800B256E1C501C242B6E1BAE4BEF96
:1008900004F04DEF04F04EEF04F02B802B50D8B451
:1008A00054EF04F056EF04F069EF04F02B28D8A4BD
:1008B0005CEF04F05EEF04F066EF04F0000E196EDA
:1008C000000E1A6E000E1B6E000E1C6E1B8E71EF5A
:1008D00004F0000E196E000E1A6E000E1B6E000E54
:1008E0001C6E2050800B251A205020242A6E1FAE2B
:1008F0007CEF04F07EEF04F07FEF04F02A802A50B2
:10090000D8B485EF04F087EF04F09AEF04F02A28BA
:10091000D8A48DEF04F08FEF04F097EF04F0000EF1
:100920001D6E000E1E6E000E1F6E000E206E1F8EBE
:10093000A2EF04F0000E1D6E000E1E6E000E1F6E64
:10094000000E206E2A50D8B4A8EF04F0AAEF04F0ED
:10095000B2EF04F02B50D8A4B0EF04F0B2EF04F0E3
:10096000BCEF04F0000E196E000E1A6E000E1B6E26
:10097000000E1C6E54EF06F01F501902F3CF30F03A
:10098000F4CF31F03050266E276A286A296A315038
:100990002C6E2D6A2E6A2F6A1E501A02F3CF30F089
:1009A000F4CF31F030502626000E272228222922AB
:1009B00031502C26000E2D222E222F221D501B02DC
:1009C000F3CF30F0F4CF31F030502626000E27223E
:1009D0002822292231502C26000E2D222E222F22B1
:1009E00028C029F027C028F026C027F0266A1D500D
:1009F0001A02F3CF30F0F4CF31F0305026263150C8
:100A00002722000E2822000E29221E501902F3CFA1
:100A100030F0F4CF31F03050262631502722000E2E
:100A20002822000E292228C029F027C028F026C03D
:100A300027F0266A1D501902F3CF30F0F4CF31F0C1
:100A40003050262631502722000E2822000E29225F
:100A50001F501A02F3CF30F0F4CF31F030502C2673
:100A600031502D22000E2E22000E2F221E501B026E
:100A7000F3CF30F0F4CF31F030502C2631502D220E
:100A8000000E2E22000E2F221F501B02F3CF30F03B
:100A9000F4CF31F03050216E3150226E236A246A37
:100AA00023C024F022C023F021C022F0216A21506B
:100AB0002C2622502D2223502E2224502F2226C0B5
:100AC00021F027C022F028C023F029C024F0190EFD
:100AD0006FEF05F0D8902432233222322132E82EF3
:100AE0006AEF05F021502C2622502D2223502E2271
:100AF00024502F2228C029F027C028F026C027F034
:100B0000266A2A502BC021F0226A2126000E2222BA
:100B1000820E2124306EFF0E2220316EA5EF05F0EB
:100B2000D8902C362D362E362F3629AE9AEF05F07A
:100B30009CEF05F09DEF05F02C80D89026362736E7
:100B4000283629363006D8A031062EAEAAEF05F099
:100B5000ACEF05F090EF05F0000E2A6E29AEB3EF72
:100B600005F0B5EF05F0D9EF05F0FF0E2614216E64
:100B7000FF0E2714226EFF0E2814236E7F0E2914F9
:100B8000246E2150221023102410D8B4CAEF05F08F
:100B9000CCEF05F0D0EF05F0010E2A6ED9EF05F08D
:100BA0002CA0D5EF05F0D7EF05F0D9EF05F0CCEF8D
:100BB00005F02A50D8B4DFEF05F0E1EF05F005EFBE
:100BC00006F0010E2C26000E2D222E222F222FA001
:100BD000ECEF05F0EEEF05F005EF06F02CC021F08C
:100BE0002DC022F02EC023F02FC024F02434243254
:100BF00023322232213221C02CF022C02DF023C01A
:100C00002EF024C02FF0304A312A31BE10EF06F00A
:100C1000315008E13028D8A010EF06F012EF06F0AE
:100C20001CEF06F0000E2C6E000E2D6E800E2E6E48
:100C30007F0E2F6E4AEF06F031BE29EF06F03150DD
:100C400006E13004D8B027EF06F029EF06F035EFC3
:100C500006F0000E2C6E000E2D6E000E2E6E000E95
:100C60002F6E000E256E4AEF06F030C02BF0FF0EFF
:100C70002C16FF0E2D167F0E2E16000E2F162BA0F3
:100C800044EF06F046EF06F047EF06F02E8ED890C0
:100C90002B302F6E25502F122CC019F02DC01AF0BA
:100CA0002EC01BF02FC01CF012003550800B426E7E
:100CB00035503524496E34AE60EF06F062EF06F031
:100CC00063EF06F049804950D8B469EF06F06BEF46
:100CD00006F080EF06F04928D8A471EF06F073EF14
:100CE00006F07BEF06F0000E326E000E336E000E43
:100CF000346E000E356E348E000E356E88EF06F0C1
:100D0000000E326E000E336E000E346E000E356E25
:100D10003950800B421A395039244A6E38AE93EF5D
:100D200006F095EF06F096EF06F04A804A50D8B4E8
:100D30009CEF06F09EEF06F0B3EF06F04A28D8A429
:100D4000A4EF06F0A6EF06F0AEEF06F0000E366E4A
:100D5000000E376E000E386E000E396E388E000EA3
:100D6000396EBBEF06F0000E366E000E376E000EC9
:100D7000386E000E396E3650371038103910D8A43E
:100D8000C4EF06F0C6EF06F0DEEF06F0000E326E9E
:100D9000000E336E000E346E000E356E800E34126F
:100DA0007F0E35124250351232C032F033C033F06C
:100DB00034C034F035C035F021EF08F04950D8A4E4
:100DC000E4EF06F0E6EF06F0F0EF06F0000E326E0C
:100DD000000E336E000E346E000E356E21EF08F0FB
:100DE0004A5049C03AF03B6A3A5E000E3B5A7F0EC9
:100DF0003A24436E000E3B20446E32C03EF033C0B6
:100E00003FF034C040F035C041F0000E326E000EAD
:100E1000336E000E346E000E356E000E456E000E01
:100E2000466E000E476E000E486E000E4A6E51EF81
:100E300007F04A50D8B41FEF07F021EF07F038EF62
:100E400007F0D8903E363F3640364136D89032369D
:100E500033363436353648AE30EF07F032EF07F030
:100E600033EF07F03280D89045364636473648365D
:100E700036503E5C37503F583850405839504158F2
:100E8000D8A045EF07F047EF07F050EF07F0488C88
:100E900036503E5E37503F5A3850405A3950415ACA
:100EA0004A2A190E4A6457EF07F059EF07F019EF75
:100EB00007F03E503F1040104110D8B462EF07F0E9
:100EC00064EF07F07CEF07F045807CEF07F0D890E7
:100ED000323633363436353648AE71EF07F073EFBD
:100EE00007F074EF07F03280D89045364636473623
:100EF00048364306D8A0440634AE81EF07F083EFAE
:100F000007F067EF07F0000E4A6E48AE8AEF07F071
:100F10008CEF07F0B0EF07F0FF0E45143A6EFF0EAE
:100F200046143B6EFF0E47143C6E7F0E48143D6E18
:100F30003A503B103C103D10D8B4A1EF07F0A3EF9E
:100F400007F0A7EF07F0010E4A6EB0EF07F032A0EE
:100F5000ACEF07F0AEEF07F0B0EF07F0A3EF07F04C
:100F60004A50D8B4B6EF07F0B8EF07F0DCEF07F05F
:100F7000010E3226000E33223422352235A0C3EF73
:100F800007F0C5EF07F0DCEF07F032C03AF033C0EE
:100F90003BF034C03CF035C03DF03D343D323C3296
:100FA0003B323A323AC032F03BC033F03CC034F00E
:100FB0003DC035F0434A442A44BEE7EF07F04450B1
:100FC00008E14328D8A0E7EF07F0E9EF07F0F4EFD6
:100FD00007F0000E446E4368000E326E000E336E52
:100FE000000E346E000E356E44BE01EF08F0445022
:100FF00006E14304D8B0FFEF07F001EF08F00FEF70
:1010000008F0000E446E000E436E000E326E000EAD
:10101000336E000E346E000E356E000E426E43C00D
:1010200049F049A016EF08F018EF08F01BEF08F0A0
:10103000348E1CEF08F0349ED8904930356ED2EFD4
:1010400006F0120048C0D9FF49C0DAFFDECFF6FF34
:10105000DDCFF7FF0800F550250AD8A432EF08F0DD
:1010600034EF08F0BCEF09F048C0D9FF49C0DAFFFF
:10107000DE2A000EDD22000E0001636F000E626F9B
:1010800062C055F063C056F053685468000E9D6FFF
:10109000000E9C6F92EF08F0558048C0D9FF49C000
:1010A000DAFFDE2A000EDD2292EF08F055824DEFC6
:1010B00008F055844DEF08F055864DEF08F055883F
:1010C0004DEF08F0000E9D6F010E9C6F92EF08F03F
:1010D00048C0D9FF49C0DAFFDECFF6FFDDCFF7FF0A
:1010E0000800F5504C6E4D6A4D50000AD8B47BEFA5
:1010F00008F062EF08F04C50200AD8B45CEF08F01A
:10110000030AD8B45FEF08F0080AD8B459EF08F022
:10111000060AD8B44CEF08F01D0AD8B456EF08F010
:1011200062EF08F09C519D11D8B499EF08F09BEF45
:1011300008F068EF08F055A0A0EF08F0A2EF08F063
:10114000A3EF08F0559248C0D9FF49C0DAFFDECFBF
:10115000F6FFDDCFF7FF0800F5502A0AD8A4B3EF59
:1011600008F0B5EF08F0DEEF08F048C0D9FF49C03D
:10117000DAFFDE2A000EDD224AC0D9FF4BC0DAFFBB
:10118000DFCF4CF0020EDE26DFCF4DF0000EDD2269
:101190004CC0D9FF4DC0DAFFDECF62F0DDCF63F087
:1011A00063BFD7EF08F0D5EF08F022EF09F05580C4
:1011B000626D631FD8B0632B22EF09F048C0D9FFDE
:1011C00049C0DAFFDECF0EF0DDCF0FF0E1EC0EF01C
:1011D0000EC062F00FC063F0F5EF08F048C0D9FF11
:1011E00049C0DAFFDE2A000EDD22D00E4C6EFF0E63
:1011F0004D6E48C0D9FF49C0DAFFDECFF6FFDDCF24
:10120000F7FF0800F5504E6E4F6A4C504E264D5079
:101210004F224F500AE10A0E4E5CD8A012EF09F09F
:1012200015EF09F0010E16EF09F0000E00019E6F98
:101230009F6B9E519F11D8A420EF09F022EF09F077
:10124000EEEF08F048C0D9FF49C0DAFFDECFF6FF65
:10125000DDCFF7FF0800F550640AD8B432EF09F08B
:1012600034EF09F046EF09F048C0D9FF49C0DAFF72
:10127000DECFF6FFDDCFF7FF0800F550690AD8A4EE
:1012800044EF09F046EF09F086EF09F048C0D9FFB6
:1012900049C0DAFFDE2A000EDD224AC0D9FF4BC06A
:1012A000DAFFDFCF4CF0020EDE26DFCF4DF0000E6E
:1012B000DD224CC0D9FF4DC0DAFFDECF94F0DDCF88
:1012C00095F0000E95BFFF0E966F976F986F996F10
:1012D0009A6F9B6F46C022F047C023F094C024F061
:1012E00095C025F096C026F097C027F098C028F04A
:1012F00099C029F09AC02AF09BC02BF0D8EC09F0D5
:1013000022C046F023C047F0D7EF09F048C0D9FF0C
:1013100049C0DAFFDECFF6FFDDCFF7FF0800F5505A
:10132000250AD8A496EF09F098EF09F0AFEF09F07D
:1013300048C0D9FF49C0DAFFDE2A000EDD22000EC8
:10134000086E250E076E46C009F047C00AF09FECF4
:1013500015F0000E476E010E466ED7EF09F048C03B
:10136000D9FF49C0DAFFDE2A000EDD22000E476EEB
:10137000000E466ED7EF09F048C0D9FF49C0DAFF2A
:10138000DECFF6FFDDCFF7FF0800F550076E086AE5
:1013900046C009F047C00AF09FEC15F048C0D9FFDD
:1013A00049C0DAFFDE2A000EDD22A9EF09F01200A3
:1013B00024C03CF025C03DF026C03EF027C03FF0E1
:1013C00028C040F029C041F02AC042F02BC043F0B1
:1013D00043BEEDEF09F0F0EF09F0010EF1EF09F077
:1013E000000E3A6E3B6A3A503B10D8B4FAEF09F05F
:1013F000FCEF09F00CEF0AF0431E421E411E401E96
:101400003F1E3E1E3D1E3C6C000E3D223E223F22F2
:10141000402241224222432254BE11EF0AF013EF30
:101420000AF014EF0AF0559254BE21EF0AF054501E
:1014300006E15304D8B01FEF0AF021EF0AF027EFBE
:101440000AF0000E376E010E366E2BEF0AF053C015
:1014500036F054C037F062C038F063C039F03A500B
:101460003B10D8A436EF0AF038EF0AF03FEF0AF04D
:1014700055A43DEF0AF03FEF0AF042EF0AF03806BC
:10148000D8A03906000E456E1F0E446E000E0001F6
:10149000836FC7EF0AF04406D8A04506640E4424C3
:1014A000D96E000E4520DA6E3CC007F03DC008F052
:1014B0003EC009F03FC00AF040C00BF041C00CF044
:1014C00042C00DF043C00EF00A0E0F6E000E106EFB
:1014D000000E116E000E126E000E136E000E146ED2
:1014E000000E156E000E166E28EC11F007C02CF0E1
:1014F00008C02DF009C02EF00AC02FF00BC030F04C
:101500000CC031F00DC032F00EC033F02CC019F019
:101510002EC01AF04FEC1BF01950300FDF6E36065C
:10152000D8A037063806D8A039063CC007F03DC021
:1015300008F03EC009F03FC00AF040C00BF041C0C7
:101540000CF042C00DF043C00EF00A0E0F6E000EFC
:10155000106E000E116E000E126E000E136E000E55
:10156000146E000E156E000E166EA9EC0FF007C07B
:101570003CF008C03DF009C03EF00AC03FF00BC08F
:1015800040F00CC041F00DC042F00EC043F045BE2B
:10159000D2EF0AF0455008E14404D8A0D2EF0AF097
:1015A000D4EF0AF004EF0BF03C503D103E103F101A
:1015B0004010411042104310D8A4E1EF0AF0E3EFCD
:1015C0000AF04BEF0AF037BEF0EF0AF0375006E1B1
:1015D0003604D8B0EEEF0AF0F0EF0AF04BEF0AF065
:1015E00039BEFBEF0AF0395008E13804D8A0FBEF10
:1015F0000AF0FDEF0AF004EF0BF055B202EF0BF02A
:1016000004EF0BF04BEF0AF03A503B10D8A40BEF6D
:101610000BF00DEF0BF014EF0BF055A412EF0BF0E5
:1016200014EF0BF032EF0BF04406D8A045063A5009
:101630003B10D8A41EEF0BF020EF0BF026EF0BF0C1
:10164000000E356E2B0E346E2AEF0BF0000E356E49
:101650002D0E346E640E4424D96E000E4520DA6ED1
:1016600034C0DFFF22C017F023C018F0640E4424FA
:10167000196E000E45201A6E38C01BF039C01CF0E0
:1016800004EC16F017C022F018C023F0120007C0B7
:10169000D9FF08C0DAFF000EDF6EF00E816EF00E8B
:1016A0008118D8B456EF0BF058EF0BF030EF0CF078
:1016B000FE0E816E81B85FEF0BF061EF0BF067EF0C
:1016C0000BF007C0D9FF08C0DAFF2A0EDF6E81BA1F
:1016D0006CEF0BF06EEF0BF074EF0BF007C0D9FF5F
:1016E00008C0DAFF300EDF6E81BC79EF0BF07BEFC4
:1016F0000BF081EF0BF007C0D9FF08C0DAFF230E13
:10170000DF6E81BE86EF0BF088EF0BF08EEF0BF0F3
:1017100007C0D9FF08C0DAFF440EDF6EFD0E816EF0
:1017200081B895EF0BF097EF0BF09DEF0BF007C032
:10173000D9FF08C0DAFF370EDF6E81BAA2EF0BF0D7
:10174000A4EF0BF0AAEF0BF007C0D9FF08C0DAFF37
:10175000380EDF6E81BCAFEF0BF0B1EF0BF0B7EFDF
:101760000BF007C0D9FF08C0DAFF390EDF6E81BE6B
:10177000BCEF0BF0BEEF0BF0C4EF0BF007C0D9FFCE
:1017800008C0DAFF430EDF6EFB0E816E81B8CBEF2F
:101790000BF0CDEF0BF0D3EF0BF007C0D9FF08C073
:1017A000DAFF340EDF6E81BAD8EF0BF0DAEF0BF010
:1017B000E0EF0BF007C0D9FF08C0DAFF350EDF6E8F
:1017C00081BCE5EF0BF0E7EF0BF0EDEF0BF007C09E
:1017D000D9FF08C0DAFF360EDF6E81BEF2EF0BF0E4
:1017E000F4EF0BF0FAEF0BF007C0D9FF08C0DAFFF7
:1017F000420EDF6EF70E816E81B801EF0CF003EF41
:101800000CF009EF0CF007C0D9FF08C0DAFF310E69
:10181000DF6E81BA0EEF0CF010EF0CF016EF0CF04B
:1018200007C0D9FF08C0DAFF320EDF6E81BC1BEFA4
:101830000CF01DEF0CF023EF0CF007C0D9FF08C02F
:10184000DAFF330EDF6E81BE28EF0CF02AEF0CF0CA
:1018500030EF0CF007C0D9FF08C0DAFF410EDF6E91
:10186000F00E816EF00E8118D8A439EF0CF03BEF2A
:101870000CF032EF0CF01200070E0001B825076ED5
:10188000000EB921086E000E0A6E000E096E000EE1
:101890000C6E100E0B6E6DEC10F0010E6FEC1BF069
:1018A000000120EE04F0B851D926B951DA2207C060
:1018B000DEFF08C0DDFF000E366E000E376E800EB4
:1018C000386E440E396E000E1D6E000E1E6EA00E98
:1018D0001F6E400E206E20EE04F0B851D926B9518B
:1018E000DA22DECFBAF0DDCFBBF0BAC00BF0BBC05E
:1018F0000CF00D6A0E6A000E30EC0DF00BC019F002
:101900000CC01AF00DC01BF00EC01CF040EC04F02F
:1019100019C032F01AC033F01BC034F01CC035F0CF
:1019200055EC06F032C0BCF033C0BDF034C0BEF0A0
:1019300035C0BFF0000E1D6E000E1E6EC80E1F6E6D
:10194000420E206EBCC019F0BDC01AF0BEC01BF024
:10195000BFC01CF040EC04F019C04BF01AC04CF0B2
:101960001BC04DF01CC04EF036EC14F0000120EE10
:1019700004F0B851D926B951DA224BC0DEFF4CC071
:10198000DDFF000E366E000E376EFA0E386E430E17
:10199000396E000E1D6E000E1E6EC80E1F6E420EBA
:1019A000206E20EE04F0B851D926B951DA22DECFEC
:1019B000BAF0DDCFBBF0BAC00BF0BBC00CF00D6AC3
:1019C0000E6A000E30EC0DF00BC019F00CC01AF0CE
:1019D0000DC01BF00EC01CF040EC04F019C032F03A
:1019E0001AC033F01BC034F01CC035F055EC06F0C3
:1019F00032C04BF033C04CF034C04DF035C04EF027
:101A000036EC14F0000120EE04F0B851D926B9519B
:101A1000DA224BC0DEFF4CC0DDFF070EB825A66FF3
:101A2000000EB921A76F6A0EA86F080EA96F20EEED
:101A300004F0B851D926B951DA22DECFAAF0DDCFB1
:101A4000ABF028EC1AF0000E0A6E070E0001B82564
:101A50000B6E000EB9210C6E020E39EC15F012005F
:101A6000136E1350D8B437EF0DF039EF0DF05BEF74
:101A70000DF00EBE40EF0DF03EEF0DF05BEF0DF000
:101A80000BC00FF00CC010F00DC011F00EC012F022
:101A90000F1E101E111E121E0F2A000E10221122E0
:101AA00012220FC015F010C016F011C017F012C0AE
:101AB00018F063EF0DF00BC015F00CC016F00DC060
:101AC00017F00EC018F00B500C100D100E10D8A40B
:101AD0006CEF0DF06EEF0DF078EF0DF0000E0B6E69
:101AE000000E0C6E000E0D6E000E0E6E09EF0EF065
:101AF000960E146E82EF0DF0142AD8901832173219
:101B000016321532000E15140F6E000E1614106EDC
:101B1000000E1714116EFE0E1814126E0F501010D6
:101B200011101210D8A497EF0DF099EF0DF07CEF83
:101B30000DF0A7EF0DF0142A010E1526000E162247
:101B400017221822D8901832173216321532000E8A
:101B500015140F6E000E1614106E000E1714116E71
:101B6000FF0E1814126E0F50101011101210D8A47E
:101B7000BCEF0DF0BEEF0DF09BEF0DF0C6EF0DF0DA
:101B80001406D890153616361736183617BECBEF12
:101B90000DF0CDEF0DF0D5EF0DF0020E1460D3EF88
:101BA0000DF0D5EF0DF0C0EF0DF014B0DAEF0DF041
:101BB000DCEF0DF0DDEF0DF0179ED890143214C05D
:101BC0000FF0106A116A126A0FC012F0116A106ADF
:101BD0000F6A0F5015121050161211501712125092
:101BE00018121350D8B4F7EF0DF0F9EF0DF001EF24
:101BF0000EF00EBE00EF0EF0FEEF0DF001EF0EF056
:101C0000188E15C00BF016C00CF017C00DF018C0E0
:101C10000EF01200070E0001B825076E000EB92164
:101C2000086E000E0A6E000E096E000E0C6E100E8D
:101C30000B6E6DEC10F0000E6FEC1BF007C00BF09C
:101C400008C00CF00D6A0E6A000E30EC0DF00BC0EF
:101C5000BAF00CC0BBF00DC0BCF00EC0BDF0F60E6B
:101C60001D6E280E1E6E9C0E1F6E400E206EBAC09A
:101C700019F0BBC01AF0BCC01BF0BDC01CF040EC9A
:101C800004F019C032F01AC033F01BC034F01CC08D
:101C900035F0000E366E000E376E200E386E410E97
:101CA000396E55EC06F032C0BAF033C0BBF034C028
:101CB000BCF035C0BDF0070E0001B825A66F000EC0
:101CC000B921A76F200EA86F080EA96FBAC04BF0FC
:101CD000BBC04CF0BCC04DF0BDC04EF036EC14F0B3
:101CE0004B500001AA6FAB6B000E1D6E000E1E6EF6
:101CF000C80E1F6E420E206EBAC019F0BBC01AF09B
:101D0000BCC01BF0BDC01CF040EC04F019C04BF08F
:101D10001AC04CF01BC04DF01CC04EF036EC14F055
:101D20004B500001966F976B000E996F640E986F81
:101D300021EC17F000019651AC6FAD6B28EC1AF056
:101D4000000E0A6E070E0001B8250B6E000EB921B9
:101D50000C6E010E39EC15F0BAC04BF0BBC04CF064
:101D6000BCC04DF0BDC04EF036EC14F04CBEC4EF1C
:101D70000EF04C5007E1020E4B5CD8B0C2EF0EF0F3
:101D8000C4EF0EF0C7EF0EF08B92E0EF0EF0BAC08A
:101D90004BF0BBC04CF0BCC04DF0BDC04EF036ECBB
:101DA00014F04CBEDDEF0EF04C5009E1070E4B5C19
:101DB000D8A0DDEF0EF0DFEF0EF0E0EF0EF08B823B
:101DC0001200000E1C6E000E1B6E000E156E000E33
:101DD000146EEDEF0EF00E4A0F2A010E1A6E0EC0B1
:101DE000F6FF0FC0F7FF0800F550200AD8B4FBEF4C
:101DF0000EF0FDEF0EF01AEF0FF0F70E106EFF0E63
:101E0000116E0EC0F6FF0FC0F7FF0800F550126EFE
:101E1000136A1050122611501322135009E1050EB7
:101E2000125CD8A016EF0FF018EF0FF01AEF0FF0BA
:101E3000000E1A6E1AC016F0176A16501710D8A4A2
:101E400024EF0FF026EF0FF0EBEF0EF030EF0FF076
:101E5000000E156E010E146E0E4A0F2A65EF0FF07C
:101E60000EC0F6FF0FC0F7FF0800F550106E116AA4
:101E70001150000AD8B43FEF0FF065EF0FF010508B
:101E80002B0AD8B42CEF0FF0060AD8B428EF0FF0C5
:101E900065EF0FF01BC007F01CC008F0000E0A6EC3
:101EA0000A0E096E0AEC1CF00EC0F6FF0FC0F7FF19
:101EB0000800F550075E000E085A300E07241B6E0E
:101EC000000E08201C6E2CEF0FF0D00E106EFF0ECF
:101ED000116E0EC0F6FF0FC0F7FF0800F550126E2E
:101EE000136A105012261150132213500AE10A0EE1
:101EF000125CD8A07EEF0FF081EF0FF0010E82EFA1
:101F00000FF0000E186E196A18501910D8A48BEF34
:101F10000FF08DEF0FF04AEF0FF014501510D8A40A
:101F200094EF0FF096EF0FF0A4EF0FF01BC010F03E
:101F30001CC011F0101E111E104A112A10C00EF004
:101F400011C00FF0A8EF0FF01BC00EF01CC00FF077
:101F50001200000E186E16BEB2EF0FF0B0EF0FF0C9
:101F6000C4EF0FF0161E151E141E131E121E111E96
:101F7000101E0F6C000E10221122122213221422A6
:101F800015221622010E186E0EBECBEF0FF0C9EF10
:101F90000FF0DDEF0FF00E1E0D1E0C1E0B1E0A1EA5
:101FA000091E081E076C000E082209220A220B22B5
:101FB0000C220D220E22010E181A20EE19F0070E27
:101FC000DE6AE806FDE20F50101011101210131017
:101FD000141015101610D8B4F0EF0FF0F2EF0FF048
:101FE00044EF10F0010E176E00EF10F0D8900F368E
:101FF0001036113612361336143615361636172AA1
:1020000016AE05EF10F007EF10F0F6EF0FF0D890D6
:1020100019361A361B361C361D361E361F3620362C
:102020000F50075C105008581150095812500A58A8
:1020300013500B5814500C5815500D5816500E587C
:10204000D8A025EF10F027EF10F038EF10F00F5068
:10205000075E1050085A1150095A12500A5A13506C
:102060000B5A14500C5A15500D5A16500E5A19800E
:10207000D890163215321432133212321132103215
:102080000F32172E07EF10F01850D8B44AEF10F0A7
:102090004CEF10F05CEF10F0201E1F1E1E1E1D1EC8
:1020A0001C1E1B1E1A1E196C000E1A221B221C223B
:1020B0001D221E221F22202219C007F01AC008F07C
:1020C0001BC009F01CC00AF01DC00BF01EC00CF0B4
:1020D0001FC00DF020C00EF0120007C011F008C0A4
:1020E00012F00B500C10D8A478EF10F07AEF10F02B
:1020F0007CEF10F027EF11F011C0D9FF12C0DAFF0A
:1021000009C0DFFF0B5011240D6E0C5012200E6E13
:10211000FF0E0D24D96EFF0E0E20DA6E09C0DFFF10
:102120000C5007E1030E0B5CD8B099EF10F09BEF59
:1021300010F09DEF10F027EF11F020EE01F011509C
:10214000D9261250DA2209C0DFFF20EE02F011502A
:10215000D9261250DA2209C0DFFF0B5011240D6E70
:102160000C5012200E6EFE0E0D24D96EFF0E0E20A6
:10217000DA6E09C0DFFF0B5011240D6E0C501220D7
:102180000E6EFD0E0D24D96EFF0E0E20DA6E09C004
:10219000DFFF0C5007E1070E0B5CD8B0D2EF10F058
:1021A000D4EF10F0D6EF10F027EF11F020EE03F08F
:1021B0001150D9261250DA2209C0DFFF0B5011242A
:1021C0000D6E0C5012200E6EFC0E0D24D96EFF0EFB
:1021D0000E20DA6E09C0DFFF0C5007E1090E0B5C20
:1021E000D8B0F5EF10F0F7EF10F0F9EF10F027EF9F
:1021F00011F011C00DF012C00EF00D1E0E1E0D4A92
:102200000E2A030E0D140F6E106A0F501126105077
:1022100012220F500B5E10500C5AFC0E0B16FF0EC4
:102220000C161EEF11F011C0D9FF12C0DAFF09C061
:10223000DFFF0B06D8A00C06114A122A0B500C1017
:10224000D8A425EF11F027EF11F013EF11F01200D1
:10225000000E186E0EBE31EF11F02FEF11F043EFAC
:1022600011F00E1E0D1E0C1E0B1E0A1E091E081E4E
:10227000076C000E082209220A220B220C220D22D2
:102280000E22010E186E16BE4AEF11F048EF11F043
:102290005AEF11F0161E151E141E131E121E111ECB
:1022A000101E0F6C000E1022112212221322142273
:1022B000152216220F5010101110121013101410A6
:1022C00015101610D8B467EF11F069EF11F0B1EFE7
:1022D00011F0010E176E77EF11F0D8900F3610360F
:1022E000113612361336143615361636172A16AE30
:1022F0007CEF11F07EEF11F06DEF11F00F50075CE5
:10230000105008581150095812500A5813500B58C1
:1023100014500C5815500D5816500E58D8A093EF65
:1023200011F095EF11F0A5EF11F00F50075E10506E
:10233000085A1150095A12500A5A13500B5A145085
:102340000C5A15500D5A16500E5AD8901632153296
:10235000143213321232113210320F32172E7EEF36
:1023600011F01850D8B4B7EF11F0B9EF11F0C9EF70
:1023700011F00E1E0D1E0C1E0B1E0A1E091E081E3D
:10238000076C000E082209220A220B220C220D22C1
:102390000E2207C007F008C008F009C009F00AC003
:1023A0000AF00BC00BF00CC00CF00DC00DF00EC00D
:1023B0000EF01200096E8C968C8409C007F0070E8F
:1023C000086E07340732082EE1EF11F0010E0716F0
:1023D000073207328C5007187F0B07188C6E09C024
:1023E00007F0060E086E07340732082EF3EF11F0DF
:1023F000010E0716073A074607468C500718BF0B11
:1024000007188C6E09C007F0050E086E07340732F6
:10241000082E06EF12F0010E0716073A07468C50F9
:102420000718DF0B07188C6E09C007F0040E086E42
:1024300007340732082E18EF12F0010E0716073A7C
:102440008C500718EF0B07188C6E030EE82EFED782
:1024500000F08C86050EE82EFED78C9609C007F09A
:10246000030E086E07340732082E32EF12F0010E09
:102470000716073207328C5007187F0B07188C6E2F
:1024800009C007F00734073207340732010E071678
:10249000073A074607468C500718BF0B07188C6E83
:1024A00009C007F0010E086E07340732082E54EFFA
:1024B00012F0010E0716073A07468C500718DF0B7B
:1024C00007188C6E09C007F0010E0716073A8C50EA
:1024D0000718EF0B07188C6E030EE82EFED700F0DE
:1024E0008C86050EE82EFED78C96050EE82EFED7BC
:1024F000160E076E6C0EE82EFED7072EFCD700D006
:102500001200096E8C968C94076A09AE01D0072AD6
:10251000010E0716073207328C5007187F0B071879
:102520008C6E09C007F0060E086ED8900732082E90
:1025300095EF12F0010E0716073A074607468C5032
:102540000718BF0B07188C6E09C007F0050E086E40
:10255000D8900732082EA8EF12F0010E0716073A9E
:1025600007468C500718DF0B07188C6E09C007F060
:10257000073A0F0E0716010E0716073A8C50071878
:10258000EF0B07188C6E030EE82EFED700F08C863A
:10259000050EE82EFED78C9609C007F0D8900732BA
:1025A000D8900732D8900732010E0716073207324B
:1025B0008C5007187F0B07188C6E09C007F0D89055
:1025C0000732D8900732010E0716073A074607462A
:1025D0008C500718BF0B07188C6E09C007F0D890F5
:1025E0000732010E0716073A07468C500718DF0B13
:1025F00007188C6E09C007F0010E0716073A8C50B9
:102600000718EF0B07188C6E030EE82EFED700F0AC
:102610008C86050EE82EFED78C96160E076E6C0E75
:10262000E82EFED7072EFCD700D01200010E81EC59
:1026300012F0020E146E860E136E990EE82EFED75F
:10264000132EFCD7142EFAD700F0000E0A6E840E5B
:102650000B6E000E0C6E010E39EC15F0840E076E39
:10266000000E086E2E0E096E080E0A6E000E0C6E1D
:102670000C0E0B6E1EEC18F007500810D8A443EF98
:1026800013F045EF13F06CEF13F0840E076E000E9D
:10269000086E000E0A6E000E096E000E0C6E080E1B
:1026A0000B6E6DEC10F09D8A0A0E0001C36F8A0E4E
:1026B000D76F2D0ED86F010E81EC12F0020E146E42
:1026C000860E136E990EE82EFED7132EFCD7142E0D
:1026D000FAD700F0A7EF13F0840E076E000E086E15
:1026E000600E096E080E0A6E000E0C6E090E0B6E5F
:1026F0001EEC18F007500810D8A481EF13F083EFF8
:1027000013F0A7EF13F0010E81EC12F0020E146E1D
:10271000860E136E990EE82EFED7132EFCD7142EBC
:10272000FAD700F0840E076E000E086E000E0A6ED7
:10273000000E096E000E0C6E080E0B6E6DEC10F0A4
:10274000000E0001C36FDA0ED76F300ED86F120083
:102750000A6E0AC0CCFFCB689E92B8EF13F08D8052
:10276000D1EF13F08D82D1EF13F08D84D1EF13F000
:102770000750086E096A0950000AD8B4C2EF13F076
:10278000D1EF13F00850000AD8B4AFEF13F0010AEC
:10279000D8B4B2EF13F0030AD8B4B5EF13F0D1EF09
:1027A00013F02D0E0A18D8A4D8EF13F0DAEF13F0B7
:1027B000E3EF13F0080E086ECA0EE82EFED7082EBF
:1027C000FCD707EF14F0210E0A18D8A4EAEF13F093
:1027D000ECEF13F0F6EF13F0040E086EE40EE82EA3
:1027E000FED7082EFCD700D007EF14F0270E0A18EA
:1027F000D8A4FDEF13F0FFEF13F007EF14F0060E6F
:10280000086ED70EE82EFED7082EFCD700F0CA843B
:102810002CEF14F08D902CEF14F08D922CEF14F01F
:102820008D942CEF14F00750086E096A0950000AC5
:10283000D8B41DEF14F02CEF14F00850000AD8B4EF
:102840000AEF14F0010AD8B40DEF14F0030AD8B45B
:1028500010EF14F02CEF14F09EA231EF14F033EFD0
:1028600014F013EF14F0CA949E9212004D344E34BB
:102870000001956F9551D8A440EF14F042EF14F089
:102880004CEF14F0000E4B6E000E4C6E000E4D6EB1
:10289000000E4E6EB9EF14F04BC04FF04CC050F02C
:1028A0004DC051F04EC052F0200E5CEF14F0D890A5
:1028B0005232513250324F32E82E57EF14F04F500F
:1028C000946F4D8EFF0E4B16FF0E4C16FF0E4D16DD
:1028D000000E4E16960E955F95BF73EF14F071EFD4
:1028E00014F089EF14F09551800A970FD8B07BEF60
:1028F00014F07DEF14F07FEF14F042EF14F0D89055
:102900004E324D324C324B32953F7FEF14F0A1EFF7
:1029100014F01F0E95658FEF14F091EF14F099EFFE
:1029200014F042EF14F0D8904B364C364D364E36FC
:1029300095079551D8A49FEF14F0A1EF14F093EFF1
:1029400014F09451D8B4A7EF14F0A9EF14F0B1EF3C
:1029500014F04E1E4D1E4C1E4B6C000E4C224D2290
:102960004E224BC04BF04CC04CF04DC04DF04EC011
:102970004EF01200000E0001BB6F000EBA6F000E89
:10298000BC6F070EB825076E000EB921086E000E49
:102990000A6E000E096E000E0C6E100E0B6E6DECC2
:1029A00010F0000E0A6E120E0B6E080E0C6E010E69
:1029B00039EC15F024EF15F0BC0E076E000E086E12
:1029C00047EC0BF02F0E0001BC65E9EF14F0EBEFC4
:1029D00014F008EF15F03A0EBC61F1EF14F0F3EFCC
:1029E00014F008EF15F0BAC007F0BBC008F0000EF5
:1029F0000A6E0A0E096E0AEC1CF00001BC51072693
:102A0000000E0822D00E0724BA6FFF0E0820BB6FFD
:102A1000070EB825A66F000EB921A76F7B0EA86F11
:102A2000080EA96FBAC0AAF0BBC0ABF028EC1AF030
:102A3000000E0A6E070E0001B8250B6E000EB921BC
:102A40000C6E020E39EC15F02A0E0001BC19D8A448
:102A50002CEF15F02EEF15F0DCEF14F020EE01F066
:102A6000B851D926B951DA22BA51DE26BB51DD223E
:102A700012000F6E50EF15F00A50800F106E6DEFC0
:102A800015F00A50C00F106E6DEF15F00A50940F3C
:102A9000106E6DEF15F00A50D40F106E6DEF15F03B
:102AA0000F500D6E0E6A0E50000AD8B45AEF15F092
:102AB0006DEF15F00D50010AD8B43CEF15F0030A84
:102AC000D8B441EF15F0010AD8B446EF15F0070A63
:102AD000D8B44BEF15F06DEF15F0105081EC12F0FB
:102AE00086EF15F00BC0F6FF0CC0F7FFF86A070E73
:102AF000F76403D00800F55005D0F6CFE1FFF7CF1B
:102B0000E2FFE750DAEC11F00B4A0C2A0BC0F6FF9B
:102B10000CC0F7FFF86A070EF76403D00800F55001
:102B200005D0F6CFE1FFF7CFE2FFE7500009D8A4C8
:102B30009CEF15F09EEF15F072EF15F012000950A2
:102B40000A10D8B4A6EF15F0A8EF15F0B1EF15F004
:102B500009500A10D8A4AFEF15F0B1EF15F0B6EF99
:102B600015F0075056EC1CF003EF16F020EE04F0C1
:102B70000950D9260A50DA22DE50DE10D8B4C3EF4D
:102B800015F0C5EF15F0E0EF15F020EE04F0095058
:102B9000D9260A50DA2210EE02F00950E1260A5036
:102BA000E222DE50E65CE650800A0F6EDE50800ABC
:102BB0000F58D8B0DEEF15F0E0EF15F003EF16F088
:102BC00020EE02F00950D9260A50DA22DECF0BF0AF
:102BD000DDCF0CF009C0D9FF0AC0DAFFDECF0DF05F
:102BE000DDCF0EF00B500D24D96E0C500E20DA6E96
:102BF00007C0DFFF20EE02F00950D9260A50DA2282
:102C0000DE2A000EDD22120055A009EF16F00BEFB0
:102C100016F015EF16F019C010F01AC011F017C019
:102C200012F018C013F02DEC1BF01CBE1AEF16F0BA
:102C30001CEF16F022EF16F01BC020F01CC021F094
:102C400026EF16F0000E216E000E206E000E1F6E95
:102C5000000E1E6E38EF16F0000E086E200E076E86
:102C600017C009F018C00AF09FEC15F01E4A1F2A81
:102C700020501E5C1F50800A1D6E2150800A1D5876
:102C8000D8A045EF16F047EF16F02CEF16F055B030
:102C90004CEF16F04EEF16F058EF16F019C010F08A
:102CA0001AC011F017C012F018C013F02DEC1BF071
:102CB00019C007F01AC008F0A9EC1BF02050072437
:102CC000176E21500820186E1200959E959C959ABB
:102CD000959895969594850E0A6E760EE82EFED7F9
:102CE0000A2EFCD700D0000E0B6E8C9E8C9C8C8A1A
:102CF0008C888C968C948C9E8C9C8C8A8C888C86F0
:102D00008C94050EE82EFED78C9E8C9C8C8A8C8829
:102D10008C968C94160E0A6E6C0EE82EFED70A2E38
:102D2000FCD700D00B2A030E0B6499EF16F09BEF33
:102D300016F075EF16F08C9E8C9C8C8A8C988C9675
:102D40008C948C9E8C9C8C8A8C988C868C94050E92
:102D5000E82EFED78C9E8C9C8C8A8C988C968C94BA
:102D6000160E0A6E6C0EE82EFED70A2EFCD700D087
:102D7000280E81EC12F0100E81EC12F0010E81ECA5
:102D800012F00F0E81EC12F01200C00E0001B86FAD
:102D9000000EB96F0AEC0EF0C00E0B6E000E0C6E3A
:102DA0009AEC19F0C00E0001B86F000EB96F3CEC40
:102DB0000CF0C00E0B6E000E0C6E9AEC19F0C00EEB
:102DC0000001B86F000EB96F67EC19F0C00E0B6E02
:102DD000000E0C6E9AEC19F0C70E076E000E086E0E
:102DE000000E0A6E000E096E000E0C6E100E0B6EB9
:102DF0006DEC10F0C70E0001A66F000EA76F390E24
:102E0000A86F080EA96F28EC1AF0C00E0B6E000E0A
:102E10000C6E9AEC19F0C70E076E000E086E000ECD
:102E20000A6E000E096E000E0C6E100E0B6E6DEC2D
:102E300010F0000E0001C36F880ED76F350ED86FEB
:102E40001200000E00019B6F97BF2BEF17F029EFC8
:102E500017F031EF17F0966D971FD8B0972B010E32
:102E60009B6F99BF38EF17F036EF17F03CEF17F074
:102E7000986D991FD8B0992B98519911D8B443EFF8
:102E800017F045EF17F069EF17F0010E9A6F4DEF4D
:102E900017F0D890983799379A2B99AF52EF17F0CF
:102EA00054EF17F049EF17F09851965D99519759E3
:102EB000D8A05DEF17F05FEF17F063EF17F09851B0
:102EC000965F9951975BD890993398339A2F54EF26
:102ED00017F09B51D8B46FEF17F071EF17F075EF43
:102EE00017F0966D971FD8B0972B96C096F097C0A5
:102EF00097F01200000E0F6E000E106E000E116E95
:102F0000000E126E0B500C100D100E10D8B48BEF7B
:102F100017F08DEF17F0C3EF17F0010E136E97EF58
:102F200017F0D8900B360C360D360E36132A0EAE2F
:102F30009CEF17F09EEF17F091EF17F0D8900F3637
:102F40001036113612360B50075C0C5008580D50D5
:102F500009580E500A58D8A0B0EF17F0B2EF17F08A
:102F6000BBEF17F00B50075E0C50085A0D50095A72
:102F70000E500A5A0F80D8900E320D320C320B329E
:102F8000132E9EEF17F00FC007F010C008F011C00D
:102F900009F012C00AF012000600D9CF02F0DACF11
:102FA00003F0F2AAD6EF17F0D8EF17F0E7EF17F01B
:102FB000F2A4DDEF17F0DFEF17F0E7EF17F0F29470
:102FC0000A0E0001C36F600ED76F320ED86F9EAA33
:102FD000ECEF17F0EEEF17F018EF18F09DAAF3EFF3
:102FE00017F0F5EF17F018EF18F0840E5724D96E8C
:102FF000DA6A000EDA22AECFDFFF840E5724D96ED4
:10300000DA6A000EDA22400EDE18D8B40AEF18F0A1
:103010000CEF18F00FEF18F0572A18EF18F0040E05
:103020000001C36F2C0ED76F260ED86F000E576E9F
:1030300003C0DAFF02C0D9FF5892110007C00EF09A
:1030400008C00FF009C010F00AC011F02FEF18F0FF
:103050000B06D8A00C060E4A0F2A104A112A0B5054
:103060000C10D8B436EF18F038EF18F04CEF18F019
:103070000EC0D9FF0FC0DAFFDF500D6E10C0F6FF93
:1030800011C0F7FF0800F5500D18D8B44AEF18F03A
:103090004CEF18F028EF18F00B500C10D8A453EF99
:1030A00018F055EF18F05BEF18F0000E086E000EE8
:1030B000076E6CEF18F00EC0D9FF0FC0DAFFDF50BB
:1030C0000D6E10C0F6FF11C0F7FF0800F5500D5C43
:1030D000076E086AD8A008061200C00E0001B86F7B
:1030E000000EB96F0AEC0EF0C00E0001B86F000EB2
:1030F000B96F3CEC0CF0C00E0001B86F000EB96F58
:1031000067EC19F0020E0001C319D8A48AEF18F079
:103110008CEF18F0B0EF18F0D650C11907E1D75076
:10312000C219D8A496EF18F098EF18F0B0EF18F085
:10313000D6CFC1F0D7CFC2F050EC1CF0000E00018A
:10314000C36F0A0E0B6E020E0C6E210EF5EC1BF017
:10315000899A0A0E0B6E000E0C6E2D0EF5EC1BF00C
:10316000880E0001D76F350ED86F120065EC16F08F
:10317000010E81EC12F00C0E81EC12F0020E126EB8
:10318000860E116E990EE82EFED7112EFCD7122E48
:10319000FAD700F0030E0A6E540E0B6E080E0C6E7A
:1031A000010E39EC15F0060E0A6E730E0B6E080E4A
:1031B0000C6E020E39EC15F01F0E126E710E116EB0
:1031C0001E0EE82EFED7112EFCD7122EFAD700D0F5
:1031D000010E81EC12F0020E126E860E116E990E27
:1031E000E82EFED7112EFCD7122EFAD700F01200CF
:1031F000020E0001C36F52EC1CF0010E81EC12F0C4
:10320000020E0001BE6F860EBD6F990EE82EFED72E
:10321000BD2FFCD7BE2FFAD7C00E0001B86F000E2D
:10322000B96FBAEC14F0010E81EC12F0020E00013D
:10323000BE6F860EBD6F990EE82EFED7BD2FFCD750
:10324000BE2FFAD7C00E0F6E000E106E36EC1CF0BB
:10325000880E0001D76F350ED86F41EC1CF01200BC
:1032600052EC1CF0010E81EC12F0020E126E860E72
:10327000116E990EE82EFED7112EFCD7122EFAD71A
:1032800000F0000E0A6E480E0B6E080E0C6E010E5A
:1032900039EC15F0000E0A6E010E0B6E080E0C6E66
:1032A000020E39EC15F00A0E0B6E010E0C6E2D0E8F
:1032B000F5EC1BF00A0E0001C319D8B462EF19F047
:1032C00064EF19F05AEF19F041EC1CF01200070EF0
:1032D0000001B825076E000EB921086E000E0A6EB7
:1032E000000E096E000E0C6E100E0B6E6DEC10F0E1
:1032F000070E0001B825A66F000EB921A76F790E41
:10330000A86F080EA96FD6500008AA6FD750D8A092
:10331000E82A0108AB6F28EC1AF00A0E0A6E070EB5
:103320000001B8250B6E000EB9210C6E020E39ECAF
:1033300015F01200000E0F6EB4EF19F0ACA2A3EF5F
:1033400019F0A5EF19F0B4EF19F00F500B240D6E22
:10335000000E0C200E6E070E0D24D96E000E0E20EE
:10336000DA6EDF50AD6E0F2A070E0B24076E000ECB
:103370000C20086EA9EC1BF00F500D6E0E6A075062
:103380000D5C08500E58D8A0C8EF19F0CAEF19F01C
:103390009EEF19F01200A2C050F0A3C051F0000E31
:1033A0000001616F000E606FE9EF19F0A0C046F0F8
:1033B000A1C047F0500E486E000E496EA4C04AF0FE
:1033C000A5C04BF022EC08F04650000160274750A2
:1033D000612350C0F6FF51C0F7FF0800F550000907
:1033E000D8A4F5EF19F0F7EF19F0D6EF19F060C097
:1033F000A0F061C0A1F01200949C948EB896000ECB
:10340000076E1B0E086EB70E096E000E0A6E14C012
:103410000BF015C00CF016C00DF017C00EF07AECD2
:1034200017F0070E19EF1AF0D8900A320932083255
:103430000732E82E14EF1AF00704AF6EAC94AC9884
:10344000AC9CAC8AAB8EAB9CAB889D8A9F8A1200E9
:10345000AA0E0001B06F000EB16FA6C0B2F0A7C0F7
:10346000B3F0000EB56F000EB46F000EB76F000E14
:10347000B66FB20EA06F000EA16FA8C0A2F0A9C0D7
:10348000A3F0B00EA46F000EA56FCBEC19F00001F5
:10349000B451A625D96EB551A721DA6E000EDF6EA4
:1034A0001200010E0D6E200E07180810D8B45BEF45
:1034B0001AF05DEF1AF076EF1AF0F70E096EFF0EB4
:1034C0000A6E07C00BF008C00CF009500B260A501A
:1034D0000C220C5009E1050E0B5CD8A072EF1AF01B
:1034E00074EF1AF076EF1AF0000E0D6E0DC007F0B3
:1034F000086A1200000E0A6E3B0E0B6E080E0C6E70
:10350000010E39EC15F0080E0001C319D8B48BEF89
:103510001AF08DEF1AF083EF1AF0010E81EC12F021
:10352000020E126E860E116E990EE82EFED7112E27
:10353000FCD7122EFAD700F041EC1CF01200086EF6
:103540000850D8A4A6EF1AF0A8EF1AF0AEEF1AF0C0
:10355000C150F00B0E09C16EB6EF1AF008500F08FB
:10356000076EC1500718F00B0718C16ECF0EC116B9
:10357000C050C70B1009C06EC050F80B0309C06ED5
:10358000C08EC28094921200C60E076E000E086EA6
:1035900047EC0BF00001C651D8B4D1EF1AF0D3EFCD
:1035A0001AF0D9EF1AF0010EC36F000EC66FE7EFE5
:1035B0001AF080A6DEEF1AF0E0EF1AF0E7EF1AF04B
:1035C0000A0E0B6E000E0C6E210EF5EC1BF01200B5
:1035D0004CEC1CF0B6EC18F0020E9FEC1AF0DEEC8E
:1035E0001BF0000E086E000E076E47EC1CF02AEC74
:1035F0001CF0800E146E250E156E000E166E000E59
:10360000176EFCEC19F00A0E0B6E000E0C6E210EFC
:10361000F5EC1BF012003A0EF66E380EF76E000E47
:10362000F86E00EEC0F010EE19F00900F5CFEEFFD5
:10363000E550E150FAE100EE60F0340EEE6AE80683
:10364000FDE1576A566A556A546A536A589058920F
:10365000000EF86E0001C4EF1BF0000E166E000E97
:10366000156E3EEF1BF014C007F0086A12C009F097
:1036700013C00AF09FEC15F0154A162A15501024B5
:10368000D96E16501120DA6EDF50146E1450D8A483
:103690004CEF1BF04EEF1BF033EF1BF012001ABE85
:1036A0005CEF1BF01A5006E11904D8B05AEF1BF07A
:1036B0005CEF1BF06AEF1BF019C01BF01AC01CF086
:1036C0001B1E1C1E1B4A1C2A1BC019F01CC01AF012
:1036D0006EEF1BF019C019F01AC01AF012000A6E32
:1036E0000AC009F009460946C2500918C30B091857
:1036F000C26E080E096ECA0EE82EFED7092EFCD740
:10370000C282C2B286EF1BF088EF1BF081EF1BF084
:10371000C3CF07F0C4CF08F01200D00E096EFF0E21
:103720000A6E07C00BF008C00CF009500B260A50B7
:103730000C220C500AE10A0E0B5CD8A0A2EF1BF081
:10374000A5EF1BF0010EA6EF1BF0000E076E086A36
:10375000120007C009F008C00AF0B1EF1BF0074AD9
:10376000082A07C0D9FF08C0DAFFDF50D8A4BBEF92
:103770001BF0BDEF1BF0AFEF1BF00950075C076EAD
:103780000A500858086E1200F00E936EF19E929443
:10379000929AE8EC1AF020EED7F002D8DAEF1BF09C
:1037A0000500FA6EDE50FD6EDE50FE6EF850FF6EC4
:1037B000FA501200CBEF1BF05EEF00F0B190B18E2B
:1037C000B192300EB112B184500EB36E380EB26E9B
:1037D000D59ED58CD58AD598D5869288F28AF294D2
:1037E000F184A192A292A08212000D6E000E0E6EC4
:1037F00000EF1CF00CC007F00D50A8EC13F00E2ADF
:103800000B500E5CD8A007EF1CF009EF1CF0FAEF8C
:103810001BF0120007500902F3CF0BF0F4CF0CF0AD
:1038200007500A02F3500C2608500902F3500C26E8
:103830000BC007F00CC008F01200000000080000E8
:103840000000000000000000000000000000000078
:0338500000F4344D
:10385400CA50FC0B0209CA6ECA86CA88CA8ACA8CB4
:10386400969096929694120054EC1CF00A0E0B6EED
:10387400020E0C6E270EF5EC1BF0898A1200500E16
:10388400B36E380EB26EB180120007C0D6FF08C006
:10389400D7FF1200D08EF28EF28C1200D59E120049
:0A38A400B1901200D58E1200120040
:020000040020DA
:08000000FFFFFFFFFFFFFFFF00
:020000040030CA
:0E000000000C191EFF8181FF0FC00FE00F40A2
:00000001FF
