:020000040000FA
:0400000055EF00F0C8
:060008005C825FED18F0C0
:100018005C80D8CF01F0E8CF02F0E0CF03F0A0A2D7
:1000280018EF00F01AEF00F04DEF00F0A1A21FEF5B
:1000380000F021EF00F04DEF00F0A1920001B12B8C
:100048000A0EB119D8A42BEF00F02DEF00F03DEF08
:1000580000F0B351D8A433EF00F035EF00F03DEFD6
:1000680000F0000EB16FB00EC76F2F0EC86F49EFCA
:1000780000F0B305D8A443EF00F045EF00F049EFD6
:1000880000F0820EC76F2C0EC86F500EB36E380E7C
:10009800B26E03C0E0FF02C0E8FF01C0D8FF5C9069
:0600A80010007FEF17F0CD
:1008000000543A253032642E2530326420430042B1
:1008100069656E76656E69646F73004261743A252E
:1008200030326400534943435600233A256400257F
:0308300063000062
:100834001950800B226E19501924286E18AE25EF1A
:1008440004F027EF04F028EF04F028802850D8B4EF
:100854002EEF04F030EF04F043EF04F02828D8A47E
:1008640036EF04F038EF04F040EF04F0000E166E9B
:10087400000E176E000E186E000E196E188E4BEFD8
:1008840004F0000E166E000E176E000E186E000EA9
:10089400196E1D50800B221A1D501D24276E1CAE8C
:1008A40056EF04F058EF04F059EF04F02780275076
:1008B400D8B45FEF04F061EF04F074EF04F027287C
:1008C400D8A467EF04F069EF04F071EF04F0000EB0
:1008D4001A6E000E1B6E000E1C6E000E1D6E1C8E1A
:1008E4007CEF04F0000E1A6E000E1B6E000E1C6EE0
:1008F400000E1D6E2750D8B482EF04F084EF04F08C
:100904008CEF04F02850D8A48AEF04F08CEF04F0A4
:1009140096EF04F0000E166E000E176E000E186EA1
:10092400000E196E2EEF06F01C501602F3CF2DF0B8
:10093400F4CF2EF02D50236E246A256A266A2E5099
:10094400296E2A6A2B6A2C6A1B501702F3CF2DF0EA
:10095400F4CF2EF02D502326000E24222522262209
:100964002E502926000E2A222B222C221A5018023D
:10097400F3CF2DF0F4CF2EF02D502326000E242299
:10098400252226222E502926000E2A222B222C2212
:1009940025C026F024C025F023C024F0236A1A5071
:1009A4001702F3CF2DF0F4CF2EF02D5023262E5026
:1009B4002422000E2522000E26221B501602F3CFFD
:1009C4002DF0F4CF2EF02D5023262E502422000E8D
:1009D4002522000E262225C026F024C025F023C09F
:1009E40024F0236A1A501602F3CF2DF0F4CF2EF020
:1009F4002D5023262E502422000E2522000E2622BE
:100A04001C501702F3CF2DF0F4CF2EF02D502926D1
:100A14002E502A22000E2B22000E2C221B501802CC
:100A2400F3CF2DF0F4CF2EF02D5029262E502A226C
:100A3400000E2B22000E2C221C501802F3CF2DF096
:100A4400F4CF2EF02D501E6E2E501F6E206A216A98
:100A540020C021F01FC020F01EC01FF01E6A1E50CF
:100A640029261F502A2220502B2221502C2223C019
:100A74001EF024C01FF025C020F026C021F0190E5E
:100A840049EF05F0D890213220321F321E32E82E71
:100A940044EF05F01E5029261F502A2220502B22F5
:100AA40021502C2225C026F024C025F023C024F098
:100AB400236A275028C01EF01F6A1E26000E1F221C
:100AC400820E1E242D6EFF0E1F202E6E7FEF05F06A
:100AD400D89029362A362B362C3626AE74EF05F0FC
:100AE40076EF05F077EF05F02980D8902336243689
:100AF400253626362D06D8A02E062BAE84EF05F01B
:100B040086EF05F06AEF05F0000E276E26AE8DEF36
:100B140005F08FEF05F0B3EF05F0FF0E23141E6E02
:100B2400FF0E24141F6EFF0E2514206E7F0E261454
:100B3400216E1E501F1020102110D8B4A4EF05F010
:100B4400A6EF05F0AAEF05F0010E276EB3EF05F04E
:100B540029A0AFEF05F0B1EF05F0B3EF05F0A6EF74
:100B640005F02750D8B4B9EF05F0BBEF05F0DFEF7F
:100B740005F0010E2926000E2A222B222C222CA05D
:100B8400C6EF05F0C8EF05F0DFEF05F029C01EF051
:100B94002AC01FF02BC020F02CC021F021342132B8
:100BA40020321F321E321EC029F01FC02AF020C07E
:100BB4002BF021C02CF02D4A2E2A2EBEEAEF05F090
:100BC4002E5008E12D28D8A0EAEF05F0ECEF05F04F
:100BD400F6EF05F0000E296E000E2A6E800E2B6EC5
:100BE4007F0E2C6E24EF06F02EBE03EF06F02E507F
:100BF40006E12D04D8B001EF06F003EF06F00FEF85
:100C040006F0000E296E000E2A6E000E2B6E000EEA
:100C14002C6E000E226E24EF06F02DC028F0FF0E7D
:100C24002916FF0E2A167F0E2B16000E2C1628A04E
:100C34001EEF06F020EF06F021EF06F02B8ED89081
:100C440028302C6E22502C1229C016F02AC017F01E
:100C54002BC018F02CC019F0120045C0D9FF46C0B3
:100C6400DAFFDECFF6FFDDCFF7FF0800F550250AE7
:100C7400D8A43FEF06F041EF06F002EF08F045C0BC
:100C8400D9FF46C0DAFFDE2A000EDD22000E000185
:100C9400696F000E686F68C05AF069C05BF06A69DA
:100CA4006B69000E576E000E566E9FEF06F05A8069
:100CB40045C0D9FF46C0DAFFDE2A000EDD229FEFD1
:100CC40006F05A825AEF06F05A845AEF06F05A8612
:100CD4005AEF06F05A885AEF06F0000E576E010ECE
:100CE400566E9FEF06F045C0D9FF46C0DAFFDECF4F
:100CF400F6FFDDCFF7FF0800F550496E4A6A4A5007
:100D0400000AD8B488EF06F06FEF06F04950200AC5
:100D1400D8B469EF06F0030AD8B46CEF06F0080AF9
:100D2400D8B466EF06F0060AD8B459EF06F01D0AE7
:100D3400D8B463EF06F06FEF06F056505710D8B4EE
:100D4400A6EF06F0A8EF06F075EF06F05AA0ADEF97
:100D540006F0AFEF06F0B0EF06F05A9245C0D9FFA7
:100D640046C0DAFFDECFF6FFDDCFF7FF0800F5500F
:100D74002A0AD8A4C0EF06F0C2EF06F0ECEF06F0A2
:100D840045C0D9FF46C0DAFFDE2A000EDD2247C087
:100D9400D9FF48C0DAFFDFCF49F0020EDE26DFCFED
:100DA4004AF0000EDD2249C0D9FF4AC0DAFFDECF87
:100DB40068F0DDCF69F0000169BFE5EF06F0E3EF0D
:100DC40006F02FEF07F05A80686D691FD8B0692BC1
:100DD4002FEF07F045C0D9FF46C0DAFFDECF0BF096
:100DE400DDCF0CF01DEC0EF00BC068F00CC069F008
:100DF40003EF07F045C0D9FF46C0DAFFDE2A000E34
:100E0400DD22D00E496EFF0E4A6E45C0D9FF46C0A2
:100E1400DAFFDECFF6FFDDCFF7FF0800F5504B6EAB
:100E24004C6A49504B264A504C224C500AE10A0E57
:100E34004B5CD8A020EF07F023EF07F0010E24EF5E
:100E440007F0000E586E596A58505910D8A42DEF67
:100E540007F02FEF07F0FCEF06F045C0D9FF46C0BE
:100E6400DAFFDECFF6FFDDCFF7FF0800F550630AA7
:100E7400D8A43FEF07F041EF07F068EF07F045C053
:100E8400D9FF46C0DAFFDE2A000EDD2247C0D9FFB3
:100E940048C0DAFFDFCF49F0020EDE26DFCF4AF08A
:100EA400000EDD2249C0D9FF4AC0DAFFDF50556E7B
:100EB40043C00DF044C00EF055C00FF077EC13F0B2
:100EC4000DC043F00EC044F01DEF08F045C0D9FF3B
:100ED40046C0DAFFDECFF6FFDDCFF7FF0800F5509E
:100EE400640AD8B478EF07F07AEF07F08CEF07F0D4
:100EF40045C0D9FF46C0DAFFDECFF6FFDDCFF7FFEE
:100F04000800F550690AD8A48AEF07F08CEF07F0BF
:100F1400CCEF07F045C0D9FF46C0DAFFDE2A000E49
:100F2400DD2247C0D9FF48C0DAFFDFCF49F0020E07
:100F3400DE26DFCF4AF0000EDD2249C0D9FF4AC0C9
:100F4400DAFFDECF4DF0DDCF4EF0000E4EBEFF0EC9
:100F54004F6E506E516E526E536E546E43C01FF0FE
:100F640044C020F04DC021F04EC022F04FC023F009
:100F740050C024F051C025F052C026F053C027F0D1
:100F840054C028F0EBEC09F01FC043F020C044F03B
:100F94001DEF08F045C0D9FF46C0DAFFDECFF6FFEB
:100FA400DDCFF7FF0800F550250AD8A4DCEF07F0E1
:100FB400DEEF07F0F5EF07F045C0D9FF46C0DAFFD2
:100FC400DE2A000EDD22000E056E250E046E43C0DF
:100FD40006F044C007F048EC14F0000E446E010E15
:100FE400436E1DEF08F045C0D9FF46C0DAFFDE2A84
:100FF400000EDD22000E446E000E436E1DEF08F05D
:1010040045C0D9FF46C0DAFFDECFF6FFDDCFF7FFDC
:101014000800F550046E056A43C006F044C007F0AA
:1010240048EC14F045C0D9FF46C0DAFFDE2A000EB2
:10103400DD22EFEF07F012003250800B3F6E32508A
:101044003224466E31AE29EF08F02BEF08F02CEF76
:1010540008F046804650D8B432EF08F034EF08F078
:1010640049EF08F04628D8A43AEF08F03CEF08F01E
:1010740044EF08F0000E2F6E000E306E000E316E3D
:10108400000E326E318E000E326E51EF08F0000EFB
:101094002F6E000E306E000E316E000E326E365022
:1010A400800B3F1A36503624476E35AE5CEF08F09D
:1010B4005EEF08F05FEF08F047804750D8B465EF63
:1010C40008F067EF08F07CEF08F04728D8A46DEF2C
:1010D40008F06FEF08F077EF08F0000E336E000EA3
:1010E400346E000E356E000E366E358E000E366E82
:1010F40084EF08F0000E336E000E346E000E356E71
:10110400000E366E3350341035103610D8A48DEFDF
:1011140008F08FEF08F0A7EF08F0000E2F6E000E16
:10112400306E000E316E000E326E800E31127F0E64
:1011340032123F5032122FC02FF030C030F031C085
:1011440031F032C032F0EAEF09F04650D8A4ADEFE6
:1011540008F0AFEF08F0B9EF08F0000E2F6E000EA4
:10116400306E000E316E000E326EEAEF09F0475019
:1011740046C037F0386A375E000E385A7F0E37247F
:10118400406E000E3820416E2FC03BF030C03CF062
:1011940031C03DF032C03EF0000E2F6E000E306EB6
:1011A400000E316E000E326E000E426E000E436E63
:1011B400000E446E000E456E000E476E1AEF09F0E5
:1011C4004750D8B4E8EF08F0EAEF08F001EF09F06F
:1011D400D8903B363C363D363E36D8902F363036A6
:1011E4003136323645AEF9EF08F0FBEF08F0FCEF8C
:1011F40008F02F80D8904236433644364536335073
:101204003B5C34503C5835503D5836503E58D8A07D
:101214000EEF09F010EF09F019EF09F0458C335087
:101224003B5E34503C5A35503D5A36503E5A472A5C
:10123400190E476420EF09F022EF09F0E2EF08F0FD
:101244003B503C103D103E10D8B42BEF09F02DEF6D
:1012540009F045EF09F0428045EF09F0D8902F36A8
:1012640030363136323645AE3AEF09F03CEF09F00C
:101274003DEF09F02F80D890423643364436453648
:101284004006D8A0410631AE4AEF09F04CEF09F010
:1012940030EF09F0000E476E45AE53EF09F055EFFD
:1012A40009F079EF09F0FF0E4214376EFF0E431474
:1012B400386EFF0E4414396E7F0E45143A6E375063
:1012C400381039103A10D8B46AEF09F06CEF09F00D
:1012D40070EF09F0010E476E79EF09F02FA075EF5A
:1012E40009F077EF09F079EF09F06CEF09F0475056
:1012F400D8B47FEF09F081EF09F0A5EF09F0010EF2
:101304002F26000E30223122322232A08CEF09F037
:101314008EEF09F0A5EF09F02FC037F030C038F098
:1013240031C039F032C03AF03A343A3239323832D4
:10133400373237C02FF038C030F039C031F03AC0FE
:1013440032F0404A412A41BEB0EF09F0415008E171
:101354004028D8A0B0EF09F0B2EF09F0BDEF09F0D2
:10136400000E416E4068000E2F6E000E306E000EAF
:10137400316E000E326E41BECAEF09F0415006E1F3
:101384004004D8B0C8EF09F0CAEF09F0D8EF09F06B
:10139400000E416E000E406E000E2F6E000E306E79
:1013A400000E316E000E326E000E3F6E40C046F0ED
:1013B40046A0DFEF09F0E1EF09F0E4EF09F0318E28
:1013C400E5EF09F0319ED8904630326E9BEF08F07D
:1013D400120021C039F022C03AF023C03BF024C0EF
:1013E4003CF025C03DF026C03EF027C03FF028C0A9
:1013F40040F040BE00EF0AF003EF0AF0010E04EFE4
:101404000AF0000E376E386A37503810D8B40DEF32
:101414000AF00FEF0AF01FEF0AF0401E3F1E3E1EB7
:101424003D1E3C1E3B1E3A1E396C000E3A223B22E6
:101434003C223D223E223F22402200016BBF25EF89
:101444000AF027EF0AF028EF0AF05A926BBF35EF43
:101454000AF06B5106E16A05D8B033EF0AF035EFB4
:101464000AF03BEF0AF0000E346E010E336E3FEFCC
:101474000AF06AC033F06BC034F068C035F069C05C
:1014840036F037503810D8A44AEF0AF04CEF0AF07F
:1014940053EF0AF05AA451EF0AF053EF0AF056EF53
:1014A4000AF03506D8A03606000E426E1F0E416EB5
:1014B400000E8B6FDAEF0AF04106D8A042066C0EDC
:1014C4004124D96E000E4220DA6E39C004F03AC0CD
:1014D40005F03BC006F03CC007F03DC008F03EC03C
:1014E40009F03FC00AF040C00BF00A0E0C6E000E6B
:1014F4000D6E000E0E6E000E0F6E000E106E000EBE
:10150400116E000E126E000E136E64EC10F004C027
:1015140029F005C02AF006C02BF007C02CF008C043
:101524002DF009C02EF00AC02FF00BC030F029C0F6
:1015340016F02BC017F05FEC17F01650300FDF6E6B
:101544003306D8A034063506D8A0360639C004F0D0
:101554003AC005F03BC006F03CC007F03DC008F0BF
:101564003EC009F03FC00AF040C00BF00A0E0C6EFA
:10157400000E0D6E000E0E6E000E0F6E000E106E3D
:10158400000E116E000E126E000E136EE5EC0EF0DE
:1015940004C039F005C03AF006C03BF007C03CF087
:1015A40008C03DF009C03EF00AC03FF00BC040F057
:1015B40042BEE5EF0AF0425008E14104D8A0E5EF4D
:1015C4000AF0E7EF0AF017EF0BF039503A103B102E
:1015D4003C103D103E103F104010D8A4F4EF0AF028
:1015E400F6EF0AF05EEF0AF034BE03EF0BF034506E
:1015F40006E13304D8B001EF0BF003EF0BF05EEF1C
:101604000AF036BE0EEF0BF0365008E13504D8A0D0
:101614000EEF0BF010EF0BF017EF0BF05AB215EFC3
:101624000BF017EF0BF05EEF0AF037503810D8A428
:101634001EEF0BF020EF0BF027EF0BF05AA425EF71
:101644000BF027EF0BF045EF0BF04106D8A0420654
:1016540037503810D8A431EF0BF033EF0BF039EFDB
:101664000BF0000E326E2B0E316E3DEF0BF0000EC0
:10167400326E2D0E316E6C0E4124D96E000E422056
:10168400DA6E31C0DFFF1FC014F020C015F06C0EFD
:101694004124166E000E4220176E35C018F036C075
:1016A40019F0ADEC14F014C01FF015C020F01200B6
:1016B40004C0D9FF05C0DAFF000EDF6EF00E816EA4
:1016C400F00E8118D8B469EF0BF06BEF0BF043EF19
:1016D4000CF0FE0E816E81B872EF0BF074EF0BF01C
:1016E4007AEF0BF004C0D9FF05C0DAFF2A0EDF6ED3
:1016F40081BA7FEF0BF081EF0BF087EF0BF004C0A2
:10170400D9FF05C0DAFF300EDF6E81BC8CEF0BF021
:101714008EEF0BF094EF0BF004C0D9FF05C0DAFF95
:10172400230EDF6E81BE99EF0BF09BEF0BF0A1EF60
:101734000BF004C0D9FF05C0DAFF440EDF6EFD0EC6
:10174400816E81B8A8EF0BF0AAEF0BF0B0EF0BF0AD
:1017540004C0D9FF05C0DAFF370EDF6E81BAB5EFDA
:101764000BF0B7EF0BF0BDEF0BF004C0D9FF05C0D1
:10177400DAFF380EDF6E81BCC2EF0BF0C4EF0BF062
:10178400CAEF0BF004C0D9FF05C0DAFF390EDF6ED3
:1017940081BECFEF0BF0D1EF0BF0D7EF0BF004C00D
:1017A400D9FF05C0DAFF430EDF6EFB0E816E81B8F0
:1017B400DEEF0BF0E0EF0BF0E6EF0BF004C0D9FF27
:1017C40005C0DAFF340EDF6E81BAEBEF0BF0EDEFFC
:1017D4000BF0F3EF0BF004C0D9FF05C0DAFF350EB0
:1017E400DF6E81BCF8EF0BF0FAEF0BF000EF0CF0BA
:1017F40004C0D9FF05C0DAFF360EDF6E81BE05EFE7
:101804000CF007EF0CF00DEF0CF004C0D9FF05C08D
:10181400DAFF420EDF6EF70E816E81B814EF0CF022
:1018240016EF0CF01CEF0CF004C0D9FF05C0DAFF72
:10183400310EDF6E81BA21EF0CF023EF0CF029EFAB
:101844000CF004C0D9FF05C0DAFF320EDF6E81BC94
:101854002EEF0CF030EF0CF036EF0CF004C0D9FF93
:1018640005C0DAFF330EDF6E81BE3BEF0CF03DEFB7
:101874000CF043EF0CF004C0D9FF05C0DAFF410EB1
:10188400DF6EF00E816EF00E8118D8A44CEF0CF0D0
:101894004EEF0CF045EF0CF01200060E0001A625E9
:1018A400046E000EA721056E000E076E000E066E74
:1018B400000E096E100E086EA9EC0FF0010E9EECDE
:1018C40017F0000120EE03F0A651D926A751DA2221
:1018D40004C0DEFF05C0DDFF000E336E000E346E63
:1018E400800E356E440E366E000E1A6E000E1B6EA0
:1018F400A00E1C6E400E1D6E20EE03F0A651D926DC
:10190400A751DA22DECFA8F0DDCFA9F0A8C008F0F5
:10191400A9C009F00A6A0B6A000E43EC0DF008C076
:1019240016F009C017F00AC018F00BC019F01AEC31
:1019340004F016C02FF017C030F018C031F019C0F1
:1019440032F01EEC08F02FC0AAF030C0ABF031C06A
:10195400ACF032C0ADF0000E1A6E000E1B6EC80E55
:101964001C6E420E1D6EAAC016F0ABC017F0ACC0C0
:1019740018F0ADC019F01AEC04F016C048F017C006
:1019840049F018C04AF019C04BF0F4EC12F0000111
:1019940020EE03F0A651D926A751DA2248C0DEFF73
:1019A40049C0DDFF000E336E000E346EFA0E356E44
:1019B400430E366E000E1A6E000E1B6EC80E1C6EA1
:1019C400420E1D6E20EE03F0A651D926A751DA224D
:1019D400DECFA8F0DDCFA9F0A8C008F0A9C009F0B7
:1019E4000A6A0B6A000E43EC0DF008C016F009C039
:1019F40017F00AC018F00BC019F01AEC04F016C066
:101A04002FF017C030F018C031F019C032F01EECBE
:101A140008F02FC048F030C049F031C04AF032C05D
:101A24004BF0F4EC12F0000120EE03F0A651D9269D
:101A3400A751DA2248C0DEFF49C0DDFF060EA62505
:101A4400946F000EA721956F1B0E966F080E976F6B
:101A540020EE03F0A651D926A751DA22DECF98F062
:101A6400DDCF99F0A3EC16F0000E076E060E000110
:101A7400A625086E000EA721096E020EE2EC13F0F3
:101A84001200106E1050D8B44AEF0DF04CEF0DF068
:101A94006EEF0DF00BBE53EF0DF051EF0DF06EEF46
:101AA4000DF008C00CF009C00DF00AC00EF00BC018
:101AB4000FF00C1E0D1E0E1E0F1E0C2A000E0D2202
:101AC4000E220F220CC012F00DC013F00EC014F041
:101AD4000FC015F076EF0DF008C012F009C013F036
:101AE4000AC014F00BC015F0085009100A100B10AE
:101AF400D8A47FEF0DF081EF0DF08BEF0DF0000E09
:101B0400086E000E096E000E0A6E000E0B6E1CEFBE
:101B14000EF0960E116E95EF0DF0112AD890153235
:101B2400143213321232000E12140C6E000E1314FF
:101B34000D6E000E14140E6EFE0E15140F6E0C5066
:101B44000D100E100F10D8A4AAEF0DF0ACEF0DF08D
:101B54008FEF0DF0BAEF0DF0112A010E1226000ED0
:101B6400132214221522D890153214321332123251
:101B7400000E12140C6E000E13140D6E000E1414CD
:101B84000E6EFF0E15140F6E0C500D100E100F106C
:101B9400D8A4CFEF0DF0D1EF0DF0AEEF0DF0D9EFEB
:101BA4000DF01106D890123613361436153614BEBD
:101BB400DEEF0DF0E0EF0DF0E8EF0DF0020E116036
:101BC400E6EF0DF0E8EF0DF0D3EF0DF011B0EDEF0F
:101BD4000DF0EFEF0DF0F0EF0DF0149ED8901132F0
:101BE40011C00CF00D6A0E6A0F6A0CC00FF00E6A79
:101BF4000D6A0C6A0C5012120D5013120E5014126E
:101C04000F5015121050D8B40AEF0EF00CEF0EF06E
:101C140014EF0EF00BBE13EF0EF011EF0EF014EFF5
:101C24000EF0158E12C008F013C009F014C00AF0AB
:101C340015C00BF01200000E196E000E186E000E87
:101C4400126E000E116E29EF0EF00B4A0C2A010ED3
:101C5400176E0BC0F6FF0CC0F7FF0800F550200A02
:101C6400D8B437EF0EF039EF0EF056EF0EF0F70E52
:101C74000D6EFF0E0E6E0BC0F6FF0CC0F7FF0800D2
:101C8400F5500F6E106A0D500F260E501022105092
:101C940009E1050E0F5CD8A052EF0EF054EF0EF0E0
:101CA40056EF0EF0000E176E17C013F0146A13509F
:101CB4001410D8A460EF0EF062EF0EF027EF0EF0D0
:101CC4006CEF0EF0000E126E010E116E0B4A0C2A10
:101CD400A1EF0EF00BC0F6FF0CC0F7FF0800F550A3
:101CE4000D6E0E6A0E50000AD8B47BEF0EF0A1EF11
:101CF4000EF00D502B0AD8B468EF0EF0060AD8B4D3
:101D040064EF0EF0A1EF0EF018C004F019C005F056
:101D1400000E076E0A0E066E0EEC18F00BC0F6FFEE
:101D24000CC0F7FF0800F550045E000E055A300E93
:101D34000424186E000E0520196E68EF0EF0D00E04
:101D44000D6EFF0E0E6E0BC0F6FF0CC0F7FF080001
:101D5400F5500F6E106A0D500F260E5010221050C1
:101D64000AE10A0E0F5CD8A0BAEF0EF0BDEF0EF038
:101D7400010EBEEF0EF0000E156E166A1550161009
:101D8400D8A4C7EF0EF0C9EF0EF086EF0EF0115095
:101D94001210D8A4D0EF0EF0D2EF0EF0E0EF0EF058
:101DA40018C00DF019C00EF00D1E0E1E0D4A0E2A9D
:101DB4000DC00BF00EC00CF0E4EF0EF018C00BF0E9
:101DC40019C00CF01200000E156E13BEEEEF0EF0EB
:101DD400ECEF0EF000EF0FF0131E121E111E101E7A
:101DE4000F1E0E1E0D1E0C6C000E0D220E220F2255
:101DF4001022112212221322010E156E0BBE07EFC0
:101E04000FF005EF0FF019EF0FF00B1E0A1E091E5D
:101E1400081E071E061E051E046C000E052206225F
:101E24000722082209220A220B22010E151A20EE8B
:101E340016F0070EDE6AE806FDE20C500D100E10D7
:101E44000F101010111012101310D8B42CEF0FF043
:101E54002EEF0FF080EF0FF0010E146E3CEF0FF039
:101E6400D8900C360D360E360F3610361136123623
:101E74001336142A13AE41EF0FF043EF0FF032EF95
:101E84000FF0D89016361736183619361A361B3610
:101E94001C361D360C50045C0D5005580E50065867
:101EA4000F500758105008581150095812500A582A
:101EB40013500B58D8A061EF0FF063EF0FF074EFDD
:101EC4000FF00C50045E0D50055A0E50065A0F5078
:101ED400075A1050085A1150095A12500A5A1350EE
:101EE4000B5A1680D89013321232113210320F323C
:101EF4000E320D320C32142E43EF0FF01550D8B4BD
:101F040086EF0FF088EF0FF098EF0FF01D1E1C1EE8
:101F14001B1E1A1E191E181E171E166C000E1722E1
:101F2400182219221A221B221C221D2216C004F078
:101F340017C005F018C006F019C007F01AC008F061
:101F44001BC009F01CC00AF01DC00BF0120004C035
:101F54000EF005C00FF008500910D8A4B4EF0FF02C
:101F6400B6EF0FF0B8EF0FF063EF10F00EC0D9FF2B
:101F74000FC0DAFF06C0DFFF08500E240A6E0950B6
:101F84000F200B6EFF0E0A24D96EFF0E0B20DA6EA3
:101F940006C0DFFF095007E1030E085CD8B0D5EF97
:101FA4000FF0D7EF0FF0D9EF0FF063EF10F020EE42
:101FB40001F00E50D9260F50DA2206C0DFFF20EEC2
:101FC40002F00E50D9260F50DA2206C0DFFF085067
:101FD4000E240A6E09500F200B6EFE0E0A24D96ED1
:101FE400FF0E0B20DA6E06C0DFFF08500E240A6EC7
:101FF40009500F200B6EFD0E0A24D96EFF0E0B2024
:10200400DA6E06C0DFFF095007E1070E085CD8B09E
:102014000EEF10F010EF10F012EF10F063EF10F06D
:1020240020EE03F00E50D9260F50DA2206C0DFFF4F
:1020340008500E240A6E09500F200B6EFC0E0A2461
:10204400D96EFF0E0B20DA6E06C0DFFF095007E1E0
:10205400090E085CD8B031EF10F033EF10F035EF13
:1020640010F063EF10F00EC00AF00FC00BF00A1E60
:102074000B1E0A4A0B2A030E0A140C6E0D6A0C502E
:102084000E260D500F220C50085E0D50095AFC0EFE
:102094000816FF0E09165AEF10F00EC0D9FF0FC034
:1020A400DAFF06C0DFFF0806D8A009060E4A0F2A89
:1020B40008500910D8A461EF10F063EF10F04FEF4F
:1020C40010F01200000E156E0BBE6DEF10F06BEFEA
:1020D40010F07FEF10F00B1E0A1E091E081E071ECB
:1020E400061E051E046C000E052206220722082285
:1020F40009220A220B22010E156E13BE86EF10F080
:1021040084EF10F096EF10F0131E121E111E101E15
:102114000F1E0E1E0D1E0C6C000E0D220E220F2221
:1021240010221122122213220C500D100E100F1027
:102134001010111012101310D8B4A3EF10F0A5EF63
:1021440010F0EDEF10F0010E146EB3EF10F0D89014
:102154000C360D360E360F3610361136123613364F
:10216400142A13AEB8EF10F0BAEF10F0A9EF10F084
:102174000C50045C0D5005580E5006580F5007586B
:10218400105008581150095812500A5813500B583F
:10219400D8A0CFEF10F0D1EF10F0E1EF10F00C5019
:1021A400045E0D50055A0E50065A0F50075A10502F
:1021B400085A1150095A12500A5A13500B5AD890FF
:1021C40013321232113210320F320E320D320C32FF
:1021D400142EBAEF10F01550D8B4F3EF10F0F5EF59
:1021E40010F005EF11F00B1E0A1E091E081E071E33
:1021F400061E051E046C000E052206220722082274
:1022040009220A220B2204C004F005C005F006C00E
:1022140006F007C007F008C008F009C009F00AC0BA
:102224000AF00BC00BF01200066E8C968C8406C06C
:1022340004F0070E056E04340432052E1DEF11F070
:10224400010E0416043204328C5004187F0B041857
:102254008C6E06C004F0060E056E04340432052E9E
:102264002FEF11F0010E0416043A044604468C5074
:102274000418BF0B04188C6E06C004F0050E056E1E
:1022840004340432052E42EF11F0010E0416043A10
:1022940004468C500418DF0B04188C6E06C004F03E
:1022A400040E056E04340432052E54EF11F0010EB1
:1022B4000416043A8C500418EF0B04188C6E030EA9
:1022C400E82EFED700F08C86050EE82EFED78C96FD
:1022D40006C004F0030E056E04340432052E6EEFBE
:1022E40011F0010E0416043204328C5004187F0BD2
:1022F40004188C6E06C004F004340432043404322E
:10230400010E0416043A044604468C500418BF0B0C
:1023140004188C6E06C004F0010E056E04340432F9
:10232400052E90EF11F0010E0416043A04468C5069
:102334000418DF0B04188C6E06C004F0010E04169A
:10234400043A8C500418EF0B04188C6E030EE82E1C
:10235400FED700F08C86050EE82EFED78C96050E6F
:10236400E82EFED7160E046E6C0EE82EFED7042E51
:10237400FCD700D01200060E0001A625046E000E44
:10238400A721056E000E076E000E066E000E096E84
:10239400100E086EA9EC0FF0000E9EEC17F004C0AE
:1023A40008F005C009F00A6A0B6A000E43EC0DF050
:1023B40008C0A8F009C0A9F00AC0AAF00BC0ABF08D
:1023C400F60E1A6E280E1B6E9C0E1C6E400E1D6EB1
:1023D400A8C016F0A9C017F0AAC018F0ABC019F035
:1023E4001AEC04F016C02FF017C030F018C031F00A
:1023F40019C032F0000E336E000E346E200E356EAE
:10240400410E366E1EEC08F02FC0A8F030C0A9F0C3
:1024140031C0AAF032C0ABF0060E0001A625946FBD
:10242400000EA721956F010E966F080E976FA8C036
:1024340048F0A9C049F0AAC04AF0ABC04BF0F4EC94
:1024440012F048500001986F996B000E1A6E000E3E
:102454001B6EC80E1C6E420E1D6EA8C016F0A9C0DD
:1024640017F0AAC018F0ABC019F01AEC04F016C0AB
:1024740048F017C049F018C04AF019C04BF0F4EC0A
:1024840012F04850526E536A000E556E640E546E2C
:102494006EEC15F0525000019A6F9B6BA3EC16F092
:1024A400000E076E060E0001A625086E000EA72179
:1024B400096E010EE2EC13F01200066E8C968C94F9
:1024C400046A06AE01D0042A010E04160432043252
:1024D4008C5004187F0B04188C6E06C004F0060E92
:1024E400056ED8900432052E73EF12F0010E041617
:1024F400043A044604468C500418BF0B04188C6E2E
:1025040006C004F0050E056ED8900432052E86EF41
:1025140012F0010E0416043A04468C500418DF0B22
:1025240004188C6E06C004F0043A0F0E0416010E53
:102534000416043A8C500418EF0B04188C6E030E26
:10254400E82EFED700F08C86050EE82EFED78C967A
:1025540006C004F0D8900432D8900432D8900432E3
:10256400010E0416043204328C5004187F0B041834
:102574008C6E06C004F0D8900432D8900432010E58
:102584000416043A044604468C500418BF0B04187D
:102594008C6E06C004F0D8900432010E0416043A7E
:1025A40004468C500418DF0B04188C6E06C004F02B
:1025B400010E0416043A8C500418EF0B04188C6EA8
:1025C400030EE82EFED700F08C86050EE82EFED70B
:1025D4008C96160E046E6C0EE82EFED7042EFCD7D5
:1025E40000D012004A344B34516E5150D8A4FDEF40
:1025F40012F0FFEF12F009EF13F0000E486E000E18
:10260400496E000E4A6E000E4B6E76EF13F048C012
:102614004CF049C04DF04AC04EF04BC04FF0200E74
:1026240019EF13F0D8904F324E324D324C32E82E1F
:1026340014EF13F04C50506E4A8EFF0E4816FF0EE6
:102644004916FF0E4A16000E4B16960E515E51BEE9
:1026540030EF13F02EEF13F046EF13F05150800AD1
:10266400970FD8B038EF13F03AEF13F03CEF13F0B4
:10267400FFEF12F0D8904B324A3249324832513E81
:102684003CEF13F05EEF13F01F0E51644CEF13F0A8
:102694004EEF13F056EF13F0FFEF12F0D8904836D8
:1026A40049364A364B3651065150D8A45CEF13F0E4
:1026B4005EEF13F050EF13F05050D8B464EF13F002
:1026C40066EF13F06EEF13F04B1E4A1E491E486C62
:1026D400000E49224A224B2248C048F049C049F022
:1026E4004AC04AF04BC04BF0120000016851691116
:1026F400D8A47FEF13F081EF13F087EF13F068C0D5
:1027040013F069C014F08DEF13F0FF0E6825136EFB
:10271400FF0E6921146E5AA092EF13F094EF13F098
:102724009DEF13F00FC004F0056A0DC006F00EC053
:1027340007F048EC14F014BEA2EF13F0A4EF13F06A
:10274400A6EF13F0AAEF13F0000E146E000E136E32
:10275400000E126E000E116EBCEF13F0000E056E2B
:10276400200E046E0DC006F00EC007F048EC14F005
:10277400114A122A1350115C1250800A106E145020
:10278400800A1058D8A0C9EF13F0CBEF13F0B0EFC4
:1027940013F05AB0D0EF13F0D2EF13F0DBEF13F0D5
:1027A4000FC004F0056A0DC006F00EC007F048EC37
:1027B40014F0010E11240D6E000E12200E6E120084
:1027C4000C6EF9EF13F00750800F0D6E16EF14F036
:1027D4000750C00F0D6E16EF14F00750940F0D6ED6
:1027E40016EF14F00750D40F0D6E16EF14F00C50C2
:1027F4000A6E0B6A0B50000AD8B403EF14F016EFFC
:1028040014F00A50010AD8B4E5EF13F0030AD8B45F
:10281400EAEF13F0010AD8B4EFEF13F0070AD8B4C3
:10282400F4EF13F016EF14F00D505FEC12F02FEFED
:1028340014F008C0F6FF09C0F7FFF86A070EF76442
:1028440003D00800F55005D0F6CFE1FFF7CFE2FF43
:10285400E75016EC11F0084A092A08C0F6FF09C02F
:10286400F7FFF86A070EF76403D00800F55005D0A7
:10287400F6CFE1FFF7CFE2FFE7500009D8A445EF18
:1028840014F047EF14F01BEF14F012000650071079
:10289400D8B44FEF14F051EF14F05AEF14F006507F
:1028A4000710D8A458EF14F05AEF14F05FEF14F0A7
:1028B400045064EC18F0ACEF14F020EE04F0065071
:1028C400D9260750DA22DE50DE10D8B46CEF14F0AB
:1028D4006EEF14F089EF14F020EE04F00650D926C0
:1028E4000750DA2210EE02F00650E1260750E222E9
:1028F400DE50E65CE650800A0C6EDE50800A0C580E
:10290400D8B087EF14F089EF14F0ACEF14F020EE98
:1029140002F00650D9260750DA22DECF08F0DDCFC8
:1029240009F006C0D9FF07C0DAFFDECF0AF0DDCF19
:102934000BF008500A24D96E09500B20DA6E04C03B
:10294400DFFF20EE02F00650D9260750DA22DE2AF5
:10295400000EDD2212005AA0B2EF14F0B4EF14F00E
:10296400BEEF14F016C00DF017C00EF014C00FF037
:1029740015C010F03DEC17F019BEC3EF14F0C5EF0D
:1029840014F0CBEF14F018C01DF019C01EF0CFEFF7
:1029940014F0000E1E6E000E1D6E000E1C6E000E56
:1029A4001B6EE1EF14F0000E056E200E046E14C0D1
:1029B40006F015C007F048EC14F01B4A1C2A1D5001
:1029C4001B5C1C50800A1A6E1E50800A1A58D8A02C
:1029D400EEEF14F0F0EF14F0D5EF14F05AB0F5EF79
:1029E40014F0F7EF14F001EF15F016C00DF017C056
:1029F4000EF014C00FF015C010F03DEC17F016C027
:102A040004F017C005F0F3EC17F01D500424146E05
:102A14001E500520156E1200959E959C959A9598CA
:102A240095969594850E076E760EE82EFED7072EA2
:102A3400FCD700D0000E086E8C9E8C9C8C8A8C88EF
:102A44008C968C948C9E8C9C8C8A8C888C868C9492
:102A5400050EE82EFED78C9E8C9C8C8A8C888C96D6
:102A64008C94160E076E6C0EE82EFED7072EFCD73C
:102A740000D0082A030E086442EF15F044EF15F065
:102A84001EEF15F08C9E8C9C8C8A8C988C968C9462
:102A94008C9E8C9C8C8A8C988C868C94050EE82E4B
:102AA400FED78C9E8C9C8C8A8C988C968C94160E5B
:102AB400076E6C0EE82EFED7072EFCD700D0280E2A
:102AC4005FEC12F0100E5FEC12F0010E5FEC12F0EE
:102AD4000F0E5FEC12F01200000E576E53BE77EF2C
:102AE40015F075EF15F07DEF15F0526C531ED8B04C
:102AF400532A010E576E55BE84EF15F082EF15F080
:102B040088EF15F0546C551ED8B0552A5450551002
:102B1400D8B48FEF15F091EF15F0B5EF15F0010E65
:102B2400566E99EF15F0D89054365536562A55AE50
:102B34009EEF15F0A0EF15F095EF15F05450525C90
:102B440055505358D8A0A9EF15F0ABEF15F0AFEFDF
:102B540015F05450525E5550535AD8905532543251
:102B6400562EA0EF15F05750D8B4BBEF15F0BDEFBB
:102B740015F0C1EF15F0526C531ED8B0532A52C051
:102B840052F053C053F012000EEC15F0010E5FEC3E
:102B940012F00C0E5FEC12F0020E0F6E860E0E6E2B
:102BA400990EE82EFED70E2EFCD70F2EFAD700F082
:102BB400030E076E0F0E086E080E096E010EE2EC8E
:102BC40013F0060E076E240E086E080E096E020E30
:102BD400E2EC13F01F0E0F6E710E0E6E1E0EE82E39
:102BE400FED70E2EFCD70F2EFAD700D0010E5FECC5
:102BF40012F0020E0F6E860E0E6E990EE82EFED7A0
:102C04000E2EFCD70F2EFAD700F01200F00E936EA2
:102C1400F19E8A943FEC18F08AA613EF16F018EF91
:102C240016F00001AF6BAF2B1AEF16F00001AF6B7B
:102C3400AF47AF47AF478A50AF19F70BAF198A6E4A
:102C4400020E0001B06F860EAF6F990EE82EFED70C
:102C5400AF2FFCD7B02FFAD720EEC7F002D83DEF44
:102C640016F00500FA6EDE50FD6EDE50FE6EF85072
:102C7400FF6EFA5012000EEF16F055EF00F062EC02
:102C840018F0010E5FEC12F0020E0001A76F860E21
:102C9400A66F990EE82EFED7A62FFCD7A72FFAD73A
:102CA400B60E046E000E056E5AEC0BF0B70E000162
:102CB400946F000E956F2F0E966F080E976FB6C027
:102CC40098F0996BA3EC16F0000E076EB70E086E21
:102CD400000E096E010EE2EC13F052EF16F0120032
:102CE4008EC092F08FC093F0000E0001676F000E4B
:102CF400666F90EF16F08CC043F08DC044F0920ED6
:102D0400456E000E466E90C047F091C048F02FEC1F
:102D140006F04350000166274450672392C0F6FF33
:102D240093C0F7FF0800F5500009D8A49CEF16F0F3
:102D34009EEF16F07DEF16F066C08CF067C08DF044
:102D44001200980E00019E6F000E9F6F94C0A0F0B9
:102D540095C0A1F0000EA36F000EA26F000EA56F28
:102D6400000EA46FA00E8C6F000E8D6F96C08EF0B7
:102D740097C08FF09E0E906F000E916F72EC16F05C
:102D84000001A2519425D96EA3519521DA6E000E4B
:102D9400DF6E1200010E0A6E200E04180510D8B45E
:102DA400D6EF16F0D8EF16F0F1EF16F0F70E066E28
:102DB400FF0E076E04C008F005C009F0065008268F
:102DC40007500922095009E1050E085CD8A0EDEF6F
:102DD40016F0EFEF16F0F1EF16F0000E0A6E0AC0CF
:102DE40004F0056A120020EEA9F0050EDE6AE8067A
:102DF400FDE2A90E0001946F000E956F2A0E966FE6
:102E0400080E976FA6C0D9FFA7C0DAFFDF50A86FDE
:102E1400A851986F996BA3EC16F00A0E076EA90ED1
:102E2400086E000E096E020EE2EC13F01200056E3D
:102E34000550D8A420EF17F022EF17F028EF17F071
:102E4400C150F00B0E09C16E30EF17F005500F089A
:102E5400046EC1500418F00B0418C16ECF0EC116D5
:102E6400C050C70B1009C06EC050F80B0309C06EE8
:102E7400C08EC2801200000E136E000E126E4EEF52
:102E840017F011C004F0056A0FC006F010C007F077
:102E940048EC14F0124A132A12500D24D96E135020
:102EA4000E20DA6EDF50116E1150D8A45CEF17F0CB
:102EB4005EEF17F043EF17F0120017BE6CEF17F038
:102EC400175006E11604D8B06AEF17F06CEF17F04C
:102ED4007AEF17F016C018F017C019F0181E191E53
:102EE400184A192A18C016F019C017F07EEF17F007
:102EF40016C016F017C017F01200660EF66E300EEC
:102F0400F76E000EF86E00EEB1F010EE18F0090046
:102F1400F5CFEEFFE550E150FAE100EE60F02C0E43
:102F2400EE6AE806FDE15B6A5A6A5C905C92000E08
:102F3400F86E000108EF16F0076E07C006F00646AB
:102F44000646C2500618C30B0618C26E080E066E5B
:102F5400CA0EE82EFED7062EFCD7C282C2B2B5EF47
:102F640017F0B7EF17F0B0EF17F0C3CF04F0C4CFEA
:102F740005F01200D00E066EFF0E076E04C008F0B6
:102F840005C009F0065008260750092209500AE135
:102F94000A0E085CD8A0D1EF17F0D4EF17F0010E99
:102FA400D5EF17F0000E046E056A1200B10E000191
:102FB400A66F000EA76FBDEC11F0B10E0001A66F55
:102FC400000EA76F4FEC0CF0B20E0001A66F000EBE
:102FD400A76FF5EC16F0420E0001C76F300EC86FF4
:102FE400120004C006F005C007F0FBEF17F0044A16
:102FF400052A04C0D9FF05C0DAFFDF50D8A405EFC5
:1030040018F007EF18F0F9EF17F00650045C046E9F
:1030140007500558056E120004500602F3CF08F05D
:10302400F4CF09F004500702F350092605500602B4
:10303400F350092608C004F009C005F01200B60ECA
:10304400046E000E056E5AEC0BF00001B651D8B4B4
:103054002EEF18F030EF18F032EF18F0010EB36FC6
:10306400120000FF0000000000000000000000004B
:10307400000000000000000042305BEC18F0C6ECD9
:1030840015F0020E19EC17F04BEC18F055EC18F093
:103094001200B190B18EB192300EB112B184A192EE
:1030A400A292A0821200500EB36E380EB26EB1809E
:1030B4001200D08EF28EF28C120006005C92110087
:0630C400B19012001200A1
:020000040020DA
:08000000FFFFFFFFFFFFFFFF00
:020000040030CA
:0E000000000C191EFF8181FF0FC00FE00F40A2
:00000001FF
