:020000040000FA
:040000003FEF00F0DE
:060008005C8242ED15F0E0
:100018005C80D8CF01F0E8CF02F0E0CF03F0A0A2D7
:1000280018EF00F01AEF00F037EF00F0A1A21FEF71
:1000380000F021EF00F037EF00F0A1920001C62B8D
:100048000A0EC619D8A42BEF00F02DEF00F033EFFD
:1000580000F0000EC66F0A0EDB6F2A0EDC6F500E22
:10006800B36E380EB26E03C0E0FF02C0E8FF01C0F5
:0A007800D8FF5C9010007EEF14F03A
:1008000000543A253032642E2530326420430042B1
:1008100069656E76656E69646F73004261743A252E
:100820006400534943435600233A256400000750AF
:10083000800B106E07500724166E06AE22EF04F0F0
:1008400024EF04F025EF04F016801650D8B42BEFF7
:1008500004F02DEF04F040EF04F01628D8A433EF95
:1008600004F035EF04F03DEF04F0000E046E000ECE
:10087000056E000E066E000E076E068E48EF04F041
:10088000000E046E000E056E000E066E000E076E62
:100890000B50800B101A0B500B24156E0AAE53EF41
:1008A00004F055EF04F056EF04F015801550D8B45D
:1008B0005CEF04F05EEF04F071EF04F01528D8A4AB
:1008C00064EF04F066EF04F06EEF04F0000E086EC3
:1008D000000E096E000E0A6E000E0B6E0A8E79EF86
:1008E00004F0000E086E000E096E000E0A6E000E77
:1008F0000B6E1550D8B47FEF04F081EF04F089EF50
:1009000004F01650D8A487EF04F089EF04F093EFB9
:1009100004F0000E046E000E056E000E066E000E52
:10092000076E2BEF06F00A500402F3CF1BF0F4CF52
:100930001CF01B50116E126A136A146A1C50176E59
:10094000186A196A1A6A09500502F3CF1BF0F4CF2E
:100950001CF01B501126000E1222132214221C50D0
:100960001726000E182219221A2208500602F3CF69
:100970001BF0F4CF1CF01B501126000E1222132284
:1009800014221C501726000E182219221A2213C0F6
:1009900014F012C013F011C012F0116A08500502D1
:1009A000F3CF1BF0F4CF1CF01B5011261C50122269
:1009B000000E1322000E142209500402F3CF1BF084
:1009C000F4CF1CF01B5011261C501222000E1322D3
:1009D000000E142213C014F012C013F011C012F054
:1009E000116A08500402F3CF1BF0F4CF1CF01B5027
:1009F00011261C501222000E1322000E14220A503F
:100A00000502F3CF1BF0F4CF1CF01B5017261C502F
:100A10001822000E1922000E1A2209500602F3CFE6
:100A20001BF0F4CF1CF01B5017261C501822000E90
:100A30001922000E1A220A500602F3CF1BF0F4CF3F
:100A40001CF01B500C6E1C500D6E0E6A0F6A0EC00F
:100A50000FF00DC00EF00CC00DF00C6A0C501726F4
:100A60000D5018220E5019220F501A2211C00CF0EE
:100A700012C00DF013C00EF014C00FF0190E46EFA7
:100A800005F0D8900F320E320D320C32E82E41EFC5
:100A900005F00C5017260D5018220E5019220F5039
:100AA0001A2213C014F012C013F011C012F0116A10
:100AB000155016C00CF00D6A0C26000E0D22820E89
:100AC0000C241B6EFF0E0D201C6E7CEF05F0D890E1
:100AD0001736183619361A3614AE71EF05F073EF63
:100AE00005F074EF05F01780D890113612361336E2
:100AF00014361B06D8A01C0619AE81EF05F083EF53
:100B000005F067EF05F0000E156E14AE8AEF05F0E4
:100B10008CEF05F0B0EF05F0FF0E11140C6EFF0E18
:100B200012140D6EFF0E13140E6E7F0E14140F6E42
:100B30000C500D100E100F10D8B4A1EF05F0A3EF5C
:100B400005F0A7EF05F0010E156EB0EF05F017A048
:100B5000ACEF05F0AEEF05F0B0EF05F0A3EF05F058
:100B60001550D8B4B6EF05F0B8EF05F0DCEF05F09E
:100B7000010E1726000E182219221A221AA0C3EFFE
:100B800005F0C5EF05F0DCEF05F017C00CF018C05C
:100B90000DF019C00EF01AC00FF00F340F320E32E4
:100BA0000D320C320CC017F00DC018F00EC019F049
:100BB0000FC01AF01B4A1C2A1CBEE7EF05F01C50A0
:100BC00008E11B28D8A0E7EF05F0E9EF05F0F3EF07
:100BD00005F0000E176E000E186E800E196E7F0E57
:100BE0001A6E21EF06F01CBE00EF06F01C5006E165
:100BF0001B04D8B0FEEF05F000EF06F00CEF06F096
:100C0000000E176E000E186E000E196E000E1A6E92
:100C1000000E106E21EF06F01BC016F0FF0E171627
:100C2000FF0E18167F0E1916000E1A1616A01BEFCF
:100C300006F01DEF06F01EEF06F0198ED890163064
:100C40001A6E10501A1217C004F018C005F019C01F
:100C500006F01AC007F012002050800B2D6E2050B5
:100C60002024346E1FAE37EF06F039EF06F03AEF6E
:100C700006F034803450D8B440EF06F042EF06F06E
:100C800057EF06F03428D8A448EF06F04AEF06F0F4
:100C900052EF06F0000E1D6E000E1E6E000E1F6E4F
:100CA000000E206E1F8E000E206E5FEF06F0000E0D
:100CB0001D6E000E1E6E000E1F6E000E206E245064
:100CC000800B2D1A24502424356E23AE6AEF06F0D3
:100CD0006CEF06F06DEF06F035803550D8B473EF49
:100CE00006F075EF06F08AEF06F03528D8A47BEF02
:100CF00006F07DEF06F085EF06F0000E216E000E87
:100D0000226E000E236E000E246E238E000E246EC3
:100D100092EF06F0000E216E000E226E000E236E82
:100D2000000E246E2150221023102410D8A49BEF13
:100D300006F09DEF06F0B5EF06F0000E1D6E000EFA
:100D40001E6E000E1F6E000E206E800E1F127F0E94
:100D500020122D5020121DC01DF01EC01EF01FC0FD
:100D60001FF020C020F0F8EF07F03450D8A4BBEFFC
:100D700006F0BDEF06F0C7EF06F0000E1D6E000E88
:100D80001E6E000E1F6E000E206EF8EF07F035503D
:100D900034C025F0266A255E000E265A7F0E2524D3
:100DA0002E6E000E26202F6E1DC029F01EC02AF0C8
:100DB0001FC02BF020C02CF0000E1D6E000E1E6E0A
:100DC000000E1F6E000E206E000E306E000E316E93
:100DD000000E326E000E336E000E356E28EF07F0F7
:100DE0003550D8B4F6EF06F0F8EF06F00FEF07F045
:100DF000D89029362A362B362C36D8901D361E36FA
:100E00001F36203633AE07EF07F009EF07F00AEF81
:100E100007F01D80D89030363136323633362150C7
:100E2000295C22502A5823502B5824502C58D8A0E3
:100E30001CEF07F01EEF07F027EF07F0338C21506F
:100E4000295E22502A5A23502B5A24502C5A352AD4
:100E5000190E35642EEF07F030EF07F0F0EF06F0D3
:100E600029502A102B102C10D8B439EF07F03BEF83
:100E700007F053EF07F0308053EF07F0D8901D369E
:100E80001E361F36203633AE48EF07F04AEF07F024
:100E90004BEF07F01D80D89030363136323633367E
:100EA0002E06D8A02F061FAE58EF07F05AEF07F016
:100EB0003EEF07F0000E356E33AE61EF07F063EFE3
:100EC00007F087EF07F0FF0E3014256EFF0E311488
:100ED000266EFF0E3214276E7F0E3314286E2550B7
:100EE000261027102810D8B478EF07F07AEF07F013
:100EF0007EEF07F0010E356E87EF07F01DA083EF40
:100F000007F085EF07F087EF07F07AEF07F035502D
:100F1000D8B48DEF07F08FEF07F0B3EF07F0010EB5
:100F20001D26000E1E221F22202220A09AEF07F06D
:100F30009CEF07F0B3EF07F01DC025F01EC026F0B0
:100F40001FC027F020C028F028342832273226324C
:100F5000253225C01DF026C01EF027C01FF028C076
:100F600020F02E4A2F2A2FBEBEEF07F02F5008E1A7
:100F70002E28D8A0BEEF07F0C0EF07F0CBEF07F0A8
:100F8000000E2F6E2E68000E1D6E000E1E6E000EDF
:100F90001F6E000E206E2FBED8EF07F02F5006E117
:100FA0002E04D8B0D6EF07F0D8EF07F0E6EF07F041
:100FB000000E2F6E000E2E6E000E1D6E000E1E6EA9
:100FC000000E1F6E000E206E000E2D6E2EC034F02F
:100FD00034A0EDEF07F0EFEF07F0F2EF07F01F8E10
:100FE000F3EF07F01F9ED8903430206EA9EF06F083
:100FF000120045C0D9FF46C0DAFFDECFF6FFDDCFD5
:10100000F7FF0800F550250AD8A409EF08F00BEF08
:1010100008F093EF09F045C0D9FF46C0DAFFDE2A99
:10102000000EDD22000E00017A6F000E796F79C08C
:101030005AF07AC05BF07B697C69000E566E000E38
:10104000556E69EF08F05A8045C0D9FF46C0DAFFF7
:10105000DE2A000EDD2269EF08F05A8224EF08F044
:101060005A8424EF08F05A8624EF08F05A8824EFB7
:1010700008F0000E566E010E556E69EF08F045C07F
:10108000D9FF46C0DAFFDECFF6FFDDCFF7FF08005D
:10109000F550496E4A6A4A50000AD8B452EF08F037
:1010A00039EF08F04950200AD8B433EF08F0030AAA
:1010B000D8B436EF08F0080AD8B430EF08F0060AC2
:1010C000D8B423EF08F01D0AD8B42DEF08F039EF9B
:1010D00008F055505610D8B470EF08F072EF08F0D1
:1010E0003FEF08F05AA077EF08F079EF08F07AEFB9
:1010F00008F05A9245C0D9FF46C0DAFFDECFF6FFAE
:10110000DDCFF7FF0800F5502A0AD8A48AEF08F0CF
:101110008CEF08F0B6EF08F045C0D9FF46C0DAFF03
:10112000DE2A000EDD2247C0D9FF48C0DAFFDFCF3C
:1011300049F0020EDE26DFCF4AF0000EDD2249C064
:10114000D9FF4AC0DAFFDECF79F0DDCF7AF00001B7
:101150007ABFAFEF08F0ADEF08F0F9EF08F05A8072
:10116000796D7A1FD8B07A2BF9EF08F045C0D9FF16
:1011700046C0DAFFDECF0BF0DDCF0CF0F8EC0BF061
:101180000BC079F00CC07AF0CDEF08F045C0D9FF64
:1011900046C0DAFFDE2A000EDD22D00E496EFF0EB9
:1011A0004A6E45C0D9FF46C0DAFFDECFF6FFDDCF7D
:1011B000F7FF0800F5504B6E4C6A49504B264A50D9
:1011C0004C224C500AE10A0E4B5CD8A0EAEF08F022
:1011D000EDEF08F0010EEEEF08F0000E576E586AC2
:1011E00057505810D8A4F7EF08F0F9EF08F0C6EF01
:1011F00008F045C0D9FF46C0DAFFDECFF6FFDDCFED
:10120000F7FF0800F550640AD8B409EF09F00BEFB6
:1012100009F01DEF09F045C0D9FF46C0DAFFDECF67
:10122000F6FFDDCFF7FF0800F550690AD8A41BEFE1
:1012300009F01DEF09F05DEF09F045C0D9FF46C088
:10124000DAFFDE2A000EDD2247C0D9FF48C0DAFFF0
:10125000DFCF49F0020EDE26DFCF4AF0000EDD229E
:1012600049C0D9FF4AC0DAFFDECF4DF0DDCF4EF0E6
:10127000000E4EBEFF0E4F6E506E516E526E536E8C
:10128000546E43C01FF044C020F04DC021F04EC04A
:1012900022F04FC023F050C024F051C025F052C0BE
:1012A00026F053C027F054C028F0AFEC09F01FC05F
:1012B00043F020C044F0AEEF09F045C0D9FF46C06E
:1012C000DAFFDECFF6FFDDCFF7FF0800F550250A85
:1012D000D8A46DEF09F06FEF09F086EF09F045C073
:1012E000D9FF46C0DAFFDE2A000EDD22000E056EB1
:1012F000250E046E43C006F044C007F07AEC11F0EE
:10130000000E446E010E436EAEEF09F045C0D9FFEA
:1013100046C0DAFFDE2A000EDD22000E446E000E0B
:10132000436EAEEF09F045C0D9FF46C0DAFFDECF0D
:10133000F6FFDDCFF7FF0800F550046E056A43C0E5
:1013400006F044C007F07AEC11F045C0D9FF46C062
:10135000DAFFDE2A000EDD2280EF09F0120021C044
:1013600039F022C03AF023C03BF024C03CF025C045
:101370003DF026C03EF027C03FF028C040F040BE00
:10138000C4EF09F0C7EF09F0010EC8EF09F0000E35
:10139000376E386A37503810D8B4D1EF09F0D3EF30
:1013A00009F0E3EF09F0401E3F1E3E1E3D1E3C1EAD
:1013B0003B1E3A1E396C000E3A223B223C223D2253
:1013C0003E223F22402200017CBFE9EF09F0EBEF13
:1013D00009F0ECEF09F05A927CBFF9EF09F07C516B
:1013E00006E17B05D8B0F7EF09F0F9EF09F0FFEF60
:1013F00009F0000E346E010E336E03EF0AF07BC06D
:1014000033F07CC034F079C035F07AC036F0375014
:101410003810D8A40EEF0AF010EF0AF017EF0AF018
:101420005AA415EF0AF017EF0AF01AEF0AF0350682
:10143000D8A03606000E426E1F0E416E000E9C6F45
:101440009EEF0AF04106D8A042067D0E4124D96ED7
:10145000000E4220DA6E39C004F03AC005F03BC0FD
:1014600006F03CC007F03DC008F03EC009F03FC0A8
:101470000AF040C00BF00A0E0C6E000E0D6E000E4E
:101480000E6E000E0F6E000E106E000E116E000E2E
:10149000126E000E136E84EC0DF004C029F005C02E
:1014A0002AF006C02BF007C02CF008C02DF009C0B0
:1014B0002EF00AC02FF00BC030F029C016F02BC060
:1014C00017F05EEC14F01650300FDF6E3306D8A024
:1014D00034063506D8A0360639C004F03AC005F007
:1014E0003BC006F03CC007F03DC008F03EC009F02C
:1014F0003FC00AF040C00BF00A0E0C6E000E0D6EDD
:10150000000E0E6E000E0F6E000E106E000E116EAD
:10151000000E126E000E136EC0EC0CF004C039F019
:1015200005C03AF006C03BF007C03CF008C03DF0F3
:1015300009C03EF00AC03FF00BC040F042BEA9EF28
:101540000AF0425008E14104D8A0A9EF0AF0ABEF3D
:101550000AF0DBEF0AF039503A103B103C103D1016
:101560003E103F104010D8A4B8EF0AF0BAEF0AF0CE
:1015700022EF0AF034BEC7EF0AF0345006E133041C
:10158000D8B0C5EF0AF0C7EF0AF022EF0AF036BE76
:10159000D2EF0AF0365008E13504D8A0D2EF0AF0B5
:1015A000D4EF0AF0DBEF0AF05AB2D9EF0AF0DBEF22
:1015B0000AF022EF0AF037503810D8A4E2EF0AF010
:1015C000E4EF0AF0EBEF0AF05AA4E9EF0AF0EBEFD0
:1015D0000AF009EF0BF04106D8A042063750381048
:1015E000D8A4F5EF0AF0F7EF0AF0FDEF0AF0000ECD
:1015F000326E2B0E316E01EF0BF0000E326E2D0E9F
:10160000316E7D0E4124D96E000E4220DA6E31C05B
:10161000DFFF1FC014F020C015F07D0E4124166EB0
:10162000000E4220176E35C018F036C019F0DFECFE
:1016300011F014C01FF015C020F01200106E1050F1
:10164000D8B425EF0BF027EF0BF049EF0BF00BBEF2
:101650002EEF0BF02CEF0BF049EF0BF008C00CF065
:1016600009C00DF00AC00EF00BC00FF00C1E0D1ECD
:101670000E1E0F1E0C2A000E0D220E220F220CC071
:1016800012F00DC013F00EC014F00FC015F051EFA2
:101690000BF008C012F009C013F00AC014F00BC020
:1016A00015F0085009100A100B10D8A45AEF0BF0CF
:1016B0005CEF0BF066EF0BF0000E086E000E096E8B
:1016C000000E0A6E000E0B6EF7EF0BF0960E116E09
:1016D00070EF0BF0112AD8901532143213321232F7
:1016E000000E12140C6E000E13140D6E000E141466
:1016F0000E6EFE0E15140F6E0C500D100E100F1006
:10170000D8A485EF0BF087EF0BF06AEF0BF095EFA5
:101710000BF0112A010E1226000E1322142215229C
:10172000D8901532143213321232000E12140C6E8D
:10173000000E13140D6E000E14140E6EFF0E151411
:101740000F6E0C500D100E100F10D8A4AAEF0BF056
:10175000ACEF0BF089EF0BF0B4EF0BF01106D89063
:10176000123613361436153614BEB9EF0BF0BBEF34
:101770000BF0C3EF0BF0020E1160C1EF0BF0C3EFE3
:101780000BF0AEEF0BF011B0C8EF0BF0CAEF0BF09F
:10179000CBEF0BF0149ED890113211C00CF00D6AF3
:1017A0000E6A0F6A0CC00FF00E6A0D6A0C6A0C50BC
:1017B00012120D5013120E5014120F501512105019
:1017C000D8B4E5EF0BF0E7EF0BF0EFEF0BF00BBE4B
:1017D000EEEF0BF0ECEF0BF0EFEF0BF0158E12C00D
:1017E00008F013C009F014C00AF015C00BF0120085
:1017F000000E196E000E186E000E126E000E116EA5
:1018000004EF0CF00B4A0C2A010E176E0BC0F6FF0A
:101810000CC0F7FF0800F550200AD8B412EF0CF006
:1018200014EF0CF031EF0CF0F70E0D6EFF0E0E6E94
:101830000BC0F6FF0CC0F7FF0800F5500F6E106AE2
:101840000D500F260E501022105009E1050E0F5CAE
:10185000D8A02DEF0CF02FEF0CF031EF0CF0000EB4
:10186000176E17C013F0146A13501410D8A43BEF6E
:101870000CF03DEF0CF002EF0CF047EF0CF0000E17
:10188000126E010E116E0B4A0C2A7CEF0CF00BC08D
:10189000F6FF0CC0F7FF0800F5500D6E0E6A0E50F3
:1018A000000AD8B456EF0CF07CEF0CF00D502B0A68
:1018B000D8B443EF0CF0060AD8B43FEF0CF07CEF3D
:1018C0000CF018C004F019C005F0000E076E0A0EE7
:1018D000066EF2EC14F00BC0F6FF0CC0F7FF080028
:1018E000F550045E000E055A300E0424186E000EEA
:1018F0000520196E43EF0CF0D00E0D6EFF0E0E6E2C
:101900000BC0F6FF0CC0F7FF0800F5500F6E106A11
:101910000D500F260E50102210500AE10A0E0F5CD7
:10192000D8A095EF0CF098EF0CF0010E99EF0CF0A9
:10193000000E156E166A15501610D8A4A2EF0CF002
:10194000A4EF0CF061EF0CF011501210D8A4ABEF23
:101950000CF0ADEF0CF0BBEF0CF018C00DF019C09F
:101960000EF00D1E0E1E0D4A0E2A0DC00BF00EC0FD
:101970000CF0BFEF0CF018C00BF019C00CF0120007
:10198000000E156E13BEC9EF0CF0C7EF0CF0DBEFC5
:101990000CF0131E121E111E101E0F1E0E1E0D1E09
:1019A0000C6C000E0D220E220F2210221122122288
:1019B0001322010E156E0BBEE2EF0CF0E0EF0CF0FF
:1019C000F4EF0CF00B1E0A1E091E081E071E061E51
:1019D000051E046C000E0522062207220822092299
:1019E0000A220B22010E151A20EE16F0070EDE6AEF
:1019F000E806FDE20C500D100E100F101010111023
:101A000012101310D8B407EF0DF009EF0DF05BEFD3
:101A10000DF0010E146E17EF0DF0D8900C360D3648
:101A20000E360F361036113612361336142A13AE10
:101A30001CEF0DF01EEF0DF00DEF0DF0D8901636E7
:101A40001736183619361A361B361C361D360C500A
:101A5000045C0D5005580E5006580F500758105092
:101A600008581150095812500A5813500B58D8A052
:101A70003CEF0DF03EEF0DF04FEF0DF00C50045E1B
:101A80000D50055A0E50065A0F50075A1050085A5A
:101A90001150095A12500A5A13500B5A1680D890F6
:101AA00013321232113210320F320E320D320C322A
:101AB000142E1EEF0DF01550D8B461EF0DF063EF4A
:101AC0000DF073EF0DF01D1E1C1E1B1E1A1E191E9D
:101AD000181E171E166C000E1722182219221A2221
:101AE0001B221C221D2216C004F017C005F018C0CE
:101AF00006F019C007F01AC008F01BC009F01CC09E
:101B00000AF01DC00BF01200000E156E0BBE8DEF1B
:101B10000DF08BEF0DF09FEF0DF00B1E0A1E091E4E
:101B2000081E071E061E051E046C000E0522062256
:101B30000722082209220A220B22010E156E13BE6B
:101B4000A6EF0DF0A4EF0DF0B6EF0DF0131E121E70
:101B5000111E101E0F1E0E1E0D1E0C6C000E0D22EF
:101B60000E220F2210221122122213220C500D10CD
:101B70000E100F101010111012101310D8B4C3EF64
:101B80000DF0C5EF0DF00DEF0EF0010E146ED3EF5A
:101B90000DF0D8900C360D360E360F361036113645
:101BA00012361336142A13AED8EF0DF0DAEF0DF01B
:101BB000C9EF0DF00C50045C0D5005580E5006583E
:101BC0000F500758105008581150095812500A5811
:101BD00013500B58D8A0EFEF0DF0F1EF0DF001EF1F
:101BE0000EF00C50045E0D50055A0E50065A0F5060
:101BF000075A1050085A1150095A12500A5A1350D5
:101C00000B5AD89013321232113210320F320E3278
:101C10000D320C32142EDAEF0DF01550D8B413EF4C
:101C20000EF015EF0EF025EF0EF00B1E0A1E091E2A
:101C3000081E071E061E051E046C000E0522062245
:101C40000722082209220A220B2204C004F005C040
:101C500005F006C006F007C007F008C008F009C08C
:101C600009F00AC00AF00BC00BF01200066E8C9649
:101C70008C8406C004F0070E056E04340432052E71
:101C80003DEF0EF0010E0416043204328C5004189D
:101C90007F0B04188C6E06C004F0060E056E04342B
:101CA0000432052E4FEF0EF0010E0416043A0446DE
:101CB00004468C500418BF0B04188C6E06C004F048
:101CC000050E056E04340432052E62EF0EF0010E8F
:101CD0000416043A04468C500418DF0B04188C6E6A
:101CE00006C004F0040E056E04340432052E74EFB1
:101CF0000EF0010E0416043A8C500418EF0B041871
:101D00008C6E030EE82EFED700F08C86050EE82EB2
:101D1000FED78C9606C004F0030E056E0434043220
:101D2000052E8EEF0EF0010E0416043204328C5094
:101D300004187F0B04188C6E06C004F004340432BF
:101D400004340432010E0416043A044604468C504E
:101D50000418BF0B04188C6E06C004F0010E056E4B
:101D600004340432052EB0EF0EF0010E0416043ACE
:101D700004468C500418DF0B04188C6E06C004F067
:101D8000010E0416043A8C500418EF0B04188C6EE4
:101D9000030EE82EFED700F08C86050EE82EFED747
:101DA0008C96050EE82EFED7160E046E6C0EE82EED
:101DB000FED7042EFCD700D01200066E8C968C94B1
:101DC000046A06AE01D0042A010E0416043204325D
:101DD0008C5004187F0B04188C6E06C004F0060E9D
:101DE000056ED8900432052EF1EF0EF0010E0416A8
:101DF000043A044604468C500418BF0B04188C6E39
:101E000006C004F0050E056ED8900432052E04EFCE
:101E10000FF0010E0416043A04468C500418DF0B30
:101E200004188C6E06C004F0043A0F0E0416010E5E
:101E30000416043A8C500418EF0B04188C6E030E31
:101E4000E82EFED700F08C86050EE82EFED78C9685
:101E500006C004F0D8900432D8900432D8900432EE
:101E6000010E0416043204328C5004187F0B04183F
:101E70008C6E06C004F0D8900432D8900432010E63
:101E80000416043A044604468C500418BF0B041888
:101E90008C6E06C004F0D8900432010E0416043A89
:101EA00004468C500418DF0B04188C6E06C004F036
:101EB000010E0416043A8C500418EF0B04188C6EB3
:101EC000030EE82EFED700F08C86050EE82EFED716
:101ED0008C96160E046E6C0EE82EFED7042EFCD7E0
:101EE00000D0120020EEB7F0080EDE6AE806FDE230
:101EF000000E9DEC14F004C008F005C009F00A6A59
:101F00000B6A000E1EEC0BF008C0C0F009C0C1F057
:101F10000AC0C2F00BC0C3F0F60E086E280E096EA0
:101F20009C0E0A6E400E0B6EC0C004F0C1C005F0DE
:101F3000C2C006F0C3C007F017EC04F004C01DF0E7
:101F400005C01EF006C01FF007C020F0000E216E75
:101F5000000E226E200E236E410E246E2CEC06F035
:101F60001DC0C0F01EC0C1F01FC0C2F020C0C3F031
:101F7000B70E0001A56F000EA66F010EA76F080E29
:101F8000A86FC0C036F0C1C037F0C2C038F0C3C0BF
:101F900039F091EC10F036500001A96FAA6B000ED9
:101FA000086E000E096EC80E0A6E420E0B6EC0C09F
:101FB00004F0C1C005F0C2C006F0C3C007F017ECC2
:101FC00004F004C036F005C037F006C038F007C092
:101FD00039F091EC10F03650406E416A000E436EBD
:101FE000640E426EA0EC12F040500001AB6FAC6B7F
:101FF000A2EC13F0000E076EB70E086E000E096E0D
:10200000010E14EC11F0120020EEB7F0070EDE6A9C
:10201000E806FDE2010E9DEC14F004C008F005C0D6
:1020200009F00A6A0B6A000E1EEC0BF008C0BFF044
:1020300009C0C0F00AC0C1F00BC0C2F0000E086EAB
:10204000000E096EA00E0A6E400E0B6EBFC004F0AB
:10205000C0C005F0C1C006F0C2C007F017EC04F024
:1020600004C01DF005C01EF006C01FF007C020F020
:10207000000E216E000E226E800E236E440E246E22
:102080002CEC06F01DC0BFF01EC0C0F01FC0C1F098
:1020900020C0C2F0B70E0001A56F000EA66F1B0E88
:1020A000A76F080EA86F000E216E000E226EA00E04
:1020B000236E400E246E000E086E000E096EC80ED0
:1020C0000A6E420E0B6EBFC004F0C0C005F0C1C066
:1020D00006F0C2C007F017EC04F004C01DF005C004
:1020E0001EF006C01FF007C020F02CEC06F01DC04B
:1020F00036F01EC037F01FC038F020C039F091EC28
:1021000010F036C0A9F037C0AAF0A2EC13F0000E10
:10211000076EB70E086E000E096E020E14EC11F079
:102120001200383439343F6E3F50D8A49AEF10F083
:102130009CEF10F0A6EF10F0000E366E000E376E1A
:10214000000E386E000E396E13EF11F036C03AF003
:1021500037C03BF038C03CF039C03DF0200EB6EF40
:1021600010F0D8903D323C323B323A32E82EB1EF9B
:1021700010F03A503E6E388EFF0E3616FF0E3716B0
:10218000FF0E3816000E3916960E3F5E3FBECDEF9D
:1021900010F0CBEF10F0E3EF10F03F50800A970FF4
:1021A000D8B0D5EF10F0D7EF10F0D9EF10F09CEFCA
:1021B00010F0D89039323832373236323F3ED9EFCC
:1021C00010F0FBEF10F01F0E3F64E9EF10F0EBEFA3
:1021D00010F0F3EF10F09CEF10F0D8903636373651
:1021E000383639363F063F50D8A4F9EF10F0FBEFF0
:1021F00010F0EDEF10F03E50D8B401EF11F003EF06
:1022000011F00BEF11F0391E381E371E366C000E20
:1022100037223822392236C036F037C037F038C07E
:1022200038F039C039F012000C6E2BEF11F0075066
:10223000800F0D6E48EF11F00750C00F0D6E48EF84
:1022400011F00750940F0D6E48EF11F00750D40FA6
:102250000D6E48EF11F00C500A6E0B6A0B50000A1D
:10226000D8B435EF11F048EF11F00A50010AD8B494
:1022700017EF11F0030AD8B41CEF11F0010AD8B41B
:1022800021EF11F0070AD8B426EF11F048EF11F052
:102290000D50DDEC0EF061EF11F008C0F6FF09C043
:1022A000F7FFF86A070EF76403D00800F55005D071
:1022B000F6CFE1FFF7CFE2FFE75036EC0EF0084A29
:1022C000092A08C0F6FF09C0F7FFF86A070EF7648D
:1022D00003D00800F55005D0F6CFE1FFF7CFE2FFBD
:1022E000E7500009D8A477EF11F079EF11F04DEF26
:1022F00011F0120006500710D8B481EF11F083EFEF
:1023000011F08CEF11F006500710D8A48AEF11F0ED
:102310008CEF11F091EF11F0045046EC15F0DEEF68
:1023200011F020EE04F00650D9260750DA22DE50D4
:10233000DE10D8B49EEF11F0A0EF11F0BBEF11F05A
:1023400020EE04F00650D9260750DA2210EE02F0F3
:102350000650E1260750E222DE50E65CE650800A95
:102360000C6EDE50800A0C58D8B0B9EF11F0BBEFFC
:1023700011F0DEEF11F020EE02F00650D9260750E2
:10238000DA22DECF08F0DDCF09F006C0D9FF07C0A2
:10239000DAFFDECF0AF0DDCF0BF008500A24D96E49
:1023A00009500B20DA6E04C0DFFF20EE02F0065069
:1023B000D9260750DA22DE2A000EDD2212005AA0AA
:1023C000E4EF11F0E6EF11F0F0EF11F016C00DF0B0
:1023D00017C00EF014C00FF015C010F03CEC14F054
:1023E00019BEF5EF11F0F7EF11F0FDEF11F018C085
:1023F0001DF019C01EF001EF12F0000E1E6E000E4F
:102400001D6E000E1C6E000E1B6E13EF12F0000E00
:10241000056E200E046E14C006F015C007F07AECAD
:1024200011F01B4A1C2A1D501B5C1C50800A1A6E9E
:102430001E50800A1A58D8A020EF12F022EF12F096
:1024400007EF12F05AB027EF12F029EF12F033EF36
:1024500012F016C00DF017C00EF014C00FF015C02A
:1024600010F03CEC14F016C004F017C005F0D7ECE7
:1024700014F01D500424146E1E500520156E120019
:10248000959E959C959A959895969594850E076E30
:10249000760EE82EFED7072EFCD700D0000E086E71
:1024A0008C9E8C9C8C8A8C888C968C948C9E8C9C1C
:1024B0008C8A8C888C868C94050EE82EFED78C9E98
:1024C0008C9C8C8A8C888C968C94160E076E6C0E65
:1024D000E82EFED7072EFCD700D0082A030E08648A
:1024E00074EF12F076EF12F050EF12F08C9E8C9C8D
:1024F0008C8A8C988C968C948C9E8C9C8C8A8C98D4
:102500008C868C94050EE82EFED78C9E8C9C8C8A33
:102510008C988C968C94160E076E6C0EE82EFED757
:10252000072EFCD700D0280EDDEC0EF0100EDDECEF
:102530000EF0010EDDEC0EF00F0EDDEC0EF01200D1
:10254000000E456E41BEA9EF12F0A7EF12F0AFEFFB
:1025500012F0406C411ED8B0412A010E456E43BEB8
:10256000B6EF12F0B4EF12F0BAEF12F0426C431E65
:10257000D8B0432A42504310D8B4C1EF12F0C3EF91
:1025800012F0E7EF12F0010E446ECBEF12F0D8908C
:1025900042364336442A43AED0EF12F0D2EF12F067
:1025A000C7EF12F04250405C43504158D8A0DBEFD7
:1025B00012F0DDEF12F0E1EF12F04250405E4350B6
:1025C000415AD89043324232442ED2EF12F0455055
:1025D000D8B4EDEF12F0EFEF12F0F3EF12F0406C21
:1025E000411ED8B0412A40C040F041C041F0120025
:1025F00040EC12F0010EDDEC0EF00C0EDDEC0EF0F6
:10260000020E0F6E860E0E6E990EE82EFED70E2E5F
:10261000FCD70F2EFAD700F0030E076E0F0E086ED0
:10262000080E096E010E14EC11F0060E076E220E54
:10263000086E080E096E020E14EC11F01F0E0F6EDC
:10264000710E0E6E1E0EE82EFED70E2EFCD70F2E2C
:10265000FAD700D0010EDDEC0EF0020E0F6E860EE2
:102660000E6E990EE82EFED70E2EFCD70F2EFAD73F
:1026700000F0120093968A9416EC15F08AA643EFA8
:1026800013F048EF13F00001C46BC42B4AEF13F0B2
:102690000001C46BC447C447C4478A50C419F70B30
:1026A000C4198A6E020E0001C56F860EC46F990EA2
:1026B000E82EFED7C42FFCD7C52FFAD720EEDBF0CB
:1026C00002D86DEF13F00500FA6EDE50FD6EDE509D
:1026D000FE6EF850FF6EFA5012003EEF13F03FEF1F
:1026E00000F09FC0A3F0A0C0A4F0000E0001786F1E
:1026F000000E776F8FEF13F09DC043F09EC044F043
:10270000A30E456E000E466EA1C047F0A2C048F071
:10271000F9EC07F043500001772744507823A3C019
:10272000F6FFA4C0F7FF0800F5500009D8A49BEFFE
:1027300013F09DEF13F07CEF13F077C09DF078C09D
:102740009EF01200A90E0001AF6F000EB06FA5C081
:10275000B1F0A6C0B2F0000EB46F000EB36F000E61
:10276000B66F000EB56FB10E9D6F000E9E6FA7C0C5
:102770009FF0A8C0A0F0AF0EA16F000EA26F71EC89
:1027800013F00001B351A525D96EB451A621DA6E1C
:10279000000EDF6E1200010E0A6E200E04180510E6
:1027A000D8B4D5EF13F0D7EF13F0F0EF13F0F70E26
:1027B000066EFF0E076E04C008F005C009F0065053
:1027C000082607500922095009E1050E085CD8A027
:1027D000ECEF13F0EEEF13F0F0EF13F0000E0A6ED3
:1027E0000AC004F0056A120020EEB9F0050EDE6A98
:1027F000E806FDE2B90E0001A56F000EA66F280ED7
:10280000A76F080EA86FB7C0D9FFB8C0DAFFDF50B6
:10281000596E5950A96FAA6BA2EC13F0080E076EFF
:10282000B90E086E000E096E020E14EC11F01200C3
:10283000056E0550D8A41FEF14F021EF14F027EF18
:1028400014F0C150F00B0E09C16E2FEF14F00550BB
:102850000F08046EC1500418F00B0418C16ECF0E9F
:10286000C116C050C70B1009C06EC050F80B030949
:10287000C06EC08EC2801200000E136E000E126E6B
:102880004DEF14F011C004F0056A0FC006F010C03F
:1028900007F07AEC11F0124A132A12500D24D96E67
:1028A00013500E20DA6EDF50116E1150D8A45BEF7A
:1028B00014F05DEF14F042EF14F0120017BE6BEF4E
:1028C00014F0175006E11604D8B069EF14F06BEF5E
:1028D00014F079EF14F016C018F017C019F0181E94
:1028E000191E184A192A18C016F019C017F07DEFE2
:1028F00014F016C016F017C017F01200440EF66E52
:102900002A0EF76E000EF86E00EEC6F010EE17F00D
:102910000900F5CFEEFFE550E150FAE100EE60F07E
:102920003D0EEE6AE806FDE15B6A5A6A5C905C92D5
:10293000000EF86E00013AEF13F0076E07C006F0C4
:1029400006460646C2500618C30B0618C26E080E8D
:10295000066ECA0EE82EFED7062EFCD7C282C2B281
:10296000B4EF14F0B6EF14F0AFEF14F0C3CF04F0EF
:10297000C4CF05F01200D00E066EFF0E076E04C025
:1029800008F005C009F00650082607500922095032
:102990000AE10A0E085CD8A0D0EF14F0D3EF14F0CF
:1029A000010ED4EF14F0000E046E056A120004C08C
:1029B00006F005C007F0DFEF14F0044A052A04C052
:1029C000D9FF05C0DAFFDF50D8A4E9EF14F0EBEF30
:1029D00014F0DDEF14F00650045C046E0750055847
:1029E000056E120004500602F3CF08F0F4CF09F090
:1029F00004500702F350092605500602F350092639
:102A000008C004F009C005F0120072EC0FF004ECED
:102A100010F0C70E0001B76F000EB86FF4EC13F0A2
:102A20008A0E0001DB6F2A0EDC6F12003EEC15F0FF
:102A3000F8EC12F0020E18EC14F02EEC15F038EC55
:102A400015F0120000FF0000000000000000000070
:0B2A50000000000000000000008A2AC7
:102A5C00B190B18EB192300EB112B184A192A2920A
:102A6C00A0821200500EB36E380EB26EB1801200FE
:102A7C00D08EF28EF28C120006005C9211001200C5
:022A8C00120036
:020000040020DA
:08000000FFFFFFFFFFFFFFFF00
:020000040030CA
:0E000000000C191EFF8181FF0FC00FE00F40A2
:00000001FF
